:020000040800F2
:10000000000002205D0B0008AD090008B5090008DA
:10001000BD090008C5090008CD090008000000005E
:10002000000000000000000000000000D5090008EA
:10003000E109000800000000ED090008F9090008C6
:10004000AD0B0008AD0B0008AD0B0008AD0B0008B0
:10005000AD0B0008AD0B0008AD0B0008AD0B0008A0
:10006000AD0B0008AD0B0008AD0B0008AD0B000890
:10007000AD0B0008AD0B0008AD0B0008AD0B000880
:10008000AD0B0008AD0B0008AD0B0008AD0B000870
:10009000AD0B0008AD0B0008AD0B0008AD0B000860
:1000A000AD0B0008AD0B0008AD0B0008AD0B000850
:1000B000AD0B0008AD0B0008AD0B0008AD0B000840
:1000C000AD0B0008AD0B0008AD0B0008AD0B000830
:1000D000AD0B0008AD0B0008AD0B0008AD0B000820
:1000E000050A0008AD0B0008AD0B0008AD0B0008B9
:1000F000AD0B0008AD0B0008AD0B0008AD0B000800
:10010000AD0B0008AD0B0008AD0B0008AD0B0008EF
:10011000AD0B0008AD0B0008AD0B0008AD0B0008DF
:10012000AD0B0008AD0B0008AD0B0008AD0B0008CF
:10013000AD0B0008AD0B0008AD0B0008AD0B0008BF
:10014000AD0B0008AD0B0008AD0B00081D0A000840
:10015000AD0B0008AD0B0008AD0B0008AD0B00089F
:10016000AD0B0008AD0B0008AD0B0008AD0B00088F
:10017000AD0B0008310A0008AD0B000800000000BC
:04018000AD0B0008BB
:1001840010B5054C237833B9044B13B10448AFF3CD
:1001940000800123237010BD000200200000000035
:1001A400ECD5010808B5034B1BB103490348AFF371
:1001B400008008BD0000000004020020ECD5010806
:1001C40010F8012B11F8013B012A28BF9A42F7D0FD
:1001D400D01A7047034613F8012B002AFBD1181AD2
:1001E4000138704753B94AB9002908BF00281CBF19
:1001F4004FF0FF314FF0FF3000F08CB9ADF1080C37
:100204006DE904CE00F006F8DDF804E0DDE9022330
:1002140004B070472DE9F047089D8E460446884691
:10022400002B4AD18A42174662D9B2FA82F64EB1FD
:10023400C6F1200301FA06F820FA03F3B74043EAB3
:100244000808B4404FEA174EB8FBFEF11FFA87FCCA
:100254000EFB118801FB0CF2230C43EA08439A427B
:1002640009D9FB1801F1FF3080F0EB809A4240F28B
:10027400E88002393B449A1AB2FBFEF00EFB1022CE
:1002840000FB0CFCA3B243EA02439C4509D9FB18CA
:1002940000F1FF3280F0D7809C4540F2D4803B448B
:1002A400023840EA01400021A3EB0C031DB10022F7
:1002B400F340C5E90032BDE8F0878B4205D90DB1A2
:1002C400C5E9000100210846F5E7B3FA83F10029E6
:1002D40046D1734502D3824200F20881841A6EEB40
:1002E400030201209046002DE5D0C5E90048E2E76D
:1002F400002A00F09180B2FA82F6002E40F0A58028
:100304008A1A0121030C4FEA174E80B2BCB2B2FB29
:10031400FEFC0EFB1C2243EA024304FB0CF29A424D
:1003240007D9FB180CF1FF3802D29A4200F2E3809D
:10033400C4469B1AB3FBFEF20EFB123302FB04F419
:1003440040EA03439C4207D9FB1802F1FF3002D272
:100354009C4200F2CD8002461B1B42EA0C40A5E7FA
:10036400C1F120068B4022FA06F71F432EFA06FA43
:100374004FEA1749BAFBF9F80EFA01FE20FA06F320
:1003840009FB18AA1FFA87FC43EA0E0300FA01FED0
:1003940008FB0CF01C0C44EA0A44A04202FA01F2E5
:1003A4000AD93C1908F1FF3A80F09E80A04240F23D
:1003B4009B80A8F102083C44241A98B2B4FBF9F3D8
:1003C40009FB134403FB0CFC40EA0444A44509D98B
:1003D4003C1903F1FF3080F08580A44540F282800F
:1003E400023B3C4443EA0840A4EB0C04A0FB028C0F
:1003F40064454346E14664D361D05DB1BEEB03027C
:1004040064EB090404FA06F622FA01F31E43CC4015
:10041400C5E9006400214EE7B1FBF2FC010C41EA9E
:100424000E4180B240EA01423B46B1FBF7F1384647
:100434003C46B846BE462026A2EB080241EA0C41DF
:1004440065E7014617E710462BE7C6F120012EFAAF
:1004540001FCB7400EFA06FE20FA01F141EA0E0152
:100464004FEA174EBCFBFEF8BCB20EFB18CC08FBDF
:1004740004F90A0C42EA0C42B04091454FEA104399
:1004840080B23ED9BA1808F1FF3C01D291451FD879
:10049400A2EB0902B2FBFEF909FB04F80EFB192AD0
:1004A4008AB242EA0A42424529D2BA1809F1FF3116
:1004B400C2D24245C0D2A9F102013A44BCE7C645C2
:1004C4009BD2B8EB02036CEB070C0138E14694E7CE
:1004D400A7EB09094A44B2FBFEF9A8F1020C09FB97
:1004E40004F8DBE703467DE7D04665E70846FAE60D
:1004F4003B44023A30E7ACF1020C3B4419E749466D
:100504009AE7A2EB0902B2FBFEF9C44609FB04F820
:10051400C4E700BF704700BF80B586B000AFF86085
:10052400B9607A600023FB820BE0B9684B1CBB60A6
:1005340064230122084805F0A9FFFB8A01339BB21A
:10054400FB82B7F916307A689A42EEDC7B6818466B
:100554001837BD4680BD00BF6402002080B582B05C
:1005640000AF0346FB80FB88B3F5006F0DD14FF459
:100574000061104801F050FF0346002B16D14FF4E0
:1005840000510C4801F077FF10E0FB88B3F5805F61
:100594000CD14FF48051074801F03EFF0346002B75
:1005A40004D14FF48041034801F065FF00BF0837D0
:1005B400BD4680BD0010024080B500AF00F0F6FAE1
:1005C40000F01CF800F0B4F800F05EF800F086F8D3
:1005D4001AF03EFF08F0F2FB1BF03EFC08F008FCAA
:1005E40005481CF00BFA11F0E1FC08F027FD1BF0A4
:1005F40059FC00BFF9E700BF04D6010880B592B0EA
:1006040000AF07F118033022002118461CF0E6FA67
:100614003B1D00221A605A609A60DA601A61012355
:10062400BB610123FB6102233B634FF480037B63C3
:100634001923BB63C023FB6302233B6404237B6451
:1006440007F11803184605F07DFA0346002B01D084
:1006540000F000F90F237B600223BB600023FB60E2
:100664004FF4A0533B614FF480537B613B1D032146
:10067400184605F0BBFC0346002B01D000F0EAF855
:1006840000BF4837BD4680BD80B500AF114B124A4C
:100694001A60104B4FF4E1325A600E4B00229A60FC
:1006A4000C4B0022DA600B4B00221A61094B0C221E
:1006B4005A61084B00229A61064B0022DA61054810
:1006C40005F094FE0346002B01D000F0C3F800BFF0
:1006D40080BD00BF1C0200200010014080B500AFA7
:1006E400114B124A1A60104B4FF4E1325A600E4B10
:1006F40000229A600C4B0022DA600B4B00221A6134
:10070400094B0C225A61084B00229A61064B0022C5
:10071400DA61054805F06AFE0346002B01D000F0BB
:1007240099F800BF80BD00BF64020020004800406B
:1007340080B58AB000AF07F1140300221A605A6032
:100744009A60DA601A6100233B61404B1B6B3F4A9D
:1007540043F0100313633D4B1B6B03F010033B6129
:100764003B690023FB60394B1B6B384A43F0800321
:100774001363364B1B6B03F08003FB60FB680023A1
:10078400BB60324B1B6B314A43F0040313632F4BA2
:100794001B6B03F00403BB60BB6800237B602B4B23
:1007A4001B6B2A4A43F001031363284B1B6B03F0B2
:1007B40001037B607B6800233B60244B1B6B234A53
:1007C40043F002031363214B1B6B03F002033B60F2
:1007D4003B6801224FF460411D4801F034FE4FF4A0
:1007E40000637B614FF48813BB610023FB6107F155
:1007F40014031946164801F071FC4FF480537B61D1
:100804004FF40413BB610023FB6107F11403194681
:100814000F4801F063FC4FF460437B610123BB612B
:100824000023FB6100233B6207F1140319460848C7
:1008340001F054FC00220021282000F020FB282095
:1008440000F039FB00BF2837BD4680BD00380240A8
:100854000010024080B400AF72B600BF00BFFDE7D5
:1008640080B483B000AF00237B600F4B5B6C0E4AF7
:1008740043F4804353640C4B5B6C03F480437B6010
:100884007B6800233B60084B1B6C074A43F0805392
:100894001364054B1B6C03F080533B603B6800BF43
:1008A4000C37BD4680BC70470038024080B58CB020
:1008B40000AF786007F11C0300221A605A609A6046
:1008C400DA601A617B681B68324A93422CD1002398
:1008D400BB61314B5B6C304A43F0100353642E4BC5
:1008E4005B6C03F01003BB61BB6900237B612A4B83
:1008F4001B6B294A43F002031363274B1B6B03F062
:1009040002037B617B69C023FB6102233B620023FA
:100914007B620323BB620723FB6207F11C031946B6
:100924001E4801F0DBFB31E07B681B681C4A9342E4
:100934002CD100233B61184B1B6C174A43F48023D2
:100944001364154B1B6C03F480233B613B69002348
:10095400FB60114B1B6B104A43F0040313630E4BF3
:100964001B6B03F00403FB60FB684FF44063FB6103
:1009740002233B6200237B620323BB620723FB62E7
:1009840007F11C031946074801F0A8FB00BF3037E4
:10099400BD4680BD00100140003802400004024002
:1009A400004800400008024080B400AF00BFFDE7EB
:1009B40080B400AF00BFFDE780B400AF00BFFDE727
:1009C40080B400AF00BFFDE780B400AF00BFFDE717
:1009D40080B400AF00BFBD4680BC704780B400AF98
:1009E40000BFBD4680BC704780B400AF00BFBD46A9
:1009F40080BC704780B500AF00F02AF900BF80BD0D
:100A040080B500AF4FF4006001F04EFD4FF480500C
:100A140001F04AFD00BF80BD80B500AF024803F07D
:100A2400A2FF00BF80BD00BFDC85002080B500AF01
:100A3400024802F031F800BF80BD00BF8C8E002058
:100A440080B586B000AFF860B9607A6000237B613E
:100A54000AE0AFF300800146BB685A1CBA60CAB210
:100A64001A707B6901337B617A697B689A42F0DB97
:100A74007B6818461837BD4680BD80B483B000AF8C
:100A840078604FF0FF3318460C37BD4680BC704782
:100A940080B483B000AF786039603B684FF4005293
:100AA4005A60002318460C37BD4680BC704780B49A
:100AB40083B000AF7860012318460C37BD4680BC74
:100AC400704780B485B000AFF860B9607A600023E5
:100AD40018461437BD4680BC7047000080B487B008
:100AE40000AF7860144A154BD31A7B617B693B6174
:100AF400134B1B68002B02D1114B124A1A60104B86
:100B04001A687B6813443A699A4205D20E4B0C2248
:100B14001A604FF0FF3309E0094B1B68FB60084B78
:100B24001A687B681344064A1360FB6818461C372E
:100B3400BD4680BC704700BF0000022000040000D6
:100B4400AC020020B8930020B093002080B400AF22
:100B540000BFBD4680BC7047DFF834D0FFF7F6FF16
:100B64000C480D490D4A002302E0D458C450043304
:100B7400C4188C42F9D30A4A0A4C002301E01360DA
:100B84000432A242FBD31CF0A7F8FFF715FD70470F
:100B9400000002200000002000020020B00902082A
:100BA40000020020B8930020FEE7000080B500AFEB
:100BB4000E4B1B680D4A43F4007313600B4B1B6808
:100BC4000A4A43F480631360084B1B68074A43F4E2
:100BD40080731360032000F047F90F2000F008F839
:100BE400FFF73EFE0023184680BD00BF003C0240D4
:100BF40080B582B000AF7860124B1A68124B1B7834
:100C040019464FF47A73B3FBF1F3B2FBF3F31846CE
:100C140000F05FF90346002B01D001230EE07B684E
:100C24000F2B0AD8002279684FF0FF3000F027F923
:100C3400064A7B681360002300E001231846083746
:100C4400BD4680BD000000200800002004000020F4
:100C540080B400AF054B1B781A46054B1B68134440
:100C6400034A136000BFBD4680BC704708000020E3
:100C7400B002002080B400AF024B1B681846BD468A
:100C840080BC7047B002002080B584B000AF7860AB
:100C9400FFF7F0FFB8607B68FB60FB68B3F1FF3FD0
:100CA40005D00A4B1B781A46FB681344FB6000BF4F
:100CB400FFF7E0FF0246BB68D31AFA689A42F7D8F6
:100CC40000BF00BF1037BD4680BD00BF0800002034
:100CD40080B485B000AF78607B6803F00703FB60E5
:100CE4000C4BDB68BB60BA684FF6FF031340BB6074
:100CF400FB681A02BB68134343F0BF6343F4003339
:100D0400BB60044ABB68D36000BF1437BD4680BCD7
:100D1400704700BF00ED00E080B400AF044BDB6817
:100D24001B0A03F007031846BD4680BC704700BF8A
:100D340000ED00E080B483B000AF0346FB7197F987
:100D44000730002B0BDBFB7903F01F02064997F9F0
:100D540007305B09012000FA02F241F8232000BFAA
:100D64000C37BD4680BC704700E100E080B483B01E
:100D740000AF03463960FB7197F90730002B0ADB9B
:100D84003B68DAB20C4997F907301201D2B20B442E
:100D940083F800230AE03B68DAB20849FB7903F0E0
:100DA4000F03043B1201D2B20B441A7600BF0C3776
:100DB400BD4680BC704700BF00E100E000ED00E0EC
:100DC40080B489B000AFF860B9607A60FB6803F062
:100DD4000703FB61FB69C3F10703042B28BF04234A
:100DE400BB61FB690433062B02D9FB69033B00E0BA
:100DF40000237B614FF0FF32BB6902FA03F3DA434D
:100E0400BB681A407B699A404FF0FF317B6901FA55
:100E140003F3D9437B680B40134318462437BD467C
:100E240080BC704780B582B000AF78607B68013BBE
:100E3400B3F1807F01D301230FE00A4A7B68013BB1
:100E440053600F214FF0FF30FFF790FF054B002256
:100E54009A60044B07221A60002318460837BD46DF
:100E640080BD00BF10E000E080B582B000AF7860C4
:100E74007868FFF72DFF00BF0837BD4680BD80B5F9
:100E840086B000AF0346B9607A60FB7300237B61D0
:100E9400FFF742FF78617A68B9687869FFF790FFD5
:100EA400024697F90F3011461846FFF75FFF00BF5F
:100EB4001837BD4680BD80B582B000AF0346FB71D4
:100EC40097F907301846FFF735FF00BF0837BD46CE
:100ED40080BD80B582B000AF78607868FFF7A2FF6C
:100EE400034618460837BD4680BD000080B588B06B
:100EF40000AF78600023FB610023FB60A34BBB6160
:100F040000237B6100233B617B68002B01D101231B
:100F140073E17B6893F84430DBB2002B06D17B6825
:100F2400002283F84520786808F094F80023BB6019
:100F3400974B5B6C964A43F480435364944B5B6CCD
:100F440003F48043BB60BB68924B5B68914A23F413
:100F5400000353608F4B5A687B681B6A8D491343A7
:100F64004B607B681B6803F580531B687A681268C2
:100F740043F0010302F580521360FFF77BFE7861B2
:100F840011E0FFF777FE02467B69D31AB3F5FA7FC7
:100F940009D97B68032283F844207B68002283F804
:100FA4004520032329E17B681B6803F580531B68F4
:100FB40003F00103002BE4D17B681B681B69FB6110
:100FC400FB6923F01C03FB6105F0C2F9B861BB693E
:100FD400714A934208D9BB69704A934204D8FB69A9
:100FE40043F00803FB611AE0BB696C4A934208D9D9
:100FF400BB69664A934204D2FB6943F00C03FB616C
:101004000DE0BB69614A934203D3BB69644A9342CE
:1010140004D9FB6943F00403FB6100E000BF7B6873
:101024001B68FA691A614FF400420021786800F0E5
:101034008EFB0346002B0BD001233B613969786892
:1010440000F044FD7B68012283F844200123D4E0AE
:10105400FF20FFF719FE7B685B68002B00F0A2807D
:10106400FFF708FE786107F10C031A46012178683E
:1010740000F005FBFFF7FEFD02467B69D31A41F23F
:10108400883293420FD901233B613969786800F0B3
:101094001DFD7B68012283F844207B68002283F8CD
:1010A40045200323A9E0FB6803F00403002BDAD0F6
:1010B4004FF480520021786800F049FB0346002B6E
:1010C4000BD001233B613969786800F0FFFC7B6831
:1010D400012283F8442001238FE0FFF7CBFD7861E0
:1010E40007F10C031A460121786800F0C8FAFFF7EB
:1010F400C1FD02467B69D31A41F2883293420FD96B
:1011040001233B613969786800F0E0FC7B680122C7
:1011140083F844207B68002283F8452003236CE095
:10112400FB6803F02003002BDAD007F10C031A4606
:101134001021786800F0A3FA0346002B0BD001239A
:101144003B613969786800F0C1FC7B68012283F84F
:101154004420012351E0FB6803F00403002B04D076
:101164007B684FF40062DA6002E07B680022DA6098
:10117400FB6803F00203002B03D07B6800229A6013
:1011840032E07B684FF480429A602DE0008793033D
:101194000038024000380140FF2C3101BF0E160216
:1011A400FFE0F5057B68DB68DB089AB27B689B6827
:1011B4005B089BB213439BB21A460021786800F087
:1011C400C6FA0346002B0BD001233B6139697868CA
:1011D40000F07CFC7B68012283F8442001230CE0AE
:1011E40040F6FF70FFF750FD3969786800F06EFC37
:1011F4007B68012283F84420002318462037BD462B
:1012040080BD00BF80B487B000AFF860B9607A6079
:101214003B6000237B61FB6893F84530012B01D1CF
:10122400022351E0FB68012283F84520FB68022277
:1012340083F84420FB68BA68DA6200237B6130E0FB
:101244007B695B01BA6813443B613B694FF48012CC
:101254001A607B6940F2F45202FB03F37A68134488
:101264001A463B699A60FB68DB69002B05D13B6930
:101274001B6843F440023B691A603B68013B7A698E
:101284009A4208D27B6901335B01BA6813441A4657
:101294003B69DA6002E0BA683B69DA607B69013372
:1012A4007B617A693B689A42CAD3FB681A68BB6857
:1012B40002F580521361FB68012283F84420FB6825
:1012C400002283F84520002318461C37BD4680BC05
:1012D400704780B487B000AFF860B9607A603B6053
:1012E40000237B61FB6893F84530012B01D1022375
:1012F40055E0FB68012283F84520FB68022283F84D
:101304004420FB68BA689A6200237B6134E07B69FD
:101314005B01BA6813443B613B694FF000421A60B9
:101324003B6944F2F4525A607B6940F2F45202FB86
:1013340003F37A6813441A463B699A60FB689B6915
:10134400012B05D13B695B6823F000423B695A607D
:101354003B68013B7A699A4208D27B6901335B019D
:10136400BA6813441A463B69DA6002E0BA683B691A
:10137400DA607B6901337B617A693B689A42C6D340
:10138400FB681A68BB6802F58052D360FB680122CF
:1013940083F84420FB68002283F845200023184684
:1013A4001C37BD4680BC704780B487B000AF7860FE
:1013B400396000237B610023FB6000233B617B6871
:1013C40093F84530012B01D10223CCE07B68012244
:1013D40083F845207B68022283F844203B68002B75
:1013E40009D17B68012283F844207B68002283F8BA
:1013F40045200123B7E07B68DB6A1B68002B09DA10
:101404007B68122283F844207B68002283F84520FD
:101414000123A8E03B6840F2F452934215D93B689B
:10142400534AA2FB03239B0A7B613A68504BA3FBFC
:1014340002139B0A40F2F45101FB03F3D31A002B6D
:1014440005D07B6901337B6101E001237B617B690A
:10145400012B1CD17B68DB6A1A687B68DB6A42F06B
:1014640040521A607B68DB6A3A68C2F30C025A6025
:101474007B68DB6A1A687B68DB6A42F000421A60A8
:101484007B68DB6ADB681A467B68DA624BE0002320
:101494003B6144E07B68DB6A1A687B68DB6A22F0A4
:1014A40040521A603B69002B07D17B68DB6A1A68DB
:1014B4007B68DB6A42F080521A607B68DB6A40F228
:1014C400F4525A607B69013B3A699A4216D17B68AF
:1014D400DB6A1A687B68DB6A42F000521A607B6937
:1014E400244A03FB02F23B68134403F2F453FB6007
:1014F4007B68DB6AFA68C2F30C025A607B68DB6AB9
:101504001A687B68DB6A42F000421A607B68DB6A17
:10151400DB681A467B68DA623B6901333B613A69EE
:101524007B699A42B6D37B681B6803F580535B6979
:1015340003F00403002B0DD07B681B6803F5805374
:101544001A46042353617B681B6803F580531A46CB
:10155400002353607B68012283F844207B680022C7
:1015640083F84520002318461C37BD4680BC7047CD
:101574000BB002AC0CFAFFFF80B485B000AF78600A
:101584000023FB607B6893F84530012B01D10223D3
:1015940070E07B68012283F845207B68022283F88F
:1015A40044207B689B6A1B68002B5ADB7B689B6A20
:1015B4001B6803F48073002B30D07B689B6B5A1C30
:1015C4007B689A637B689B6B012B03D17B689A6A67
:1015D4007B681A637B689A6A7B685A637B689B6A38
:1015E4001B681B0CC3F30D03043BFB607B68FA68A8
:1015F400DA637B681B6B9A687B681A647B689B6AF6
:10160400DB681A467B689A627B68012283F844206F
:101614007B68002283F8452000232BE07B689B6ACB
:101624001B6803F40073002B10D07B689A6A7B68F4
:101634001A637B6800225A637B6801229A637B6881
:101644009B6ADB681A467B689A620AE07B689B6B3C
:101654005A1C7B689A637B689B6ADB681A467B68C2
:101664009A627B68012283F844207B68002283F815
:101674004520012318461437BD4680BC704780B509
:1016840086B000AFF8600B467A607B8100237B61F3
:1016940000233B61FB6893F84430DBB2822B01D119
:1016A400022350E0FB68822283F84420FB681B6815
:1016B4001B697B617B6903F01C037B61FB681B8AEC
:1016C400DB029BB27A6913437B617B899B0103F440
:1016D400F8637A6913437B617B6923F002037B61BE
:1016E4007B6943F001037B61FB681B687A691A61BB
:1016F400FFF7C0FA386115E0FFF7BCFA02463B6910
:10170400D31AB3F5803F09D3FB68012283F8442040
:10171400FB68002283F84520032314E0FB681B6860
:101724001B697B617B6903F00103002BE4D1FB6837
:101734001B685B699BB21A467B681A60FB680122CE
:1017440083F84420002318461837BD4680BD80B571
:1017540086B000AFF8600B467A607B8100237B6122
:1017640000233B61FB6893F84430DBB2422B01D188
:1017740002234EE0FB68422283F84420FB681B6886
:101784001B697B617B6903F01C037B61FB681B8A1B
:10179400DB029BB27A6913437B617B899B0103F46F
:1017A400F8637A6913437B617B6943F002037B61CD
:1017B4007B6943F001037B617B689AB2FB681B6819
:1017C4005A61FB681B687A691A61FFF753FA38613A
:1017D40015E0FFF74FFA02463B69D31AB3F5803F91
:1017E40009D3FB68012283F84420FB68002283F8B4
:1017F400452003230DE0FB681B681B697B617B6943
:1018040003F00103002BE4D1FB68012283F8442098
:10181400002318461837BD4680BD80B582B000AF9E
:1018240078607B6893F84530012B01D102231FE0D7
:101834007B68012283F845207B68022283F84420D8
:10184400786800F03FFB786800F076FB786800F079
:1018540001FC786800F0AAFB786800F0D1FB7B6893
:10186400012283F844207B68002283F8452000236A
:1018740018460837BD4680BD80B582B000AF786099
:101884007B6893F84530012B01D102231FE07B686C
:10189400012283F845207B68022283F8442078687B
:1018A40000F099FB786800F0C0FB786800F061FBF9
:1018B400786800F0CFFB786800F021FB7B68012298
:1018C40083F844207B68002283F8452000231846CF
:1018D4000837BD4680BD000080B584B000AF786095
:1018E40039600023FB607B6893F84530012B01D1FC
:1018F4000223E4E07B68012283F845207B6802220E
:1019040083F844203B68002B00F0B1807B681B689F
:101914001B68FB60FA686C4B1340FB603B681A68F9
:101924003B685B681A433B689B681A433B68DB6807
:101934001A437B689B681A433B681B691A433B68DC
:101944005B691A437B68DB681A433B689B691A43EB
:101954003B68DB691A433B681B6A1A433B685B6A52
:101964001A433B689B6A1343FA681343FB607B6822
:101974001B68FA681A607B681B681B68FB6001209F
:10198400FFF782F97B681B68FA681A603B68DA6AB9
:101994003B681B6B1A433B685B6B1A433B689B6B4E
:1019A4001A433B68DB6B1A433B681B6C1A433B6866
:1019B4005B6C42EA03013B689A6C7B681B680A43D0
:1019C4005A607B681B685B68FB600120FFF75CF969
:1019D4007B681B68FA685A607B681B683A68D26C3B
:1019E4009A607B681B683A68126DDA607B681B68D2
:1019F4009B69FB60FA684FF641731340FB603B68D8
:101A04005B6D1A043B689B6D1A433B68DB6D1A439C
:101A14003B681B6E1A433B685B6E1A433B689B6EC4
:101A24001343FA681343FB607B681B68FA689A6186
:101A34007B681B689B69FB600120FFF725F97B68C5
:101A44001B68FA689A613B68D96E3B681A6F7B68B9
:101A54001B680A43DA617B681B68DB69FB60012051
:101A6400FFF712F97B681B68FA68DA611EE07B688D
:101A74001B681B68FB60FB6823F49043FB607B6876
:101A84009A687B68DB681343FA681343FB607B68DE
:101A94001B68FA681A607B681B681B68FB6001207E
:101AA400FFF7F2F87B681B68FA681A607B6801220A
:101AB40083F844207B68002283F8452000231846DD
:101AC4001037BD4680BD00BF0F8120FF80B5B0B088
:101AD40000AF786039600023C7F8BC303B68002B46
:101AE40007D07B684FF40062DA607B684FF4804271
:101AF4009A600023BB640023FB6400233B6500233E
:101B04007B650023BB650023FB657B68DB69002BD9
:101B140003D14FF480633B6601E000233B664FF43E
:101B240000737B660023BB660023FB6600233B67D0
:101B340000237B670023BB674023FB670023C7F8B0
:101B440080300023C7F884300023C7F8883000238E
:101B5400C7F88C300023C7F890300023C7F89430BE
:101B64000023C7F898300023C7F89C308023C7F8B7
:101B7400A0300023C7F8A4300023C7F8A8300023FE
:101B8400C7F8AC300023C7F8B0300023C7F8B4302E
:101B94000023C7F8B8307B681B681B68C7F8BC30E3
:101BA400D7F8BC20AA4B1340C7F8BC30BA6CFB6C06
:101BB4001A433B6D1A437B6D1A437B689B681A4337
:101BC400BB6D1A43FB6D1A437B68DB681A433B6E9B
:101BD4001A437B6E1A43BB6E1A43FB6E1A433B6F68
:101BE4001343D7F8BC201343C7F8BC307B681B6889
:101BF400D7F8BC201A607B681B681B68C7F8BC3028
:101C04000120FFF741F87B681B68D7F8BC201A60F5
:101C14007A6FBB6F1A43FB6F1A43D7F880301A43AD
:101C2400D7F884301A43D7F888301A43D7F88C3061
:101C340042EA0301D7F890207B681B680A435A6084
:101C44007B681B685B68C7F8BC300120FFF71CF891
:101C54007B681B68D7F8BC205A607B681B68D7F880
:101C640094209A607B681B68D7F89820DA607B68B8
:101C74001B689B69C7F8BC30D7F8BC204FF641738A
:101C84001340C7F8BC30D7F89C301A04D7F8A030FA
:101C94001A43D7F8A4301A43D7F8A8301A43D7F810
:101CA400AC301A43D7F8B0301343D7F8BC201343F1
:101CB400C7F8BC307B681B68D7F8BC209A617B6886
:101CC4001B689B69C7F8BC300120FEF7DDFF7B6809
:101CD4001B68D7F8BC209A61D7F8B410D7F8B8209D
:101CE4007B681B680A43DA617B681B68DB69C7F899
:101CF400BC300120FEF7C8FF7B681B68D7F8BC2006
:101D0400DA610023BB604FF00073FB6000233B618A
:101D14004FF400137B610023BB610023FB610023AC
:101D24003B6200237B620423BB624FF00073FB62BF
:101D34004FF480333B634FF480037B634FF40053D1
:101D4400BB638023FB6300233B6400237B647B68C9
:101D54001B6803F580539B69C7F8BC30D7F8BC20D7
:101D64003C4B1340C7F8BC30BA68FB681A433B6964
:101D74001A437B691A43BB691A43FB691A433B6ADA
:101D84001A437B6A1A43BB6A1343D7F8BC20134334
:101D9400C7F8BC307B681B6803F580531A46D7F834
:101DA400BC3093617B681B6803F580539B69C7F85B
:101DB400BC300120FEF768FF7B681B6803F5805385
:101DC4001A46D7F8BC309361FA6A3B6B1A437B6BB3
:101DD4001A43BB6B1A43FB6B1A433B6C9B001A43BD
:101DE4007B6C13437A68126843F4000302F5805253
:101DF40013607B681B6803F580531B68C7F8BC300D
:101E04000120FEF741FF7B681B6803F580531A46E7
:101E1400D7F8BC3013607B689B69012B0DD17B68BC
:101E24001B6803F58053DB697A68126843F48033D6
:101E340043F0400302F58052D3617B685B691A4624
:101E44000021786800F008F800BFC037BD4680BDA7
:101E54000F8120FF233FDEF880B487B000AFF86025
:101E6400B9607A607B6805331B781B027A68043298
:101E7400127813437B61BA68104B13441A467B698A
:101E840013607B6803331B781A067B6802331B7864
:101E94001B041A437B6801331B781B0213437A68C3
:101EA400127813437B61BA68054B13441A467B6965
:101EB400136000BF1C37BD4680BC704740800240A1
:101EC4004480024080B584B000AF78600023FB609A
:101ED4007B681B681A687B681B6842F008021A60FA
:101EE4007B681B681B68FB60012000F0D9F87B68E5
:101EF4001B68FA681A6000BF1037BD4680BD80B504
:101F040084B000AF78600023FB607B681B681A68AC
:101F14007B681B6822F008021A607B681B681B68D8
:101F2400FB60012000F0BCF87B681B68FA681A604B
:101F340000BF1037BD4680BD80B584B000AF786067
:101F44000023FB607B681B681A687B681B6842F08F
:101F540004021A607B681B681B68FB60012000F0A8
:101F64009FF87B681B68FA681A6000BF1037BD468B
:101F740080BD80B584B000AF78600023FB607B68CF
:101F84001B681A687B681B6822F004021A607B686D
:101F94001B681B68FB60012000F082F87B681B68EB
:101FA400FA681A6000BF1037BD4680BD80B483B0A4
:101FB40000AF78607B681B6803F580539B697A687F
:101FC400126843F4005302F58052936100BF0C374A
:101FD400BD4680BC704780B483B000AF78607B6836
:101FE4001B6803F580539B697A68126823F40053D5
:101FF40002F58052936100BF0C37BD4680BC704728
:1020040080B483B000AF78607B681B6803F58053AD
:102014009B697A68126843F0020302F58052936167
:1020240000BF0C37BD4680BC704780B483B000AF9E
:1020340078607B681B6803F580539B697A68126833
:1020440023F0020302F58052936100BF0C37BD46B2
:1020540080BC704780B584B000AF78600023FB601B
:102064007B681B6803F580539B697A68126843F4A4
:10207400801302F5805293617B681B6803F58053DB
:102084009B69FB60012000F00BF87B681A68FB6811
:1020940002F58052936100BF1037BD4680BD000039
:1020A40080B485B000AF78600A4B1B680A4AA2FB73
:1020B40003235B0A7A6802FB03F3FB6000BFFB683F
:1020C4005A1EFA60002BF9D100BF00BF1437BD4679
:1020D40080BC704700000020D34D621080B487B0EC
:1020E40000AF7860396000237B616FE13B681A6858
:1020F40001217B6901FA03F31340FB60FB68002BA9
:1021040000F061813B685B6803F00303012B05D099
:102114003B685B6803F00303022B30D17B689B6848
:102124003B617B695B00032202FA03F3DB433A69F8
:1021340013403B613B68DA687B695B0002FA03F396
:102144003A6913433B617B683A699A607B685B68D0
:102154003B6101227B6902FA03F3DB433A691340D2
:102164003B613B685B681B0903F001027B6902FA6F
:1021740003F33A6913433B617B683A695A603B68ED
:102184005B6803F00303032B17D07B68DB683B61B8
:102194007B695B00032202FA03F3DB433A691340D1
:1021A4003B613B689A687B695B0002FA03F33A6916
:1021B40013433B617B683A69DA603B685B6803F010
:1021C4000303022B23D17B69DA087B68083253F8B6
:1021D40022303B617B6903F007039B000F2202FA64
:1021E40003F3DB433A6913403B613B681A697B693B
:1021F40003F007039B0002FA03F33A6913433B61BC
:102204007B69DA087B680832396943F822107B68F5
:102214001B683B617B695B00032202FA03F3DB4327
:102224003A6913403B613B685B6803F003027B69D6
:102234005B0002FA03F33A6913433B617B683A6932
:102244001A603B685B6803F44033002B00F0BB80EA
:102254000023BB60644B5B6C634A43F48043536468
:10226400614B5B6C03F48043BB60BB685F4A7B6972
:102274009B08023352F823303B617B6903F003036C
:102284009B000F2202FA03F3DB433A6913403B61DC
:102294007B68574A934231D07B68564A93422BD08D
:1022A4007B68554A934225D07B68544A93421FD099
:1022B4007B68534A934219D07B68524A934213D0A5
:1022C4007B68514A93420DD07B68504A934207D0B1
:1022D4007B684F4A934201D1082310E009230EE0A2
:1022E40007230CE006230AE0052308E0042306E0A4
:1022F400032304E0022302E0012300E000237A69BF
:1023040002F00302920093401A463B6913433B6177
:1023140036497B699B0802333A6941F823203D4BD7
:102324009B683B61FB68DB433A6913403B613B6854
:102334005B6803F48013002B03D03A69FB681343F2
:102344003B61344A3B699360324BDB683B61FB6819
:10235400DB433A6913403B613B685B6803F4001359
:10236400002B03D03A69FB6813433B61294A3B695C
:10237400D360284B5B683B61FB68DB433A691340DD
:102384003B613B685B6803F40033002B03D03A697C
:10239400FB6813433B611F4A3B6953601D4B1B6839
:1023A4003B61FB68DB433A6913403B613B685B6814
:1023B40003F48033002B03D03A69FB6813433B6179
:1023C400144A3B6913607B6901337B613B681A687B
:1023D4007B6922FA03F3002B7FF488AE00BF00BFB1
:1023E4001C37BD4680BC70470038024000380140AD
:1023F400000002400004024000080240000C0240B9
:10240400001002400014024000180240001C024068
:1024140000200240003C014080B485B000AF7860E9
:102424000B467B807B681A697B881340002B02D0A3
:102434000123FB7301E00023FB73FB7B1846143775
:10244400BD4680BC704780B483B000AF78600B4653
:102454007B8013467B707B78002B03D07A887B6863
:102464009A6103E07B881A047B689A6100BF0C3789
:10247400BD4680BC704780B485B000AF78600B4621
:102484007B807B685B69FB607A88FB6813401A0475
:10249400FB68D9437B880B401A437B689A6100BF71
:1024A4001437BD4680BC704780B582B000AF034688
:1024B400FB80084B5A69FB881340002B06D0054A61
:1024C400FB885361FB881846FEF748F800BF0837BD
:1024D400BD4680BD003C014080B586B002AF786047
:1024E4007B68002B01D1012359E07B681B68FB60EA
:1024F4007B6893F8D533DBB2002B06D17B680022CE
:1025040083F8D423786819F0E1FD7B68032283F80B
:10251400D523FB68B3F1A04F02D17B6800229A71E6
:102524007B681B68184604F0EDFA7B6818687B68C2
:102534001A7C8DF8002004330ECB04F0D7F903463F
:10254400002B05D07B68022283F8D523012326E0E3
:102554007B681B680121184604F0E4FA0346002B4B
:1025640005D07B68022283F8D523012317E07B681A
:1025740018687B681A7C8DF8002004330ECB05F0B4
:10258400F3FC0346002B05D07B68022283F8D52395
:10259400012304E07B68012283F8D5230023184635
:1025A4001037BD4680BD90B58BB004AF7860084647
:1025B40011461A460346FB700B46BB7013467B70EC
:1025C4003B8E7B617B6893F8D433012B01D10223CA
:1025D4009DE07B68012283F8D423FA787968134656
:1025E4001B019B1A9B000B44193300221A70FA78C2
:1025F400796813461B019B1A9B000B4414337A78A9
:102604001A70FA78796813461B019B1A9B000B44D5
:102614001533FA781A70FA78796813461B019B1AF5
:102624009B000B44263397F82C201A70FA78BB7859
:1026340003F07F03D8B2796813461B019B1A9B00F1
:102644000B44163302461A70FB781946786800F07A
:10265400C5FB97F90230002B0ADAFA787968134639
:102664001B019B1A9B000B44173301221A7009E0CB
:10267400FA78796813461B019B1A9B000B441733A5
:1026840000221A707B681B68184605F0CFFD38617C
:1026940097F82C30012B0BD197F82830012B07D158
:1026A4003B69002B04D17B69BC2B01D9BC237B6122
:1026B400FA78796813461B019B1A9B000B44183364
:1026C40097F828201A70FA787B6998B279681346CB
:1026D4001B019B1A9B000B44283302461A807B681B
:1026E40018687B699BB27C78BA78F978029397F87A
:1026F4002C30019397F828300093234605F0BCFD55
:102704000346FB737B68002283F8D423FB7B1846C3
:102714001C37BD4690BD80B584B000AF78600B46D1
:10272400FB700023FB737B6893F8D433012B01D136
:1027340002230FE07B68012283F8D4237B681B68A3
:10274400FA781146184606F04DF97B68002283F8A2
:10275400D423FB7B18461037BD4680BD80B582B0BC
:1027640000AF7860084611461A460346FB700B46D4
:10277400BB7013467B70FA78796813461B019B1A69
:102784009B000B441733BA781A70FA7879681346A9
:102794001B019B1A9B000B4426337A781A703B7CEE
:1027A400002B14D1FA78796813461B019B1A9B00FD
:1027B4000B442A3303221A70FA78796813461B01F2
:1027C4009B1A9B000B4419333A7F1A7009E0FA787C
:1027D400796813461B019B1A9B000B442A3302227F
:1027E4001A707B78032B00F2028101A252F823F0C5
:1027F40005280008DD290008C92800085329000815
:102804003B7C012B40F0F580BB78002B2DD13B8B1A
:10281400002B09D1FA78796813461B019B1A9B0097
:102824000B443D3301221A70FA78796813461B0170
:102834009B1A9B000B443D331B78002B0AD1FA787A
:10284400796813461B019B1A9B000B442A33002210
:102854001A70CEE0FA78796813461B019B1A9B0024
:102864000B442A3302221A70C3E0FA7879681346BB
:102874001B019B1A9B000B441A331B78012B40F05D
:10288400B880FA78796813461B019B1A9B000B44A5
:102894003C331B78002B0AD1FA78796813461B0164
:1028A4009B1A9B000B442A3300221A70A1E0FA7889
:1028B400796813461B019B1A9B000B442A3302229E
:1028C4001A7096E0BB78002B20D1FA787968134609
:1028D4001B019B1A9B000B443D331B78002B0AD130
:1028E400FA78796813461B019B1A9B000B442A3320
:1028F40000221A707EE0FA78796813461B019B1A4D
:102904009B000B442A3302221A7073E0FA78796828
:1029140013461B019B1A9B000B443C331B78002B72
:102924000AD1FA78796813461B019B1A9B000B4461
:102934002A3300221A705DE0FA78796813461B0185
:102944009B1A9B000B442A3302221A7052E0BB7874
:10295400002B20D1FA78796813461B019B1A9B003F
:102964000B443D331B78002B0AD1FA78796813465F
:102974001B019B1A9B000B442A3300221A7039E076
:10298400FA78796813461B019B1A9B000B442A337F
:1029940002221A702EE0FA78796813461B019B1AFA
:1029A4009B000B443C331B78002B0AD1FA787968DE
:1029B40013461B019B1A9B000B442A3300221A70F6
:1029C40018E0FA78796813461B019B1A9B000B44A4
:1029D4002A3302221A700DE0FA78796813461B0133
:1029E4009B1A9B000B442A3300221A7002E000BF9A
:1029F40000E000BFFA78796813461B019B1A9B001C
:102A04000B442C337A691A60FA78398B7868134648
:102A14001B019B1A9B00034434331960FA787968CC
:102A240013461B019B1A9B000B444C3300221A7063
:102A3400FA78796813461B019B1A9B000B443833C0
:102A440000221A60FA78796813461B019B1A9B00CE
:102A54000B441533FA781A70FA78796813461B0117
:102A64009B1A9B000B444D3300221A707B68186834
:102A7400FA7813461B019B1A9B0010337A6813449F
:102A8400191D7B689B791A4605F022FD03461846FA
:102A94000837BD4680BD00BF80B586B000AF786002
:102AA4007B681B683B613B69FB607B681B6818465D
:102AB40005F09EF90346012B40F0FB807B681B6800
:102AC400184605F0E7F80346002B00F0F1807B6818
:102AD4001B68184605F0DEF8034603F40013B3F54B
:102AE400001F04D17B681B684FF400125A617B6895
:102AF4001B68184605F0CEF8034603F48013B3F5BB
:102B0400801F04D17B681B684FF480125A617B6874
:102B14001B68184605F0BEF8034603F08063B3F162
:102B2400806F04D17B681B684FF080625A617B68B8
:102B34001B68184605F0AEF8034603F00203022BA7
:102B440003D17B681B6802225A617B681B681846A4
:102B540005F0A0F8034603F00053B3F1005F20D161
:102B64007B681B684FF000525A61FB6803F5886369
:102B74001B6803F00103002B13D11021386904F002
:102B840081F9386904F0AFF97B685B7A022B05D1CF
:102B94007B681B680121184605F0AAFA786819F0C9
:102BA40001FB7B681B68184605F074F8034603F0C4
:102BB4008073B3F1807F02D1786801F030FD7B68C7
:102BC4001B68184605F066F8034603F00803082B53
:102BD40006D1786819F0CAFA7B681B6808225A6122
:102BE4007B681B68184605F055F8034603F000732C
:102BF400B3F1007F39D17B681B68184605F0E2FE0B
:102C0400B86000237B6125E07B6903F00F03BA6899
:102C140022FA03F303F00103002B18D07B695A0155
:102C2400FB68134403F5A0631B6803F40043B3F586
:102C3400004F06D17B69DBB21946786800F002F9CF
:102C440005E07B69DBB21946786800F064FF7B69B4
:102C540001337B617B685B791A467B699342D3D3EA
:102C64007B681B684FF000725A617B681B681846CA
:102C740005F010F8034603F01003102B01D10123D3
:102C840000E00023002B14D07B681B689A697B68E2
:102C94001B6822F010029A61786801F0E1FB7B68FE
:102CA4001B689A697B681B6842F010029A6100E015
:102CB40000BF1837BD4680BD80B582B000AF7860D4
:102CC4007B6893F8D433012B01D1022313E07B6892
:102CD400012283F8D4237B681B680121184605F080
:102CE4006DFA7B681B68184603F0FCFE7B680022C3
:102CF40083F8D423002318460837BD4680BD80B529
:102D040082B000AF78607B6893F8D433012B01D193
:102D140002230DE07B68012283F8D4237B681B68BF
:102D2400184605F0B9FF7B68002283F8D4230023FA
:102D340018460837BD4680BD80B582B000AF7860C4
:102D44007B681B68184605F00FFA034618460837D7
:102D5400BD4680BD80B483B000AF78600B46FB7085
:102D6400FA78796813461B019B1A9B000B444C3379
:102D74001B7818460C37BD4680BC704780B483B0BE
:102D840000AF78600B46FB70FA78796813461B0134
:102D94009B1A9B000B4438331B6818460C37BD46FE
:102DA40080BC704780B582B000AF78607B681B68D8
:102DB400184605F051FA034618460837BD4680BD4B
:102DC40080B582B000AF78607B681B68184605F058
:102DD4002DFA034618460837BD4680BD80B483B03B
:102DE40000AF78600B46FB70FA78796813461B01D4
:102DF4009B1A9B000B441A3300221A70FA787968E4
:102E040013461B019B1A9B000B441B3300221A70B0
:102E1400FA78796813461B019B1A9B000B442533EF
:102E240000221A70FA78796813461B019B1A9B00DA
:102E34000B44243300221A70002318460C37BD4675
:102E440080BC704780B586B000AF78600B46FB70DD
:102E54007B681B687B617B693B617B681B68FA78D4
:102E64001146184604F028FF034603F00403042B1C
:102E74001AD1FB785A013B69134403F5A0631A463F
:102E840004239360FA78796813461B019B1A9B000C
:102E94000B444D3307221A707B681B68FA7811467D
:102EA400184605F09FFD9EE07B681B68FA78114682
:102EB400184604F001FF034603F48073B3F5807FE2
:102EC4001BD1FB785A013B69134403F5A0631A46EE
:102ED4004FF480739360FA78796813461B019B1A48
:102EE4009B000B444D3308221A707B681B68FA78E8
:102EF4001146184605F076FD75E07B681B68FA7884
:102F04001146184604F0D8FE034603F00803082BC4
:102F14001AD1FB785A013B69134403F5A0631A469E
:102F240008239360FA78796813461B019B1A9B0067
:102F34000B444D3306221A707B681B68FA781146DD
:102F4400184605F04FFD4EE07B681B68FA78114681
:102F5400184604F0B1FE034603F48063B3F5806FB2
:102F64001BD1FB785A013B69134403F5A0631A464D
:102F74004FF480639360FA78796813461B019B1AB7
:102F84009B000B444D3309221A707B681B68FA7846
:102F94001146184605F026FD25E07B681B68FA7883
:102FA4001146184604F088FE034603F08003802B84
:102FB40019D1FB785A013B69134403F5A0631A46FF
:102FC40080239360FA78796813461B019B1A9B004F
:102FD4000B444D3307221A707B681B68FA7811463C
:102FE400184605F0FFFC7B681B68FA781146184602
:102FF40004F062FE034603F40073B3F5007F12D1BC
:103004007B681B68FA781146184605F0EBFCFB78E0
:103014005A013B69134403F5A0631A464FF4007345
:10302400936000F075BD7B681B68FA7811461846FA
:1030340004F042FE034603F00103012B40F0288113
:10304400FB785A013B69134403F5A0631A46202315
:103054009360FA78796813461B019B1A9B000B4412
:103064001B331B78012B19D1FA78796813461B019D
:103074009B1A9B000B441B3300221A70FB785A01E5
:103084003B69134403F5A0635B68FA7851013A691C
:103094000A4402F5A06223F4803353607B689B7971
:1030A400002B1BD0FA78796813461B019B1A9B00EE
:1030B4000B4430331968FB785A013B69134403F518
:1030C400A0631B69C3F31203FA78C91A786813461C
:1030D4001B019B1A9B00034438331960FA78796802
:1030E40013461B019B1A9B000B444D3301221A709B
:1030F400FA78796813461B019B1A9B000B444433EE
:1031040000221A60FB785A013B69134403F5A0635B
:103114001A4601239360FA78796813461B019B1AB7
:103124009B000B4426331B78002B0AD0FA7879686D
:1031340013461B019B1A9B000B4426331B78022B5E
:1031440010D17B681B68FA781146184605F04AFCD2
:10315400FB785A013B69134403F5A0631A46102314
:1031640093603DE0FA78796813461B019B1A9B0033
:103174000B4426331B78032B0AD0FA78796813465C
:103184001B019B1A9B000B4426331B78012B27D170
:10319400FB785A013B69134403F5A0631B68FA7872
:1031A40051013A690A4402F5A06243F000531360E6
:1031B400FA78796813461B019B1A9B000B444C3325
:1031C40001221A70FA78796813461B019B1A9B0036
:1031D4000B444C331A78FB781946786818F0F0FFE2
:1031E4007B689B79012B3BD1FA78796813461B01E4
:1031F4009B1A9B000B4438331968FA787868134695
:103204001B019B1A9B00034428331B880B44591E43
:10321400FA78786813461B019B1A9B0003442833F1
:103224001B88B1FBF3F303F00103002B00F070845F
:10323400FA78796813461B019B1A9B000B443C33B4
:103244001B78FA7883F00103D8B2796813461B011E
:103254009B1A9B000B443C3302461A7000F058BC86
:10326400FA78796813461B019B1A9B000B443C3384
:103274001B78FA7883F00103D8B2796813461B01EE
:103284009B1A9B000B443C3302461A7000F040BC6E
:103294007B681B68FA781146184604F00DFD034656
:1032A40003F02003202B31D1FB785A013B691344EE
:1032B40003F5A0631A4620239360FA7879681346CD
:1032C4001B019B1A9B000B441A331B78012B40F003
:1032D4001F84FA78796813461B019B1A9B000B44E0
:1032E4001B3301221A70FA78796813461B019B1A62
:1032F4009B000B444D3303221A707B681B68FA78D9
:103304001146184605F06EFB00F002BC7B681B6892
:10331400FA781146184604F0CFFC034603F0020382
:10332400022B40F00583FB785A013B69134403F5F3
:10333400A0631A4602239360FA78796813461B0146
:103344009B1A9B000B444D331B78012B14D1FA7844
:10335400796813461B019B1A9B000B444D330222D0
:103364001A70FA78796813461B019B1A9B000B4468
:103374004C3301221A70CCE2FA78796813461B01A7
:103384009B1A9B000B444D331B78062B14D1FA78FF
:10339400796813461B019B1A9B000B444D33022290
:1033A4001A70FA78796813461B019B1A9B000B4428
:1033B4004C3305221A70ACE2FA78796813461B0183
:1033C4009B1A9B000B444D331B78072B0BD0FA78C8
:1033D400796813461B019B1A9B000B444D331B78E1
:1033E400092B40F0A680FA78796813461B019B1AD2
:1033F4009B000B444D3302221A70FA787968134605
:103404001B019B1A9B000B4444331B68591C7868AE
:1034140013461B019B1A9B00034444331960FA783A
:10342400796813461B019B1A9B000B4444331B68A9
:10343400022B43D9FA78796813461B019B1A9B0027
:103444000B44443300221A60FA78796813461B014E
:103454009B1A9B000B441A331B78012B23D1FA7857
:10346400796813461B019B1A9B000B441B330022F3
:103474001A70FA78796813461B019B1A9B000B4457
:103484001C3300221A70FB785A013B69134403F57C
:10349400A0635B68FA7851013A690A4402F5A062B4
:1034A40023F480335360FA78796813461B019B1A1E
:1034B4009B000B444C3304221A7029E2FA78796891
:1034C40013461B019B1A9B000B444C3302221A70B7
:1034D400FA78796813461B019B1A9B000B44263328
:1034E4001B78002B0BD0FA78796813461B019B1AC2
:1034F4009B000B4426331B78022B40F00982FB7897
:103504005A013B69134403F5A0631B68FB60FB6825
:1035140023F08043FB60FB6843F00043FB60FB78CF
:103524005A013B69134403F5A0631A46FB68136010
:10353400EEE1FA78796813461B019B1A9B000B4451
:103544004D331B78052B40F0C880FA787968134610
:103554001B019B1A9B000B444D3302221A70FA780C
:10356400796813461B019B1A9B000B441B331B7881
:10357400012B40F0CE81FA78796813461B019B1A1F
:103584009B000B4426331B78032B6BD1FA787968A4
:1035940013461B019B1A9B000B4448331B68591CA0
:1035A400786813461B019B1A9B0003444833196037
:1035B400FA78796813461B019B1A9B000B44483325
:1035C4001B68022B43D9FA78796813461B019B1AAE
:1035D4009B000B44483300221A60FA78796813463A
:1035E4001B019B1A9B000B441B3300221A70FA78B0
:1035F400796813461B019B1A9B000B4444331B68D8
:10360400022B09D8FA78796813461B019B1A9B0090
:103614000B441C3301221A70FB785A013B69134492
:1036240003F5A0635B68FA7851013A690A4402F52C
:10363400A06223F480335360FA78796813461B013F
:103644009B1A9B000B444C3304221A7014E0FA7842
:10365400796813461B019B1A9B000B444C330222CE
:103664001A7009E0FA78796813461B019B1A9B00CB
:103674000B444C3302221A70FA78796813461B0102
:103684009B1A9B000B4426331B78002B0BD0FA7833
:10369400796813461B019B1A9B000B4426331B7845
:1036A400022B40F03681FB785A013B69134403F541
:1036B400A0631B68FB60FB6823F08043FB60FB682E
:1036C40043F00043FB60FB785A013B69134403F564
:1036D400A0631A46FB6813601BE1FA787968134605
:1036E4001B019B1A9B000B444D331B78032B40F0AA
:1036F4008180FA78796813461B019B1A9B000B445E
:103704004D3302221A70FA78796813461B019B1A0A
:103714009B000B441B331B78012B40F0FA80FA7892
:10372400796813461B019B1A9B000B444C330222FD
:103734001A70FB785A013B69134403F5A0635B6874
:10374400FA7851013A690A4402F5A06243F48033DD
:103754005360FB785A013B69134403F5A063DB68AB
:10376400FA7851013A690A4402F5A06243F0400331
:10377400D360FB785A013B69134403F5A063DB680B
:10378400FA7851013A690A4402F5A06223F0200351
:10379400D360FA78796813461B019B1A9B000B448B
:1037A40026331B78002B0BD0FA78796813461B015B
:1037B4009B1A9B000B4426331B78022B40F0A980F4
:1037C400FB785A013B69134403F5A0631B68FB6053
:1037D400FB6823F08043FB60FB6843F00043FB601D
:1037E400FB785A013B69134403F5A0631A46FB684E
:1037F40013608EE0FA78796813461B019B1A9B00CC
:103804000B444D331B78042B43D1FA787968134663
:103814001B019B1A9B000B444D3302221A70FA7849
:10382400796813461B019B1A9B000B444C330222FC
:103834001A70FA78796813461B019B1A9B000B4493
:1038440026331B78002B0AD0FA78796813461B01BB
:103854009B1A9B000B4426331B78022B59D1FB780F
:103864005A013B69134403F5A0631B68FB60FB68C2
:1038740023F08043FB60FB6843F00043FB60FB786C
:103884005A013B69134403F5A0631A46FB681360AD
:103894003FE0FA78796813461B019B1A9B000B449E
:1038A4004D331B78082B26D1FA78796813461B010F
:1038B4009B1A9B000B444D3302221A70FA787968E4
:1038C40013461B019B1A9B000B4444331B68591C71
:1038D400786813461B019B1A9B0003444433196008
:1038E400FA78796813461B019B1A9B000B444C33EE
:1038F40004221A700DE0FA78796813461B019B1AAA
:103904009B000B444D331B78022B00F0008100E038
:1039140000BFFA78796813461B019B1A9B000B447D
:103924004C331A78FB781946786818F049FCEFE0B4
:103934007B681B68FA781146184604F0BDF9034603
:1039440003F04003402B2FD1FB785A013B69134409
:1039540003F5A0631A4640239360FA787968134606
:103964001B019B1A9B000B444D3305221A70FA78F5
:10397400796813461B019B1A9B000B441A331B786E
:10398400002B09D1FA78796813461B019B1A9B0016
:103994000B44443300221A607B681B68FA78114692
:1039A400184605F01FF8B3E07B681B68FA781146E7
:1039B400184604F081F9034603F01003102B40F07D
:1039C400A780FA78796813461B019B1A9B000B4465
:1039D40026331B78032B1BD1FA78796813461B0115
:1039E4009B1A9B000B44443300221A60FA787968CE
:1039F40013461B019B1A9B000B444D3304221A707F
:103A04007B681B68FA781146184604F0EBFF3FE028
:103A1400FA78796813461B019B1A9B000B442633E2
:103A24001B78002B0AD0FA78796813461B019B1A7D
:103A34009B000B4426331B78022B29D1FA78796832
:103A440013461B019B1A9B000B44443300221A604B
:103A54007B689B79002B0AD0FA78796813461B019E
:103A64009B1A9B000B441B331B78012B10D1FA7853
:103A7400796813461B019B1A9B000B444D330422A7
:103A84001A707B681B68FA781146184604F0AAFF7E
:103A9400FA78796813461B019B1A9B000B441B336D
:103AA4001B78012B29D1FA78796813461B019B1ADC
:103AB4009B000B441B3300221A70FB785A013B69AC
:103AC400134403F5A0635B68FA7851013A690A4428
:103AD40002F5A06223F480335360FB785A013B69FA
:103AE400134403F5A063DB68FA7851013A690A4488
:103AF40002F5A06243F02003D360FB785A013B69CE
:103B0400134403F5A0631A461023936000E000BF3A
:103B14001837BD4680BD80B586B000AF78600B46CF
:103B2400FB707B681B687B617B693B617B681B68FE
:103B3400FA781146184604F0BFF8034603F004036C
:103B4400042B1BD1FB785A013B69134403F5A06392
:103B54001A4604239360FA78796813461B019B1A6A
:103B64009B000B444D3307221A707B681B68FA785C
:103B74001146184604F036FF00F06FBC7B681B68E2
:103B8400FA781146184604F097F8034603F0200328
:103B9400202B40F08280FB785A013B69134403F5E3
:103BA400A0631A4620239360FA78796813461B01B0
:103BB4009B1A9B000B4419331B78012B24D1FA78F0
:103BC400796813461B019B1A9B000B44193300228E
:103BD4001A70FA78796813461B019B1A9B000B44F0
:103BE4004C3302221A70FA78796813461B019B1A27
:103BF4009B000B444D3303221A707B681B68FA78D0
:103C04001146184604F0EEFEFA78796813461B0153
:103C14009B1A9B000B441A331B78012B40F01D8424
:103C2400FA78796813461B019B1A9B000B441B33DB
:103C34001B78002B40F01184FA78796813461B0135
:103C44009B1A9B000B4426331B78012B09D0FA786E
:103C5400796813461B019B1A9B000B441B330122FA
:103C64001A70FA78796813461B019B1A9B000B445F
:103C74004D3303221A707B681B68FA781146184684
:103C840004F0B0FEFA78796813461B019B1A9B0076
:103C94000B44443300221A60DFE37B681B68FA7824
:103CA4001146184604F008F8034603F40073B3F50C
:103CB400007F11D1FB785A013B69134403F5A063DB
:103CC4001A464FF4007393607B681B68FA781146B8
:103CD400184604F087FEC0E37B681B68FA78114637
:103CE400184603F0E9FF034603F00103012B68D1F2
:103CF400FA78796813461B019B1A9B000B444433E2
:103D040000221A607B681B68FA781146184603F093
:103D1400D3FF034603F04003402B12D1FA787968AD
:103D240013461B019B1A9B000B44193301221A7082
:103D3400FB785A013B69134403F5A0631A464023F8
:103D44009360FA78796813461B019B1A9B000B4415
:103D54001B331B78002B19D0FA78796813461B01A2
:103D64009B1A9B000B441B3300221A70FB785A01E8
:103D74003B69134403F5A0635B68FA7851013A691F
:103D84000A4402F5A06223F480335360FB785A019D
:103D94003B69134403F5A0631A4601239360FA7840
:103DA400796813461B019B1A9B000B444D33012277
:103DB4001A707B681B68FA781146184604F012FEE4
:103DC4004BE37B681B68FA781146184603F074FFCE
:103DD400034603F04003402B39D1FA78796813463F
:103DE4001B019B1A9B000B444D3305221A70FA7871
:103DF400796813461B019B1A9B000B441A331B78EA
:103E0400002B09D1FA78796813461B019B1A9B0091
:103E14000B44193301221A70FA78796813461B018E
:103E24009B1A9B000B44443300221A607B681B6876
:103E3400FA781146184604F0D5FDFB785A013B691F
:103E4400134403F5A0631A464023936005E37B689B
:103E54001B68FA781146184603F02EFF034603F058
:103E64000803082B1AD1FB785A013B69134403F564
:103E7400A0631A4608239360FA78796813461B01F5
:103E84009B1A9B000B444D3306221A707B681B68F7
:103E9400FA781146184604F0A5FDDEE27B681B683B
:103EA400FA781146184603F007FF034603F010039F
:103EB400102B44D1FA78796813461B019B1A9B0096
:103EC4000B44443300221A60FA78796813461B01C4
:103ED4009B1A9B000B444D3304221A70FA787968BC
:103EE40013461B019B1A9B000B4419331B78002BB0
:103EF40014D1FA78796813461B019B1A9B000B4472
:103F040018331B78002B09D1FA78796813461B0102
:103F14009B1A9B000B44193301221A707B681B689F
:103F2400FA781146184604F05DFDFB785A013B69A6
:103F3400134403F5A0631A46102393608DE27B6853
:103F44001B68FA781146184603F0B6FE034603F0E0
:103F54008003802B69D17B689B79002B11D1FA787F
:103F6400796813461B019B1A9B000B444D330722AF
:103F74001A707B681B68FA781146184604F032FD03
:103F840049E0FA78796813461B019B1A9B000B449D
:103F940044331B68591C786813461B019B1A9B0009
:103FA400034444331960FA78796813461B019B1A59
:103FB4009B000B4444331B68022B22D9FA7879689E
:103FC40013461B019B1A9B000B44443300221A60C6
:103FD400FA78796813461B019B1A9B000B444C33F7
:103FE40004221A70FA78796813461B019B1A9B0005
:103FF4000B444C331A78FB781946786818F0E0F8CB
:1040040009E0FA78796813461B019B1A9B000B445C
:104014004C3302221A70FB785A013B69134403F5AE
:10402400A0631A468023936017E27B681B68FA78C2
:104034001146184603F040FE034603F48063B3F5CB
:10404400806F1BD1FA78796813461B019B1A9B0079
:104054000B444D3309221A707B681B68FA781146A9
:10406400184604F0BFFCFB785A013B69134403F57E
:10407400A0631A464FF480639360EEE17B681B688B
:10408400FA781146184603F017FE034603F00203BC
:10409400022B40F0DF81FB785A013B69134403F59E
:1040A400A0631A4602239360FA78796813461B01C9
:1040B4009B1A9B000B444D331B78012B40F09380DB
:1040C400FA78796813461B019B1A9B000B444D3305
:1040D40002221A70FA78796813461B019B1A9B0016
:1040E4000B444C3301221A70FA78796813461B0189
:1040F4009B1A9B000B4426331B78022B0BD0FA78B7
:10410400796813461B019B1A9B000B4426331B78CA
:10411400032B40F090817B689B79002B15D1FA78B2
:10412400796813461B019B1A9B000B443D331B7893
:10413400FA7883F00103D8B2796813461B019B1AFD
:104144009B000B443D3302461A707B689B79012B1C
:1041540040F07181FA78796813461B019B1A9B0021
:104164000B4434331B68002B00F06581FA787968BE
:1041740013461B019B1A9B000B4434331968FA78CD
:10418400786813461B019B1A9B00034428331B8841
:104194000B44591EFA78786813461B019B1A9B003E
:1041A400034428331B88B1FBF3F3BB60BB6803F003
:1041B4000103002B00F03F81FA78796813461B0154
:1041C4009B1A9B000B443D331B78FA7883F0010360
:1041D400D8B2796813461B019B1A9B000B443D33EC
:1041E40002461A7027E1FA78796813461B019B1A74
:1041F4009B000B444D331B78032B20D1FA7879684C
:1042040013461B019B1A9B000B444D3302221A7068
:10421400FA78796813461B019B1A9B000B441B33E5
:104224001B78012B40F00781FA78796813461B014B
:104234009B1A9B000B444C3302221A70FBE0FA7861
:10424400796813461B019B1A9B000B444D331B7862
:10425400042B3AD1FA78796813461B019B1A9B0008
:104264000B444D3302221A70FA78796813461B0105
:104274009B1A9B000B444C3302221A70FA7879681B
:1042840013461B019B1A9B000B441B331B78012B09
:1042940040F0D180FA78796813461B019B1A9B0081
:1042A4000B441B3300221A70FB785A013B691344F8
:1042B40003F5A0635B68FA7851013A690A4402F590
:1042C400A06223F480335360B5E0FA78796813462A
:1042D4001B019B1A9B000B444D331B78052B14D1F7
:1042E400FA78796813461B019B1A9B000B444D33E3
:1042F40002221A70FA78796813461B019B1A9B00F4
:104304000B444C3302221A7095E0FA78796813460C
:104314001B019B1A9B000B444D331B78062B14D1B5
:10432400FA78796813461B019B1A9B000B444D33A2
:1043340002221A70FA78796813461B019B1A9B00B3
:104344000B444C3305221A7075E0FA7879681346E9
:104354001B019B1A9B000B444D331B78072B0AD07F
:10436400FA78796813461B019B1A9B000B444D3362
:104374001B78092B70D1FA78796813461B019B1AB4
:104384009B000B444D3302221A70FA787968134665
:104394001B019B1A9B000B4444331B68591C78680F
:1043A40013461B019B1A9B00034444331960FA789B
:1043B400796813461B019B1A9B000B4444331B680A
:1043C400022B14D9FA78796813461B019B1A9B00B7
:1043D4000B44443300221A60FA78796813461B01AF
:1043E4009B1A9B000B444C3304221A7022E0FA7887
:1043F400796813461B019B1A9B000B444C33022221
:104404001A70FB785A013B69134403F5A0631B68D7
:10441400FB60FB6823F08043FB60FB6843F00043D0
:10442400FB60FB785A013B69134403F5A0631A4609
:10443400FB68136000BFFA78796813461B019B1A66
:104444009B000B444C331A78FB781946786817F0B4
:10445400B7FE02E000BF00E000BF1837BD4680BDD4
:1044640080B58AB000AF78607B681B687B627B6A2A
:104474003B627B681B681B6AFB61FB6903F00F03EB
:10448400BB61FB695B0C03F00F037B61FB691B09D8
:10449400C3F30A033B617B69022B04D07B69052BC0
:1044A40000F0B680B7E03B69002B00F0B380796878
:1044B400BA6913461B019B1A9B000B442C331B68DF
:1044C400002B00F0A7807968BA6913461B019B1A78
:1044D4009B000B4438331A683B69D1187868BA6971
:1044E40013461B019B1A9B00034434331B689942F7
:1044F40000F283807B6818687968BA6913461B01E7
:104504009B1A9B000B442C331B683A6992B21946E0
:1045140003F032FA7968BA6913461B019B1A9B00AF
:104524000B442C331A683B69D1187868BA6913466E
:104534001B019B1A9B0003442C3319607968BA69E8
:1045440013461B019B1A9B000B4438331A683B69C2
:10455400D1187868BA6913461B019B1A9B0003445F
:1045640038331960BB695A013B6A134403F5A063ED
:104574001B69DB0CC3F30903FB607968BA69134652
:104584001B019B1A9B000B4428331B881A463B696A
:1045940093423FD1FB68002B3CD0BB695A013B6A74
:1045A400134403F5A0631B68BB60BB6823F080431E
:1045B400BB60BB6843F00043BB60BB695A013B6A04
:1045C400134403F5A0631A46BB6813607968BA699B
:1045D40013461B019B1A9B000B443C331B7883F04E
:1045E4000103D8B27968BA6913461B019B1A9B0070
:1045F4000B443C3302461A700CE07968BA691346DE
:104604001B019B1A9B000B444C3304221A7001E0DB
:1046140000BF00E000BF00BF2837BD4680BD80B5A5
:1046240086B000AF78607B681B687B617B693B6107
:104634003B6903F588631B68FB603B6903F588638A
:104644001B68BB60BB6823F02E03BB60FB6803F0F0
:104654000203022B0BD1FB6803F00103012B02D1EF
:10466400786817F091FDBB6843F00203BB60FB68F8
:1046740003F00803082B32D1BB6843F00803BB6086
:10468400FB6803F00403042B26D17B685B7A022BBE
:1046940013D1FB6803F4C023B3F5802F06D17B68E4
:1046A4001B680221184603F023FD11E07B681B6898
:1046B4000121184603F01CFD0AE07B68DB79012B1D
:1046C40006D13B6903F580631A464EF660235360B6
:1046D400786817F082FD02E0786817F08CFDFB68BB
:1046E40003F02003202B03D1BB6843F02003BB60FD
:1046F4003B6903F588631A46BB68136000BF18372B
:10470400BD4680BD80B586B002AF78607B68002B63
:1047140001D1012301E17B681B68BB607B6893F8CE
:104724009534DBB2002B06D17B68002283F89424F5
:10473400786817F085F87B68032283F89524BB68B2
:10474400B3F1A04F02D17B6800229A717B681B6889
:10475400184602F0D7F97B6818687B681A7C8DF8D4
:10476400002004330ECB02F0C1F80346002B05D021
:104774007B68022283F895240123CEE07B681B68C2
:104784000021184602F0CEF90346002B05D07B68C1
:10479400022283F895240123BFE00023FB734AE03F
:1047A400FA7B79681346DB0013449B000B441533F2
:1047B40001221A70FA7B79681346DB0013449B00CC
:1047C4000B441433FA7B1A70FA7BFB7B98B279683A
:1047D4001346DB0013449B000B442E3302461A801D
:1047E400FA7B79681346DB0013449B000B441833AF
:1047F40000221A70FA7B79681346DB0013449B008D
:104804000B441C3300221A60FA7B79681346DB00E0
:1048140013449B000B44203300221A60FA7B79680E
:104824001346DB0013449B000B44243300221A601C
:10483400FB7B0133FB737B681B79FA7B9A42AFD312
:104844000023FB7344E0FA7B79681346DB001344CE
:104854009B000B4403F2552300221A70FA7B7968FB
:104864001346DB0013449B000B4403F51573FA7BDA
:104874001A70FA7B79681346DB0013449B000B44DF
:1048840003F5167300221A70FA7B79681346DB006D
:1048940013449B000B4403F5177300221A60FA7B40
:1048A40079681346DB0013449B000B4403F518732B
:1048B40000221A60FA7B79681346DB0013449B00DC
:1048C4000B4403F5197300221A60FB7B0133FB735D
:1048D4007B681B79FA7B9A42B5D37B6818687B683E
:1048E4001A7C8DF8002004330ECB02F067F90346DE
:1048F400002B05D07B68022283F8952401230CE069
:104904007B6800225A747B68012283F895247B68B3
:104914001B68184603F09EF9002318461037BD465D
:1049240080BD80B582B000AF78607B6893F8943422
:10493400012B01D1022312E07B68012283F8942425
:104944007B681B68184602F0CDF87B681B68184624
:1049540003F060F97B68002283F89424002318464E
:104964000837BD4680BD90B58DB000AF78607B68D8
:104974001B683B623B6AFB617B681B68184603F05B
:1049840037FA0346002B40F07E847B681B68184688
:1049940003F080F90346002B00F07484FB6903F5EF
:1049A40000639B681B0AC3F30D027B68C3F8D4241D
:1049B4007B681B68184603F06DF9034603F0020395
:1049C400022B07D17B681B685A697B681B6802F05D
:1049D40002025A617B681B68184603F05BF90346C0
:1049E40003F01003102B61D17B681B689A697B6804
:1049F4001B6822F010029A613B6A1B6ABB61BB69A7
:104A040003F00F021346DB0013449B0003F51473F9
:104A14007A68134404337B61BB6903F4F013B3F580
:104A2400802F24D1BA6947F6F0731340002B35D098
:104A34007B69D968BB691B099BB2C3F30A039BB2A8
:104A44001A46386A02F098FF7B69DA68BB691B0969
:104A5400C3F30A031A447B69DA607B695A69BB6948
:104A64001B09C3F30A031A447B695A6116E0BB6944
:104A740003F4F013B3F5402F10D17B6803F29C4389
:104A840008221946386A02F077FF7B695A69BB69C4
:104A94001B09C3F30A031A447B695A617B681B68C8
:104AA4009A697B681B6842F010029A617B681B68F4
:104AB400184603F0EFF8034603F40023B3F5002F80
:104AC40040F0A78000237B627B681B68184603F0D4
:104AD40013F9B86299E0BB6A03F00103002B00F0FC
:104AE4008E807B681B687A6AD2B21146184603F03E
:104AF40035F938613B6903F00103002B0CD07B6A64
:104B04005A01FB69134403F530631A460123936089
:104B1400796A786800F092FE3B6903F00803002B81
:104B24000CD07B6A5A01FB69134403F530631A46BF
:104B340008239360796A786800F068FF3B6903F0A2
:104B44001003002B08D07B6A5A01FB69134403F558
:104B540030631A46102393603B6903F00203002B71
:104B640030D03B6A5B6903F08003802B09D1FB6979
:104B740003F500635B68FA6902F5006243F480633D
:104B840053607A6A1346DB0013449B0003F51473E5
:104B94007A68134404337B617B69DB78012B08D189
:104BA4007B690022DA707B6ADBB21946786816F0FA
:104BB4005BFF7B6A5A01FB69134403F530631A46B1
:104BC400022393603B6903F02003002B08D07B6A27
:104BD4005A01FB69134403F530631A46202393609A
:104BE4003B6903F40053002B09D07B6A5A01FB692B
:104BF400134403F530631A464FF4005393607B6A01
:104C040001337B62BB6A5B08BB62BB6A002B7FF427
:104C140062AF7B681B68184603F03CF8034603F454
:104C24008023B3F5802F40F0DB807B681B68184637
:104C340003F07BF8B86200237B62CDE0BB6A03F02B
:104C44000103002B00F0C2807B681B687A6AD2B231
:104C54001146184603F09FF838613B6903F00103DD
:104C6400002B57D07B6A03F00F03012202FA03F3EF
:104C7400FB60FB6903F500635A6BFB68DB43F9696E
:104C840001F5006113404B637B6A5A01FB691344CD
:104C940003F510631A46012393607B689B79012B0B
:104CA40032D179687A6A1346DB0013449B000B44C3
:104CB4002033196878687A6A1346DB0013449B0032
:104CC40003441C331B68194478687A6A1346DB0072
:104CD40013449B000344203319607B6A002B13D1D7
:104CE40079687A6A1346DB0013449B000B4424332F
:104CF4001B68002B08D17B6818687B6803F29C430F
:104D04001A46012103F0A4F87B6ADBB219467868DD
:104D140016F025FE3B6903F00803002B08D07B6ADC
:104D24005A01FB69134403F510631A460823936080
:104D34003B6903F01003002B08D07B6A5A01FB691E
:104D4400134403F510631A46102393603B6903F080
:104D54004003002B08D07B6A5A01FB69134403F516
:104D640010631A46402393603B6903F00203002B4F
:104D740023D0796A386A02F085F87A6A1346DB0030
:104D840013449B0010337A68134404337B617B69BA
:104D9400DB78012B08D17B690022DA707B6ADBB2F5
:104DA4001946786816F072FE7B6A5A01FB6913444F
:104DB40003F510631A46022393603B6903F08003F2
:104DC400002B03D0796A786800F0ACFC7B6A01336D
:104DD4007B62BB6A5B08BB62BB6A002B7FF42EAFAD
:104DE4007B681B68184602F055FF034603F0004336
:104DF400B3F1004F14D1FB6903F500635B68FA69F2
:104E040002F5006223F001035360786816F01EFE79
:104E14007B681B685A697B681B6802F000425A6110
:104E24007B681B68184602F035FF034603F40063F1
:104E3400B3F5006F12D1FB6903F500639B6803F0BF
:104E44000103012B02D1786816F0DAFD7B681B6838
:104E54005A697B681B6802F400625A617B681B68AC
:104E6400184602F017FF034603F48053B3F5805F3E
:104E740040F0B780FB6903F500635B68FA6902F5EB
:104E8400006223F0010353607B681B6810211846FD
:104E940001F0F8FF0023FB6246E0FB6A5A01FB695C
:104EA400134403F510631A464FF67F339360FB6A8D
:104EB4005A01FB69134403F510631B68FA6A510134
:104EC400FA690A4402F5106223F400131360FB6AC2
:104ED4005A01FB69134403F530631A464FF67F33D6
:104EE4009360FB6A5A01FB69134403F530631B6842
:104EF400FA6A5101FA690A4402F5306223F4001394
:104F04001360FB6A5A01FB69134403F530631B68A1
:104F1400FA6A5101FA690A4402F5306243F0006307
:104F24001360FB6A0133FB627B681B791A46FB6AD8
:104F34009342B2D3FB6903F50063DB69FA6902F5B6
:104F4400006243F00113D3617B68DB7B002B16D036
:104F5400FB6903F50063D3F88430FA6902F5006253
:104F640043F00B03C2F88430FB6903F500635B6C08
:104F7400FA6902F5006243F00B03536415E0FB6920
:104F840003F500635B69FA6902F5006243F40053B8
:104F940043F02B035361FB6903F500631B69FA6952
:104FA40002F5006243F00B031361FB6903F5006330
:104FB4001B68FA6902F5006223F4FE6313607B68E0
:104FC40018687B6899797B6803F29C431A4602F05F
:104FD4003FFF7B681B685A697B681B6802F4805238
:104FE4005A617B681B68184602F054FE034603F4BA
:104FF4000053B3F5005F23D17B681B68184602F0A9
:1050040004FF7B681B68184601F0B2FF03461A468A
:105014007B68DA717B681C6801F09AF901467B6849
:10502400DB791A46204601F0BBFC786816F0BFFC19
:105034007B681B685A697B681B6802F400525A61DA
:105044007B681B68184602F025FE034603F008033C
:10505400082B0AD1786816F09CFC7B681B685A6997
:105064007B681B6802F008025A617B681B6818465B
:1050740002F010FE034603F08003802B23D13B6A29
:105084009B6923F080023B6A9A6101237B6214E0EE
:1050940079687A6A1346DB0013449B000B4403F2DD
:1050A40057231B78012B05D17B6ADBB2194678683C
:1050B40000F007FB7B6A01337B627B681B791A462D
:1050C4007B6A9342E4D37B681B68184602F0E2FDD6
:1050D400034603F48013B3F5801F3CD101237B62A4
:1050E4002BE07B6A5A01FB69134403F510631B68C8
:1050F400BB6179687A6A1346DB0013449B000B4456
:1051040018331B78012B15D1BB69002B12DA79688F
:105114007A6A1346DB0013449B000B4417330122C5
:105124001A707B6ADBB263F07F03DBB219467868DE
:1051340000F0C7FA7B6A01337B627B681B791A46ED
:105144007B6A9342CDD37B681B685A697B681B6872
:1051540002F480125A617B681B68184602F09AFDBB
:10516400034603F40013B3F5001F56D101237B62F9
:1051740045E07B6A5A01FB69134403F530631B68FD
:10518400BB6179687A6A1346DB0013449B000B44C5
:1051940003F516731B78012B2ED1BB69002B2BDA78
:1051A400BB6903F480327B68D3F8D43403F0010381
:1051B4009A4221D179687A6A1346DB0013449B0032
:1051C4000B4403F2572301221A703B6A9B6943F094
:1051D40080023B6A9A613B6A5B6903F08003002B9F
:1051E4000AD1FB6903F500635B68FA6902F50062A2
:1051F40043F40073536008E07B6A01337B627B688D
:105204001B791A467B6A9342B3D37B681B685A693D
:105214007B681B6802F400125A617B681B6818469D
:1052240002F038FD034603F08043B3F1804F0AD106
:10523400786816F03DFC7B681B685A697B681B68BC
:1052440002F080425A617B681B68184602F022FD16
:10525400034603F00403042B15D17B681B685B68C9
:10526400BB61BB6903F00403002B02D0786816F01D
:105274002DFC7B681B6859687B681B68BA690A4304
:105284005A6000E000BF3437BD4690BD80B582B09F
:1052940000AF78600B46FB707B6893F89434012B65
:1052A40001D1022312E07B68012283F894247B68F5
:1052B400FA785A747B681B68FA781146184602F02B
:1052C40084FC7B68002283F8942400231846083762
:1052D400BD4680BD80B584B000AF786008461146F5
:1052E4001A460346FB700B463B801346BB700023F3
:1052F400FB7297F90330002B0FDAFB7803F00F02EF
:105304001346DB0013449B0010337A6813440433C0
:10531400FB60FB6801225A700FE0FB7803F00F0278
:105324001346DB0013449B0003F514737A6813449B
:105334000433FB60FB6800225A70FB7803F00F0310
:10534400DAB2FB681A703A88FB689A60FB68BA782C
:105354001A71FB685B78002B04D0FB681B781A4633
:10536400FB685A83BB78022B02D1FB6800225A7176
:105374007B6893F89434012B01D102230EE07B68FF
:10538400012283F894247B681B68F968184601F0AD
:1053940013FE7B68002283F89424FB7A18461037A6
:1053A400BD4680BD80B584B000AF78600B46FB700D
:1053B40097F90330002B0FDAFB7803F00F02134642
:1053C400DB0013449B0010337A6813440433FB60FE
:1053D400FB6801225A700FE0FB7803F00F021346BA
:1053E400DB0013449B0003F514737A6813440433FD
:1053F400FB60FB6800225A70FB7803F00F03DAB2FB
:10540400FB681A707B6893F89434012B01D1022352
:105414000EE07B68012283F894247B681B68F9689A
:10542400184601F04FFE7B68002283F89424002381
:1054340018461037BD4680BD80B586B000AFF86011
:105444007A603B600B46FB72FB7A03F00F02134653
:10545400DB0013449B0003F51473FA68134404330C
:105464007B617B697A68DA607B693A681A617B6977
:1054740000225A617B6900225A70FB7A03F00F0301
:10548400DAB27B691A70FB689B79012B02D17A68C6
:105494007B69DA61FB681868FB689B791A4679694D
:1054A40001F0ECFE002318461837BD4680BD80B4D9
:1054B40083B000AF78600B46FB70FB7803F00F02FB
:1054C40079681346DB0013449B000B4403F51A73FD
:1054D4001B6818460C37BD4680BC704780B586B043
:1054E40000AFF8607A603B600B46FB72FB7A03F016
:1054F4000F021346DB0013449B001033FA68134475
:1055040004337B617B697A68DA607B693A681A6183
:105514007B6900225A617B6901225A70FB7A03F08D
:105524000F03DAB27B691A70FB689B79012B02D1F5
:105534007A687B69DA61FB681868FB689B791A46AC
:10554400796901F09BFE002318461837BD4680BDDB
:1055540080B584B000AF78600B46FB70FB7803F035
:105564000F037A681279934201D901234FE097F926
:105574000330002B0FDAFB7803F00F021346DB0035
:1055840013449B0010337A6813440433FB60FB68B4
:1055940001225A700DE0FA781346DB0013449B0095
:1055A40003F514737A6813440433FB60FB68002228
:1055B4005A70FB6801229A70FB7803F00F03DAB289
:1055C400FB681A707B6893F89434012B01D1022391
:1055D4001DE07B68012283F894247B681B68F968CA
:1055E400184602F020FAFB7803F00F03002B09D1D0
:1055F4007B6818687B6899797B6803F29C431A4638
:1056040002F026FC7B68002283F8942400231846C9
:105614001037BD4680BD80B584B000AF78600B46BE
:10562400FB70FB7803F00F037A681279934201D977
:10563400012342E097F90330002B0FDAFB7803F0E3
:105644000F021346DB0013449B0010337A681344A3
:105654000433FB60FB6801225A700FE0FB7803F00F
:105664000F021346DB0013449B0003F514737A689E
:1056740013440433FB60FB6800225A70FB68002269
:105684009A70FB7803F00F03DAB2FB681A707B6838
:1056940093F89434012B01D102230EE07B6801229C
:1056A40083F894247B681B68F968184602F028FA8A
:1056B4007B68002283F89424002318461037BD46E3
:1056C40080BD80B584B000AF78600B46FB7097F95D
:1056D4000330002B0CDAFB7803F00F021346DB00D7
:1056E40013449B0010337A6813440433FB600CE0CA
:1056F400FB7803F00F021346DB0013449B0003F511
:1057040014737A6813440433FB607B681B68F9687C
:10571400184602F04BF80346FB72FB7A1846103722
:10572400BD4680BD80B58AB002AF786039607B68C1
:105734001B687B617B693B613A681346DB00134459
:105744009B0010337A6813440433FB60FB685A6986
:10575400FB681B699A4201D901236BE0FB681A6953
:10576400FB685B69D31AFB61FB689B68FA699A4220
:1057740002D9FB689B68FB61FB6903339B08BB612F
:105784002AE0FB681A69FB685B69D31AFB61FB6852
:105794009B68FA699A4202D9FB689B68FB61FB69C2
:1057A40003339B08BB61FB68D9683B68DAB2FB69C9
:1057B40098B27B689B7900930346786902F09FF85E
:1057C400FB68DA68FB691A44FB68DA60FB685A69AB
:1057D400FB691A44FB685A613B685A013B691344EC
:1057E40003F510639B699BB2BA699A4209D8FB68B6
:1057F4005A69FB681B699A4203D2FB681B69002B38
:10580400BFD1FB681A69FB685B699A4211D83B688F
:1058140003F00F03012202FA03F3BB603B6903F5B3
:1058240000635A6BBB68DB43396901F500611340BF
:105834004B63002318462037BD4680BD80B588B031
:1058440000AF786039607B681B68FB61FB69BB61F2
:10585400FB693C3304331B687B613B685A01BB69B9
:10586400134403F530639B683B617B689B79012B90
:105874007BD13B6903F00803002B15D07B69614A97
:10588400934240F2B9803B6903F40043002B00F0DB
:10589400B3803B685A01BB69134403F530631A466D
:1058A4004FF400439360A7E03B6903F02003002B0F
:1058B40009D03B685A01BB69134403F530631A46A7
:1058C4002023936098E03B6903F02803002B40F009
:1058D40093807B694B4A93420FD93B6903F400439D
:1058E400002B0AD03B685A01BB69134403F53063AB
:1058F4001A464FF4004393607EE03A681346DB0097
:1059040013449B0003F514737A6813440433FB6057
:10591400FB681A6A3B685901BB690B4403F53063A1
:105924001B69C3F31203D21AFB685A613B68002B4C
:1059340014D1FB681B69002B09D17B6818687B684C
:1059440003F29C431A46012102F082FA06E0FB6846
:10595400DA68FB685B691A44FB68DA603B68DBB2AF
:105964001946786815F0E0FF46E07B69264A9342C1
:1059740024D13B6903F40043002B0AD03B685A014D
:10598400BB69134403F530631A464FF40043936034
:1059940032E03B6903F02003002B08D03B685A0136
:1059A400BB69134403F530631A46202393603B68B4
:1059B400DBB21946786815F0B7FF1DE03B68002B91
:1059C40014D179683A681346DB0013449B000B44F6
:1059D40003F519731B68002B08D17B6818687B6872
:1059E40003F29C431A46002102F032FA3B68DBB210
:1059F4001946786815F098FF002318462037BD46ED
:105A040080BD00BF0A30544F0A31544F80B586B070
:105A140000AF786039607B681B687B617B693B61A0
:105A24007B693C3304331B68FB603B685A013B6968
:105A3400134403F530639B68BB60FB68154A9342CB
:105A44000ED9BB6803F40043002B09D03B685A010C
:105A54003B69134403F530631A464FF400439360E3
:105A6400786815F04FFFFB680A4A93420CD97B68AB
:105A74009B79012B08D17B6818687B6803F29C43EF
:105A84001A46012102F0E4F9002318461837BD46EE
:105A940080BD00BF0A30544F80B485B000AF786039
:105AA4000B46FB7013463B807B681B685B6ABB60DC
:105AB400FB78002B07D13B8819047B681B68BA6804
:105AC4000A439A6228E07B681B689B6A1B0CBA68CD
