:020000040800F2
:1000000000000220890D0008E10B0008E70B000842
:10001000ED0B0008F30B0008F90B000800000000CE
:10002000000000000000000000000000FF0B0008BE
:100030000B0C000800000000170C0008230C00083F
:10004000D90D0008D90D0008D90D0008D90D0008F8
:10005000D90D0008D90D0008D90D0008D90D0008E8
:10006000D90D0008D90D0008D90D0008D90D0008D8
:10007000D90D0008D90D0008D90D0008D90D0008C8
:10008000D90D0008D90D0008D90D0008D90D0008B8
:10009000D90D0008D90D0008D90D0008D90D0008A8
:1000A000D90D0008D90D0008D90D0008D90D000898
:1000B000D90D0008D90D0008D90D0008D90D000888
:1000C000D90D0008D90D0008D90D0008D90D000878
:1000D000D90D0008D90D0008D90D0008D90D000868
:1000E0002F0C0008D90D0008D90D0008D90D000803
:1000F000D90D0008D90D0008D90D0008D90D000848
:10010000D90D0008D90D0008D90D0008D90D000837
:10011000D90D0008D90D0008D90D0008D90D000827
:10012000D90D0008D90D0008D90D0008D90D000817
:10013000D90D0008D90D0008D90D0008D90D000807
:10014000D90D0008D90D0008D90D0008490C000888
:10015000D90D0008D90D0008D90D0008D90D0008E7
:10016000D90D0008D90D0008D90D0008D90D0008D7
:10017000D90D00085D0C0008D90D00080000000032
:04018000D90D00088D
:1001840010B5054C237833B9044B13B10448AFF3CD
:1001940000800123237010BD000200200000000035
:1001A40048E8010808B5034B1BB103490348AFF302
:1001B400008008BD000000000402002048E8010897
:1001C40010F8012B11F8013B012A28BF9A42F7D0FD
:1001D400D01A7047034613F8012B002AFBD1181AD2
:1001E4000138704753B94AB9002908BF00281CBF19
:1001F4004FF0FF314FF0FF3000F072B9ADF1080C51
:100204006DE904CE00F006F8DDF804E0DDE9022330
:1002140004B070472DE9F047089E0D4604468E460B
:10022400002B4CD18A42944667D9B2FA82F353B177
:1002340002FA03FCC3F1200201FA03FE20FA02F2DF
:1002440042EA0E0E9C404FEA1C47BEFBF7F11FFA30
:100254008CF507FB11EE01FB05F0220C42EA0E427D
:1002640090420AD91CEB020201F1FF3E80F0198191
:10027400904240F2168102396244121AB2FBF7F03E
:1002840007FB102200FB05F5A4B244EA0244A54290
:100294000AD91CEB040400F1FF3280F00481A5426A
:1002A40040F201816444023840EA01400021641BA9
:1002B4001EB1DC400023C6E90043BDE8F0878B4251
:1002C40008D9002E00F0EA800021C6E9000508469E
:1002D400BDE8F087B3FA83F1002948D1AB4202D3D9
:1002E400824200F2F880841A65EB030201209646EC
:1002F400002EE2D0C6E9004EDFE702B9FFDEB2FA13
:1003040082F3002B40F08E80881A0121170C1FFA0B
:1003140082FEB0FBF7F507FB1500220C42EA00420F
:100324000EFB05F0904208D91CEB020205F1FF38E0
:1003340002D2904200F2CC804546121AB2FBF7F08A
:1003440007FB10220EFB00FEA4B244EA0244A645B9
:1003540008D91CEB040400F1FF3202D2A64500F2D6
:10036400B4801046A4EB0E0440EA0540A0E7C1F1B6
:1003740020078B4022FA07FC4CEA030C25FA07FA03
:100384004FEA1C49BAFBF9F88D4020FA07F309FB40
:1003940018AA1FFA8CFE2B4300FA01F508FB0EF095
:1003A4001C0C44EA0A44A04202FA01F20BD91CEBE9
:1003B400040408F1FF3A80F08680A04240F2838072
:1003C400A8F102086444241A98B2B4FBF9F309FBB7
:1003D400134403FB0EFE40EA0444A64508D91CEB73
:1003E400040403F1FF306AD2A64568D9023B644491
:1003F40043EA0840A0FB0293A4EB0E049C42C846C7
:100404009E4654D351D0002E67D0B5EB080364EB5D
:100414000E04CB4004FA07F71F43CC40C6E900742E
:1004240000214AE702FA03FCC3F12000C1409D40C9
:1004340024FA00F04FEA1C472843B1FBF7F507FB09
:1004440015111FFA8CFE020C42EA014205FB0EF163
:10045400914204FA03F408D91CEB020205F1FF38B7
:100464002FD291422DD9023D6244521AB2FBF7F1C8
:1004740007FB112280B240EA024001FB0EF28242E5
:1004840008D91CEB000001F1FF3816D2824214D9BE
:1004940002396044801A41EA05413AE73146304660
:1004A4000BE77146E9E61046FEE64D45ABD2B9EBE3
:1004B400020863EB0C0E0138A5E74146EAE7034660
:1004C40096E74546D1E7D0467DE76444023849E7DC
:1004D400023D624431E708460AE73146EDE600BFD3
:1004E400704700BF80B586B000AFF860B9607A602D
:1004F4000023FB820BE0B9684B1CBB606423012220
:10050400084807F0DFF8FB8A01339BB2FB82B7F996
:1005140016307A689A42EEDC7B6818461837BD4676
:1005240080BD00BFB802002080B582B000AF034692
:10053400FB80FB88B3F5006F0DD14FF400611048C8
:1005440002F080F80346002B16D14FF400510C48FA
:1005540002F0A7F810E0FB88B3F5805F0CD14FF4EC
:100564008051074802F06EF80346002B04D14FF483
:100574008041034802F095F800BF0837BD4680BDAE
:100584000010024080B586B002AF0346FB71FB79D0
:10059400FB7307F10F024FF47A73009301233021A8
:1005A400084804F005FB07F10E024FF47A73009338
:1005B40001233021034804F0F9FBBB7B18461037B4
:1005C400BD4680BD1C02002080B500AF0020FFF7AF
:1005D400D9FF0346184680BD80B588B002AFF860E5
:1005E400B9607A600223FB7507F117024FF47A733E
:1005F400009301233021164804F0DAFA07F11002BF
:100604004FF47A73009306233021114804F0CEFB93
:100614007B7C5BB21B023A7C13439B111AB2FB68CE
:100624001A80FB7C5BB21B02BA7C13439B111AB287
:10063400BB681A807B7D5BB21B023A7D13439B111E
:100644001AB27B681A8000BF1837BD4680BD00BF50
:100654001C02002080B586B002AF00F0BDFB00F0A4
:1006640071F800F037F900F0E1F800F009F91CF036
:1006740019F809F05FFC1CF019FD09F075FC00F095
:10068400A7F829481DF0E0FA12F062FDFFF79CFF7D
:100694000346194625481DF071FA0F233B73402386
:1006A4007B7307F10C024FF47A7300930223302119
:1006B4001F4804F07DFA10233B730E237B7307F16C
:1006C4000C024FF47A73009302233021184804F08B
:1006D4006FFA18481DF0B8FA09F078FD164B1A683D
:1006E400531C15490B60154BA3FB02135B0B42F221
:1006F400107101FB03F3D31A002B12D1BA1D07F1B9
:10070400080107F10A031846FFF766FFB7F90A3034
:100714001946B7F908301A46B7F9063008481DF0EB
:100724002DFA1CF0E9FCD7E760E8010874E8010839
:100734001C02002088E80108000300205917B7D1E3
:10074400B4E8010880B592B000AF07F11803302275
:10075400002118461DF068FB3B1D00221A605A60F8
:100764009A60DA601A610123BB610123FB610223F1
:100774003B634FF480037B631923BB63C023FB6398
:1007840002233B6404237B6407F11803184606F034
:10079400F5FA0346002B01D000F02EF90F237B60FD
:1007A4000223BB600023FB604FF4A0533B614FF472
:1007B40080537B613B1D0321184606F033FD03463D
:1007C400002B01D000F018F900BF4837BD4680BDAA
:1007D40080B500AF124B134A1A60114B124A5A608B
:1007E4000F4B00229A600E4B0022DA600C4B4FF440
:1007F40080421A610A4B00225A61094B00229A6115
:10080400074B0022DA61064B00221A62044804F006
:100814008BF80346002B01D000F0EEF800BF80BD3A
:100824001C02002000540040A086010080B500AFE7
:10083400114B124A1A60104B4FF4E1325A600E4BBE
:1008440000229A600C4B0022DA600B4B00221A61E2
:10085400094B0C225A61084B00229A61064B002274
:10086400DA61054806F0DEFE0346002B01D000F0F5
:10087400C3F800BF80BD00BF70020020001001401B
:1008840080B500AF114B124A1A60104B4FF4E1329D
:100894005A600E4B00229A600C4B0022DA600B4B1C
:1008A40000221A61094B0C225A61084B00229A61FA
:1008B400064B0022DA61054806F0B4FE0346002B1D
:1008C40001D000F099F800BF80BD00BFB80200203D
:1008D4000048004080B58AB000AF07F1140300223D
:1008E4001A605A609A60DA601A6100233B61404BD7
:1008F4001B6B3F4A43F0100313633D4B1B6B03F028
:1009040010033B613B690023FB60394B1B6B384A86
:1009140043F080031363364B1B6B03F08003FB60CF
:10092400FB680023BB60324B1B6B314A43F004036A
:1009340013632F4B1B6B03F00403BB60BB680023E2
:100944007B602B4B1B6B2A4A43F001031363284B38
:100954001B6B03F001037B607B6800233B60244B2B
:100964001B6B234A43F002031363214B1B6B03F0FD
:1009740002033B603B6801224FF460411D4801F0D3
:1009840078FE4FF400637B614FF48813BB6100234E
:10099400FB6107F114031946164801F0B5FC4FF446
:1009A40080537B614FF40413BB610023FB6107F1A7
:1009B400140319460F4801F0A7FC4FF460437B6110
:1009C4000123BB610023FB6100233B6207F1140395
:1009D4001946084801F098FC00220021282000F064
:1009E40064FB282000F07DFB00BF2837BD4680BD96
:1009F400003802400010024080B400AF72B600BF5D
:100A0400FEE7000080B483B000AF00237B600F4B8F
:100A14005B6C0E4A43F4804353640C4B5B6C03F4ED
:100A240080437B607B6800233B60084B1B6C074A58
:100A340043F080531364054B1B6C03F080533B60FD
:100A44003B6800BF0C37BD4680BC7047003802408D
:100A540080B58AB000AF786007F1140300221A60F1
:100A64005A609A60DA601A617B681B68194A93427B
:100A74002CD100233B61184B1B6B174A43F0020334
:100A84001363154B1B6B03F002033B613B694FF48B
:100A940040737B611223BB610023FB6103233B6230
:100AA40004237B6207F1140319460C4801F02CFC63
:100AB4000023FB60084B1B6C074A43F400131364C8
:100AC400054B1B6C03F40013FB60FB6800BF283765
:100AD400BD4680BD0054004000380240000402407E
:100AE40080B58CB000AF786007F11C0300221A6057
:100AF4005A609A60DA601A617B681B68324A9342D2
:100B04002CD10023BB61314B5B6C304A43F01003A2
:100B140053642E4B5B6C03F01003BB61BB69002371
:100B24007B612A4B1B6B294A43F002031363274B57
:100B34001B6B03F002037B617B69C023FB6102230F
:100B44003B6200237B620323BB620723FB6207F142
:100B54001C0319461E4801F0D7FB31E07B681B6873
:100B64001C4A93422CD100233B61184B1B6C174A3F
:100B740043F480231364154B1B6C03F480233B6103
:100B84003B690023FB60114B1B6B104A43F00403C9
:100B940013630E4B1B6B03F00403FB60FB684FF401
:100BA4004063FB6102233B6200237B620323BB623D
:100BB4000723FB6207F11C031946074801F0A4FB55
:100BC40000BF3037BD4680BD0010014000380240F0
:100BD40000040240004800400008024080B400AF16
:100BE400FEE780B400AFFEE780B400AFFEE780B458
:100BF40000AFFEE780B400AFFEE780B400AF00BFF3
:100C0400BD4680BC704780B400AF00BFBD4680BC09
:100C1400704780B400AF00BFBD4680BC704780B54C
:100C240000AF00F02BF900BF80BD80B500AF4FF4DA
:100C3400006001F04FFD4FF4805001F04BFD00BF08
:100C440080BD000080B500AF024804F0A5FF00BFDE
:100C540080BD00BF3486002080B500AF024802F09A
:100C64002DF800BF80BD00BF0C8F002080B586B07A
:100C740000AFF860B9607A6000237B610AE0AFF3EB
:100C840000800146BB685A1CBA60CAB21A707B69FC
:100C940001337B617A697B689A42F0DB7B68184692
:100CA4001837BD4680BD80B483B000AF78604FF084
:100CB400FF3318460C37BD4680BC704780B483B000
:100CC40000AF786039603B684FF400525A600023EB
:100CD40018460C37BD4680BC704780B483B000AF63
:100CE4007860012318460C37BD4680BC704780B439
:100CF40085B000AFF860B9607A60002318461437F5
:100D0400BD4680BC7047000080B487B000AF7860F7
:100D1400144A154BD31A7B617B693B61134B1B68E7
:100D2400002B02D1114B124A1A60104B1A687B68CF
:100D340013443A699A4205D20E4B0C221A604FF0C2
:100D4400FF3309E0094B1B68FB60084B1A687B689A
:100D54001344064A1360FB6818461C37BD4680BC22
:100D6400704700BF000002200004000004030020BC
:100D7400609400205494002080B400AF00BFBD46AE
:100D840080BC7047DFF834D0FFF7F6FF0C480D49FC
:100D94000D4A002302E0D458C4500433C4188C42D2
:100DA400F9D30A4A0A4C002301E013600432A24238
:100DB400FBD31DF0B7F8FFF74DFC7047000002208D
:100DC4000000002000020020681C0208000200202D
:100DD4005C940020FEE7000080B500AF0E4B1B685A
:100DE4000D4A43F4007313600B4B1B680A4A43F427
:100DF40080631360084B1B68074A43F480731360D5
:100E0400032000F047F90F2000F008F8FFF7FAFD7F
:100E14000023184680BD00BF003C024080B582B06C
:100E240000AF7860124B1A68124B1B7819464FF4C6
:100E34007A73B3FBF1F3B2FBF3F3184600F05FF9F6
:100E44000346002B01D001230EE07B680F2B0AD848
:100E5400002279684FF0FF3000F027F9064A7B68DA
:100E64001360002300E0012318460837BD4680BD07
:100E740000000020080000200400002080B400AF1F
:100E8400054B1B781A46054B1B681344034A136031
:100E940000BFBD4680BC7047080000200803002046
:100EA40080B400AF024B1B681846BD4680BC704737
:100EB4000803002080B584B000AF7860FFF7F0FF2E
:100EC400B8607B68FB60FB68B3F1FF3F05D00A4B59
:100ED4001B781A46FB681344FB6000BFFFF7E0FF72
:100EE4000246BB68D31AFA689A42F7D800BF00BF1B
:100EF4001037BD4680BD00BF0800002080B485B017
:100F040000AF78607B6803F00703FB600C4BDB6881
:100F1400BB60BA684FF6FF031340BB60FB681A025C
:100F2400BB68134343F0BF6343F40033BB60044A1C
:100F3400BB68D36000BF1437BD4680BC704700BF98
:100F440000ED00E080B400AF044BDB681B0A03F043
:100F540007031846BD4680BC704700BF00ED00E0A3
:100F640080B483B000AF0346FB7197F90730002BC0
:100F74000BDBFB7903F01F02064997F907305B0985
:100F8400012000FA02F241F8232000BF0C37BD46CD
:100F940080BC704700E100E080B483B000AF03463A
:100FA4003960FB7197F90730002B0ADB3B68DAB232
:100FB4000C4997F907301201D2B20B4483F800238D
:100FC4000AE03B68DAB20849FB7903F00F03043BFB
:100FD4001201D2B20B441A7600BF0C37BD4680BC56
:100FE400704700BF00E100E000ED00E080B489B08C
:100FF40000AFF860B9607A60FB6803F00703FB6137
:10100400FB69C3F10703042B28BF0423BB61FB69FD
:101014000433062B02D9FB69033B00E000237B6108
:101024004FF0FF32BB6902FA03F3DA43BB681A409C
:101034007B699A404FF0FF317B6901FA03F3D9438E
:101044007B680B40134318462437BD4680BC704769
:1010540080B582B000AF78607B68013BB3F1807FDC
:1010640001D301230FE00A4A7B68013B53600F213F
:101074004FF0FF30FFF790FF054B00229A60044BBE
:1010840007221A60002318460837BD4680BD00BFFA
:1010940010E000E080B582B000AF78607868FFF7B8
:1010A4002DFF00BF0837BD4680BD80B586B000AFB8
:1010B4000346B9607A60FB7300237B61FFF742FF4C
:1010C40078617A68B9687869FFF790FF024697F902
:1010D4000F3011461846FFF75FFF00BF1837BD46B3
:1010E40080BD80B582B000AF0346FB7197F907302D
:1010F4001846FFF735FF00BF0837BD4680BD80B5F1
:1011040082B000AF78607868FFF7A2FF0346184604
:101114000837BD4680BD000080B588B000AF786058
:101124000023FB610023FB60A34BBB6100237B61B5
:1011340000233B617B68002B01D1012373E17B68B1
:1011440093F84430DBB2002B06D17B68002283F88D
:101154004520786809F046F80023BB60974B5B6C28
:10116400964A43F480435364944B5B6C03F480438A
:10117400BB60BB68924B5B68914A23F400035360E5
:101184008F4B5A687B681B6A8D4913434B607B689D
:101194001B6803F580531B687A68126843F00103E7
:1011A40002F580521360FFF77BFE786111E0FFF7D0
:1011B40077FE02467B69D31AB3F5FA7F09D97B68B7
:1011C400032283F844207B68002283F8452003230C
:1011D40029E17B681B6803F580531B6803F0010356
:1011E400002BE4D17B681B681B69FB61FB6923F05E
:1011F4001C03FB6106F0C8F9B861BB69714A9342EC
:1012040008D9BB69704A934204D8FB6943F00803C8
:10121400FB611AE0BB696C4A934208D9BB69664A10
:10122400934204D2FB6943F00C03FB610DE0BB69FC
:10123400614A934203D3BB69644A934204D9FB696C
:1012440043F00403FB6100E000BF7B681B68FA699C
:101254001A614FF400420021786800F08EFB0346C7
:10126400002B0BD001233B613969786800F044FD01
:101274007B68012283F844200123D4E0FF20FFF798
:1012840019FE7B685B68002B00F0A280FFF708FE64
:10129400786107F10C031A460121786800F005FB18
:1012A400FFF7FEFD02467B69D31A41F2883293426E
:1012B4000FD901233B613969786800F01DFD7B6813
:1012C400012283F844207B68002283F8452003230D
:1012D400A9E0FB6803F00403002BDAD04FF480523A
:1012E4000021786800F049FB0346002B0BD0012352
:1012F4003B613969786800F0FFFC7B68012283F860
:10130400442001238FE0FFF7CBFD786107F10C0344
:101314001A460121786800F0C8FAFFF7C1FD0246B9
:101324007B69D31A41F2883293420FD901233B617E
:101334003969786800F0E0FC7B68012283F8442076
:101344007B68002283F8452003236CE0FB6803F0EC
:101354002003002BDAD007F10C031A461021786819
:1013640000F0A3FA0346002B0BD001233B6139693B
:10137400786800F0C1FC7B68012283F844200123D3
:1013840051E0FB6803F00403002B04D07B684FF4A6
:101394000062DA6002E07B680022DA60FB6803F036
:1013A4000203002B03D07B6800229A6032E07B6842
:1013B4004FF480429A602DE0008793030038024086
:1013C40000380140FF2C3101BF0E1602FFE0F50585
:1013D4007B68DB68DB089AB27B689B685B089BB21E
:1013E40013439BB21A460021786800F0C6FA0346FC
:1013F400002B0BD001233B613969786800F07CFC39
:101404007B68012283F8442001230CE040F6FF703E
:10141400FFF750FD3969786800F06EFC7B680122A3
:1014240083F84420002318462037BD4680BD00BF02
:1014340080B487B000AFF860B9607A603B60002385
:101444007B61FB6893F84530012B01D1022351E005
:10145400FB68012283F84520FB68022283F84420BC
:10146400FB68BA68DA6200237B6130E07B695B0168
:10147400BA6813443B613B694FF480121A607B697C
:1014840040F2F45202FB03F37A6813441A463B69B0
:101494009A60FB68DB69002B05D13B691B6843F448
:1014A40040023B691A603B68013B7A699A4208D260
:1014B4007B6901335B01BA6813441A463B69DA60FD
:1014C40002E0BA683B69DA607B6901337B617A695F
:1014D4003B689A42CAD3FB681A68BB6802F580521B
:1014E4001361FB68012283F84420FB68002283F81F
:1014F4004520002318461C37BD4680BC704780B485
:1015040087B000AFF860B9607A603B6000237B610C
:10151400FB6893F84530012B01D1022355E0FB68A9
:10152400012283F84520FB68022283F84420FB68EB
:10153400BA689A6200237B6134E07B695B01BA6814
:1015440013443B613B694FF000421A603B6944F22B
:10155400F4525A607B6940F2F45202FB03F37A6856
:1015640013441A463B699A60FB689B69012B05D1B9
:101574003B695B6823F000423B695A603B68013B6E
:101584007A699A4208D27B6901335B01BA681344D1
:101594001A463B69DA6002E0BA683B69DA607B6943
:1015A40001337B617A693B689A42C6D3FB681A6847
:1015B400BB6802F58052D360FB68012283F84420A3
:1015C400FB68002283F84520002318461C37BD46DB
:1015D40080BC704780B487B000AF78603960002366
:1015E4007B610023FB6000233B617B6893F84530FB
:1015F400012B01D10223CCE07B68012283F8452032
:101604007B68022283F844203B68002B09D17B6865
:10161400012283F844207B68002283F845200123BB
:10162400B7E07B68DB6A1B68002B09DA7B6812224F
:1016340083F844207B68002283F845200123A8E036
:101644003B6840F2F452934215D93B68534AA2FBDB
:1016540003239B0A7B613A68504BA3FB02139B0A4A
:1016640040F2F45101FB03F3D31A002B05D07B693C
:1016740001337B6101E001237B617B69012B1CD178
:101684007B68DB6A1A687B68DB6A42F040521A6046
:101694007B68DB6A3A68C2F30C025A607B68DB6AD7
:1016A4001A687B68DB6A42F000421A607B68DB6A76
:1016B400DB681A467B68DA624BE000233B6144E056
:1016C4007B68DB6A1A687B68DB6A22F040521A6026
:1016D4003B69002B07D17B68DB6A1A687B68DB6A8D
:1016E40042F080521A607B68DB6A40F2F4525A601E
:1016F4007B69013B3A699A4216D17B68DB6A1A68B6
:101704007B68DB6A42F000521A607B69244A03FB5F
:1017140002F23B68134403F2F453FB607B68DB6A18
:10172400FA68C2F30C025A607B68DB6A1A687B6849
:10173400DB6A42F000421A607B68DB6ADB681A46A7
:101744007B68DA623B6901333B613A697B699A429F
:10175400B6D37B681B6803F580535B6903F004030D
:10176400002B0DD07B681B6803F580531A460423B5
:1017740053617B681B6803F580531A46002353604A
:101784007B68012283F844207B68002283F845208B
:10179400002318461C37BD4680BC70470BB002AC12
:1017A4000CFAFFFF80B485B000AF78600023FB60C3
:1017B4007B6893F84530012B01D1022370E07B68EC
:1017C400012283F845207B68022283F844207B6849
:1017D4009B6A1B68002B5ADB7B689B6A1B6803F4BB
:1017E4008073002B30D07B689B6B5A1C7B689A6398
:1017F4007B689B6B012B03D17B689A6A7B681A63B5
:101804007B689A6A7B685A637B689B6A1B681B0CBB
:10181400C3F30D03043BFB607B68FA68DA637B68FF
:101824001B6B9A687B681A647B689B6ADB681A4640
:101834007B689A627B68012283F844207B680022DB
:1018440083F8452000232BE07B689B6A1B6803F424
:101854000073002B10D07B689A6A7B681A637B68DC
:1018640000225A637B6801229A637B689B6ADB6867
:101874001A467B689A620AE07B689B6B5A1C7B68F9
:101884009A637B689B6ADB681A467B689A627B680A
:10189400012283F844207B68002283F84520012339
:1018A40018461437BD4680BC704780B586B000AF7B
:1018B400F8600B467A607B8100237B6100233B61E7
:1018C400FB6893F84430DBB2822B01D1022350E051
:1018D400FB68822283F84420FB681B681B697B61D8
:1018E4007B6903F01C037B61FB681B8ADB029BB2F0
:1018F4007A6913437B617B899B0103F4F8637A69FA
:1019040013437B617B6923F002037B617B6943F0B2
:1019140001037B61FB681B687A691A61FFF7C0FAEF
:10192400386115E0FFF7BCFA02463B69D31AB3F5F8
:10193400803F09D3FB68012283F84420FB6800221E
:1019440083F84520032314E0FB681B681B697B6153
:101954007B6903F00103002BE4D1FB681B685B691E
:101964009BB21A467B681A60FB68012283F8442004
:10197400002318461837BD4680BD80B586B000AF39
:10198400F8600B467A607B8100237B6100233B6116
:10199400FB6893F84430DBB2422B01D102234EE0C2
:1019A400FB68422283F84420FB681B681B697B6147
:1019B4007B6903F01C037B61FB681B8ADB029BB21F
:1019C4007A6913437B617B899B0103F4F8637A6929
:1019D40013437B617B6943F002037B617B6943F0C2
:1019E40001037B617B689AB2FB681B685A61FB68E0
:1019F4001B687A691A61FFF753FA386115E0FFF73B
:101A04004FFA02463B69D31AB3F5803F09D3FB680A
:101A1400012283F84420FB68002283F84520032335
:101A24000DE0FB681B681B697B617B6903F00103A4
:101A3400002BE4D1FB68012283F8442000231846DC
:101A44001837BD4680BD80B582B000AF78607B6832
:101A540093F84530012B01D102231FE07B6801225A
:101A640083F845207B68022283F84420786800F0DC
:101A74003FFB786800F076FB786800F001FC78683A
:101A840000F0AAFB786800F0D1FB7B68012283F8A0
:101A940044207B68002283F8452000231846083739
:101AA400BD4680BD80B582B000AF78607B6893F896
:101AB4004530012B01D102231FE07B68012283F80A
:101AC40045207B68022283F84420786800F099FB63
:101AD400786800F0C0FB786800F061FB786800F07B
:101AE400CFFB786800F021FB7B68012283F8442057
:101AF4007B68002283F84520002318460837BD463A
:101B040080BD000080B584B000AF786039600023E8
:101B1400FB607B6893F84530012B01D10223E4E09C
:101B24007B68012283F845207B68022283F84420E5
:101B34003B68002B00F0B1807B681B681B68FB606E
:101B4400FA686C4B1340FB603B681A683B685B683F
:101B54001A433B689B681A433B68DB681A437B68FB
:101B64009B681A433B681B691A433B685B691A43C9
:101B74007B68DB681A433B689B691A433B68DB69F3
:101B84001A433B681B6A1A433B685B6A1A433B6807
:101B94009B6A1343FA681343FB607B681B68FA680B
:101BA4001A607B681B681B68FB600120FFF782F9E1
:101BB4007B681B68FA681A603B68DA6A3B681B6BCF
:101BC4001A433B685B6B1A433B689B6B1A433B6845
:101BD400DB6B1A433B681B6C1A433B685B6C42EA41
:101BE40003013B689A6C7B681B680A435A607B68F4
:101BF4001B685B68FB600120FFF75CF97B681B686E
:101C0400FA685A607B681B683A68D26C9A607B6891
:101C14001B683A68126DDA607B681B689B69FB601D
:101C2400FA684FF641731340FB603B685B6D1A041E
:101C34003B689B6D1A433B68DB6D1A433B681B6E24
:101C44001A433B685B6E1A433B689B6E1343FA6806
:101C54001343FB607B681B68FA689A617B681B68A6
:101C64009B69FB600120FFF725F97B681B68FA6814
:101C74009A613B68D96E3B681A6F7B681B680A439C
:101C8400DA617B681B68DB69FB600120FFF712F9EE
:101C94007B681B68FA68DA611EE07B681B681B6856
:101CA400FB60FB6823F49043FB607B689A687B6865
:101CB400DB681343FA681343FB607B681B68FA68AC
:101CC4001A607B681B681B68FB600120FFF7F2F851
:101CD4007B681B68FA681A607B68012283F84420D9
:101CE4007B68002283F84520002318461037BD4640
:101CF40080BD00BF0F8120FF80B5B0B000AF786019
:101D040039600023C7F8BC303B68002B07D07B68E0
:101D14004FF40062DA607B684FF480429A600023DB
:101D2400BB640023FB6400233B6500237B65002325
:101D3400BB650023FB657B68DB69002B03D14FF493
:101D440080633B6601E000233B664FF400737B66CF
:101D54000023BB660023FB6600233B6700237B67ED
:101D64000023BB674023FB670023C7F880300023B0
:101D7400C7F884300023C7F888300023C7F88C30B4
:101D84000023C7F890300023C7F894300023C7F825
:101D940098300023C7F89C308023C7F8A030002374
:101DA400C7F8A4300023C7F8A8300023C7F8AC3024
:101DB4000023C7F8B0300023C7F8B4300023C7F8B5
:101DC400B8307B681B681B68C7F8BC30D7F8BC20E8
:101DD400AA4B1340C7F8BC30BA6CFB6C1A433B6D7A
:101DE4001A437B6D1A437B689B681A43BB6D1A4385
:101DF400FB6D1A437B68DB681A433B6E1A437B6EA8
:101E04001A43BB6E1A43FB6E1A433B6F1343D7F856
:101E1400BC201343C7F8BC307B681B68D7F8BC20D0
:101E24001A607B681B681B68C7F8BC300120FFF789
:101E340041F87B681B68D7F8BC201A607A6FBB6FC7
:101E44001A43FB6F1A43D7F880301A43D7F884300B
:101E54001A43D7F888301A43D7F88C3042EA030182
:101E6400D7F890207B681B680A435A607B681B681C
:101E74005B68C7F8BC300120FFF71CF87B681B685F
:101E8400D7F8BC205A607B681B68D7F894209A6006
:101E94007B681B68D7F89820DA607B681B689B69AD
:101EA400C7F8BC30D7F8BC204FF641731340C7F8CD
:101EB400BC30D7F89C301A04D7F8A0301A43D7F8AE
:101EC400A4301A43D7F8A8301A43D7F8AC301A43D1
:101ED400D7F8B0301343D7F8BC201343C7F8BC304D
:101EE4007B681B68D7F8BC209A617B681B689B6978
:101EF400C7F8BC300120FEF7DDFF7B681B68D7F80C
:101F0400BC209A61D7F8B410D7F8B8207B681B6856
:101F14000A43DA617B681B68DB69C7F8BC300120BF
:101F2400FEF7C8FF7B681B68D7F8BC20DA61002382
:101F3400BB604FF00073FB6000233B614FF4001360
:101F44007B610023BB610023FB6100233B62002310
:101F54007B620423BB624FF00073FB624FF4803357
:101F64003B634FF480037B634FF40053BB638023D4
:101F7400FB6300233B6400237B647B681B6803F5DD
:101F840080539B69C7F8BC30D7F8BC203C4B134046
:101F9400C7F8BC30BA68FB681A433B691A437B69CB
:101FA4001A43BB691A43FB691A433B6A1A437B6AA7
:101FB4001A43BB6A1343D7F8BC201343C7F8BC3099
:101FC4007B681B6803F580531A46D7F8BC309361CD
:101FD4007B681B6803F580539B69C7F8BC300120FC
:101FE400FEF768FF7B681B6803F580531A46D7F831
:101FF400BC309361FA6A3B6B1A437B6B1A43BB6B2D
:102004001A43FB6B1A433B6C9B001A437B6C1343D0
:102014007A68126843F4000302F5805213607B6807
:102024001B6803F580531B68C7F8BC300120FEF71A
:1020340041FF7B681B6803F580531A46D7F8BC3010
:1020440013607B689B69012B0DD17B681B6803F5CA
:102054008053DB697A68126843F4803343F04003A9
:1020640002F58052D3617B685B691A460021786867
:1020740000F008F800BFC037BD4680BD0F8120FFC7
:10208400233FDEF880B487B000AFF860B9607A60AF
:102094007B6805331B781B027A6804321278134379
:1020A4007B61BA68104B13441A467B6913607B68E2
:1020B40003331B781A067B6802331B781B041A430C
:1020C4007B6801331B781B0213437A68127813432D
:1020D4007B61BA68054B13441A467B69136000BFE1
:1020E4001C37BD4680BC704740800240448002409B
:1020F40080B584B000AF78600023FB607B681B6808
:102104001A687B681B6842F008021A607B681B68C7
:102114001B68FB60012000F0D9F87B681B68FA6833
:102124001A6000BF1037BD4680BD80B584B000AFD3
:1021340078600023FB607B681B681A687B681B68F7
:1021440022F008021A607B681B681B68FB60012090
:1021540000F0BCF87B681B68FA681A6000BF10378F
:10216400BD4680BD80B584B000AF78600023FB60BD
:102174007B681B681A687B681B6842F004021A605B
:102184007B681B681B68FB60012000F09FF87B687C
:102194001B68FA681A6000BF1037BD4680BD80B561
:1021A40084B000AF78600023FB607B681B681A680A
:1021B4007B681B6822F004021A607B681B681B683A
:1021C400FB60012000F082F87B681B68FA681A60E3
:1021D40000BF1037BD4680BD80B483B000AF7860C7
:1021E4007B681B6803F580539B697A68126843F423
:1021F400005302F58052936100BF0C37BD4680BC8A
:10220400704780B483B000AF78607B681B6803F5C7
:1022140080539B697A68126823F4005302F5805254
:10222400936100BF0C37BD4680BC704780B483B057
:1022340000AF78607B681B6803F580539B697A68FC
:10224400126843F0020302F58052936100BF0C3719
:10225400BD4680BC704780B483B000AF78607B68B3
:102264001B6803F580539B697A68126823F00203A4
:1022740002F58052936100BF0C37BD4680BC7047A5
:1022840080B584B000AF78600023FB607B681B6876
:1022940003F580539B697A68126843F4801302F54E
:1022A400805293617B681B6803F580539B69FB60D4
:1022B400012000F00BF87B681A68FB6802F5805275
:1022C400936100BF1037BD4680BD000080B485B067
:1022D40000AF78600A4B1B680A4AA2FB03235B0A1F
:1022E4007A6802FB03F3FB6000BFFB685A1EFA60C6
:1022F400002BF9D100BF00BF1437BD4680BC704726
:1023040000000020D34D621080B487B000AF786025
:10231400396000237B616FE13B681A6801217B69A6
:1023240001FA03F31340FB60FB68002B00F06181AA
:102334003B685B6803F00303012B05D03B685B68D3
:1023440003F00303022B30D17B689B683B617B69FC
:102354005B00032202FA03F3DB433A6913403B6157
:102364003B68DA687B695B0002FA03F33A6913435A
:102374003B617B683A699A607B685B683B610122D8
:102384007B6902FA03F3DB433A6913403B613B6820
:102394005B681B0903F001027B6902FA03F33A69E3
:1023A40013433B617B683A695A603B685B6803F09E
:1023B4000303032B17D07B68DB683B617B695B00FD
:1023C400032202FA03F3DB433A6913403B613B689F
:1023D4009A687B695B0002FA03F33A6913433B6131
:1023E4007B683A69DA603B685B6803F00303022B9D
:1023F40023D17B69DA087B68083253F822303B61C9
:102404007B6903F007039B000F2202FA03F3DB430B
:102414003A6913403B613B681A697B6903F007031F
:102424009B0002FA03F33A6913433B617B69DA08C0
:102434007B680832396943F822107B681B683B616A
:102444007B695B00032202FA03F3DB433A6913401E
:102454003B613B685B6803F003027B695B0002FA43
:1024640003F33A6913433B617B683A691A603B683A
:102474005B6803F44033002B00F0BB800023BB6097
:10248400644B5B6C634A43F480435364614B5B6C01
:1024940003F48043BB60BB685F4A7B699B080233DB
:1024A40052F823303B617B6903F003039B000F2246
:1024B40002FA03F3DB433A6913403B617B68574AF2
:1024C400934231D07B68564A93422BD07B68554A5D
:1024D400934225D07B68544A93421FD07B68534A69
:1024E400934219D07B68524A934213D07B68514A75
:1024F40093420DD07B68504A934207D07B684F4A81
:10250400934201D1082310E009230EE007230CE0D5
:1025140006230AE0052308E0042306E0032304E07D
:10252400022302E0012300E000237A6902F003029F
:10253400920093401A463B6913433B6136497B69D9
:102544009B0802333A6941F823203D4B9B683B6169
:10255400FB68DB433A6913403B613B685B6803F407
:102564008013002B03D03A69FB6813433B61344A60
:102574003B699360324BDB683B61FB68DB433A6940
:1025840013403B613B685B6803F40013002B03D0EA
:102594003A69FB6813433B61294A3B69D360284B82
:1025A4005B683B61FB68DB433A6913403B613B6812
:1025B4005B6803F40033002B03D03A69FB681343D0
:1025C4003B611F4A3B6953601D4B1B683B61FB68C1
:1025D400DB433A6913403B613B685B6803F4803337
:1025E400002B03D03A69FB6813433B61144A3B69EF
:1025F40013607B6901337B613B681A687B6922FA4B
:1026040003F3002B7FF488AE00BF00BF1C37BD4628
:1026140080BC70470038024000380140000002408E
:102624000004024000080240000C02400010024076
:102634000014024000180240001C02400020024026
:10264400003C014080B485B000AF78600B467B80CD
:102654007B681A697B881340002B02D00123FB732B
:1026640001E00023FB73FB7B18461437BD4680BC96
:10267400704780B483B000AF78600B467B8013460C
:102684007B707B78002B03D07A887B689A6103E0A7
:102694007B881A047B689A6100BF0C37BD4680BCF6
:1026A400704780B485B000AF78600B467B807B6850
:1026B4005B69FB607A88FB6813401A04FB68D943A2
:1026C4007B880B401A437B689A6100BF1437BD4670
:1026D40080BC704780B582B000AF0346FB80084BD6
:1026E4005A69FB881340002B06D0054AFB885361C6
:1026F400FB881846FDF718FF00BF0837BD4680BDAC
:10270400003C0140F0B58FB00AAF78607B68002BC5
:1027140001D1012354E07B681B68FB607B6893F85C
:10272400F933DBB2002B06D17B68002283F8F8234F
:1027340078681AF0F5FD7B68032283F8F923FB68B7
:10274400DB6B03F48073002B02D17B680022DA6018
:102754007B681B68184605F09BFA7B681B683B6026
:102764007E686D4606F110040FCC0FC50FCC0FC563
:1027740094E8030085E80300331D0ECB386805F0A8
:102784007DF97B681B680121184605F091FA7B6886
:102794001B683B607E686D4606F110040FCC0FC5C4
:1027A4000FCC0FC594E8030085E80300331D0ECB5E
:1027B400386806F09DFC7B68012283F8F923002326
:1027C40018461437BD46F0BD90B58BB004AF7860A1
:1027D400084611461A460346FB700B46BB70134667
:1027E4007B703B8E7B617B6893F8F833012B01D1BE
:1027F40002239DE07B68012283F8F823FA78796844
:1028040013461B019B1A9B000B443D3300221A7094
:10281400FA78796813461B019B1A9B000B443833E2
:102824007A781A70FA78796813461B019B1A9B0010
:102834000B443933FA781A70FA78796813461B0115
:102844009B1A9B000B444A3397F82C201A70FA7891
:10285400BB7803F07F03D8B2796813461B019B1A37
:102864009B000B443A3302461A70FB781946786889
:1028740000F0C5FB97F90230002B0ADAFA78796880
:1028840013461B019B1A9B000B443B3301221A7015
:1028940009E0FA78796813461B019B1A9B000B44E4
:1028A4003B3300221A707B681B68184606F07EFDD5
:1028B400386197F82C30012B0BD197F82830012B75
:1028C40007D13B69002B04D17B69BC2B01D9BC2304
:1028D4007B61FA78796813461B019B1A9B000B44B1
:1028E4003C3397F828201A70FA787B6998B2796893
:1028F40013461B019B1A9B000B444C3302461A805F
:102904007B6818687B699BB27C78BA78F978029303
:1029140097F82C30019397F828300093234606F05B
:102924006BFD0346FB737B68002283F8F823FB7B73
:1029340018461C37BD4690BD80B584B000AF7860A2
:102944000B46FB700023FB737B6893F8F833012B71
:1029540001D102230FE07B68012283F8F8237B680E
:102964001B68FA781146184607F0F8F87B680022CD
:1029740083F8F823FB7B18461037BD4680BD000062
:1029840080B582B000AF7860084611461A46034607
:10299400FB700B46BB7013467B70FA78796813465C
:1029A4001B019B1A9B000B443B33BA781A70FA78CC
:1029B400796813461B019B1A9B000B444A337A78AF
:1029C4001A703B7C002B14D1FA78796813461B01EA
:1029D4009B1A9B000B444E3303221A70FA787968D1
:1029E40013461B019B1A9B000B443D333A7F1A701C
:1029F40009E0FA78796813461B019B1A9B000B4483
:102A04004E3302221A707B78032B00F2028101A25A
:102A140052F823F0292A0008012C0008ED2A0008A6
:102A2400772B00083B7C012B40F0F580BB78002B12
:102A34002DD13B8B002B09D1FA78796813461B0101
:102A44009B1A9B000B44613301221A70FA7879684F
:102A540013461B019B1A9B000B4461331B78002B0C
:102A64000AD1FA78796813461B019B1A9B000B4420
:102A74004E3300221A70CEE0FA78796813461B01AF
:102A84009B1A9B000B444E3302221A70C3E0FA785F
:102A9400796813461B019B1A9B000B443E331B7839
:102AA400012B40F0B880FA78796813461B019B1A11
:102AB4009B000B4460331B78002B0AD1FA787968A9
:102AC40013461B019B1A9B000B444E3300221A70C1
:102AD400A1E0FA78796813461B019B1A9B000B440A
:102AE4004E3302221A7096E0BB78002B20D1FA787C
:102AF400796813461B019B1A9B000B4461331B78B6
:102B0400002B0AD1FA78796813461B019B1A9B00A3
:102B14000B444E3300221A707EE0FA78796813462B
:102B24001B019B1A9B000B444E3302221A7073E064
:102B3400FA78796813461B019B1A9B000B44603397
:102B44001B78002B0AD1FA78796813461B019B1A6B
:102B54009B000B444E3300221A705DE0FA787968CA
:102B640013461B019B1A9B000B444E3302221A701E
:102B740052E0BB78002B20D1FA78796813461B0108
:102B84009B1A9B000B4461331B78002B0AD1FA7803
:102B9400796813461B019B1A9B000B444E33002299
:102BA4001A7039E0FA78796813461B019B1A9B0066
:102BB4000B444E3302221A702EE0FA7879681346D9
:102BC4001B019B1A9B000B4460331B78002B0AD11A
:102BD400FA78796813461B019B1A9B000B444E3309
:102BE40000221A7018E0FA78796813461B019B1AC0
:102BF4009B000B444E3302221A700DE0FA78796878
:102C040013461B019B1A9B000B444E3300221A707F
:102C140002E000BF00E000BFFA78796813461B01A8
:102C24009B1A9B000B4450337A691A60FA78398BEB
:102C3400786813461B019B1A9B00034458331960A0
:102C4400FA78796813461B019B1A9B000B44703376
:102C540000221A70FA78796813461B019B1A9B00AC
:102C64000B445C3300221A60FA78796813461B011E
:102C74009B1A9B000B443933FA781A70FA787968F6
:102C840013461B019B1A9B000B44713300221A70DC
:102C94007B681868FA7813461B019B1A9B0038332B
:102CA4007A68D1187B68DB68DBB21A4606F0D0FC80
:102CB400034618460837BD4680BD00BF80B586B0C0
:102CC40000AF78607B681B683B613B69FB607B6895
:102CD4001B68184606F04EF90346012B40F0FA80B3
:102CE4007B681B68184606F097F80346002B00F033
:102CF400F0807B681B68184606F08EF8034603F4E0
:102D04000013B3F5001F04D17B681B684FF4001255
:102D14005A617B681B68184606F07EF8034603F484
:102D24008013B3F5801F04D17B681B684FF48012B5
:102D34005A617B681B68184606F06EF8034603F078
:102D44008063B3F1806F04D17B681B684FF08062AD
:102D54005A617B681B68184606F05EF8034603F068
:102D64000203022B03D17B681B6802225A617B6831
:102D74001B68184606F050F8034603F00053B3F1FD
:102D8400005F20D17B681B684FF000525A61FB68DA
:102D940003F588631B6803F00103002B13D1102192
:102DA400386905F02BF9386905F05CF97B689B6993
:102DB400022B05D17B681B680121184606F058FADE
:102DC40078681AF019FB7B681B68184606F024F82B
:102DD400034603F08073B3F1807F02D1786801F079
:102DE4002FFD7B681B68184606F016F8034603F0AF
:102DF4000803082B06D178681AF0E2FA7B681B688E
:102E040008225A617B681B68184606F005F80346D9
:102E140003F00073B3F1007F38D17B681B68184658
:102E240006F08CFEB86000237B6125E07B6903F02B
:102E34000F03BA6822FA03F303F00103002B18D03E
:102E44007B695A01FB68134403F5A0631B6803F410
:102E54000043B3F5004F06D17B69DBB219467868AD
:102E640000F001F905E07B69DBB21946786800F0EF
:102E740063FF7B6901337B617B689B687A699A4253
:102E8400D4D37B681B684FF000725A617B681B685F
:102E9400184605F0C1FF034603F01003102B01D1BF
:102EA400012300E00023002B14D07B681B689A697F
:102EB4007B681B6822F010029A61786801F0E1FBDC
:102EC4007B681B689A697B681B6842F010029A61F0
:102ED40000E000BF1837BD4680BD80B582B000AFAA
:102EE40078607B6893F8F833012B01D1022313E057
:102EF4007B68012283F8F8237B681B68012118464C
:102F040006F01CFA7B681B68184604F0B1FE7B6867
:102F1400002283F8F823002318460837BD4680BDF5
:102F240080B582B000AF78607B6893F8F833012BEA
:102F340001D102230DE07B68012283F8F8237B682A
:102F44001B68184606F064FF7B68002283F8F823A8
:102F5400002318460837BD4680BD80B582B000AF57
:102F640078607B681B68184606F0BEF9034618466D
:102F74000837BD4680BD80B483B000AF78600B468F
:102F8400FB70FA78796813461B019B1A9B000B446B
:102F940070331B7818460C37BD4680BC704780B42C
:102FA40083B000AF78600B46FB70FA7879681346FB
:102FB4001B019B1A9B000B445C331B6818460C379F
:102FC400BD4680BC704780B582B000AF78607B6836
:102FD4001B68184606F000FA034618460837BD4633
:102FE40080BD80B582B000AF78607B681B681846EE
:102FF40006F0DCF9034618460837BD4680BD80B4A8
:1030040083B000AF78600B46FB70FA78796813469A
:103014001B019B1A9B000B443E3300221A70FA7862
:10302400796813461B019B1A9B000B443F33002213
:103034001A70FA78796813461B019B1A9B000B449B
:10304400493300221A70FA78796813461B019B1AD7
:103054009B000B44483300221A70002318460C3797
:10306400BD4680BC704780B586B000AF78600B4623
:10307400FB707B681B687B617B693B617B681B68B9
:10308400FA781146184605F0D9FE034603F0040306
:10309400042B1AD1FB785A013B69134403F5A0634E
:1030A4001A4604239360FA78796813461B019B1A25
:1030B4009B000B44713307221A707B681B68FA78F3
:1030C4001146184606F04AFD9EE07B681B68FA78B4
:1030D4001146184605F0B2FE034603F48073B3F5B7
:1030E400807F1BD1FB785A013B69134403F5A0632D
:1030F4001A464FF480739360FA78796813461B017B
:103104009B1A9B000B44713308221A707B681B685E
:10311400FA781146184606F021FD75E07B681B68B5
:10312400FA781146184605F089FE034603F00803B1
:10313400082B1AD1FB785A013B69134403F5A063A9
:103144001A4608239360FA78796813461B019B1A80
:103154009B000B44713306221A707B681B68FA7853
:103164001146184606F0FAFC4EE07B681B68FA78B4
:103174001146184605F062FE034603F48063B3F576
:10318400806F1BD1FB785A013B69134403F5A0639C
:103194001A464FF480639360FA78796813461B01EA
:1031A4009B1A9B000B44713309221A707B681B68BD
:1031B400FA781146184606F0D1FC25E07B681B68B6
:1031C400FA781146184605F039FE034603F08003E9
:1031D400802B19D1FB785A013B69134403F5A06392
:1031E4001A4680239360FA78796813461B019B1A68
:1031F4009B000B44713307221A707B681B68FA78B2
:103204001146184606F0AAFC7B681B68FA7811463A
:10321400184605F013FE034603F40073B3F5007F6C
:1032240012D17B681B68FA781146184606F096FCA2
:10323400FB785A013B69134403F5A0631A464FF423
:103244000073936000F075BD7B681B68FA781146C3
:10325400184605F0F3FD034603F00103012B40F08B
:103264002881FB785A013B69134403F5A0631A468D
:1032740020239360FA78796813461B019B1A9B00FC
:103284000B443F331B78012B19D1FA787968134624
:103294001B019B1A9B000B443F3300221A70FB78DE
:1032A4005A013B69134403F5A0635B68FA78510142
:1032B4003A690A4402F5A06223F4803353607B68C0
:1032C400DB68002B1BD0FA78796813461B019B1A24
:1032D4009B000B4454331968FB785A013B6913442F
:1032E40003F5A0631B69C3F31203FA78C91A78685B
:1032F40013461B019B1A9B0003445C331960FA7844
:10330400796813461B019B1A9B000B4471330122FD
:103314001A70FA78796813461B019B1A9B000B44B8
:10332400683300221A60FB785A013B69134403F5A1
:10333400A0631A4601239360FA78796813461B0147
:103344009B1A9B000B444A331B78002B0AD0FA7853
:10335400796813461B019B1A9B000B444A331B7864
:10336400022B10D17B681B68FA781146184606F0C8
:10337400F5FBFB785A013B69134403F5A0631A4635
:10338400102393603DE0FA78796813461B019B1A79
:103394009B000B444A331B78032B0AD0FA787968D4
:1033A40013461B019B1A9B000B444A331B78012BC9
:1033B40027D1FB785A013B69134403F5A0631B68CA
:1033C400FA7851013A690A4402F5A06243F00053C5
:1033D4001360FA78796813461B019B1A9B000B440F
:1033E400703301221A70FA78796813461B019B1A0C
:1033F4009B000B4470331A78FB78194678681AF0EE
:1034040009F87B68DB68012B3BD1FA7879681346AD
:103414001B019B1A9B000B445C331968FA7878688B
:1034240013461B019B1A9B0003444C331B880B441B
:10343400591EFA78786813461B019B1A9B000344B3
:103444004C331B88B1FBF3F303F00103002B00F0B2
:103454007084FA78796813461B019B1A9B000B440D
:1034640060331B78FA7883F00103D8B27968134685
:103474001B019B1A9B000B44603302461A7000F038
:1034840058BCFA78796813461B019B1A9B000B44BD
:1034940060331B78FA7883F00103D8B27968134655
:1034A4001B019B1A9B000B44603302461A7000F008
:1034B40040BC7B681B68FA781146184605F0BEFCD0
:1034C400034603F02003202B31D1FB785A013B69DA
:1034D400134403F5A0631A4620239360FA787968AD
:1034E40013461B019B1A9B000B443E331B78012B94
:1034F40040F01F84FA78796813461B019B1A9B00DD
:103504000B443F3301221A70FA78796813461B0181
:103514009B1A9B000B44713303221A707B681B684F
:10352400FA781146184606F019FB00F002BC7B68D5
:103534001B68FA781146184605F080FC034603F030
:103544000203022B40F00583FB785A013B691344C4
:1035540003F5A0631A4602239360FA787968134648
:103564001B019B1A9B000B4471331B78012B14D154
:10357400FA78796813461B019B1A9B000B4471333C
:1035840002221A70FA78796813461B019B1A9B0071
:103594000B44703301221A70CCE2FA78796813462E
:1035A4001B019B1A9B000B4471331B78062B14D10F
:1035B400FA78796813461B019B1A9B000B447133FC
:1035C40002221A70FA78796813461B019B1A9B0031
:1035D4000B44703305221A70ACE2FA78796813460A
:1035E4001B019B1A9B000B4471331B78072B0BD0D8
:1035F400FA78796813461B019B1A9B000B447133BC
:103604001B78092B40F0A680FA78796813461B01D1
:103614009B1A9B000B44713302221A70FA78796862
:1036240013461B019B1A9B000B4468331B68591CEF
:10363400786813461B019B1A9B0003446833196086
:10364400FA78796813461B019B1A9B000B44683374
:103654001B68022B43D9FA78796813461B019B1A1D
:103664009B000B44683300221A60FA787968134689
:103674001B019B1A9B000B443E331B78012B23D167
:10368400FA78796813461B019B1A9B000B443F335D
:1036940000221A70FA78796813461B019B1A9B0062
:1036A4000B44403300221A70FB785A013B691344DF
:1036B40003F5A0635B68FA7851013A690A4402F59C
:1036C400A06223F480335360FA78796813461B01AF
:1036D4009B1A9B000B44703304221A7029E2FA7877
:1036E400796813461B019B1A9B000B44703302221A
:1036F4001A70FA78796813461B019B1A9B000B44D5
:103704004A331B78002B0BD0FA78796813461B01D7
:103714009B1A9B000B444A331B78022B40F009820E
:10372400FB785A013B69134403F5A0631B68FB60F3
:10373400FB6823F08043FB60FB6843F00043FB60BD
:10374400FB785A013B69134403F5A0631A46FB68EE
:103754001360EEE1FA78796813461B019B1A9B000B
:103764000B4471331B78052B40F0C880FA787968D4
:1037740013461B019B1A9B000B44713302221A70DF
:10378400FA78796813461B019B1A9B000B443F335C
:103794001B78012B40F0CE81FA78796813461B011F
:1037A4009B1A9B000B444A331B78032B6BD1FA788A
:1037B400796813461B019B1A9B000B446C331B68EE
:1037C400591C786813461B019B1A9B0003446C33F5
:1037D4001960FA78796813461B019B1A9B000B4405
:1037E4006C331B68022B43D9FA78796813461B01A2
:1037F4009B1A9B000B446C3300221A60FA78796898
:1038040013461B019B1A9B000B443F3300221A7082
:10381400FA78796813461B019B1A9B000B446833A2
:103824001B68022B09D8FA78796813461B019B1A86
:103834009B000B44403301221A70FB785A013B6908
:10384400134403F5A0635B68FA7851013A690A44AA
:1038540002F5A06223F480335360FA787968134642
:103864001B019B1A9B000B44703304221A7014E052
:10387400FA78796813461B019B1A9B000B4470333A
:1038840002221A7009E0FA78796813461B019B1A20
:103894009B000B44703302221A70FA78796813463D
:1038A4001B019B1A9B000B444A331B78002B0BD043
:1038B400FA78796813461B019B1A9B000B444A3320
:1038C4001B78022B40F03681FB785A013B69134484
:1038D40003F5A0631B68FB60FB6823F08043FB6077
:1038E400FB6843F00043FB60FB785A013B691344D7
:1038F40003F5A0631A46FB6813601BE1FA78796844
:1039040013461B019B1A9B000B4471331B78032B3A
:1039140040F08180FA78796813461B019B1A9B005A
:103924000B44713302221A70FA78796813461B012A
:103934009B1A9B000B443F331B78012B40F0FA8009
:10394400FA78796813461B019B1A9B000B44703369
:1039540002221A70FB785A013B69134403F5A063F1
:103964005B68FA7851013A690A4402F5A06243F4AB
:1039740080335360FB785A013B69134403F5A06319
:10398400DB68FA7851013A690A4402F5A06243F00F
:103994004003D360FB785A013B69134403F5A063E9
:1039A400DB68FA7851013A690A4402F5A06223F00F
:1039B4002003D360FA78796813461B019B1A9B0095
:1039C4000B444A331B78002B0BD0FA7879681346E2
:1039D4001B019B1A9B000B444A331B78022B40F0BB
:1039E400A980FB785A013B69134403F5A0631B6863
:1039F400FB60FB6823F08043FB60FB6843F00043FB
:103A0400FB60FB785A013B69134403F5A0631A4633
:103A1400FB6813608EE0FA78796813461B019B1AE1
:103A24009B000B4471331B78042B43D1FA787968DB
:103A340013461B019B1A9B000B44713302221A701C
:103A4400FA78796813461B019B1A9B000B44703368
:103A540002221A70FA78796813461B019B1A9B009C
:103A64000B444A331B78002B0AD0FA787968134642
:103A74001B019B1A9B000B444A331B78022B59D120
:103A8400FB785A013B69134403F5A0631B68FB6090
:103A9400FB6823F08043FB60FB6843F00043FB605A
:103AA400FB785A013B69134403F5A0631A46FB688B
:103AB40013603FE0FA78796813461B019B1A9B0058
:103AC4000B4471331B78082B26D1FA787968134696
:103AD4001B019B1A9B000B44713302221A70FA7863
:103AE400796813461B019B1A9B000B4468331B68BF
:103AF400591C786813461B019B1A9B0003446833C6
:103B04001960FA78796813461B019B1A9B000B44D1
:103B1400703304221A700DE0FA78796813461B0199
:103B24009B1A9B000B4471331B78022B00F000811D
:103B340000E000BFFA78796813461B019B1A9B00CA
:103B44000B4470331A78FB781946786819F062FCD4
:103B5400EFE07B681B68FA781146184605F06EF9A9
:103B6400034603F04003402B2FD1FB785A013B69F5
:103B7400134403F5A0631A4640239360FA787968E6
:103B840013461B019B1A9B000B44713305221A70C8
:103B9400FA78796813461B019B1A9B000B443E3349
:103BA4001B78002B09D1FA78796813461B019B1AFC
:103BB4009B000B44683300221A607B681B68FA7808
:103BC4001146184605F0CAFFB3E07B681B68FA7813
:103BD4001146184605F032F9034603F01003102B82
:103BE40040F0A780FA78796813461B019B1A9B0062
:103BF4000B444A331B78032B1BD1FA78796813469C
:103C04001B019B1A9B000B44683300221A60FA784C
:103C1400796813461B019B1A9B000B4471330422E1
:103C24001A707B681B68FA781146184605F096FFEF
:103C34003FE0FA78796813461B019B1A9B000B44FA
:103C44004A331B78002B0AD0FA78796813461B0193
:103C54009B1A9B000B444A331B78022B29D1FA7818
:103C6400796813461B019B1A9B000B44683300229E
:103C74001A607B68DB68002B0AD0FA7879681346EF
:103C84001B019B1A9B000B443F331B78012B10D163
:103C9400FA78796813461B019B1A9B000B44713315
:103CA40004221A707B681B68FA781146184605F0DE
:103CB40055FFFA78796813461B019B1A9B000B4445
:103CC4003F331B78012B29D1FA78796813461B01FD
:103CD4009B1A9B000B443F3300221A70FB785A0155
:103CE4003B69134403F5A0635B68FA7851013A69B0
:103CF4000A4402F5A06223F480335360FB785A012E
:103D04003B69134403F5A063DB68FA7851013A690F
:103D14000A4402F5A06243F02003D360FB785A0101
:103D24003B69134403F5A0631A461023936000E033
:103D340000BF1837BD4680BD80B586B000AF78603F
:103D44000B46FB707B681B687B617B693B617B680E
:103D54001B68FA781146184605F070F8034603F01C
:103D64000403042B1BD1FB785A013B69134403F56C
:103D7400A0631A4604239360FA78796813461B01FA
:103D84009B1A9B000B44713307221A707B681B68D3
:103D9400FA781146184605F0E1FE00F06FBC7B6826
:103DA4001B68FA781146184605F048F8034603F0F4
:103DB4002003202B40F08280FB785A013B69134496
:103DC40003F5A0631A4620239360FA7879681346B2
:103DD4001B019B1A9B000B443D331B78012B24D100
:103DE400FA78796813461B019B1A9B000B443D33F8
:103DF40000221A70FA78796813461B019B1A9B00FB
:103E04000B44703302221A70FA78796813461B0146
:103E14009B1A9B000B44713303221A707B681B6846
:103E2400FA781146184605F099FEFA78796813462F
:103E34001B019B1A9B000B443E331B78012B40F063
:103E44001D84FA78796813461B019B1A9B000B4466
:103E54003F331B78002B40F01184FA7879681346BD
:103E64001B019B1A9B000B444A331B78012B09D07E
:103E7400FA78796813461B019B1A9B000B443F3365
:103E840001221A70FA78796813461B019B1A9B0069
:103E94000B44713303221A707B681B68FA7811464D
:103EA400184605F05BFEFA78796813461B019B1AE5
:103EB4009B000B44683300221A60DFE37B681B68B5
:103EC400FA781146184604F0B9FF034603F4007368
:103ED400B3F5007F11D1FB785A013B69134403F514
:103EE400A0631A464FF4007393607B681B68FA78EA
:103EF4001146184605F032FEC0E37B681B68FA7869
:103F04001146184604F09AFF034603F00103012BFF
:103F140068D1FA78796813461B019B1A9B000B44FD
:103F2400683300221A607B681B68FA7811461846C9
:103F340004F084FF034603F04003402B12D1FA78C7
:103F4400796813461B019B1A9B000B443D330122E5
:103F54001A70FB785A013B69134403F5A0631A46AF
:103F640040239360FA78796813461B019B1A9B00DF
:103F74000B443F331B78002B19D0FA787968134629
:103F84001B019B1A9B000B443F3300221A70FB78E1
:103F94005A013B69134403F5A0635B68FA78510145
:103FA4003A690A4402F5A06223F480335360FB7833
:103FB4005A013B69134403F5A0631A460123936035
:103FC400FA78796813461B019B1A9B000B447133E2
:103FD40001221A707B681B68FA781146184605F0AE
:103FE400BDFD4BE37B681B68FA781146184604F064
:103FF40025FF034603F04003402B39D1FA78796852
:1040040013461B019B1A9B000B44713305221A7043
:10401400FA78796813461B019B1A9B000B443E33C4
:104024001B78002B09D1FA78796813461B019B1A77
:104034009B000B443D3301221A70FA7879681346C9
:104044001B019B1A9B000B44683300221A607B6897
:104054001B68FA781146184605F080FDFB785A0172
:104064003B69134403F5A0631A464023936005E3B8
:104074007B681B68FA781146184604F0DFFE034695
:1040840003F00803082B1AD1FB785A013B69134447
:1040940003F5A0631A4608239360FA7879681346F7
:1040A4001B019B1A9B000B44713306221A707B6818
:1040B4001B68FA781146184605F050FDDEE27B686D
:1040C4001B68FA781146184604F0B8FE034603F05C
:1040D4001003102B44D1FA78796813461B019B1AFC
:1040E4009B000B44683300221A60FA7879681346FF
:1040F4001B019B1A9B000B44713304221A70FA783B
:10410400796813461B019B1A9B000B443D331B78B3
:10411400002B14D1FA78796813461B019B1A9B0073
:104124000B443C331B78002B09D1FA787968134689
:104134001B019B1A9B000B443D3301221A707B68C0
:104144001B68FA781146184605F008FDFB785A01F9
:104154003B69134403F5A0631A46102393608DE270
:104164007B681B68FA781146184604F067FE03461C
:1041740003F08003802B69D17B68DB68002B11D1AD
:10418400FA78796813461B019B1A9B000B44713320
:1041940007221A707B681B68FA781146184605F0E6
:1041A400DDFC49E0FA78796813461B019B1A9B00F1
:1041B4000B4468331B68591C786813461B019B1A0F
:1041C4009B00034468331960FA78796813461B012D
:1041D4009B1A9B000B4468331B68022B22D9FA7884
:1041E400796813461B019B1A9B000B446833002219
:1041F4001A60FA78796813461B019B1A9B000B44DA
:10420400703304221A70FA78796813461B019B1ADA
:104214009B000B4470331A78FB781946786819F0C0
:10422400F9F809E0FA78796813461B019B1A9B0098
:104234000B44703302221A70FB785A013B69134411
:1042440003F5A0631A468023936017E27B681B681A
:10425400FA781146184604F0F1FD034603F480632E
:10426400B3F5806F1BD1FA78796813461B019B1A4A
:104274009B000B44713309221A707B681B68FA781F
:104284001146184605F06AFCFB785A013B69134451
:1042940003F5A0631A464FF480639360EEE17B68F4
:1042A4001B68FA781146184604F0C8FD034603F06B
:1042B4000203022B40F0DF81FB785A013B6913446F
:1042C40003F5A0631A4602239360FA7879681346CB
:1042D4001B019B1A9B000B4471331B78012B40F08C
:1042E4009380FA78796813461B019B1A9B000B4450
:1042F400713302221A70FA78796813461B019B1AEB
:104304009B000B44703301221A70FA7879681346C3
:104314001B019B1A9B000B444A331B78022B0BD0C6
:10432400FA78796813461B019B1A9B000B444A33A5
:104334001B78032B40F090817B68DB68002B15D140
:10434400FA78796813461B019B1A9B000B4461336E
:104354001B78FA7883F00103D8B2796813461B01FD
:104364009B1A9B000B44613302461A707B68DB681E
:10437400012B40F07181FA78796813461B019B1A6E
:104384009B000B4458331B68002B00F06581FA78BE
:10439400796813461B019B1A9B000B445833196818
:1043A400FA78786813461B019B1A9B0003444C332C
:1043B4001B880B44591EFA78786813461B019B1A14
:1043C4009B0003444C331B88B1FBF3F3BB60BB6815
:1043D40003F00103002B00F03F81FA78796813465B
:1043E4001B019B1A9B000B4461331B78FA7883F002
:1043F4000103D8B2796813461B019B1A9B000B4436
:10440400613302461A7027E1FA78796813461B0172
:104414009B1A9B000B4471331B78032B20D1FA7831
:10442400796813461B019B1A9B000B4471330222CB
:104434001A70FA78796813461B019B1A9B000B4487
:104444003F331B78012B40F00781FA7879681346D3
:104454001B019B1A9B000B44703302221A70FBE071
:10446400FA78796813461B019B1A9B000B4471333D
:104474001B78042B3AD1FA78796813461B019B1AEE
:104484009B000B44713302221A70FA787968134640
:104494001B019B1A9B000B44703302221A70FA789A
:1044A400796813461B019B1A9B000B443F331B780E
:1044B400012B40F0D180FA78796813461B019B1ACE
:1044C4009B000B443F3300221A70FB785A013B696E
:1044D400134403F5A0635B68FA7851013A690A440E
:1044E40002F5A06223F480335360B5E0FA7879686A
:1044F40013461B019B1A9B000B4471331B78052B3D
:1045040014D1FA78796813461B019B1A9B000B445B
:10451400713302221A70FA78796813461B019B1AC8
:104524009B000B44703302221A7095E0FA78796884
:1045340013461B019B1A9B000B4471331B78062BFB
:1045440014D1FA78796813461B019B1A9B000B441B
:10455400713302221A70FA78796813461B019B1A88
:104564009B000B44703305221A7075E0FA78796861
:1045740013461B019B1A9B000B4471331B78072BBA
:104584000AD0FA78796813461B019B1A9B000B44E6
:1045940071331B78092B70D1FA78796813461B01A3
:1045A4009B1A9B000B44713302221A70FA787968C3
:1045B40013461B019B1A9B000B4468331B68591C50
:1045C400786813461B019B1A9B00034468331960E7
:1045D400FA78796813461B019B1A9B000B446833D5
:1045E4001B68022B14D9FA78796813461B019B1AAD
:1045F4009B000B44683300221A60FA7879681346EA
:104604001B019B1A9B000B44703304221A7022E096
:10461400FA78796813461B019B1A9B000B4470338C
:1046240002221A70FB785A013B69134403F5A06314
:104634001B68FB60FB6823F08043FB60FB6843F06E
:104644000043FB60FB785A013B69134403F5A06304
:104654001A46FB68136000BFFA78796813461B0199
:104664009B1A9B000B4470331A78FB7819467868C0
:1046740018F0D0FE02E000BF00E000BF1837BD46CE
:1046840080BD80B58AB000AF78607B681B687B62B0
:104694007B6A3B627B681B681B6AFB61FB6903F0F6
:1046A4000F03BB61FB695B0C03F00F037B61FB69C8
:1046B4001B09C3F30A033B617B69022B04D07B69AA
:1046C400052B00F0B680B7E03B69002B00F0B38007
:1046D4007968BA6913461B019B1A9B000B4450333B
:1046E4001B68002B00F0A7807968BA6913461B0188
:1046F4009B1A9B000B445C331A683B69D118786899
:10470400BA6913461B019B1A9B00034458331B6868
:10471400994200F283807B6818687968BA69134605
:104724001B019B1A9B000B4450331B683A6992B2DD
:10473400194604F0E3F97968BA6913461B019B1A18
:104744009B000B4450331A683B69D1187868BA69E6
:1047540013461B019B1A9B0003445033196079686C
:10476400BA6913461B019B1A9B000B445C331A68FD
:104774003B69D1187868BA6913461B019B1A9B00E0
:1047840003445C331960BB695A013B6A134403F563
:10479400A0631B69DB0CC3F30903FB607968BA6986
:1047A40013461B019B1A9B000B444C331B881A466F
:1047B4003B6993423FD1FB68002B3CD0BB695A0153
:1047C4003B6A134403F5A0631B68BB60BB6823F01A
:1047D4008043BB60BB6843F00043BB60BB695A01C4
:1047E4003B6A134403F5A0631A46BB6813607968F7
:1047F400BA6913461B019B1A9B000B4460331B7858
:1048040083F00103D8B27968BA6913461B019B1A75
:104814009B000B44603302461A700CE07968BA6955
:1048240013461B019B1A9B000B44703304221A701D
:1048340001E000BF00E000BF00BF2837BD4680BDD7
:1048440080B586B000AF78607B681B687B617B694C
:104854003B613B6903F588631B68FB603B6903F5B7
:1048640088631B68BB60BB6823F02E03BB60FB68D6
:1048740003F00203022B0BD1FB6803F00103012BAD
:1048840002D1786818F0AAFDBB6843F00203BB604C
:10489400FB6803F00803082B32D1BB6843F008031C
:1048A400BB60FB6803F00403042B26D17B689B697F
:1048B400022B13D1FB6803F4C023B3F5802F06D178
:1048C4007B681B680221184604F0D2FC11E07B6867
:1048D4001B680121184604F0CBFC0AE07B681B69C5
:1048E400012B06D13B6903F580631A464EF660231B
:1048F4005360786818F09BFD02E0786818F0A5FD15
:10490400FB6803F02003202B03D1BB6843F0200392
:10491400BB603B6903F588631A46BB68136000BF3C
:104924001837BD4680BD000080B584B000AF786004
:104934007B68002B01D101232BE17B6893F83D3088
:10494400DBB2002B06D17B68002283F83C20786818
:10495400FCF77EF87B68242283F83D207B681B6883
:104964001A687B681B6822F001021A607B681B6866
:104974001A687B681B6842F400421A607B681B68F3
:104984001A687B681B6822F400421A6002F006FE73
:10499400F8607B685B68814A934207D8FB68804A69
:1049A400934294BF01230023DBB206E0FB687D4AF7
:1049B400934294BF01230023DBB2002B01D00123D7
:1049C400E7E0FB68784AA2FB03239B0CBB607B688F
:1049D4001B685B6823F03F017B681B68BA680A4365
:1049E4005A607B681B681B6A23F03F017B685B6825
:1049F4006A4A934202D8BB68013309E0BB684FF4AA
:104A0400967202FB03F3694AA2FB03239B09013359
:104A14007A6812680B4313627B681B68DB6923F4B2
:104A24004F4222F0FF027B685B685C498B4219D8D5
:104A3400FB68591E7B685B685B00B1FBF3F3591C90
:104A440040F6FC730B40002B0AD0FB68591E7B68B0
:104A54005B685B00B1FBF3F30133C3F30B0351E079
:104A640004234FE07B689B68002B11D1FB68581E20
:104A74007B6859680B465B000B44B0FBF3F30133CE
:104A8400C3F30B03002B0CBF01230023DBB212E0A2
:104A9400FB68581E7B6859680B469B000B449900C1
:104AA4000B44B0FBF3F30133C3F30B03002B0CBF34
:104AB40001230023DBB2002B01D0012322E07B6819
:104AC4009B68002B0ED1FB68581E7B6859680B4607
:104AD4005B000B44B0FBF3F30133C3F30B0343F468
:104AE40000430FE0FB68581E7B6859680B469B0027
:104AF4000B4499000B44B0FBF3F30133C3F30B03F2
:104B040043F44043796809681343CB617B681B68AD
:104B14001B6823F0C0017B68DA697B681B6A1A434F
:104B24007B681B680A431A607B681B689B6823F4D4
:104B3400034323F0FF037A6811697A68D26811434A
:104B44007A6812680B4393607B681B68DB6823F008
:104B5400FF017B685A697B689B691A437B681B6801
:104B64000A43DA607B681B681A687B681B6842F03A
:104B740001021A607B6800221A647B68202283F891
:104B84003D207B6800221A637B68002283F83E2064
:104B9400002318461037BD4680BD00BFA086010023
:104BA4007F841E00FF083D0083DE1B43D34D62104B
:104BB40080B588B002AFF8607A601A460B467B81F4
:104BC40013463B81FCF76CF97861FB6893F83D3040
:104BD400DBB2202B40F0E0807B6900931923012293
:104BE4007049F86800F064FC0346002B01D00223EE
:104BF400D3E0FB6893F83C30012B01D10223CCE0D5
:104C0400FB68012283F83C20FB681B681B6803F0E7
:104C14000103012B07D0FB681B681A68FB681B683B
:104C240042F001021A60FB681B681A68FB681B6883
:104C340022F400621A60FB68212283F83D20FB689D
:104C4400102283F83E20FB6800221A64FB687A680D
:104C54005A62FB683A895A85FB685B8D9AB2FB6895
:104C64001A85FB68504ADA6279897B693A6AF8687E
:104C740000F0CEFA0346002B01D001238DE000237F
:104C84003B61FB681B685B693B61FB681B689B6954
:104C94003B613B6966E07A69396AF86800F022FD95
:104CA4000346002B0DD0FB681B6C042B07D1FB685B
:104CB4001B681A68FB681B6842F400721A600123BF
:104CC4006BE0FB685B6A1A78FB681B681A61FB6817
:104CD4005B6A5A1CFB685A62FB685B8D9BB2013BA2
:104CE4009AB2FB685A85FB681B8D013B9AB2FB683C
:104CF4001A85FB681B685B6903F00403042B1BD152
:104D0400FB681B8D002B17D0FB685B6A1A78FB6865
:104D14001B681A61FB685B6A5A1CFB685A62FB6871
:104D24005B8D9BB2013B9AB2FB685A85FB681B8D75
:104D3400013B9AB2FB681A857A69396AF86800F00F
:104D440019FD0346002B0DD0FB681B6C042B07D107
:104D5400FB681B681A68FB681B6842F400721A60DF
:104D640001231AE0FB681B8D002B94D1FB681B68A0
:104D74001A68FB681B6842F400721A60FB68202200
:104D840083F83D20FB68002283F83E20FB68002264
:104D940083F83C20002300E0022318461837BD4660
:104DA40080BD00BF020010000000FFFF80B58CB082
:104DB40002AFF8607A601A460B467B8113463B814A
:104DC400FCF76EF87862FB6893F83D30DBB2202B79
:104DD40040F017827B6A0093192301227C49F8680A
:104DE40000F066FB0346002B01D002230AE2FB68B5
:104DF40093F83C30012B01D1022303E2FB6801222A
:104E040083F83C20FB681B681B6803F00103012B3B
:104E140007D0FB681B681A68FB681B6842F0010234
:104E24001A60FB681B681A68FB681B6822F400623E
:104E34001A60FB68222283F83D20FB68102283F865
:104E44003E20FB6800221A64FB687A685A62FB6899
:104E54003A895A85FB685B8D9AB2FB681A85FB68B0
:104E64005C4ADA6279897B6A3A6BF86800F052FA34
:104E74000346002B01D00123C4E1FB681B8D002BEA
:104E840013D100233B62FB681B685B693B62FB68D0
:104E94001B689B693B623B6AFB681B681A68FB687A
:104EA4001B6842F400721A6098E1FB681B8D012BA9
:104EB4001BD1FB681B681A68FB681B6822F48062BC
:104EC4001A600023FB61FB681B685B69FB61FB687C
:104ED4001B689B69FB61FB69FB681B681A68FB68BC
:104EE4001B6842F400721A6078E1FB681B8D022B88
:104EF4001BD1FB681B681A68FB681B6822F480627C
:104F04001A60FB681B681A68FB681B6842F400623D
:104F14001A600023BB61FB681B685B69BB61FB68AB
:104F24001B689B69BB61BB6958E1FB681B681A6815
:104F3400FB681B6842F480621A6000237B61FB6893
:104F44001B685B697B61FB681B689B697B617B6990
:104F540044E1FB681B8D032B00F2F180FB681B8D81
:104F6400012B23D17A6A396BF86800F04BFC0346B5
:104F7400002B01D0012345E1FB681B681A69FB681B
:104F84005B6AD2B21A70FB685B6A5A1CFB685A628D
:104F9400FB681B8D013B9AB2FB681A85FB685B8D2D
:104FA4009BB2013B9AB2FB685A8517E1FB681B8DE3
:104FB400022B4ED17B6A00933B6B00220649F868B2
:104FC40000F076FA0346002B08D001231AE100BF53
:104FD400020010000000FFFF04000100FB681B68D2
:104FE4001A68FB681B6842F400721A60FB681B684D
:104FF4001A69FB685B6AD2B21A70FB685B6A5A1C56
:10500400FB685A62FB681B8D013B9AB2FB681A85E8
:10501400FB685B8D9BB2013B9AB2FB685A85FB68C7
:105024001B681A69FB685B6AD2B21A70FB685B6A18
:105034005A1CFB685A62FB681B8D013B9AB2FB68E1
:105044001A85FB685B8D9BB2013B9AB2FB685A855B
:10505400C4E07B6A00933B6B00226C49F86800F063
:1050640027FA0346002B01D00123CBE0FB681B6821
:105074001A68FB681B6822F480621A60FB681B686C
:105084001A69FB685B6AD2B21A70FB685B6A5A1CC5
:10509400FB685A62FB681B8D013B9AB2FB681A8558
:1050A400FB685B8D9BB2013B9AB2FB685A857B6AB5
:1050B40000933B6B00225549F86800F0F9F9034668
:1050C400002B01D001239DE0FB681B681A68FB6874
:1050D4001B6842F400721A60FB681B681A69FB685B
:1050E4005B6AD2B21A70FB685B6A5A1CFB685A622C
:1050F400FB681B8D013B9AB2FB681A85FB685B8DCC
:105104009BB2013B9AB2FB685A85FB681B681A691B
:10511400FB685B6AD2B21A70FB685B6A5A1CFB6854
:105124005A62FB681B8D013B9AB2FB681A85FB68C7
:105134005B8D9BB2013B9AB2FB685A854EE07A6A5A
:10514400396BF86800F05EFB0346002B01D00123A5
:1051540058E0FB681B681A69FB685B6AD2B21A7074
:10516400FB685B6A5A1CFB685A62FB681B8D013B37
:105174009AB2FB681A85FB685B8D9BB2013B9AB2BD
:10518400FB685A85FB681B685B6903F00403042B06
:1051940024D1FB681B8D032B07D1FB681B681A689D
:1051A400FB681B6822F480621A60FB681B681A693A
:1051B400FB685B6AD2B21A70FB685B6A5A1CFB68B4
:1051C4005A62FB681B8D013B9AB2FB681A85FB6827
:1051D4005B8D9BB2013B9AB2FB685A85FB681B8DC1
:1051E400002B7FF4B6AEFB68202283F83D20FB68D9
:1051F400002283F83E20FB68002283F83C20002331
:1052040000E0022318462837BD4680BD0400010093
:1052140080B588B002AFF8607A603B600B467B8152
:10522400FB68DB6A7B617B69082B06D07B69012BF9
:1052340003D07B6913F5803F08D1FB681B681A68AB
:10524400FB681B6842F480721A600BE0FB681B6BFE
:10525400122B07D1FB681B681A68FB681B6842F4B1
:1052640080721A603B6800937B6800224FF0011142
:10527400F86800F01DF90346002B0DD0FB681B688D
:105284001B6803F48073B3F5807F03D1FB684FF48C
:1052940000721A64032335E0FB681B69B3F5804F81
:1052A40008D17B89DBB21A46FB681B6802F0FE0258
:1052B4001A611BE07B89DB11DBB203F00603DBB26E
:1052C40063F00F03DAB2FB681B681A613B687A6803
:1052D4000E49F86800F066F90346002B01D001235B
:1052E40010E07B89DAB2FB681B681A613B687A6854
:1052F4000749F86800F056F90346002B01D0012352
:1053040000E0002318461837BD4680BD08000100A0
:105314000200010080B588B002AFF8607A603B609B
:105324000B467B81FB68DB6A7B61FB681B681A6840
:10533400FB681B6842F480621A607B69082B06D004
:105344007B69012B03D07B6913F5803F08D1FB688F
:105354001B681A68FB681B6842F480721A600BE0D1
:10536400FB681B6B112B07D1FB681B681A68FB6871
:105374001B6842F480721A603B6800937B680022C9
:105384004FF00111F86800F093F80346002B0DD09C
:10539400FB681B681B6803F48073B3F5807F03D13B
:1053A400FB684FF400721A64032379E0FB681B69FD
:1053B400B3F5804F08D17B89DBB243F00103DAB245
:1053C400FB681B681A615FE07B89DB11DBB203F0C9
:1053D4000603DBB263F00F03DAB2FB681B681A61E1
:1053E4003B687A683049F86800F0DCF80346002B23
:1053F40001D0012354E07B89DAB2FB681B681A618F
:105404003B687A682949F86800F0CCF80346002B19
:1054140001D0012344E000233B61FB681B685B6906
:105424003B61FB681B689B693B613B69FB681B68CC
:105434001A68FB681B6842F480721A603B68009328
:105444007B6800224FF00111F86800F031F8034640
:10545400002B0DD0FB681B681B6803F48073B3F545
:10546400807F03D1FB684FF400721A64032317E0B2
:105474007B89DB11DBB203F00603DBB263F00E03BE
:10548400DAB2FB681B681A613B687A680749F868F6
:1054940000F088F80346002B01D0012300E000232C
:1054A40018461837BD4680BD0800010002000100FF
:1054B40080B584B000AFF860B9603B601346FB71FF
:1054C40048E03B68B3F1FF3F44D0FBF7E9FC0246F8
:1054D400BB69D31A3A689A4202D33B68002B39D18C
:1054E400BB681B0CDBB2012B0DD1FB681B685B692D
:1054F400DA43BB6813409BB2002B0CBF012300238B
:10550400DBB21A460CE0FB681B689B69DA43BB6894
:1055140013409BB2002B0CBF01230023DBB21A46BD
:10552400FB799A4216D1FB6800221A63FB68202299
:1055340083F83D20FB68002283F83E20FB681B6C47
:1055440043F02002FB681A64FB68002283F83C20C5
:10555400012323E0BB681B0CDBB2012B0DD1FB68DC
:105564001B685B69DA43BB6813409BB2002B0CBF1A
:1055740001230023DBB21A460CE0FB681B689B691D
:10558400DA43BB6813409BB2002B0CBF01230023FA
:10559400DBB21A46FB799A4293D00023184610379F
:1055A400BD4680BD80B584B000AFF860B9607A6054
:1055B4003B6071E0FB681B685B6903F48063B3F5CF
:1055C400806F23D1FB681B681A68FB681B6842F470
:1055D40000721A60FB681B686FF480625A61FB6892
:1055E40000221A63FB68202283F83D20FB68002216
:1055F40083F83E20FB681B6C43F00402FB681A64CA
:10560400FB68002283F83C20012367E07B68B3F148
:10561400FF3F41D0FBF744FC02463B68D31A7A684B
:105624009A4202D37B68002B36D1BB681B0CDBB2D9
:10563400012B0CD1FB681B685B69DA43BB68134020
:105644009BB2002B14BF01230023DBB20BE0FB68E9
:105654001B689B69DA43BB6813409BB2002B14BFE1
:1056640001230023DBB2002B16D0FB6800221A634F
:10567400FB68202283F83D20FB68002283F83E204B
:10568400FB681B6C43F02002FB681A64FB68002271
:1056940083F83C20012321E0BB681B0CDBB2012B07
:1056A4000CD1FB681B685B69DA43BB6813409BB28F
:1056B400002B14BF01230023DBB20BE0FB681B6843
:1056C4009B69DA43BB6813409BB2002B14BF0123D0
:1056D4000023DBB2002B7FF46DAF00231846103794
:1056E400BD4680BD80B584B000AFF860B9607A6013
:1056F40034E0F86800F0E3F80346002B01D00123FE
:1057040034E0BB68B3F1FF3F28D0FBF7C9FB024686
:105714007B68D31ABA689A4202D3BB68002B1DD1A6
:10572400FB681B685B6903F08003802B16D0FB6861
:1057340000221A63FB68202283F83D20FB680022C4
:1057440083F83E20FB681B6C43F02002FB681A645C
:10575400FB68002283F83C20012307E0FB681B68F8
:105764005B6903F08003802BC3D1002318461037F4
:10577400BD4680BD80B584B000AFF860B9607A6082
:1057840034E0F86800F09BF80346002B01D00123B5
:1057940034E0BB68B3F1FF3F28D0FBF781FB02463E
:1057A4007B68D31ABA689A4202D3BB68002B1DD116
:1057B400FB681B685B6903F00403042B16D0FB68C9
:1057C40000221A63FB68202283F83D20FB68002234
:1057D40083F83E20FB681B6C43F02002FB681A64CC
:1057E400FB68002283F83C20012307E0FB681B6868
:1057F4005B6903F00403042BC3D10023184610375C
:10580400BD4680BD80B584B000AFF860B9607A60F1
:1058140049E0FB681B685B6903F01003102B19D186
:10582400FB681B686FF010025A61FB6800221A6360
:10583400FB68202283F83D20FB68002283F83E2089
:10584400FB681A6CFB681A64FB68002283F83C202E
:10585400012330E0FBF724FB02467B68D31ABA68C5
:105864009A4202D3BB68002B1DD1FB681B685B699D
:1058740003F04003402B16D0FB6800221A63FB6838
:10588400202283F83D20FB68002283F83E20FB6839
:105894001B6C43F02002FB681A64FB68002283F847
:1058A4003C20012307E0FB681B685B6903F04003AD
:1058B400402BAED1002318461037BD4680BD80B4BE
:1058C40083B000AF78607B681B685B6903F4806316
:1058D400B3F5806F1BD17B681B686FF480625A61DB
:1058E4007B6800221A637B68202283F83D207B6852
:1058F400002283F83E207B681B6C43F004027B6823
:105904001A647B68002283F83C20012300E0002312
:1059140018460C37BD4680BC7047F0B58FB00AAF4F
:1059240078607B68002B01D101230FE17B681B6841
:10593400BB607B6893F8BD34DBB2002B06D17B6877
:10594400002283F8BC24786817F0A4F87B6803224B
:1059540083F8BD24BB68DB6B03F48073002B02D196
:105964007B680022DA607B681B68184602F090F9B5
:105974007B681B683B607E686D4606F110040FCCA3
:105984000FC50FCC0FC594E8030085E80300331D51
:105994000ECB386802F072F80346002B05D07B6802
:1059A400022283F8BD240123D0E07B681B68002118
:1059B400184602F07DF90023FB734AE0FA7B79680C
:1059C4001346DB0013449B000B443D3301221A7041
:1059D400FA7B79681346DB0013449B000B443C3389
:1059E400FA7B1A70FA7BFB7B98B279681346DB006A
:1059F40013449B000B44563302461A80FA7B7968A1
:105A04001346DB0013449B000B44403300221A70FE
:105A1400FA7B79681346DB0013449B000B44443340
:105A240000221A60FA7B79681346DB0013449B005A
:105A34000B44483300221A60FA7B79681346DB0072
:105A440013449B000B444C3300221A60FB7B01334C
:105A5400FB73FA7B7B685B689A42AFD30023FB73CA
:105A640044E0FA7B79681346DB0013449B000B4443
:105A740003F27D2300221A70FA7B79681346DB0057
:105A840013449B000B4403F51F73FA7B1A70FA7BD3
:105A940079681346DB0013449B000B4403F5207321
:105AA40000221A70FA7B79681346DB0013449B00CA
:105AB4000B4403F5217300221A60FA7B79681346BC
:105AC400DB0013449B000B4403F5227300221A608D
