:020000040800F2
:1000000000000220750A0008FD0800080309000826
:10001000090900080F090008150900080000000080
:100020000000000000000000000000001B090008A4
:100030002709000800000000330900083F090008F4
:10004000C50A0008C50A0008C50A0008C50A000854
:10005000C50A0008C50A0008C50A0008C50A000844
:10006000C50A0008C50A0008C50A0008C50A000834
:10007000C50A0008C50A0008C50A0008C50A000824
:10008000C50A0008C50A0008C50A0008C50A000814
:10009000C50A0008C50A0008C50A0008C50A000804
:1000A000C50A0008C50A0008C50A0008C50A0008F4
:1000B000C50A0008C50A0008C50A0008C50A0008E4
:1000C000C50A0008C50A0008C50A0008C50A0008D4
:1000D000C50A0008C50A0008C50A0008C50A0008C4
:1000E0004B090008C50A0008C50A0008C50A00082F
:1000F000C50A0008C50A0008C50A0008C50A0008A4
:10010000C50A0008C50A0008C50A0008C50A000893
:10011000C50A0008C50A0008C50A0008C50A000883
:10012000C50A0008C50A0008C50A0008C50A000873
:10013000C50A0008C50A0008C50A0008C50A000863
:10014000C50A0008C50A0008C50A0008C50A000853
:10015000C50A0008C50A0008C50A0008C50A000843
:10016000C50A0008C50A0008C50A0008C50A000833
:10017000C50A0008C50A0008C50A000800000000FA
:04018000C50A0008A4
:1001840010B5054C237833B9044B13B10448AFF3CD
:1001940000800123237010BD6800002000000000CF
:1001A4000428000808B5034B1BB103490348AFF307
:1001B400008008BD000000006C0000200428000836
:1001C40053B94AB9002908BF00281CBF4FF0FF31BA
:1001D4004FF0FF3000F072B9ADF1080C6DE904CEB8
:1001E40000F006F8DDF804E0DDE9022304B070470E
:1001F4002DE9F047089E0D4604468E46002B4CD14F
:100204008A42944667D9B2FA82F353B102FA03FCE4
:10021400C3F1200201FA03FE20FA02F242EA0E0EB2
:100224009C404FEA1C47BEFBF7F11FFA8CF507FB15
:1002340011EE01FB05F0220C42EA0E4290420AD96B
:100244001CEB020201F1FF3E80F01981904240F262
:10025400168102396244121AB2FBF7F007FB10222E
:1002640000FB05F5A4B244EA0244A5420AD91CEBFA
:10027400040400F1FF3280F00481A54240F20181C0
:100284006444023840EA01400021641B1EB1DC4092
:100294000023C6E90043BDE8F0878B4208D9002E4D
:1002A40000F0EA800021C6E900050846BDE8F087B1
:1002B400B3FA83F1002948D1AB4202D3824200F25F
:1002C400F880841A65EB030201209646002EE2D0E2
:1002D400C6E9004EDFE702B9FFDEB2FA82F3002B73
:1002E40040F08E80881A0121170C1FFA82FEB0FBA1
:1002F400F7F507FB1500220C42EA00420EFB05F05D
:10030400904208D91CEB020205F1FF3802D2904258
:1003140000F2CC804546121AB2FBF7F007FB10221C
:100324000EFB00FEA4B244EA0244A64508D91CEB25
:10033400040400F1FF3202D2A64500F2B480104654
:10034400A4EB0E0440EA0540A0E7C1F120078B406E
:1003540022FA07FC4CEA030C25FA07FA4FEA1C4977
:10036400BAFBF9F88D4020FA07F309FB18AA1FFA23
:100374008CFE2B4300FA01F508FB0EF01C0C44EA3A
:100384000A44A04202FA01F20BD91CEB040408F15E
:10039400FF3A80F08680A04240F28380A8F10208F0
:1003A4006444241A98B2B4FBF9F309FB134403FB25
:1003B4000EFE40EA0444A64508D91CEB040403F1EC
:1003C400FF306AD2A64568D9023B644443EA084038
:1003D400A0FB0293A4EB0E049C42C8469E4654D351
:1003E40051D0002E67D0B5EB080364EB0E04CB406C
:1003F40004FA07F71F43CC40C6E9007400214AE71A
:1004040002FA03FCC3F12000C1409D4024FA00F02D
:100414004FEA1C472843B1FBF7F507FB15111FFAF8
:100424008CFE020C42EA014205FB0EF1914204FAF1
:1004340003F408D91CEB020205F1FF382FD29142D4
:100444002DD9023D6244521AB2FBF7F107FB112287
:1004540080B240EA024001FB0EF2824208D91CEB52
:10046400000001F1FF3816D2824214D902396044E7
:10047400801A41EA05413AE7314630460BE77146B6
:10048400E9E61046FEE64D45ABD2B9EB020863EB54
:100494000C0E0138A5E74146EAE7034696E74546D0
:1004A400D1E7D0467DE76444023849E7023D62441F
:1004B40031E708460AE73146EDE600BF704700BF62
:1004C40080B586B000AFF860B9607A600023FB8223
:1004D4000BE0B9684B1CBB6064230122084801F09F
:1004E4000FFBFB8A01339BB2FB82B7F916307A68A3
:1004F4009A42EEDC7B6818461837BD4680BD00BFC3
:10050400CC00002080B582B000AF0346FB80FB889E
:10051400B3F5006F0DD14FF40061104800F0ECFD0D
:100524000346002B16D14FF400510C4800F013FE83
:1005340010E0FB88B3F5805F0CD14FF4805107487D
:1005440000F0DAFD0346002B04D14FF48041034848
:1005540000F001FE00BF0837BD4680BD0010024018
:1005640080B500AF00F0AEFA00F00CF800F0A4F88B
:1005740000F04EF800F076F8014801F0B3FDFEE714
:100584001C28000880B592B000AF07F11803302290
:100594000021184601F086FE3B1D00221A605A60B5
:1005A4009A60DA601A610123BB610123FB610223B3
:1005B4003B634FF480037B631923BB63F023FB632A
:1005C40002233B6404237B6407F11803184600F0FC
:1005D400F3FD0346002B01D000F0E4F80F237B6009
:1005E4000223BB600023FB604FF4A0533B614FF434
:1005F40080537B613B1D0321184601F031F803460B
:10060400002B01D000F0CEF800BF4837BD4680BDB6
:1006140080B500AF114B124A1A60104B4FF4E1320F
:100624005A600E4B00229A600C4B0022DA600B4B8E
:1006340000221A61094B0C225A61084B00229A616C
:10064400064B0022DA61054801F00AFA0346002B42
:1006540001D000F0A7F800BF80BD00BF84000020D7
:100664000010014080B500AF114B124A1A60104BC4
:100674004FF4E1325A600E4B00229A600C4B002278
:10068400DA600B4B00221A61094B0C225A61084BA9
:1006940000229A61064B0022DA61054801F0E0F974
:1006A4000346002B01D000F07DF800BF80BD00BFE1
:1006B400CC0000200048004080B58AB000AF07F1AC
:1006C400140300221A605A609A60DA601A610023E7
:1006D4003B61324B1B6B314A43F0800313632F4B56
:1006E4001B6B03F080033B613B690023FB602B4BD6
:1006F4001B6B2A4A43F010031363284B1B6B03F054
:100704001003FB60FB680023BB60244B1B6B234A74
:1007140043F004031363214B1B6B03F00403BB601E
:10072400BB6800237B601D4B1B6B1C4A43F0020318
:1007340013631A4B1B6B03F002037B607B6801227B
:100744004FF46041164800F0EEFC4FF4C0537B6157
:100754004FF40413BB610023FB6107F11403194632
:100764000F4800F02BFB4FF460437B610123BB6116
:100774000023FB6100233B6207F114031946084878
:1007840000F01CFB00220021282000F0E0FA2820C1
:1007940000F0F9FA00BF2837BD4680BD003802409A
:1007A4000010024080B400AF72B600BFFEE7000044
:1007B40080B483B000AF00237B600F4B5B6C0E4AA8
:1007C40043F4804353640C4B5B6C03F480437B60C1
:1007D4007B6800233B60084B1B6C074A43F0805343
:1007E4001364054B1B6C03F080533B603B6800BFF4
:1007F4000C37BD4680BC70470038024080B58CB0D1
:1008040000AF786007F11C0300221A605A609A60F6
:10081400DA601A617B681B68324A93422CD1002348
:10082400BB61314B5B6C304A43F0100353642E4B75
:100834005B6C03F01003BB61BB6900237B612A4B33
:100844001B6B294A43F002031363274B1B6B03F012
:1008540002037B617B69C023FB6102233B620023AB
:100864007B620323BB620723FB6207F11C03194667
:100874001E4800F0A3FA31E07B681B681C4A9342CF
:100884002CD100233B61184B1B6C174A43F4802383
:100894001364154B1B6C03F480233B613B690023F9
:1008A400FB60114B1B6B104A43F0040313630E4BA4
:1008B4001B6B03F00403FB60FB684FF44063FB61B4
:1008C40002233B6200237B620323BB620723FB6298
:1008D40007F11C031946074800F070FA00BF3037CF
:1008E400BD4680BD001001400038024000040240B3
:1008F400004800400008024080B400AFFEE780B426
:1009040000AFFEE780B400AFFEE780B400AFFEE7BF
:1009140080B400AFFEE780B400AF00BFBD4680BC2A
:10092400704780B400AF00BFBD4680BC704780B440
:1009340000AF00BFBD4680BC704780B500AF00F07B
:1009440013F900BF80BD80B500AF4FF4006000F024
:100954001BFC4FF4805000F017FC00BF80BD80B535
:1009640086B000AFF860B9607A6000237B610AE06A
:10097400AFF300800146BB685A1CBA60CAB21A7051
:100984007B6901337B617A697B689A42F0DB7B681F
:1009940018461837BD4680BD80B483B000AF786078
:1009A4004FF0FF3318460C37BD4680BC704780B407
:1009B40083B000AF786039603B684FF400525A60EE
:1009C400002318460C37BD4680BC704780B483B002
:1009D40000AF7860012318460C37BD4680BC7047D1
:1009E40080B485B000AFF860B9607A60002318461F
:1009F4001437BD4680BC704780B586B000AF7860C0
:100A0400144A154BD31A7B617B693B61134B1B68FA
:100A1400002B02D1114B124A1A60104B1A687B68E2
:100A240013443A699A4207D201F08AFC03460C2225
:100A34001A604FF0FF3309E0084B1B68FB60074B5B
:100A44001A687B681344054A1360FB681846183714
:100A5400BD4680BD000002200004000014010020F7
:100A64006802002080B400AF00BFBD4680BC704760
:100A7400DFF834D0FFF7F6FF0C480D490D4A002388
:100A840002E0D458C4500433C4188C42F9D30A4A3F
:100A94000A4C002301E013600432A242FBD301F0AC
:100AA40055FCFFF75DFD70470000022000000020A8
:100AB4006800002050280008680000206802002018
:100AC400FEE7000080B500AF0E4B1B680D4A43F4EF
:100AD400007313600B4B1B680A4A43F48063136072
:100AE400084B1B68074A43F480731360032000F02B
:100AF40023F90F2000F008F8FFF75AFE00231846E8
:100B040080BD00BF003C024080B582B000AF786079
:100B1400124B1A68124B1B7819464FF47A73B3FBC5
:100B2400F1F3B2FBF3F3184600F03BF90346002B54
:100B340001D001230EE07B680F2B0AD800227968CC
:100B44004FF0FF3000F003F9064A7B68136000237E
:100B540000E0012318460837BD4680BD0000002090
:100B6400080000200400002080B400AF054B1B786F
:100B74001A46054B1B681344034A136000BFBD4665
:100B840080BC7047080000201801002080B400AF2A
:100B9400024B1B681846BD4680BC704718010020F4
:100BA40080B485B000AF78607B6803F00703FB6016
:100BB4000C4BDB68BB60BA684FF6FF031340BB60A5
:100BC400FB681A02BB68134343F0BF6343F400336A
:100BD400BB60044ABB68D36000BF1437BD4680BC09
:100BE400704700BF00ED00E080B400AF044BDB6849
:100BF4001B0A03F007031846BD4680BC704700BFBC
:100C040000ED00E080B483B000AF0346FB7197F9B8
:100C14000730002B0BDBFB7903F01F02064997F921
:100C240007305B09012000FA02F241F8232000BFDB
:100C34000C37BD4680BC704700E100E080B483B04F
:100C440000AF03463960FB7197F90730002B0ADBCC
:100C54003B68DAB20C4997F907301201D2B20B445F
:100C640083F800230AE03B68DAB20849FB7903F011
:100C74000F03043B1201D2B20B441A7600BF0C37A7
:100C8400BD4680BC704700BF00E100E000ED00E01D
:100C940080B489B000AFF860B9607A60FB6803F093
:100CA4000703FB61FB69C3F10703042B28BF04237B
:100CB400BB61FB690433062B02D9FB69033B00E0EB
:100CC40000237B614FF0FF32BB6902FA03F3DA437E
:100CD400BB681A407B699A404FF0FF317B6901FA87
:100CE40003F3D9437B680B40134318462437BD46AE
:100CF40080BC704780B582B000AF78607B68013BF0
:100D0400B3F1807F01D301230FE00A4A7B68013BE2
:100D140053600F214FF0FF30FFF790FF054B002287
:100D24009A60044B07221A60002318460837BD4610
:100D340080BD00BF10E000E080B582B000AF7860F5
:100D44007868FFF72DFF00BF0837BD4680BD80B52A
:100D540086B000AF0346B9607A60FB7300237B6101
:100D6400FFF742FF78617A68B9687869FFF790FF06
:100D7400024697F90F3011461846FFF75FFF00BF90
:100D84001837BD4680BD80B582B000AF0346FB7105
:100D940097F907301846FFF735FF00BF0837BD46FF
:100DA40080BD80B582B000AF78607868FFF7A2FF9D
:100DB400034618460837BD4680BD000080B487B09E
:100DC40000AF7860396000237B616FE13B681A688B
:100DD40001217B6901FA03F31340FB60FB68002BDC
:100DE40000F061813B685B6803F00303012B05D0CD
:100DF4003B685B6803F00303022B30D17B689B687C
:100E04003B617B695B00032202FA03F3DB433A692B
:100E140013403B613B68DA687B695B0002FA03F3C9
:100E24003A6913433B617B683A699A607B685B6803
:100E34003B6101227B6902FA03F3DB433A69134005
:100E44003B613B685B681B0903F001027B6902FAA2
:100E540003F33A6913433B617B683A695A603B6820
:100E64005B6803F00303032B17D07B68DB683B61EB
:100E74007B695B00032202FA03F3DB433A69134004
:100E84003B613B689A687B695B0002FA03F33A6949
:100E940013433B617B683A69DA603B685B6803F043
:100EA4000303022B23D17B69DA087B68083253F8E9
:100EB40022303B617B6903F007039B000F2202FA97
:100EC40003F3DB433A6913403B613B681A697B696E
:100ED40003F007039B0002FA03F33A6913433B61EF
:100EE4007B69DA087B680832396943F822107B6829
:100EF4001B683B617B695B00032202FA03F3DB435B
:100F04003A6913403B613B685B6803F003027B6909
:100F14005B0002FA03F33A6913433B617B683A6965
:100F24001A603B685B6803F44033002B00F0BB801D
:100F34000023BB60644B5B6C634A43F4804353649B
:100F4400614B5B6C03F48043BB60BB685F4A7B69A5
:100F54009B08023352F823303B617B6903F003039F
:100F64009B000F2202FA03F3DB433A6913403B610F
:100F74007B68574A934231D07B68564A93422BD0C0
:100F84007B68554A934225D07B68544A93421FD0CC
:100F94007B68534A934219D07B68524A934213D0D8
:100FA4007B68514A93420DD07B68504A934207D0E4
:100FB4007B684F4A934201D1082310E009230EE0D5
:100FC40007230CE006230AE0052308E0042306E0D7
:100FD400032304E0022302E0012300E000237A69F2
:100FE40002F00302920093401A463B6913433B61AB
:100FF40036497B699B0802333A6941F823203D4B0B
:101004009B683B61FB68DB433A6913403B613B6887
:101014005B6803F48013002B03D03A69FB68134325
:101024003B61344A3B699360324BDB683B61FB684C
:10103400DB433A6913403B613B685B6803F400138C
:10104400002B03D03A69FB6813433B61294A3B698F
:10105400D360284B5B683B61FB68DB433A69134010
:101064003B613B685B6803F40033002B03D03A69AF
:10107400FB6813433B611F4A3B6953601D4B1B686C
:101084003B61FB68DB433A6913403B613B685B6847
:1010940003F48033002B03D03A69FB6813433B61AC
:1010A400144A3B6913607B6901337B613B681A68AE
:1010B4007B6922FA03F3002B7FF488AE00BF00BFE4
:1010C4001C37BD4680BC70470038024000380140E0
:1010D400000002400004024000080240000C0240EC
:1010E400001002400014024000180240001C02409C
:1010F40000200240003C014080B485B000AF78601D
:101104000B467B807B681A697B881340002B02D0D6
:101114000123FB7301E00023FB73FB7B18461437A8
:10112400BD4680BC704780B483B000AF78600B4686
:101134007B8013467B707B78002B03D07A887B6896
:101144009A6103E07B881A047B689A6100BF0C37BC
:10115400BD4680BC704780B485B000AF78600B4654
:101164007B807B685B69FB607A88FB6813401A04A8
:10117400FB68D9437B880B401A437B689A6100BFA4
:101184001437BD4680BC704780B582B000AF0346BB
:10119400FB80084B5A69FB881340002B06D0054A94
:1011A400FB885361FB881846FFF7ACF900BF08378A
:1011B400BD4680BD003C014080B58AB000AF786078
:1011C4007B68002B01D101233BE27B681B6803F0A1
:1011D4000103002B50D09E4B9B6803F00C03042B9F
:1011E4000CD09B4B9B6803F00C03082B12D1984B3B
:1011F4005B6803F48003B3F5800F0BD1944B1B6839
:1012040003F40033002B36D07B685B68002B32D1AB
:10121400012316E27B685A688E4BD2B21A707B683F
:101224005B68002B13D0FFF7B1FC386208E0FFF7CE
:10123400ADFC02463B6AD31A642B01D9032300E2B6
:10124400834B1B6803F40033002BF0D014E0FFF74A
:101254009DFC386208E0FFF799FC02463B6AD31A0A
:10126400642B01D90323ECE1794B1B6803F40033AD
:10127400002BF0D100E000BF7B681B6803F0020381
:10128400002B77D0724B9B6803F00C03002B0BD020
:101294006F4B9B6803F00C03082B26D16C4B5B68E7
:1012A40003F48003002B20D1694B1B6803F0020375
:1012B400002B05D07B68DB68012B01D00123C0E142
:1012C400634B1B6823F0F8027B681B69F821B96142
:1012D400B96991FAA1F179617969B1FA81F1C9B277
:1012E4008B405B4913430B6044E07B68DB68002B55
:1012F4002AD0594B01221A60FFF748FC386208E0F3
:10130400FFF744FC02463B6AD31A022B01D903239C
:1013140097E14F4B1B6803F00203002BF0D04C4BBA
:101324001B6823F0F8027B681B69F821396139696D
:1013340091FAA1F1F960F968B1FA81F1C9B28B406F
:10134400434913430B6015E0434B00221A60FFF737
:101354001DFC386208E0FFF719FC02463B6AD31A09
:10136400022B01D903236CE1394B1B6803F0020300
:10137400002BF0D17B681B6803F00803002B30D0EE
:101384007B685B69002B16D0344B01221A60FFF78F
:10139400FDFB386208E0FFF7F9FB02463B6AD31A0B
:1013A400022B01D903234CE1294B5B6F03F00203A9
:1013B400002BF0D015E0294B00221A60FFF7E6FB62
:1013C400386208E0FFF7E2FB02463B6AD31A022BBD
:1013D40001D9032335E11E4B5B6F03F00203002B9D
:1013E400F0D17B681B6803F00403002B00F08780B6
:1013F400002387F82730164B1B6C03F08053002B17
:1014040010D10023BB60124B1B6C114A43F0805374
:1014140013640F4B1B6C03F08053BB60BB68012348
:1014240087F827300E4B1B680D4A43F48073136012
:101434000B4B1B6803F48073002B22D1084B1B68F1
:10144400074A43F480731360FFF7A0FB386212E08D
:10145400003802400238024000004742800E4742F2
:1014640000700040FFF792FB02463B6AD31A022B3E
:1014740001D90323E5E0754B1B6803F48073002B4B
:10148400F0D07B689A68724BD2B21A707B689B6802
:10149400002B15D0FFF77AFB38620AE0FFF776FBE2
:1014A40002463B6AD31A41F28832934201D903239C
:1014B400C7E0684B1B6F03F00203002BEED014E06F
:1014C400FFF764FB38620AE0FFF760FB02463B6A01
:1014D400D31A41F28832934201D90323B1E05D4B20
:1014E4001B6F03F00203002BEED197F82730012B7A
:1014F40005D1584B1B6C574A23F0805313647B6807
:101504009B69002B00F09C80524B9B6803F00C03FA
:10151400082B61D07B689B69022B46D14E4B00227D
:101524001A60FFF733FB386208E0FFF72FFB02462F
:101534003B6AD31A642B01D9032382E0454B1B6811
:1015440003F00073002BF0D1424B5A68434B134015
:101554007A68D1697A68126A11437A68526A920188
:1015640011437A68D26A120611437A68926A520861
:10157400013A12040A43374913434B60364B0122A4
:101584001A60FFF703FB386208E0FFF7FFFA024630
:101594003B6AD31A642B01D9032352E02D4B1B68F9
:1015A40003F00073002BF0D04AE02B4B00221A60AA
:1015B400FFF7ECFA386208E0FFF7E8FA02463B6A04
:1015C400D31A642B01D903233BE0224B1B6803F09D
:1015D4000073002BF0D133E07B689B69012B01D1B0
:1015E40001232EE01B4B5B68FB61FB6903F4800263
:1015F4007B68DB699A4221D1FB6903F03F027B6877
:101604001B6A9A421AD1FA6947F6C07313407A6882
:10161400526A9201934211D1FB6903F440327B6810
:101624009B6A5B08013B1B049A4207D1FB6903F0E8
:1016340070627B68DB6A1B069A4201D0012300E0DA
:10164400002318462837BD4680BD00BF0070004007
:101654007038024000380240600047420080BCF00D
:1016640080B586B000AF786039607B68002B01D10B
:101674000123D2E06B4B1B6803F00F033A689A42D4
:101684000CD9684B3A68D2B21A70664B1B6803F0E7
:101694000F033A689A4201D00123BEE07B681B68BD
:1016A40003F00203002B20D07B681B6803F00403C3
:1016B400002B05D05C4B9B685B4A43F4E05393607A
:1016C4007B681B6803F00803002B05D0564B9B680E
:1016D400554A43F460439360534B9B6823F0F002F4
:1016E4007B689B68504913438B607B681B6803F0DD
:1016F4000103002B40D07B685B68012B07D14A4B68
:101704001B6803F40033002B15D1012385E07B68AB
:101714005B68022B07D1444B1B6803F00073002B5A
:1017240009D1012379E0404B1B6803F00203002B2D
:1017340001D1012371E03C4B9B6823F003027B68D9
:101744005B68394913438B60FFF720FA78610AE03C
:10175400FFF71CFA02467B69D31A41F2883293429E
:1017640001D9032359E0304B9B6803F00C027B68DA
:101774005B689B009A42EBD12A4B1B6803F00F0372
:101784003A689A420CD2274B3A68D2B21A70254B67
:101794001B6803F00F033A689A4201D001233CE02E
:1017A4007B681B6803F00403002B08D01E4B9B6866
:1017B40023F4E0527B68DB681B4913438B607B682E
:1017C4001B6803F00803002B09D0174B9B6823F414
:1017D40060427B681B69DB00134913438B6000F094
:1017E4002BF80146104B9B6803F0F003F0223A619A
:1017F4003A6992FAA2F2FA60FA68B2FA82F2D2B2C2
:10180400D3400A4AD35C21FA03F3094A1360094B13
:101814001B681846FFF778F9002318461837BD46A9
:1018240080BD00BF003C0240003802402828000868
:1018340000000020040000202DE9B04F90B000AF5C
:1018440000237B630023FB6300233B630023BB6310
:10185400594B9B6803F00C03082B0DD0082B00F2A6
:10186400A280002B02D0042B03D09CE0534BBB631B
:101874009CE0534BBB6399E04F4B5B6803F03F0321
:101884007B634D4B5B6803F48003002B27D04A4BEA
:101894005B689B0900223B627A623B6AC3F30800DF
:1018A4000021474B03FB01F2002300FB03F3134425
:1018B400434AA0FB0221F962BA62FA6A1344FB624A
:1018C4007B6B0022BB61FA61D7E90623D7E90A01E1
:1018D400FEF776FC02460B461346FB6355E0364B97
:1018E4005B689B0900223B617A613B69C3F3080A88
:1018F4004FF0000B52465B464FF000004FF00001E2
:10190400590141EAD261500102460B46B2EB0A0882
:1019140063EB0B094FF000024FF000034FEA891309
:1019240043EA98634FEA8812B2EB080463EB0905B3
:101934004FF000024FF00003EB0043EA5473E2005F
:1019440014461D4614EB0A033B6045EB0B037B6016
:101954004FF000024FF00003D7E9004529468B02FF
:1019640020462946044643EA945301468A02104617
:1019740019467B6B0022BB60FA60D7E90223FEF7AD
:101984001FFC02460B461346FB630B4B5B681B0CA8
:1019940003F0030301335B003B63FA6B3B6BB2FB65
:1019A400F3F3BB6302E0054BBB6300BFBB6B18469C
:1019B4004037BD46BDE8B08F003802400024F40033
:1019C40040787D0180B400AF024B1B681846BD46C9
:1019D40080BC70470000002080B582B000AFFFF7E4
:1019E400F1FF01460B4B9B6803F4E0534FF4E052C4
:1019F4007A607A6892FAA2F23A603A68B2FA82F2AB
:101A0400D2B2D340044AD35C21FA03F31846083710
:101A1400BD4680BD003802403828000880B582B039
:101A240000AFFFF7CFFF01460B4B9B6803F4604305
:101A34004FF460427A607A6892FAA2F23A603A68A5
:101A4400B2FA82F2D2B2D340044AD35C21FA03F34D
:101A540018460837BD4680BD0038024038280008C3
:101A640080B582B000AF78607B68002B01D1012380
:101A740042E07B6893F84130DBB2002B06D17B68EF
:101A8400002283F840207868FEF7B8FE7B682422A1
:101A940083F841207B681B68DA687B681B6822F442
:101AA4000052DA60786800F01DF97B681B681A69D7
:101AB4007B681B6822F490421A617B681B685A6930
:101AC4007B681B6822F02A025A617B681B68DA680B
:101AD4007B681B6842F40052DA607B6800225A6417
:101AE4007B68202283F841207B68202283F84220EF
:101AF4007B6800225A63002318460837BD4680BD20
:101B040080B58AB002AFF860B9603B601346FB80D1
:101B140000237B61FB6893F84130DBB2202B6DD14D
:101B2400BB68002B02D0FB88002B01D1012366E0A7
:101B3400FB6800225A64FB68212283F84120FFF7E6
:101B440025F87861FB68FA889A84FB68FA88DA8455
:101B5400FB689B68B3F5805F08D1FB681B69002BA9
:101B640004D10023FB61BB68BB6103E0BB68FB617C
:101B74000023BB612AE03B6800937B69002280213B
:101B8400F86800F040F80346002B01D0032336E048
:101B9400FB69002B0BD1BB691B881A46FB681B68C9
:101BA400C2F308025A60BB690233BB6107E0FB69F8
:101BB4001A78FB681B685A60FB690133FB61FB6898
:101BC400DB8C9BB2013B9AB2FB68DA84FB68DB8C4A
:101BD4009BB2002BCFD13B6800937B69002240214C
:101BE400F86800F010F80346002B01D0032306E048
:101BF400FB68202283F84120002300E002231846DA
:101C04002037BD4680BD80B590B000AFF860B960A4
:101C14003B601346FB7150E0BB6CB3F1FF3F4CD00B
:101C2400BB6C002B07D0FEF7B1FF02463B68D31A0A
:101C3400BA6C9A4241D2FB681B680C33BB62BB6A24
:101C440053E8003F7B627B6A23F4D073FB63FB6839
:101C54001B680C33FA6B7A633B63396B7A6B41E82C
:101C64000023FB62FB6A002BE5D1FB681B6814337D
:101C74007B617B6953E8003F3B613B6923F00103CF
:101C8400BB63FB681B681433BA6B3A62FB61F96986
:101C94003A6A41E80023BB61BB69002BE5D1FB68CC
:101CA400202283F84120FB68202283F84220FB682D
:101CB400002283F8402003230FE0FB681B681A68A6
:101CC400BB681340BA689A420CBF01230023DBB2FD
:101CD4001A46FB799A429FD0002318464037BD46E6
:101CE40080BD000080B584B000AF78607B681B685D
:101CF4001B6923F440517B68DA687B681B680A43DC
:101D04001A617B689A687B681B691A437B685B6904
:101D14001A437B68DB691343BB607B681B68DB6821
:101D240023F4164323F00C037A681268B9680B4352
:101D3400D3607B681B685B6923F440717B689A6994
:101D44007B681B680A435A617B681B68574A934245
:101D540004D07B681B68564A934203D1FFF75EFEAA
:101D6400F86002E0FFF738FEF8607B68DB69B3F5E2
:101D7400004F4CD1FA6813469B0013449A001A444E
:101D84007B685B685B00B2FBF3F34A4AA2FB032364
:101D94005B091901FA6813469B0013449A001A441C
:101DA4007B685B685B00B2FBF3F2424BA3FB02036C
:101DB4005B09642000FB03F3D31ADB0032333D4A92
:101DC400A2FB03235B095B0003F4F8731944FA686C
:101DD40013469B0013449A001A447B685B685B00BB
:101DE400B2FBF3F2334BA3FB02035B09642000FB59
:101DF40003F3D31ADB0032332E4AA2FB03235B091D
:101E040003F007027B681B680A449A604AE0FA6898
:101E140013469B0013449A001A447B685B689B003A
:101E2400B2FBF3F3234AA2FB03235B091901FA680B
:101E340013469B0013449A001A447B685B689B001A
:101E4400B2FBF3F21B4BA3FB02035B09642000FB10
:101E540003F3D31A1B013233164AA2FB03235B0993
:101E640003F0F0031944FA6813469B0013449A00E4
:101E74001A447B685B689B00B2FBF3F20D4BA3FB37
:101E840002035B09642000FB03F3D31A1B01323302
:101E9400084AA2FB03235B0903F00F027B681B685B
:101EA4000A449A6000BF1037BD4680BD001001404F
:101EB400001401401F85EB51002310B50446C0E90E
:101EC4000033C0E90433836081814366C281836146
:101ED400194608225C3000F0E5F90D4B2462636278
:101EE4000C4BA3620C4BE3620C4B23630C4B9C42E4
:101EF40006D003F16802944202D0D0339C4205D14B
:101F040004F15800BDE8104000F044BA10BD00BF11
:101F1400F92000081B21000853210008772100083C
:101F24001C010020024A0349034800F069B800BFBD
:101F34000C0000208D2600081800002041680C4B7E
:101F440010B59942044601D000F09EFBA168094BEC
:101F5400994202D0204600F097FBE168064B994273
:101F640004D02046BDE8104000F08EBB10BD00BF79
:101F74001C01002084010020EC01002010B50B4B53
:101F84000B4C0C4A20461A6004210022FFF794FFF0
:101F940004F1680001220921FFF78EFF04F1D0004B
:101FA4000222BDE810401221FFF786BF5402002030
:101FB4001C010020291F0008014800F0ECB900BFF3
:101FC4005D020020014800F0E7B900BF5D02002077
:101FD40010B50446FFF7F0FF236A1BB1BDE81040BB
:101FE400FFF7F0BF044B2362044B1B68002BF5D1B1
:101FF400FFF7C4FFF2E700BF411F000854020020AE
:102004002DE9F8430746884614460026D4E901958D
:10201400B9F1010905D52468002CF7D13046BDE893
:10202400F883AB89012B07D9B5F90E30013303D0FE
:1020340029463846C04706436835E9E7036A70B560
:1020440005460E4684680BB9FFF7C2FF636EDB07D3
:1020540005D4A389980502D4A06D00F09CF9A38946
:10206400190713D523698BB1013EA36816F8011F24
:10207400013BA360E9B9002B2EDA22460A21284647
:1020840000F07BF8013007D00A2507E021462846F6
:1020940000F0B0F80028E7D04FF0FF35636EDA07A0
:1020A40005D4A3899B0502D4A06D00F075F92846D8
:1020B40070BD002B04DAA2699A4206DC0A2904D016
:1020C40023685A1C22601970CFE72246284600F084
:1020D40054F80130C9D1DFE70A2523685A1C22606D
:1020E4001D70DBE7024B01461868FFF7A7BF00BF6E
:1020F4006400002010B50C46B1F90E1000F0FCF895
:102104000028ABBF636DA3891B1823F48053ACBFB5
:102114006365A38110BD2DE9F0411F468B890546F7
:10212400DB050C46164605D502230022B1F90E1034
:1021340000F0D0F8A389324623F48053A3812846C3
:102144003B46B4F90E10BDE8F04100F0E7B810B515
:102154000C46B1F90E1000F0BDF8431CA38915BF5D
:10216400606523F4805343F48053A38118BFA38193
:1021740010BDB1F90E1000F09DB8F8B50E46144626
:10218400054618B1036A0BB9FFF722FFA369A360E0
:10219400A3891A0725D523691BB323682269F6B2DC
:1021A400981A63693746834204DC2146284600F0C6
:1021B4006BFAE0B9A368013BA36023685A1C226050
:1021C4001E706269431C9A4204D0A389DB0706D5BA
:1021D4000A2E04D12146284600F056FA38B938466A
:1021E400F8BD2146284600F005F80028D5D04FF068
:1021F400FF37F4E738B52A4B054618680C4618B182
:10220400036A0BB9FFF7E4FEA389B4F90C2018079D
:1022140022D4D90607D409232B6042F040034FF09F
:10222400FF30A38134E0580712D5616B41B104F14A
:102234004403994202D0284600F0B0F800236363B7
:10224400A38923F02403A38100236360236923600B
:10225400A38943F00803A38123694BB9A38903F439
:102264002073B3F5007F03D02146284600F059FAC5
:10227400A089B4F90C2010F001030AD00023A36054
:1022840063695B42A361236943B910F08000C4D140
:1022940038BD810758BF6369A360F4E70020F7E7FE
:1022A4006400002003460244934200D1704703F8BF
:1022B400011BF9E738B50023054D044608462B6099
:1022C400FEF76AFB431C02D12B6803B1236038BDBF
:1022D4005802002038B50446084611460022054D30
:1022E4002A601A46FEF77CFB431C02D12B6803B11B
:1022F400236038BD5802002038B50446084611460C
:102304000022054D2A601A46FEF729FB431C02D120
:102314002B6803B1236038BD5802002038B5044649
:10232400084611460022054D2A601A46FEF7C8F8F1
:10233400431C02D12B6803B1236038BD580200202E
:10234400014B1868704700BF6400002070B5002678
:102354000C4D0D4C641BA410A64209D100F050FA98
:1023640000260A4D0A4C641BA410A64205D170BD78
:1023740055F8043B98470136EEE755F8043B984777
:102384000136F2E7482800084828000848280008D1
:102394004C280008704770477047000038B5054660
:1023A400002940D051F8043C0C1F002BB8BFE4189E
:1023B40000F0DCF81C4A136833B9636014602846E3
:1023C400BDE8384000F0D8B8A34208D920682118E5
:1023D4008B4201BF19685B6809182160EDE71A4652
:1023E4005B680BB1A342FAD911685018A0420BD113
:1023F40020680144501883421160E0D118685B687A
:10240400084410605360DAE702D90C232B60D6E746
:10241400206821188B4201BF19685B680918216084
:1024240063605460CBE738BD6002002070B50E4E87
:102434000C463168054611B900F0D2F930602146E6
:10244400284600F0CDF9431C0AD0C41C24F0030430
:10245400A04207D0211A284600F0C2F9013001D168
:102464004FF0FF34204670BD640200202DE9F8438C
:10247400CD1C25F0030508350C2D38BF0C25002D87
:10248400074601DBA94205D90C2300263B603046F0
:10249400BDE8F883DFF8D08000F068F8D8F80030A1
:1024A4001C465CBB29463846FFF7C0FF431C044664
:1024B40055D1D8F800402646002E45D1002C48D0EE
:1024C40023683146384604EB030900F089F9814555
:1024D4003FD1216838466D1A2946FFF7A7FF01301E
:1024E40037D023682B442360D8F80030002B38D031
:1024F4005A68A2422BD100225A600FE02268521B74
:102504001FD40B2A17D96119A342256018BF59603B
:10251400636808BFC8F8001062514B60384604F184
:102524000B0600F029F826F00706231DF21AAED098
:102534009B1BA350ABE7A3426268DDD1C8F800201F
:10254400ECE723466468ACE734467668B4E71346A0
:10255400CCE70C2338463B6000F00EF897E7256083
:10256400DCE75B60FFDE00BF600200200148FFF78C
:1025740012BF00BF5C0200200148FFF70DBF00BF7F
:102584005C0200208A89F8B5054610070C4657D42A
:102594004B68002B04DC0B6C002B01DC0020F8BD25
:1025A400E66A002EFAD0002312F480522F68216AC2
:1025B4002B6032D0606DA3895A0705D56368C01AB1
:1025C400636B0BB1236CC01A00230246E66A2846EB
:1025D400216AB047431CA38906D129681D292BD839
:1025E400284A0A41D60727D4002262602269D90406
:1025F400226004D5421C01D12B6803B96065616B6C
:102604002F600029CAD004F14403994202D028461D
:10261400FFF7C4FE00206063C1E701232846B047EA
:10262400411CC8D12B68002BC5D01D2B01D0162B03
:1026340001D12F60B2E7A38943F04003A381AEE741
:102644000F69002FAAD0930718BF00230E6808BF94
:102654004B69F61B0F608B60002E9FDD33463A46B4
:102664002846216AD4F828C0E047002806DCA3895C
:102674004FF0FF3043F04003A38190E70744361A3C
:10268400EAE700BFFEFFBFDF38B50B6905460C461D
:1026940013B90025284638BD18B1036A0BB9FFF7F2
:1026A40097FCB4F90C30002BF3D0626ED00704D43D
:1026B400990502D4A06DFFF76EFE28462146FFF768
:1026C40061FF636E0546DA07E4D4A3899B05E1D470
:1026D400A06DFFF761FEDDE770B50C46B1F90E1091
:1026E400154600291E4696B00CDAA389002113F082
:1026F400800F0CBF4FF480634023002031602B60B7
:1027040016B070BD6A4600F049F80028EDDB019967
:1027140001F47041A1F50053594259414FF48063CB
:10272400EBE78B8973B59D0706460C4607D504F184
:102734004703236023610123636102B070BD6A46CD
:1027440001ABFFF7C9FF009905463046FFF78EFE3F
:1027540048B9B4F90C309A05EFD423F0030343F0DD
:102764000203A381E3E7A389206043F08003A381EC
:10277400009B20616361019B5BB13046B4F90E108C
:1027840000F01EF828B1A38923F0030343F00103EA
:10279400A381A3891D43A581CFE7000038B5002399
:1027A400064D0446084611462B60FEF700F9431C0B
:1027B40002D12B6803B1236038BD00BF580200204A
:1027C40038B50023054D044608462B60FEF7FEF895
:1027D400431C02D12B6803B1236038BD580200208A
:1027E40038B50023054D044608462B60FEF704F96E
:1027F400431C02D12B6803B1236038BD580200206A
:10280400F8B500BFF8BC08BC9E467047F8B500BFD9
:08281400F8BC08BC9E467047A9
:10281C004B455920746573740D00000000000000D6
:10282C000000000001020304060708090000000074
:04283C00010203048E
:08284000B4D9FF7F0100000084
:04284800A9010008DA
:04284C0085010008FA
:102850000024F4001000000001000000000000004F
:10286000030000001C010020000000001C010020EB
:1028700084010020EC0100200000000000000000A6
:102880000000000000000000000000000000000048
:102890000000000000000000000000000000000038
:1028A0000000000000000000000000000000000028
:0828B0000000000018000020E8
:0400000508000A7570
:00000001FF
