:020000040800F2
:1000000000000220BD0800085D0700086307000823
:10001000690700086F070008750700080000000066
:100020000000000000000000000000007B07000846
:100030008707000800000000930700089F070008DA
:100040000D0900080D0900080D0900080D09000838
:100050000D0900080D0900080D0900080D09000828
:100060000D0900080D0900080D0900080D09000818
:100070000D0900080D0900080D0900080D09000808
:100080000D0900080D0900080D0900080D090008F8
:100090000D0900080D0900080D0900080D090008E8
:1000A0000D0900080D0900080D0900080D090008D8
:1000B0000D0900080D0900080D0900080D090008C8
:1000C0000D0900080D0900080D0900080D090008B8
:1000D0000D0900080D0900080D0900080D090008A8
:1000E0000D0900080D0900080D0900080D09000898
:1000F0000D0900080D0900080D0900080D09000888
:100100000D0900080D0900080D0900080D09000877
:100110000D0900080D0900080D0900080D09000867
:100120000D0900080D0900080D0900080D09000857
:100130000D0900080D0900080D0900080D09000847
:100140000D0900080D0900080D0900080D09000837
:100150000D0900080D0900080D0900080D09000827
:100160000D0900080D0900080D0900080D09000817
:100170000D0900080D0900080D0900080000000025
:040180000D0900085D
:1001840010B5054C237833B9044B13B10448AFF3CD
:1001940000800123237010BD6800002000000000CF
:1001A4006C2B000808B5034B1BB103490348AFF39C
:1001B400008008BD000000006C0000206C2B0008CB
:1001C40053B94AB9002908BF00281CBF4FF0FF31BA
:1001D4004FF0FF3000F072B9ADF1080C6DE904CEB8
:1001E40000F006F8DDF804E0DDE9022304B070470E
:1001F4002DE9F047089E0D4604468E46002B4CD14F
:100204008A42944667D9B2FA82F353B102FA03FCE4
:10021400C3F1200201FA03FE20FA02F242EA0E0EB2
:100224009C404FEA1C47BEFBF7F11FFA8CF507FB15
:1002340011EE01FB05F0220C42EA0E4290420AD96B
:100244001CEB020201F1FF3E80F01981904240F262
:10025400168102396244121AB2FBF7F007FB10222E
:1002640000FB05F5A4B244EA0244A5420AD91CEBFA
:10027400040400F1FF3280F00481A54240F20181C0
:100284006444023840EA01400021641B1EB1DC4092
:100294000023C6E90043BDE8F0878B4208D9002E4D
:1002A40000F0EA800021C6E900050846BDE8F087B1
:1002B400B3FA83F1002948D1AB4202D3824200F25F
:1002C400F880841A65EB030201209646002EE2D0E2
:1002D400C6E9004EDFE702B9FFDEB2FA82F3002B73
:1002E40040F08E80881A0121170C1FFA82FEB0FBA1
:1002F400F7F507FB1500220C42EA00420EFB05F05D
:10030400904208D91CEB020205F1FF3802D2904258
:1003140000F2CC804546121AB2FBF7F007FB10221C
:100324000EFB00FEA4B244EA0244A64508D91CEB25
:10033400040400F1FF3202D2A64500F2B480104654
:10034400A4EB0E0440EA0540A0E7C1F120078B406E
:1003540022FA07FC4CEA030C25FA07FA4FEA1C4977
:10036400BAFBF9F88D4020FA07F309FB18AA1FFA23
:100374008CFE2B4300FA01F508FB0EF01C0C44EA3A
:100384000A44A04202FA01F20BD91CEB040408F15E
:10039400FF3A80F08680A04240F28380A8F10208F0
:1003A4006444241A98B2B4FBF9F309FB134403FB25
:1003B4000EFE40EA0444A64508D91CEB040403F1EC
:1003C400FF306AD2A64568D9023B644443EA084038
:1003D400A0FB0293A4EB0E049C42C8469E4654D351
:1003E40051D0002E67D0B5EB080364EB0E04CB406C
:1003F40004FA07F71F43CC40C6E9007400214AE71A
:1004040002FA03FCC3F12000C1409D4024FA00F02D
:100414004FEA1C472843B1FBF7F507FB15111FFAF8
:100424008CFE020C42EA014205FB0EF1914204FAF1
:1004340003F408D91CEB020205F1FF382FD29142D4
:100444002DD9023D6244521AB2FBF7F107FB112287
:1004540080B240EA024001FB0EF2824208D91CEB52
:10046400000001F1FF3816D2824214D902396044E7
:10047400801A41EA05413AE7314630460BE77146B6
:10048400E9E61046FEE64D45ABD2B9EB020863EB54
:100494000C0E0138A5E74146EAE7034696E74546D0
:1004A400D1E7D0467DE76444023849E7023D62441F
:1004B40031E708460AE73146EDE600BF704700BF62
:1004C40080B586B000AFF860B9607A600023FB8223
:1004D4000BE0B9684B1CBB6064230122084801F09F
:1004E400CDF9FB8A01339BB2FB82B7F916307A68E7
:1004F4009A42EEDC7B6818461837BD4680BD00BFC3
:100504008400002080B582B000AF00F0FFF900F055
:1005140019F800F087F800F05BF800237B600748C7
:1005240001F0B0FC7B685A1C7A601946044801F05B
:1005340043FC4FF47A7000F057FAF3E7842B000879
:10054400902B000880B592B000AF07F11803302259
:100554000021184601F076FD3B1D00221A605A6006
:100564009A60DA601A610123BB610123FB610223F3
:100574003B634FF480037B631923BB63F023FB636A
:1005840002233B6404237B6407F11803184600F03C
:10059400D1FC0346002B01D000F06AF80F237B60E6
:1005A4000223BB600023FB604FF4A0533B614FF474
:1005B40080537B613B1D0321184600F00FFF034667
:1005C400002B01D000F054F800BF4837BD4680BD71
:1005D40080B500AF114B124A1A60104B4FF4E13250
:1005E4005A600E4B00229A600C4B0022DA600B4BCF
:1005F40000221A61094B0C225A61084B00229A61AD
:10060400064B0022DA61054801F0E8F80346002BA6
:1006140001D000F02DF800BF80BD00BF8400002091
:100624000010014080B483B000AF00237B600F4B07
:100634001B6B0E4A43F0800313630C4B1B6B03F0DC
:1006440080037B607B6800233B60084B1B6B074A7D
:1006540043F002031363054B1B6B03F002033B607F
:100664003B6800BF0C37BD4680BC70470038024071
:1006740080B400AF72B600BFFEE7000080B483B060
:1006840000AF00237B600F4B5B6C0E4A43F4804346
:1006940053640C4B5B6C03F480437B607B680023E6
:1006A4003B60084B1B6C074A43F080531364054BB3
:1006B4001B6C03F080533B603B6800BF0C37BD46A6
:1006C40080BC70470038024080B58AB000AF7860C3
:1006D40007F1140300221A605A609A60DA601A6102
:1006E4007B681B68194A93422BD100233B61184B4A
:1006F4005B6C174A43F010035364154B5B6C03F0B7
:1007040010033B613B690023FB60114B1B6B104AD8
:1007140043F0020313630E4B1B6B03F00203FB60F5
:10072400FB68C0237B610223BB610023FB610323BD
:100734003B6207237B6207F114031946054800F066
:100744005BFA00BF2837BD4680BD00BF00100140E2
:10075400003802400004024080B400AFFEE780B4D9
:1007640000AFFEE780B400AFFEE780B400AFFEE761
:1007740080B400AFFEE780B400AF00BFBD4680BCCC
:10078400704780B400AF00BFBD4680BC704780B4E2
:1007940000AF00BFBD4680BC704780B500AF00F01D
:1007A40007F900BF80BD80B586B000AFF860B960BE
:1007B4007A6000237B610AE0AFF300800146BB68E6
:1007C4005A1CBA60CAB21A707B6901337B617A69B8
:1007D4007B689A42F0DB7B6818461837BD4680BDBB
:1007E40080B483B000AF78604FF0FF3318460C3705
:1007F400BD4680BC704780B483B000AF7860396078
:100804003B684FF400525A60002318460C37BD462B
:1008140080BC704780B483B000AF78600123184671
:100824000C37BD4680BC704780B485B000AFF8601B
:10083400B9607A60002318461437BD4680BC7047FF
:1008440080B586B000AF7860144A154BD31A7B612B
:100854007B693B61134B1B68002B02D1114B124A7D
:100864001A60104B1A687B6813443A699A4207D29B
:1008740001F036FC03460C221A604FF0FF3309E006
:10088400084B1B68FB60074B1A687B681344054AD6
:100894001360FB6818461837BD4680BD000002206F
:1008A40000040000CC0000202002002080B400AF2F
:1008B40000BFBD4680BC7047DFF834D0FFF7F6FFB9
:1008C4000C480D490D4A002302E0D458C4500433A7
:1008D400C4188C42F9D30A4A0A4C002301E013607D
:1008E4000432A242FBD301F001FCFFF70BFE704778
:1008F400000002200000002068000020F82B0008FF
:100904006800002020020020FEE7000080B500AF50
:100914000E4B1B680D4A43F4007313600B4B1B68AA
:100924000A4A43F480631360084B1B68074A43F484
:1009340080731360032000F02BF90F2000F008F8F7
:10094400FFF79CFE0023184680BD00BF003C024018
:1009540080B582B000AF7860124B1A68124B1B78D6
:1009640019464FF47A73B3FBF1F3B2FBF3F3184671
:1009740000F035F90346002B01D001230EE07B681B
:100984000F2B0AD8002279684FF0FF3000F00BF9E2
:10099400064A7B681360002300E0012318460837E9
:1009A400BD4680BD00000020080000200400002097
:1009B40080B400AF054B1B781A46054B1B681344E3
:1009C400034A136000BFBD4680BC70470800002086
:1009D400D000002080B400AF024B1B681846BD460F
:1009E40080BC7047D000002080B584B000AF786030
:1009F400FFF7F0FFB8607B68FB60FB68B3F1FF3F73
:100A040005D00A4B1B781A46FB681344FB6000BFF1
:100A1400FFF7E0FF0246BB68D31AFA689A42F7D898
:100A240000BF00BF1037BD4680BD00BF08000020D6
:100A340080B485B000AF78607B6803F00703FB6087
:100A44000C4BDB68BB60BA684FF6FF031340BB6016
:100A5400FB681A02BB68134343F0BF6343F40033DB
:100A6400BB60044ABB68D36000BF1437BD4680BC7A
:100A7400704700BF00ED00E080B400AF044BDB68BA
:100A84001B0A03F007031846BD4680BC704700BF2D
:100A940000ED00E080B483B000AF03463960FB7121
:100AA40097F90730002B0ADB3B68DAB20C4997F957
:100AB40007301201D2B20B4483F800230AE03B68EA
:100AC400DAB20849FB7903F00F03043B1201D2B2F6
:100AD4000B441A7600BF0C37BD4680BC704700BF7C
:100AE40000E100E000ED00E080B489B000AFF86000
:100AF400B9607A60FB6803F00703FB61FB69C3F12B
:100B04000703042B28BF0423BB61FB690433062BB2
:100B140002D9FB69033B00E000237B614FF0FF3205
:100B2400BB6902FA03F3DA43BB681A407B699A4053
:100B34004FF0FF317B6901FA03F3D9437B680B4023
:100B4400134318462437BD4680BC704780B582B035
:100B540000AF78607B68013BB3F1807F01D3012350
:100B64000FE00A4A7B68013B53600F214FF0FF30CE
:100B7400FFF790FF054B00229A60044B07221A608E
:100B8400002318460837BD4680BD00BF10E000E0D2
:100B940080B582B000AF78607868FFF749FF00BF86
:100BA4000837BD4680BD80B586B000AF0346B96046
:100BB4007A60FB7300237B61FFF75EFF78617A68DC
:100BC400B9687869FFF790FF024697F90F3011462C
:100BD4001846FFF75FFF00BF1837BD4680BD80B5DC
:100BE40082B000AF78607868FFF7B0FF034618461C
:100BF4000837BD4680BD000080B487B000AF786080
:100C0400396000237B616FE13B681A6801217B69CD
:100C140001FA03F31340FB60FB68002B00F06181D1
:100C24003B685B6803F00303012B05D03B685B68FA
:100C340003F00303022B30D17B689B683B617B6923
:100C44005B00032202FA03F3DB433A6913403B617E
:100C54003B68DA687B695B0002FA03F33A69134381
:100C64003B617B683A699A607B685B683B610122FF
:100C74007B6902FA03F3DB433A6913403B613B6847
:100C84005B681B0903F001027B6902FA03F33A690A
:100C940013433B617B683A695A603B685B6803F0C5
:100CA4000303032B17D07B68DB683B617B695B0024
:100CB400032202FA03F3DB433A6913403B613B68C6
:100CC4009A687B695B0002FA03F33A6913433B6158
:100CD4007B683A69DA603B685B6803F00303022BC4
:100CE40023D17B69DA087B68083253F822303B61F0
:100CF4007B6903F007039B000F2202FA03F3DB4333
:100D04003A6913403B613B681A697B6903F0070346
:100D14009B0002FA03F33A6913433B617B69DA08E7
:100D24007B680832396943F822107B681B683B6191
:100D34007B695B00032202FA03F3DB433A69134045
:100D44003B613B685B6803F003027B695B0002FA6A
:100D540003F33A6913433B617B683A691A603B6861
:100D64005B6803F44033002B00F0BB800023BB60BE
:100D7400644B5B6C634A43F480435364614B5B6C28
:100D840003F48043BB60BB685F4A7B699B08023302
:100D940052F823303B617B6903F003039B000F226D
:100DA40002FA03F3DB433A6913403B617B68574A19
:100DB400934231D07B68564A93422BD07B68554A84
:100DC400934225D07B68544A93421FD07B68534A90
:100DD400934219D07B68524A934213D07B68514A9C
:100DE40093420DD07B68504A934207D07B684F4AA8
:100DF400934201D1082310E009230EE007230CE0FD
:100E040006230AE0052308E0042306E0032304E0A4
:100E1400022302E0012300E000237A6902F00302C6
:100E2400920093401A463B6913433B6136497B6900
:100E34009B0802333A6941F823203D4B9B683B6190
:100E4400FB68DB433A6913403B613B685B6803F42E
:100E54008013002B03D03A69FB6813433B61344A87
:100E64003B699360324BDB683B61FB68DB433A6967
:100E740013403B613B685B6803F40013002B03D011
:100E84003A69FB6813433B61294A3B69D360284BA9
:100E94005B683B61FB68DB433A6913403B613B6839
:100EA4005B6803F40033002B03D03A69FB681343F7
:100EB4003B611F4A3B6953601D4B1B683B61FB68E8
:100EC400DB433A6913403B613B685B6803F480335E
:100ED400002B03D03A69FB6813433B61144A3B6916
:100EE40013607B6901337B613B681A687B6922FA72
:100EF40003F3002B7FF488AE00BF00BF1C37BD4650
:100F040080BC7047003802400038014000000240B5
:100F14000004024000080240000C0240001002409D
:100F24000014024000180240001C0240002002404D
:100F3400003C014080B58AB000AF78607B68002B2C
:100F440001D101233BE27B681B6803F00103002B02
:100F540050D09E4B9B6803F00C03042B0CD09B4B8E
:100F64009B6803F00C03082B12D1984B5B6803F4C5
:100F74008003B3F5800F0BD1944B1B6803F400334B
:100F8400002B36D07B685B68002B32D1012316E23C
:100F94007B685A688E4BD2B21A707B685B68002BF0
:100FA40013D0FFF717FD386208E0FFF713FD024680
:100FB4003B6AD31A642B01D9032300E2834B1B68D9
:100FC40003F40033002BF0D014E0FFF703FD386284
:100FD40008E0FFF7FFFC02463B6AD31A642B01D9F1
:100FE4000323ECE1794B1B6803F40033002BF0D1AD
:100FF40000E000BF7B681B6803F00203002B77D07E
:10100400724B9B6803F00C03002B0BD06F4B9B6857
:1010140003F00C03082B26D16C4B5B6803F48003AC
:10102400002B20D1694B1B6803F00203002B05D071
:101034007B68DB68012B01D00123C0E1634B1B6893
:1010440023F0F8027B681B69F821B961B96991FA48
:10105400A1F179617969B1FA81F1C9B28B405B4937
:1010640013430B6044E07B68DB68002B2AD0594BA8
:1010740001221A60FFF7AEFC386208E0FFF7AAFC11
:1010840002463B6AD31A022B01D9032397E14F4B43
:101094001B6803F00203002BF0D04C4B1B6823F0B9
:1010A400F8027B681B69F8213961396991FAA1F169
:1010B400F960F968B1FA81F1C9B28B40434913432D
:1010C4000B6015E0434B00221A60FFF783FC386283
:1010D40008E0FFF77FFC02463B6AD31A022B01D9D2
:1010E40003236CE1394B1B6803F00203002BF0D19E
:1010F4007B681B6803F00803002B30D07B685B69B6
:10110400002B16D0344B01221A60FFF763FC3862BF
:1011140008E0FFF75FFC02463B6AD31A022B01D9B1
:1011240003234CE1294B5B6F03F00203002BF0D047
:1011340015E0294B00221A60FFF74CFC386208E0E6
:10114400FFF748FC02463B6AD31A022B01D903235A
:1011540035E11E4B5B6F03F00203002BF0D17B687B
:101164001B6803F00403002B00F08780002387F83A
:101174002730164B1B6C03F08053002B10D1002337
:10118400BB60124B1B6C114A43F0805313640F4B2A
:101194001B6C03F08053BB60BB68012387F82730C6
:1011A4000E4B1B680D4A43F4807313600B4B1B6892
:1011B40003F48073002B22D1084B1B68074A43F4C5
:1011C40080731360FFF706FC386212E000380240B7
:1011D4000238024000004742800E4742007000403F
:1011E400FFF7F8FB02463B6AD31A022B01D903230B
:1011F400E5E0754B1B6803F48073002BF0D07B682B
:101204009A68724BD2B21A707B689B68002B15D017
:10121400FFF7E0FB38620AE0FFF7DCFB02463B6ABB
:10122400D31A41F28832934201D90323C7E0684BB1
:101234001B6F03F00203002BEED014E0FFF7CAFB90
:1012440038620AE0FFF7C6FB02463B6AD31A41F252
:101254008832934201D90323B1E05D4B1B6F03F045
:101264000203002BEED197F82730012B05D1584B00
:101274001B6C574A23F0805313647B689B69002BD3
:1012840000F09C80524B9B6803F00C03082B61D048
:101294007B689B69022B46D14E4B00221A60FFF7F4
:1012A40099FB386208E0FFF795FB02463B6AD31AC4
:1012B400642B01D9032382E0454B1B6803F00073C0
:1012C400002BF0D1424B5A68434B13407A68D169E2
:1012D4007A68126A11437A68526A920111437A68F1
:1012E400D26A120611437A68926A5208013A1204C9
:1012F4000A43374913434B60364B01221A60FFF708
:1013040069FB386208E0FFF765FB02463B6AD31AC3
:10131400642B01D9032352E02D4B1B6803F00073A7
:10132400002BF0D04AE02B4B00221A60FFF752FB4F
:10133400386208E0FFF74EFB02463B6AD31A642B7F
:1013440001D903233BE0224B1B6803F00073002BFD
:10135400F0D133E07B689B69012B01D101232EE09E
:101364001B4B5B68FB61FB6903F480027B68DB69F0
:101374009A4221D1FB6903F03F027B681B6A9A42BF
:101384001AD1FA6947F6C07313407A68526A920117
:10139400934211D1FB6903F440327B689B6A5B087A
:1013A400013B1B049A4207D1FB6903F070627B681E
:1013B400DB6A1B069A4201D0012300E00023184691
:1013C4002837BD4680BD00BF007000407038024021
:1013D40000380240600047420080BCF080B586B00F
:1013E40000AF786039607B68002B01D10123D2E023
:1013F4006B4B1B6803F00F033A689A420CD9684B95
:101404003A68D2B21A70664B1B6803F00F033A684D
:101414009A4201D00123BEE07B681B6803F00203FB
:10142400002B20D07B681B6803F00403002B05D03D
:101434005C4B9B685B4A43F4E05393607B681B6896
:1014440003F00803002B05D0564B9B68554A43F420
:1014540060439360534B9B6823F0F0027B689B6866
:10146400504913438B607B681B6803F00103002B16
:1014740040D07B685B68012B07D14A4B1B6803F49F
:101484000033002B15D1012385E07B685B68022BB8
:1014940007D1444B1B6803F00073002B09D10123CF
:1014A40079E0404B1B6803F00203002B01D10123B8
:1014B40071E03C4B9B6823F003027B685B6839490D
:1014C40013438B60FFF786FA78610AE0FFF782FA2C
:1014D40002467B69D31A41F28832934201D903232D
:1014E40059E0304B9B6803F00C027B685B689B00FF
:1014F4009A42EBD12A4B1B6803F00F033A689A42D5
:101504000CD2274B3A68D2B21A70254B1B6803F0F1
:101514000F033A689A4201D001233CE07B681B68C0
:1015240003F00403002B08D01E4B9B6823F4E05205
:101534007B68DB681B4913438B607B681B6803F083
:101544000803002B09D0174B9B6823F460427B6887
:101554001B69DB00134913438B6000F02BF8014631
:10156400104B9B6803F0F003F0223A613A6992FA57
:10157400A2F2FA60FA68B2FA82F2D2B2D3400A4A0C
:10158400D35C21FA03F3094A1360094B1B6818461C
:10159400FFF7DEF9002318461837BD4680BD00BFAB
:1015A400003C0240003802409C2B00080000002050
:1015B400040000202DE9B04F90B000AF00237B63FE
:1015C4000023FB6300233B630023BB63594B9B68ED
:1015D40003F00C03082B0DD0082B00F2A280002B83
:1015E40002D0042B03D09CE0534BBB639CE0534BD1
:1015F400BB6399E04F4B5B6803F03F037B634D4B48
:101604005B6803F48003002B27D04A4B5B689B097B
:1016140000223B627A623B6AC3F308000021474B15
:1016240003FB01F2002300FB03F31344434AA0FB32
:101634000221F962BA62FA6A1344FB627B6B0022EC
:10164400BB61FA61D7E90623D7E90A01FEF7B8FDC1
:1016540002460B461346FB6355E0364B5B689B0919
:1016640000223B617A613B69C3F3080A4FF0000B27
:1016740052465B464FF000004FF00001590141EA29
:10168400D261500102460B46B2EB0A0863EB0B0928
:101694004FF000024FF000034FEA891343EA9863C6
:1016A4004FEA8812B2EB080463EB09054FF000021D
:1016B4004FF00003EB0043EA5473E20014461D4666
:1016C40014EB0A033B6045EB0B037B604FF0000215
:1016D4004FF00003D7E9004529468B0220462946EE
:1016E400044643EA945301468A02104619467B6B2A
:1016F4000022BB60FA60D7E90223FEF761FD0246CF
:101704000B461346FB630B4B5B681B0C03F0030394
:1017140001335B003B63FA6B3B6BB2FBF3F3BB63DC
:1017240002E0054BBB6300BFBB6B18464037BD46A8
:10173400BDE8B08F003802400024F40040787D01F9
:1017440080B400AF024B1B681846BD4680BC70478E
:101754000000002080B582B000AFFFF7F1FF014622
:101764000B4B9B6803F4E0534FF4E0527A607A68C1
:1017740092FAA2F23A603A68B2FA82F2D2B2D34052
:10178400044AD35C21FA03F318460837BD4680BDEA
:1017940000380240AC2B000880B582B000AFFFF7E0
:1017A400CFFF01460B4B9B6803F460434FF4604248
:1017B4007A607A6892FAA2F23A603A68B2FA82F2ED
:1017C400D2B2D340044AD35C21FA03F31846083753
:1017D400BD4680BD00380240AC2B000880B582B005
:1017E40000AF78607B68002B01D1012342E07B6865
:1017F40093F84130DBB2002B06D17B68002283F8DA
:1018040040207868FEF760FF7B68242283F841203B
:101814007B681B68DA687B681B6822F40052DA6014
:10182400786800F01DF97B681B681A697B681B687F
:1018340022F490421A617B681B685A697B681B68B2
:1018440022F02A025A617B681B68DA687B681B688D
:1018540042F40052DA607B6800225A647B682022DA
:1018640083F841207B68202283F842207B68002291
:101874005A63002318460837BD4680BD80B58AB038
:1018840002AFF860B9603B601346FB8000237B61C4
:10189400FB6893F84130DBB2202B6DD1BB68002B81
:1018A40002D0FB88002B01D1012366E0FB680022F3
:1018B4005A64FB68212283F84120FFF78BF8786192
:1018C400FB68FA889A84FB68FA88DA84FB689B6868
:1018D400B3F5805F08D1FB681B69002B04D100239A
:1018E400FB61BB68BB6103E0BB68FB610023BB61B8
:1018F4002AE03B6800937B6900228021F86800F0AD
:1019040040F80346002B01D0032336E0FB69002B8B
:101914000BD1BB691B881A46FB681B68C2F308021B
:101924005A60BB690233BB6107E0FB691A78FB6844
:101934001B685A60FB690133FB61FB68DB8C9BB25B
:10194400013B9AB2FB68DA84FB68DB8C9BB2002B08
:10195400CFD13B6800937B6900224021F86800F0F6
:1019640010F80346002B01D0032306E0FB68202275
:1019740083F84120002300E0022318462037BD46A7
:1019840080BD80B590B000AFF860B9603B6013468D
:10199400FB7150E0BB6CB3F1FF3F4CD0BB6C002B30
:1019A40007D0FFF717F802463B68D31ABA6C9A427D
:1019B40041D2FB681B680C33BB62BB6A53E8003F2F
:1019C4007B627B6A23F4D073FB63FB681B680C3374
:1019D400FA6B7A633B63396B7A6B41E80023FB62F1
:1019E400FB6A002BE5D1FB681B6814337B617B69C0
:1019F40053E8003F3B613B6923F00103BB63FB6891
:101A04001B681433BA6B3A62FB61F9693A6A41E8BC
:101A14000023BB61BB69002BE5D1FB68202283F85E
:101A24004120FB68202283F84220FB68002283F8CF
:101A3400402003230FE0FB681B681A68BB6813404F
:101A4400BA689A420CBF01230023DBB21A46FB7921
:101A54009A429FD0002318464037BD4680BD0000FF
:101A640080B584B000AF78607B681B681B6923F481
:101A740040517B68DA687B681B680A431A617B689B
:101A84009A687B681B691A437B685B691A437B68A5
:101A9400DB691343BB607B681B68DB6823F4164374
:101AA40023F00C037A681268B9680B43D3607B682F
:101AB4001B685B6923F440717B689A697B681B68C7
:101AC4000A435A617B681B68574A934204D07B6877
:101AD4001B68564A934203D1FFF75EFEF86002E0AA
:101AE400FFF738FEF8607B68DB69B3F5004F4CD133
:101AF400FA6813469B0013449A001A447B685B6897
:101B04005B00B2FBF3F34A4AA2FB03235B0919010E
:101B1400FA6813469B0013449A001A447B685B6876
:101B24005B00B2FBF3F2424BA3FB02035B096420AC
:101B340000FB03F3D31ADB0032333D4AA2FB032339
:101B44005B095B0003F4F8731944FA6813469B00BD
:101B540013449A001A447B685B685B00B2FBF3F29F
:101B6400334BA3FB02035B09642000FB03F3D31A8A
:101B7400DB0032332E4AA2FB03235B0903F0070286
:101B84007B681B680A449A604AE0FA6813469B0023
:101B940013449A001A447B685B689B00B2FBF3F31E
:101BA400234AA2FB03235B091901FA6813469B002D
:101BB40013449A001A447B685B689B00B2FBF3F2FF
:101BC4001B4BA3FB02035B09642000FB03F3D31A42
:101BD4001B013233164AA2FB03235B0903F0F00313
:101BE4001944FA6813469B0013449A001A447B680C
:101BF4005B689B00B2FBF3F20D4BA3FB02035B0992
:101C0400642000FB03F3D31A1B013233084AA2FBFE
:101C140003235B0903F00F027B681B680A449A6084
:101C240000BF1037BD4680BD0010014000140140C4
:101C34001F85EB51002310B50446C0E90033C0E909
:101C44000433836081814366C2818361194608221B
:101C54005C3000F0F7F90D4B246263620C4BA36215
:101C64000C4BE3620C4B23630C4B9C4206D003F1F8
:101C74006802944202D0D0339C4205D104F158004A
:101C8400BDE8104000F056BA10BD00BF991E000810
:101C9400BB1E0008F31E0008171F0008D400002014
:101CA400024A0349034800F069B800BF0C00002051
:101CB400D92900081800002041680C4B10B599423E
:101CC400044601D000F086FEA168094B994202D077
:101CD400204600F07FFEE168064B994204D020467E
:101CE400BDE8104000F076BE10BD00BFD400002057
:101CF4003C010020A401002010B50B4B0B4C0C4AF6
:101D040020461A6004210022FFF794FF04F16800C2
:101D140001220921FFF78EFF04F1D0000222BDE861
:101D240010401221FFF786BF0C020020D4000020CF
:101D3400A51C0008014800F0FEB900BF15020020F0
:101D4400014800F0F9B900BF1502002010B504469F
:101D5400FFF7F0FF236A1BB1BDE81040FFF7F0BFA7
:101D6400044B2362044B1B68002BF5D1FFF7C4FF1F
:101D7400F2E700BFBD1C00080C0200202DE9F84367
:101D84000746884614460026D4E90195B9F10109AD
:101D940005D52468002CF7D13046BDE8F883AB891B
:101DA400012B07D9B5F90E30013303D02946384643
:101DB400C04706436835E9E70FB407B5064904ABE5
:101DC400086853F8042B8168019300F0D3FA03B038
:101DD4005DF804EB04B0704764000020036A70B53A
:101DE40005460E4684680BB9FFF7B0FF636EDB0748
:101DF40005D4A389980502D4A06D00F09CF9A389A9
:101E0400190713D523698BB1013EA36816F8011F86
:101E1400013BA360E9B9002B2EDA22460A212846A9
:101E240000F07BF8013007D00A2507E02146284658
:101E340000F0B0F80028E7D04FF0FF35636EDA0702
:101E440005D4A3899B0502D4A06D00F075F928463A
:101E540070BD002B04DAA2699A4206DC0A2904D078
:101E640023685A1C22601970CFE72246284600F0E6
:101E740054F80130C9D1DFE70A2523685A1C2260CF
:101E84001D70DBE7024B01461868FFF7A7BF00BFD0
:101E94006400002010B50C46B1F90E1000F0FCF8F7
:101EA4000028ABBF636DA3891B1823F48053ACBF18
:101EB4006365A38110BD2DE9F0411F468B8905465A
:101EC400DB050C46164605D502230022B1F90E1097
:101ED40000F0D0F8A389324623F48053A381284626
:101EE4003B46B4F90E10BDE8F04100F0E7B810B578
:101EF4000C46B1F90E1000F0BDF8431CA38915BFC0
:101F0400606523F4805343F48053A38118BFA381F5
:101F140010BDB1F90E1000F09DB8F8B50E46144688
:101F2400054618B1036A0BB9FFF710FFA369A36054
:101F3400A3891A0725D523691BB323682269F6B23E
:101F4400981A63693746834204DC2146284600F028
:101F540041FDE0B9A368013BA36023685A1C2260D9
:101F64001E706269431C9A4204D0A389DB0706D51C
:101F74000A2E04D12146284600F02CFD38B93846F3
:101F8400F8BD2146284600F005F80028D5D04FF0CA
:101F9400FF37F4E738B52A4B054618680C4618B1E4
:101FA400036A0BB9FFF7D2FEA389B4F90C20180712
:101FB40022D4D90607D409232B6042F040034FF002
:101FC400FF30A38134E0580712D5616B41B104F1AD
:101FD4004403994202D0284600F0B0F8002363631A
:101FE400A38923F02403A38100236360236923606E
:101FF400A38943F00803A38123694BB9A38903F49C
:102004002073B3F5007F03D02146284600F02FFD4E
:10201400A089B4F90C2010F001030AD00023A360B6
:1020240063695B42A361236943B910F08000C4D1A2
:1020340038BD810758BF6369A360F4E70020F7E760
:102044006400002003460244934200D1704703F821
:10205400011BF9E738B50023054D044608462B60FB
:10206400FEF7BEFB431C02D12B6803B1236038BDCD
:102074001002002038B50446084611460022054DDA
:102084002A601A46FEF7D0FB431C02D12B6803B129
:10209400236038BD1002002038B5044608461146B6
:1020A4000022054D2A601A46FEF77DFB431C02D12F
:1020B4002B6803B1236038BD1002002038B50446F4
:1020C400084611460022054D2A601A46FEF7F8F923
:1020D400431C02D12B6803B1236038BD10020020D9
:1020E400014B1868704700BF6400002070B50026DB
:1020F4000C4D0D4C641BA410A64209D100F034FD14
:1021040000260A4D0A4C641BA410A64205D170BDDA
:1021140055F8043B98470136EEE755F8043B9847D9
:102124000136F2E7F02B0008F02B0008F02B000832
:10213400F42B0008704770477047000038B5054617
:10214400002940D051F8043C0C1F002BB8BFE41800
:1021540000F0DCF81C4A136833B963601460284645
:10216400BDE8384000F0D8B8A34208D92068211847
:102174008B4201BF19685B6809182160EDE71A46B4
:102184005B680BB1A342FAD911685018A0420BD175
:1021940020680144501883421160E0D118685B68DC
:1021A400084410605360DAE702D90C232B60D6E7A9
:1021B400206821188B4201BF19685B6809182160E7
:1021C40063605460CBE738BD1802002070B50E4E32
:1021D4000C463168054611B900F0A8FC3060214670
:1021E400284600F0A3FC431C0AD0C41C24F00304BA
:1021F400A04207D0211A284600F098FC013001D1F2
:102204004FF0FF34204670BD1C0200202DE9F84336
:10221400CD1C25F0030508350C2D38BF0C25002DE9
:10222400074601DBA94205D90C2300263B60304652
:10223400BDE8F883DFF8D08000F068F8D8F8003003
:102244001C465CBB29463846FFF7C0FF431C0446C6
:1022540055D1D8F800402646002E45D1002C48D050
:1022640023683146384604EB030900F05FFC8145DE
:102274003FD1216838466D1A2946FFF7A7FF013080
:1022840037D023682B442360D8F80030002B38D093
:102294005A68A2422BD100225A600FE02268521BD6
:1022A4001FD40B2A17D96119A342256018BF59609E
:1022B400636808BFC8F8001062514B60384604F1E7
:1022C4000B0600F029F826F00706231DF21AAED0FB
:1022D4009B1BA350ABE7A3426268DDD1C8F8002082
:1022E400ECE723466468ACE734467668B4E7134603
:1022F400CCE70C2338463B6000F00EF897E72560E6
:10230400DCE75B60FFDE00BF180200200148FFF736
:1023140012BF00BF140200200148FFF70DBF00BF29
:1023240014020020936810B4013B002B936007DA79
:102334009469A34201DB0A2902D110BCFFF7EDBD69
:102344001368581C10601970084610BC7047F8B523
:1023540006460F461446D518AC4201D1002007E0CA
:102364003A46304614F8011BFFF7DCFF431CF3D157
:10237400F8BD00002DE9F04F0D4614469846064678
:102384009DB018B1036A0BB9FFF7E0FC6B6ED90777
:1023940005D4AB899A0502D4A86DFFF7CCFEAB89AE
:1023A4001B0701D52B699BB929463046FFF7F2FD7F
:1023B40070B16B6EDC0704D54FF0FF301DB0BDE883
:1023C400F08FAB899805F7D4A86DFFF7B5FEF3E756
:1023D4000023099320238DF8293030234FF001097D
:1023E400CDF80C80DFF8AC818DF82A3023469A466C
:1023F40013F8012B0AB1252AF9D1BAEB040B0BD03F
:102404005B46224629463046FFF7A1FF013000F023
:10241400A980099A5A4409929AF80030002B00F0D6
:10242400A18000234FF0FF32CDE905230AF1010A10
:10243400049307938DF853301A935446052214F8E5
:10244400011B544800F082FB049AD8B9D10644BF5A
:1024540020238DF85330130744BF2B238DF85330BA
:102464009AF800302A2B15D0544600204FF00A0C5D
:10247400079A214611F8013B303B092B4DD9B0B1E5
:10248400079214E0A0EB080309FA03F31343A246EE
:102494000493D2E7039B191D1B680391002BBBBF58
:1024A4005B4242F0020207930793B8BF0492237879
:1024B4002E2B0CD163782A2B34D1039B02341A1DA2
:1024C4001B680392002BB8BF4FF0FF330593DFF86E
:1024D400C8A003225046217800F038FB38B14022CE
:1024E400049BA0EB0A00824013430134049314F8C4
:1024F400011B062229488DF8281000F027FB00282C
:102504003FD0274B1BBB039B073323F00703083340
:102514000393099B3B44099368E70C4601200CFB99
:102524000232A6E700234FF00A0C19460134059342
:10253400204610F8012B303A092A03D9002BC6D0C3
:102544000591C4E7044601230CFB0121F0E703AB2A
:1025540000932A463046134B04A9AFF30080074684
:10256400781CD6D16B6ED90705D4AB899A0502D4F1
:10257400A86DFFF7E1FDAB895B063FF51DAF099838
:102584001CE703AB00932A463046064B04A900F02F
:102594007DF8E4E7B42B0008BA2B0008BE2B000832
:1025A40000000000532300082DE9F0471646994621
:1025B4008A680B6907469342B8BF1346336091F8A3
:1025C40043200C46DDF820800AB1013333602368D0
:1025D400990642BF336802333360256815F0060557
:1025E40006D104F1190AE36832689B1AAB422BDC6A
:1025F40094F84320131E226818BF0123920630D496
:102604004946384604F14302C047013023D02368C9
:10261400226903F00603042B14BF002533684FF02E
:10262400000608BFE56804F11A0408BFED1A54F85F
:10263400123C08BF25EAE5759342C4BF9B1AED1806
:10264400B5421AD1002008E00123524649463846D3
:10265400C047013003D14FF0FF30BDE8F0870135AA
:10266400C1E73020E11881F843005A1C94F8451062
:102674002244023382F84310C2E70123224649462A
:102684003846C0470130E6D00136D9E72DE9FF4787
:102694000F7E9146782F80460C469A460C9D01F198
:1026A400430207D8622F0AD8002F00F0D580582F94
:1026B40000F0C18004F1420584F842703AE0A7F1C9
:1026C4006303152BF6D801A151F823F0292700083C
:1026D4003D270008B9260008B9260008B9260008D5
:1026E400B92600083D270008B9260008B9260008C5
:1026F400B9260008B92600084328000869270008FD
:10270400FD270008B9260008B92600086528000836
:10271400B926000869270008B9260008B926000868
:10272400052800082B681A1D1B682A6004F142055D
:1027340084F842300123A0E020682B68070603F1E7
:102744000401296001D51E6803E04606FBD5B3F9F0
:102754000060002E03DA2D23764284F843300A23E6
:10276400594812E02B682068191D2960050601D517
:102774001E6802E04106FBD51E886F2F0CBF08239C
:102784000A235148002184F843106568002DA8BF2E
:102794002168A560A4BF21F0040121600EB9002DB9
:1027A4004BD01546B6FBF3F103FB1167C75D05F883
:1027B400017D3746BB420E46F4D9082B0BD1236862
:1027C400DE0708D5236961689942DEBF302305F826
:1027D400013C05F1FF35521B22614B462146404620
:1027E400CDF800A003AAFFF7DFFE01304AD14FF075
:1027F400FF3004B0BDE8F087236843F02003236072
:102804007827324884F84570236829681F0651F8F0
:10281400046B02D45F0648BFB6B2DF0748BF43F07B
:102824002003296048BF23601EB9236823F02003D6
:1028340023601023A6E72448E4E71546BDE72B6888
:102844002668181D6169286035061B6801D5196062
:1028540002E07006FBD51980002315462361BCE70E
:102864002B6800211A1D2A601D686268284600F042
:102874006DF908B1401B606063682361002384F82C
:102884004330AAE72A46494640462369D0470130E7
:10289400ADD023689B0713D4E068039B9842B8BF6C
:1028A4001846A6E70123324649464046D047013040
:1028B4009DD00135E36803995B1AAB42F2DCEBE788
:1028C400002504F11906F5E7C52B0008D62B0008EE
:1028D4008A89F8B5054610070C4657D44B68002B77
:1028E40004DC0B6C002B01DC0020F8BDE66A002E32
:1028F400FAD0002312F480522F68216A2B6032D060
:10290400606DA3895A0705D56368C01A636B0BB160
:10291400236CC01A00230246E66A2846216AB0479F
:10292400431CA38906D129681D292BD8284A0A41AA
:10293400D60727D4002262602269D904226004D514
:10294400421C01D12B6803B96065616B2F600029BB
:10295400CAD004F14403994202D02846FFF7EEFBA3
:1029640000206063C1E701232846B047411CC8D159
:102974002B68002BC5D01D2B01D0162B01D12F6045
:10298400B2E7A38943F04003A381AEE70F69002FA8
:10299400AAD0930718BF00230E6808BF4B69F61B23
:1029A4000F608B60002E9FDD33463A462846216A2D
:1029B400D4F828C0E047002806DCA3894FF0FF3094
:1029C40043F04003A38190E70744361AEAE700BFC7
:1029D400FEFFBFDF38B50B6905460C4613B9002569
:1029E400284638BD18B1036A0BB9FFF7AFF9B4F93B
:1029F4000C30002BF3D0626ED00704D4990502D4B6
:102A0400A06DFFF798FB28462146FFF761FF636E30
:102A14000546DA07E4D4A3899B05E1D4A06DFFF74A
:102A24008BFBDDE770B50C46B1F90E101546002995
:102A34001E4696B00CDAA389002113F0800F0CBF58
:102A44004FF480634023002031602B6016B070BDCA
:102A54006A4600F049F80028EDDB019901F4704161
:102A6400A1F50053594259414FF48063EBE78B8938
:102A740073B59D0706460C4607D504F1470323604A
:102A840023610123636102B070BD6A4601ABFFF7A5
:102A9400C9FF009905463046FFF7B8FB48B9B4F9B9
:102AA4000C309A05EFD423F0030343F00203A3810F
:102AB400E3E7A389206043F08003A381009B2061A6
:102AC4006361019B5BB13046B4F90E1000F01EF84F
:102AD40028B1A38923F0030343F00103A381A3894D
:102AE4001D43A581CFE7000038B50023064D0446F9
:102AF400084611462B60FDF77EFE431C02D12B686D
:102B040003B1236038BD00BF1002002038B5002394
:102B1400054D044608462B60FDF77CFE431C02D19C
:102B24002B6803B1236038BD1002002038B50023A0
:102B3400054D044608462B60FDF782FE431C02D176
:102B44002B6803B1236038BD10020020034610B582
:102B5400C9B202449342184601D1002003E004782C
:102B640001338C42F6D110BDF8B500BFF8BC08BCE7
:102B74009E467047F8B500BFF8BC08BC9E46704737
:102B8400554152543120746573740D00636F756E32
:102B9400743D25640D0A00000000000000000000E0
:102BA40001020304060708090000000001020304EF
:102BB400232D302B2000686C4C0065666745464722
:102BC40000303132333435363738394142434445A5
:102BD4004600303132333435363738396162636414
:042BE4006566000022
:082BE8000CD6FF7F0100000084
:042BF000A90100082F
:042BF400850100084F
:102BF8000024F400100000000100000000000000A4
:102C080003000000D400002000000000D4000020D1
:102C18003C010020A401002000000000000000008A
:102C2800000000000000000000000000000000009C
:102C3800000000000000000000000000000000008C
:102C4800000000000000000000000000000000007C
:082C580000000000180000203C
:04000005080008BD2A
:00000001FF
