:020000040800F2
:1000000000000220DD0A0008390900083F09000845
:10001000450900084B0900085109000800000000CC
:100020000000000000000000000000005709000868
:1000300063090008000000006F0900087B09000840
:100040002D0B00082D0B00082D0B00082D0B0008B0
:100050002D0B00082D0B00082D0B00082D0B0008A0
:100060002D0B00082D0B00082D0B00082D0B000890
:100070002D0B00082D0B00082D0B00082D0B000880
:100080002D0B00082D0B00082D0B00082D0B000870
:100090002D0B00082D0B00082D0B00082D0B000860
:1000A0002D0B00082D0B00082D0B00082D0B000850
:1000B0002D0B00082D0B00082D0B00082D0B000840
:1000C0002D0B00082D0B00082D0B00082D0B000830
:1000D0002D0B00082D0B00082D0B00082D0B000820
:1000E000870900082D0B00082D0B00082D0B0008B8
:1000F0002D0B00082D0B00082D0B00082D0B000800
:100100002D0B00082D0B00082D0B00082D0B0008EF
:100110002D0B00082D0B00082D0B00082D0B0008DF
:100120002D0B00082D0B00082D0B00082D0B0008CF
:100130002D0B00082D0B00082D0B00082D0B0008BF
:100140002D0B00082D0B00082D0B0008A10900083D
:100150002D0B00082D0B00082D0B00082D0B00089F
:100160002D0B00082D0B00082D0B00082D0B00088F
:100170002D0B0008B50900082D0B00080000000039
:040180002D0B00083B
:1001840010B5054C237833B9044B13B10448AFF3CD
:1001940000800123237010BDF8010020000000003E
:1001A400C818010808B5034B1BB103490348AFF352
:1001B400008008BD00000000FC010020C8180108F0
:1001C400034613F8012B002AFBD1181A0138704793
:1001D40053B94AB9002908BF00281CBF4FF0FF31AA
:1001E4004FF0FF3000F072B9ADF1080C6DE904CEA8
:1001F40000F006F8DDF804E0DDE9022304B07047FE
:100204002DE9F047089E0D4604468E46002B4CD13E
:100214008A42944667D9B2FA82F353B102FA03FCD4
:10022400C3F1200201FA03FE20FA02F242EA0E0EA2
:100234009C404FEA1C47BEFBF7F11FFA8CF507FB05
:1002440011EE01FB05F0220C42EA0E4290420AD95B
:100254001CEB020201F1FF3E80F01981904240F252
:10026400168102396244121AB2FBF7F007FB10221E
:1002740000FB05F5A4B244EA0244A5420AD91CEBEA
:10028400040400F1FF3280F00481A54240F20181B0
:100294006444023840EA01400021641B1EB1DC4082
:1002A4000023C6E90043BDE8F0878B4208D9002E3D
:1002B40000F0EA800021C6E900050846BDE8F087A1
:1002C400B3FA83F1002948D1AB4202D3824200F24F
:1002D400F880841A65EB030201209646002EE2D0D2
:1002E400C6E9004EDFE702B9FFDEB2FA82F3002B63
:1002F40040F08E80881A0121170C1FFA82FEB0FB91
:10030400F7F507FB1500220C42EA00420EFB05F04C
:10031400904208D91CEB020205F1FF3802D2904248
:1003240000F2CC804546121AB2FBF7F007FB10220C
:100334000EFB00FEA4B244EA0244A64508D91CEB15
:10034400040400F1FF3202D2A64500F2B480104644
:10035400A4EB0E0440EA0540A0E7C1F120078B405E
:1003640022FA07FC4CEA030C25FA07FA4FEA1C4967
:10037400BAFBF9F88D4020FA07F309FB18AA1FFA13
:100384008CFE2B4300FA01F508FB0EF01C0C44EA2A
:100394000A44A04202FA01F20BD91CEB040408F14E
:1003A400FF3A80F08680A04240F28380A8F10208E0
:1003B4006444241A98B2B4FBF9F309FB134403FB15
:1003C4000EFE40EA0444A64508D91CEB040403F1DC
:1003D400FF306AD2A64568D9023B644443EA084028
:1003E400A0FB0293A4EB0E049C42C8469E4654D341
:1003F40051D0002E67D0B5EB080364EB0E04CB405C
:1004040004FA07F71F43CC40C6E9007400214AE709
:1004140002FA03FCC3F12000C1409D4024FA00F01D
:100424004FEA1C472843B1FBF7F507FB15111FFAE8
:100434008CFE020C42EA014205FB0EF1914204FAE1
:1004440003F408D91CEB020205F1FF382FD29142C4
:100454002DD9023D6244521AB2FBF7F107FB112277
:1004640080B240EA024001FB0EF2824208D91CEB42
:10047400000001F1FF3816D2824214D902396044D7
:10048400801A41EA05413AE7314630460BE77146A6
:10049400E9E61046FEE64D45ABD2B9EB020863EB44
:1004A4000C0E0138A5E74146EAE7034696E74546C0
:1004B400D1E7D0467DE76444023849E7023D62440F
:1004C40031E708460AE73146EDE600BF704700BF52
:1004D40080B586B000AFF860B9607A600023FB8213
:1004E4000BE0B9684B1CBB6064230122084804F08C
:1004F400A1FEFB8A01339BB2FB82B7F916307A68FE
:100504009A42EEDC7B6818461837BD4680BD00BFB2
:100514005C02002080B582B000AF0346FB80FB88FC
:10052400B3F5006F0DD14FF40061104800F03CFEAC
:100534000346002B16D14FF400510C4800F063FE23
:1005440010E0FB88B3F5805F0CD14FF4805107486D
:1005540000F02AFE0346002B04D14FF480410348E7
:1005640000F051FE00BF0837BD4680BD00100240B8
:1005740080B500AF00F0DAFA00F014F800F0ACF83F
:1005840000F056F800F07EF80FF0F6F807F08AFA5B
:100594000FF0F6FD024810F0C1FB0FF017FEFCE768
:1005A400E018010880B592B000AF07F118033022BB
:1005B4000021184610F092FC3B1D00221A605A607C
:1005C4009A60DA601A610123BB610123FB61022393
:1005D4003B634FF480037B631923BB63C023FB633A
:1005E40002233B6404237B6407F11803184604F0D8
:1005F4007DF90346002B01D000F0F2F80F237B6055
:100604000223BB600023FB604FF4A0533B614FF413
:1006140080537B613B1D0321184604F0BBFB03465A
:10062400002B01D000F0DCF800BF4837BD4680BD88
:1006340080B500AF114B124A1A60104B4FF4E132EF
:100644005A600E4B00229A600C4B0022DA600B4B6E
:1006540000221A61094B0C225A61084B00229A614C
:10066400064B0022DA61054804F094FD0346002B92
:1006740001D000F0B5F800BF80BD00BF1402002017
:100684000010014080B500AF114B124A1A60104BA4
:100694004FF4E1325A600E4B00229A600C4B002258
:1006A400DA600B4B00221A61094B0C225A61084B89
:1006B40000229A61064B0022DA61054804F06AFDC3
:1006C4000346002B01D000F08BF800BF80BD00BFB3
:1006D4005C0200200048004080B58AB000AF07F1FA
:1006E400140300221A605A609A60DA601A610023C7
:1006F4003B61394B1B6B384A43F080031363364B21
:100704001B6B03F080033B613B690023FB60324BAE
:100714001B6B314A43F0100313632F4B1B6B03F025
:100724001003FB60FB680023BB602B4B1B6B2A4A46
:1007340043F002031363284B1B6B03F00203BB60FB
:10074400BB6800237B60244B1B6B234A43F00103EB
:100754001363214B1B6B03F001037B607B68002355
:100764003B601D4B1B6B1C4A43F0040313631A4B81
:100774001B6B03F004033B603B6801224FF46041B0
:10078400164800F028FD4FF4C0537B614FF4041366
:10079400BB610023FB6107F1140319460F4800F005
:1007A40065FB4FF460437B610123BB610023FB6164
:1007B40000233B6207F114031946084800F056FB76
:1007C40000220021282000F01AFB282000F033FB2F
:1007D40000BF2837BD4680BD0038024000100240EB
:1007E40080B400AF72B600BFFEE7000080B483B0EF
:1007F40000AF00237B600F4B5B6C0E4A43F48043D5
:1008040053640C4B5B6C03F480437B607B68002374
:100814003B60084B1B6C074A43F080531364054B41
:100824001B6C03F080533B603B6800BF0C37BD4634
:1008340080BC70470038024080B58CB000AF78604F
:1008440007F11C0300221A605A609A60DA601A6188
:100854007B681B68324A93422CD10023BB61314B25
:100864005B6C304A43F0100353642E4B5B6C03F013
:100874001003BB61BB6900237B612A4B1B6B294AB4
:1008840043F002031363274B1B6B03F002037B61EA
:100894007B69C023FB6102233B6200237B62032349
:1008A400BB620723FB6207F11C0319461E4800F0D4
:1008B400DDFA31E07B681B681C4A93422CD100238B
:1008C4003B61184B1B6C174A43F480231364154B8C
:1008D4001B6C03F480233B613B690023FB60114BD9
:1008E4001B6B104A43F0040313630E4B1B6B03F0A2
:1008F4000403FB60FB684FF44063FB6102233B622B
:1009040000237B620323BB620723FB6207F11C0302
:100914001946074800F0AAFA00BF3037BD4680BD2B
:10092400001001400038024000040240004800402A
:100934000008024080B400AFFEE780B400AFFEE7D9
:1009440080B400AFFEE780B400AFFEE780B400AF30
:10095400FEE780B400AF00BFBD4680BC704780B4E2
:1009640000AF00BFBD4680BC704780B400AF00BF7D
:10097400BD4680BC704780B500AF00F029F900BFC8
:1009840080BD80B500AF4FF4006000F055FC4FF41B
:10099400805000F051FC00BF80BD000080B500AF66
:1009A400024802F0B1FE00BF80BD00BFA8190020BC
:1009B40080B500AF024800F033FF00BF80BD00BF28
:1009C4008022002080B586B000AFF860B9607A60FC
:1009D40000237B610AE0AFF300800146BB685A1C28
:1009E400BA60CAB21A707B6901337B617A697B6829
:1009F4009A42F0DB7B6818461837BD4680BD80B448
:100A040083B000AF78604FF0FF3318460C37BD4613
:100A140080BC704780B483B000AF786039603B68B5
:100A24004FF400525A60002318460C37BD4680BC70
:100A3400704780B483B000AF7860012318460C3748
:100A4400BD4680BC704780B485B000AFF860B96023
:100A54007A60002318461437BD4680BC70470000F6
:100A640080B586B000AF7860144A154BD31A7B6109
:100A74007B693B61134B1B68002B02D1114B124A5B
:100A84001A60104B1A687B6813443A699A4207D279
:100A940010F082FA03460C221A604FF0FF3309E08B
:100AA400084B1B68FB60074B1A687B681344054AB4
:100AB4001360FB6818461837BD4680BD000002204D
:100AC40000040000A4020020D027002080B400AF5E
:100AD40000BFBD4680BC7047DFF834D0FFF7F6FF97
:100AE4000C480D490D4A002302E0D458C450043385
:100AF400C4188C42F9D30A4A0A4C002301E013605B
:100B04000432A242FBD310F04DFAFFF731FD7047D7
:100B14000000022000000020F80100203C20010811
:100B2400F8010020D0270020FEE7000080B500AFC8
:100B34000E4B1B680D4A43F4007313600B4B1B6888
:100B44000A4A43F480631360084B1B68074A43F462
:100B540080731360032000F047F90F2000F008F8B9
:100B6400FFF744FE0023184680BD00BF003C02404E
:100B740080B582B000AF7860124B1A68124B1B78B4
:100B840019464FF47A73B3FBF1F3B2FBF3F318464F
:100B940000F05FF90346002B01D001230EE07B68CF
:100BA4000F2B0AD8002279684FF0FF3000F027F9A4
:100BB400064A7B681360002300E0012318460837C7
:100BC400BD4680BD00000020080000200400002075
:100BD40080B400AF054B1B781A46054B1B681344C1
:100BE400034A136000BFBD4680BC70470800002064
:100BF400A802002080B400AF024B1B681846BD4613
:100C040080BC7047A802002080B584B000AF786033
:100C1400FFF7F0FFB8607B68FB60FB68B3F1FF3F50
:100C240005D00A4B1B781A46FB681344FB6000BFCF
:100C3400FFF7E0FF0246BB68D31AFA689A42F7D876
:100C440000BF00BF1037BD4680BD00BF08000020B4
:100C540080B485B000AF78607B6803F00703FB6065
:100C64000C4BDB68BB60BA684FF6FF031340BB60F4
:100C7400FB681A02BB68134343F0BF6343F40033B9
:100C8400BB60044ABB68D36000BF1437BD4680BC58
:100C9400704700BF00ED00E080B400AF044BDB6898
:100CA4001B0A03F007031846BD4680BC704700BF0B
:100CB40000ED00E080B483B000AF0346FB7197F908
:100CC4000730002B0BDBFB7903F01F02064997F971
:100CD40007305B09012000FA02F241F8232000BF2B
:100CE4000C37BD4680BC704700E100E080B483B09F
:100CF40000AF03463960FB7197F90730002B0ADB1C
:100D04003B68DAB20C4997F907301201D2B20B44AE
:100D140083F800230AE03B68DAB20849FB7903F060
:100D24000F03043B1201D2B20B441A7600BF0C37F6
:100D3400BD4680BC704700BF00E100E000ED00E06C
:100D440080B489B000AFF860B9607A60FB6803F0E2
:100D54000703FB61FB69C3F10703042B28BF0423CA
:100D6400BB61FB690433062B02D9FB69033B00E03A
:100D740000237B614FF0FF32BB6902FA03F3DA43CD
:100D8400BB681A407B699A404FF0FF317B6901FAD6
:100D940003F3D9437B680B40134318462437BD46FD
:100DA40080BC704780B582B000AF78607B68013B3F
:100DB400B3F1807F01D301230FE00A4A7B68013B32
:100DC40053600F214FF0FF30FFF790FF054B0022D7
:100DD4009A60044B07221A60002318460837BD4660
:100DE40080BD00BF10E000E080B582B000AF786045
:100DF4007868FFF72DFF00BF0837BD4680BD80B57A
:100E040086B000AF0346B9607A60FB7300237B6150
:100E1400FFF742FF78617A68B9687869FFF790FF55
:100E2400024697F90F3011461846FFF75FFF00BFDF
:100E34001837BD4680BD80B582B000AF0346FB7154
:100E440097F907301846FFF735FF00BF0837BD464E
:100E540080BD80B582B000AF78607868FFF7A2FFEC
:100E6400034618460837BD4680BD000080B487B0ED
:100E740000AF7860396000237B616FE13B681A68DA
:100E840001217B6901FA03F31340FB60FB68002B2B
:100E940000F061813B685B6803F00303012B05D01C
:100EA4003B685B6803F00303022B30D17B689B68CB
:100EB4003B617B695B00032202FA03F3DB433A697B
:100EC40013403B613B68DA687B695B0002FA03F319
:100ED4003A6913433B617B683A699A607B685B6853
:100EE4003B6101227B6902FA03F3DB433A69134055
:100EF4003B613B685B681B0903F001027B6902FAF2
:100F040003F33A6913433B617B683A695A603B686F
:100F14005B6803F00303032B17D07B68DB683B613A
:100F24007B695B00032202FA03F3DB433A69134053
:100F34003B613B689A687B695B0002FA03F33A6998
:100F440013433B617B683A69DA603B685B6803F092
:100F54000303022B23D17B69DA087B68083253F838
:100F640022303B617B6903F007039B000F2202FAE6
:100F740003F3DB433A6913403B613B681A697B69BD
:100F840003F007039B0002FA03F33A6913433B613E
:100F94007B69DA087B680832396943F822107B6878
:100FA4001B683B617B695B00032202FA03F3DB43AA
:100FB4003A6913403B613B685B6803F003027B6959
:100FC4005B0002FA03F33A6913433B617B683A69B5
:100FD4001A603B685B6803F44033002B00F0BB806D
:100FE4000023BB60644B5B6C634A43F480435364EB
:100FF400614B5B6C03F48043BB60BB685F4A7B69F5
:101004009B08023352F823303B617B6903F00303EE
:101014009B000F2202FA03F3DB433A6913403B615E
:101024007B68574A934231D07B68564A93422BD00F
:101034007B68554A934225D07B68544A93421FD01B
:101044007B68534A934219D07B68524A934213D027
:101054007B68514A93420DD07B68504A934207D033
:101064007B684F4A934201D1082310E009230EE024
:1010740007230CE006230AE0052308E0042306E026
:10108400032304E0022302E0012300E000237A6941
:1010940002F00302920093401A463B6913433B61FA
:1010A40036497B699B0802333A6941F823203D4B5A
:1010B4009B683B61FB68DB433A6913403B613B68D7
:1010C4005B6803F48013002B03D03A69FB68134375
:1010D4003B61344A3B699360324BDB683B61FB689C
:1010E400DB433A6913403B613B685B6803F40013DC
:1010F400002B03D03A69FB6813433B61294A3B69DF
:10110400D360284B5B683B61FB68DB433A6913405F
:101114003B613B685B6803F40033002B03D03A69FE
:10112400FB6813433B611F4A3B6953601D4B1B68BB
:101134003B61FB68DB433A6913403B613B685B6896
:1011440003F48033002B03D03A69FB6813433B61FB
:10115400144A3B6913607B6901337B613B681A68FD
:101164007B6922FA03F3002B7FF488AE00BF00BF33
:101174001C37BD4680BC704700380240003801402F
:10118400000002400004024000080240000C02403B
:10119400001002400014024000180240001C0240EB
:1011A40000200240003C014080B485B000AF78606C
:1011B4000B467B807B681A697B881340002B02D026
:1011C4000123FB7301E00023FB73FB7B18461437F8
:1011D400BD4680BC704780B483B000AF78600B46D6
:1011E4007B8013467B707B78002B03D07A887B68E6
:1011F4009A6103E07B881A047B689A6100BF0C370C
:10120400BD4680BC704780B485B000AF78600B46A3
:101214007B807B685B69FB607A88FB6813401A04F7
:10122400FB68D9437B880B401A437B689A6100BFF3
:101234001437BD4680BC704780B582B000AF03460A
:10124400FB80084B5A69FB881340002B06D0054AE3
:10125400FB885361FB881846FFF75CF900BF083729
:10126400BD4680BD003C0140F0B58FB00AAF786048
:101274007B68002B01D1012354E07B681B68FB6071
:101284007B6893F8F933DBB2002B06D17B6800222C
:1012940083F8F82378680FF0ADF87B68032283F8AD
:1012A400F923FB68DB6B03F48073002B02D17B68AA
:1012B4000022DA607B681B68184604F0A1FA7B6898
:1012C4001B683B607E686D4606F110040FCC0FC5A9
:1012D4000FCC0FC594E8030085E80300331D0ECB43
:1012E400386804F083F97B681B680121184604F010
:1012F40097FA7B681B683B607E686D4606F11004B4
:101304000FCC0FC50FCC0FC594E8030085E803008C
:10131400331D0ECB386805F0A3FC7B68012283F8EB
:10132400F923002318461437BD46F0BD90B58BB0A1
:1013340004AF7860084611461A460346FB700B4614
:10134400BB7013467B703B8E7B617B6893F8F833EC
:10135400012B01D102239DE07B68012283F8F8234D
:10136400FA78796813461B019B1A9B000B443D33A2
:1013740000221A70FA78796813461B019B1A9B00A5
:101384000B4438337A781A70FA78796813461B015B
:101394009B1A9B000B443933FA781A70FA787968EF
:1013A40013461B019B1A9B000B444A3397F82C20CD
:1013B4001A70FA78BB7803F07F03D8B279681346C1
:1013C4001B019B1A9B000B443A3302461A70FB78AC
:1013D4001946786800F0C5FB97F90230002B0ADA49
:1013E400FA78796813461B019B1A9B000B443B3324
:1013F40001221A7009E0FA78796813461B019B1AD6
:101404009B000B443B3300221A707B681B68184610
:1014140005F084FD386197F82C30012B0BD197F837
:101424002830012B07D13B69002B04D17B69BC2BED
:1014340001D9BC237B61FA78796813461B019B1A96
:101444009B000B443C3397F828201A70FA787B6988
:1014540098B2796813461B019B1A9B000B444C33CA
:1014640002461A807B6818687B699BB27C78BA78DC
:10147400F978029397F82C30019397F82830009369
:10148400234605F071FD0346FB737B68002283F855
:10149400F823FB7B18461C37BD4690BD80B584B04D
:1014A40000AF78600B46FB700023FB737B6893F8F6
:1014B400F833012B01D102230FE07B68012283F86A
:1014C400F8237B681B68FA781146184606F0FEF884
:1014D4007B68002283F8F823FB7B18461037BD464F
:1014E40080BD000080B582B000AF78600846114628
:1014F4001A460346FB700B46BB7013467B70FA78A2
:10150400796813461B019B1A9B000B443B33BA7842
:101514001A70FA78796813461B019B1A9B000B44D6
:101524004A337A781A703B7C002B14D1FA787968A4
:1015340013461B019B1A9B000B444E3303221A7063
:10154400FA78796813461B019B1A9B000B443D33C0
:101554003A7F1A7009E0FA78796813461B019B1ADE
:101564009B000B444E3302221A707B78032B00F24B
:10157400028101A252F823F08D15000865170008B6
:1015840051160008DB1600083B7C012B40F0F58067
:10159400BB78002B2DD13B8B002B09D1FA787968CD
:1015A40013461B019B1A9B000B44613301221A70E2
:1015B400FA78796813461B019B1A9B000B4461332C
:1015C4001B78002B0AD1FA78796813461B019B1A01
:1015D4009B000B444E3300221A70CEE0FA787968EF
:1015E40013461B019B1A9B000B444E3302221A70B4
:1015F400C3E0FA78796813461B019B1A9B000B44DD
:101604003E331B78012B40F0B880FA787968134692
:101614001B019B1A9B000B4460331B78002B0AD1DF
:10162400FA78796813461B019B1A9B000B444E33CE
:1016340000221A70A1E0FA78796813461B019B1AFC
:101644009B000B444E3302221A7096E0BB78002BA9
:1016540020D1FA78796813461B019B1A9B000B442E
:1016640061331B78002B0AD1FA78796813461B0181
:101674009B1A9B000B444E3300221A707EE0FA78CA
:10168400796813461B019B1A9B000B444E330222BC
:101694001A7073E0FA78796813461B019B1A9B0051
:1016A4000B4460331B78002B0AD1FA78796813460F
:1016B4001B019B1A9B000B444E3300221A705DE001
:1016C400FA78796813461B019B1A9B000B444E332E
:1016D40002221A7052E0BB78002B20D1FA78796884
:1016E40013461B019B1A9B000B4461331B78002B90
:1016F4000AD1FA78796813461B019B1A9B000B44A4
:101704004E3300221A7039E0FA78796813461B01C7
:101714009B1A9B000B444E3302221A702EE0FA7877
:10172400796813461B019B1A9B000B4460331B789A
:10173400002B0AD1FA78796813461B019B1A9B0087
:101744000B444E3300221A7018E0FA787968134675
:101754001B019B1A9B000B444E3302221A700DE0AE
:10176400FA78796813461B019B1A9B000B444E338D
:1017740000221A7002E000BF00E000BFFA78796826
:1017840013461B019B1A9B000B4450337A691A6061
:10179400FA78398B786813461B019B1A9B00034423
:1017A40058331960FA78796813461B019B1A9B0019
:1017B4000B44703300221A70FA78796813461B01BF
:1017C4009B1A9B000B445C3300221A60FA787968F8
:1017D40013461B019B1A9B000B443933FA781A7089
:1017E400FA78796813461B019B1A9B000B447133EA
:1017F40000221A707B681868FA7813461B019B1A3A
:101804009B0038337A68D1187B68DB68DBB21A46F0
:1018140005F0D6FC034618460837BD4680BD00BF18
:1018240080B586B000AF78607B681B683B613B691C
:10183400FB607B681B68184605F054F90346012BCE
:1018440040F0FA807B681B68184605F09DF8034653
:10185400002B00F0F0807B681B68184605F094F8B4
:10186400034603F40013B3F5001F04D17B681B681F
:101874004FF400125A617B681B68184605F084F81F
:10188400034603F48013B3F5801F04D17B681B68FF
:101894004FF480125A617B681B68184605F074F88F
:1018A400034603F08063B3F1806F04D17B681B6847
:1018B4004FF080625A617B681B68184605F064F833
:1018C400034603F00203022B03D17B681B68022248
:1018D4005A617B681B68184605F056F8034603F006
:1018E4000053B3F1005F20D17B681B684FF00052B6
:1018F4005A61FB6803F588631B6803F00103002B3E
:1019040013D11021386904F031F9386904F062F90F
:101914007B689B69022B05D17B681B6801211846F3
:1019240005F05EFA78680EF0D1FD7B681B681846F6
:1019340005F02AF8034603F08073B3F1807F02D1E7
:10194400786801F02FFD7B681B68184605F01CF8C9
:10195400034603F00803082B06D178680EF09AFDBD
:101964007B681B6808225A617B681B68184605F06F
:101974000BF8034603F00073B3F1007F38D17B68A2
:101984001B68184605F092FEB86000237B6125E0D1
:101994007B6903F00F03BA6822FA03F303F001032F
:1019A400002B18D07B695A01FB68134403F5A0632C
:1019B4001B6803F40043B3F5004F06D17B69DBB227
:1019C4001946786800F001F905E07B69DBB2194635
:1019D400786800F063FF7B6901337B617B689B68F7
:1019E4007A699A42D4D37B681B684FF000725A61BB
:1019F4007B681B68184604F0C7FF034603F0100316
:101A0400102B01D1012300E00023002B14D07B68AC
:101A14001B689A697B681B6822F010029A617868D7
:101A240001F0E1FB7B681B689A697B681B6842F0E4
:101A340010029A6100E000BF1837BD4680BD80B532
:101A440082B000AF78607B6893F8F833012B01D142
:101A5400022313E07B68012283F8F8237B681B6868
:101A64000121184605F022FA7B681B68184603F02A
:101A7400B7FE7B68002283F8F82300231846083752
:101A8400BD4680BD80B582B000AF78607B6893F8B6
:101A9400F833012B01D102230DE07B68012283F886
:101AA400F8237B681B68184605F06AFF7B680022F0
:101AB40083F8F823002318460837BD4680BD80B557
:101AC40082B000AF78607B681B68184605F0C4F9E3
:101AD400034618460837BD4680BD80B483B000AFC6
:101AE40078600B46FB70FA78796813461B019B1AE1
:101AF4009B000B4470331B7818460C37BD4680BCE2
:101B0400704780B483B000AF78600B46FB70FA78FE
:101B1400796813461B019B1A9B000B445C331B68BA
:101B240018460C37BD4680BC704780B582B000AF04
:101B340078607B681B68184605F006FA0346184669
:101B44000837BD4680BD80B582B000AF78607B6841
:101B54001B68184605F0E2F9034618460837BD46E7
:101B640080BD80B483B000AF78600B46FB70FA7818
:101B7400796813461B019B1A9B000B443E330022D9
:101B84001A70FA78796813461B019B1A9B000B4460
:101B94003F3300221A70FA78796813461B019B1AA6
:101BA4009B000B44493300221A70FA787968134673
:101BB4001B019B1A9B000B44483300221A7000231C
:101BC40018460C37BD4680BC704780B586B000AF60
:101BD40078600B46FB707B681B687B617B693B61AB
:101BE4007B681B68FA781146184604F0DFFE03464A
:101BF40003F00403042B1AD1FB785A013B69134404
:101C040003F5A0631A4604239360FA7879681346AF
:101C14001B019B1A9B000B44713307221A707B68CB
:101C24001B68FA781146184605F050FD9EE07B6863
:101C34001B68FA781146184604F0B8FE034603F40C
:101C44008073B3F5807F1BD1FB785A013B69134441
:101C540003F5A0631A464FF480739360FA787968A9
:101C640013461B019B1A9B000B44713308221A7004
:101C74007B681B68FA781146184605F027FD75E065
:101C84007B681B68FA781146184604F08FFE0346F9
:101C940003F00803082B1AD1FB785A013B6913445B
:101CA40003F5A0631A4608239360FA78796813460B
:101CB4001B019B1A9B000B44713306221A707B682C
:101CC4001B68FA781146184605F000FD4EE07B6863
:101CD4001B68FA781146184604F068FE034603F4BC
:101CE4008063B3F5806F1BD1FB785A013B691344C1
:101CF40003F5A0631A464FF480639360FA78796819
:101D040013461B019B1A9B000B44713309221A7062
:101D14007B681B68FA781146184605F0D7FC25E065
:101D24007B681B68FA781146184604F03FFE0346A8
:101D340003F08003802B19D1FB785A013B691344CB
:101D440003F5A0631A4680239360FA7879681346F2
:101D54001B019B1A9B000B44713307221A707B688A
:101D64001B68FA781146184605F0B0FC7B681B68BE
:101D7400FA781146184604F019FE034603F400737A
:101D8400B3F5007F12D17B681B68FA7811461846B8
:101D940005F09CFCFB785A013B69134403F5A063EE
:101DA4001A464FF40073936000F075BD7B681B689E
:101DB400FA781146184604F0F9FD034603F00103CE
:101DC400012B40F02881FB785A013B69134403F549
:101DD400A0631A4620239360FA78796813461B019E
:101DE4009B1A9B000B443F331B78012B19D1FA78C3
:101DF400796813461B019B1A9B000B443F33002256
:101E04001A70FB785A013B69134403F5A0635B68BD
:101E1400FA7851013A690A4402F5A06223F4803346
:101E240053607B68DB68002B1BD0FA787968134613
:101E34001B019B1A9B000B4454331968FB785A010D
:101E44003B69134403F5A0631B69C3F31203FA78D7
:101E5400C91A786813461B019B1A9B0003445C3320
:101E64001960FA78796813461B019B1A9B000B448E
:101E7400713301221A70FA78796813461B019B1A90
:101E84009B000B44683300221A60FB785A013B69BB
:101E9400134403F5A0631A4601239360FA78796822
:101EA40013461B019B1A9B000B444A331B78002BDF
:101EB4000AD0FA78796813461B019B1A9B000B44DD
:101EC4004A331B78022B10D17B681B68FA781146C1
:101ED400184605F0FBFBFB785A013B69134403F5F4
:101EE400A0631A46102393603DE0FA78796813469C
:101EF4001B019B1A9B000B444A331B78032B0AD00B
:101F0400FA78796813461B019B1A9B000B444A33E9
:101F14001B78012B27D1FB785A013B69134403F545
:101F2400A0631B68FA7851013A690A4402F5A06279
:101F340043F000531360FA78796813461B019B1A27
:101F44009B000B44703301221A70FA7879681346A7
:101F54001B019B1A9B000B4470331A78FB781946BB
:101F640078680EF0C1FA7B68DB68012B3BD1FA7804
:101F7400796813461B019B1A9B000B445C33196858
:101F8400FA78786813461B019B1A9B0003444C3370
:101F94001B880B44591EFA78786813461B019B1A58
:101FA4009B0003444C331B88B1FBF3F303F00103A0
:101FB400002B00F07084FA78796813461B019B1A91
:101FC4009B000B4460331B78FA7883F00103D8B28A
:101FD400796813461B019B1A9B000B44603302462D
:101FE4001A7000F058BCFA78796813461B019B1AE2
:101FF4009B000B4460331B78FA7883F00103D8B25A
:10200400796813461B019B1A9B000B4460330246FC
:102014001A7000F040BC7B681B68FA7811461846B9
:1020240004F0C4FC034603F02003202B31D1FB78D9
:102034005A013B69134403F5A0631A4620239360B5
:10204400FA78796813461B019B1A9B000B443E33B4
:102054001B78012B40F01F84FA78796813461B0122
:102064009B1A9B000B443F3301221A70FA7879685B
:1020740013461B019B1A9B000B44713303221A70F5
:102084007B681B68FA781146184605F01FFB00F0C0
:1020940002BC7B681B68FA781146184604F086FC7B
:1020A400034603F00203022B40F00583FB785A0138
:1020B4003B69134403F5A0631A4602239360FA783C
:1020C400796813461B019B1A9B000B4471331B78E0
:1020D400012B14D1FA78796813461B019B1A9B00D3
:1020E4000B44713302221A70FA78796813461B0183
:1020F4009B1A9B000B44703301221A70CCE2FA78CD
:10210400796813461B019B1A9B000B4471331B789F
:10211400062B14D1FA78796813461B019B1A9B008D
:102124000B44713302221A70FA78796813461B0142
:102134009B1A9B000B44703305221A70ACE2FA78A8
:10214400796813461B019B1A9B000B4471331B785F
:10215400072B0BD0FA78796813461B019B1A9B0056
:102164000B4471331B78092B40F0A680FA78796808
:1021740013461B019B1A9B000B44713302221A70F5
:10218400FA78796813461B019B1A9B000B44683349
:102194001B68591C786813461B019B1A9B00034457
:1021A40068331960FA78796813461B019B1A9B00FF
:1021B4000B4468331B68022B43D9FA7879681346B9
:1021C4001B019B1A9B000B44683300221A60FA78A7
:1021D400796813461B019B1A9B000B443E331B7802
:1021E400012B23D1FA78796813461B019B1A9B00B3
:1021F4000B443F3300221A70FA78796813461B01A6
:102204009B1A9B000B44403300221A70FB785A013E
:102214003B69134403F5A0635B68FA7851013A699A
:102224000A4402F5A06223F480335360FA78796893
:1022340013461B019B1A9B000B44703304221A7033
:1022440029E2FA78796813461B019B1A9B000B4418
:10225400703302221A70FA78796813461B019B1AAC
:102264009B000B444A331B78002B0BD0FA78796817
:1022740013461B019B1A9B000B444A331B78022B09
:1022840040F00982FB785A013B69134403F5A063CB
:102294001B68FB60FB6823F08043FB60FB6843F032
:1022A4000043FB60FB785A013B69134403F5A063C8
:1022B4001A46FB681360EEE1FA78796813461B014D
:1022C4009B1A9B000B4471331B78052B40F0C8808C
:1022D400FA78796813461B019B1A9B000B447133EF
:1022E40002221A70FA78796813461B019B1A9B0024
:1022F4000B443F331B78012B40F0CE81FA78796888
:1023040013461B019B1A9B000B444A331B78032B77
:102314006BD1FA78796813461B019B1A9B000B4416
:102324006C331B68591C786813461B019B1A9B006D
:1023340003446C331960FA78796813461B019B1ABD
:102344009B000B446C331B68022B43D9FA787968E1
:1023540013461B019B1A9B000B446C3300221A602A
:10236400FA78796813461B019B1A9B000B443F3390
:1023740000221A70FA78796813461B019B1A9B0095
:102384000B4468331B68022B09D8FA787968134622
:102394001B019B1A9B000B44403301221A70FB78EB
:1023A4005A013B69134403F5A0635B68FA78510151
:1023B4003A690A4402F5A06223F480335360FA7840
:1023C400796813461B019B1A9B000B44703304224B
:1023D4001A7014E0FA78796813461B019B1A9B0063
:1023E4000B44703302221A7009E0FA7879681346B4
:1023F4001B019B1A9B000B44703302221A70FA785B
:10240400796813461B019B1A9B000B444A331B78C3
:10241400002B0BD0FA78796813461B019B1A9B009A
:102424000B444A331B78022B40F03681FB785A0167
:102434003B69134403F5A0631B68FB60FB6823F04E
:102444008043FB60FB6843F00043FB60FB785A0168
:102454003B69134403F5A0631A46FB6813601BE150
:10246400FA78796813461B019B1A9B000B4471335D
:102474001B78032B40F08180FA78796813461B019E
:102484009B1A9B000B44713302221A70FA78796804
:1024940013461B019B1A9B000B443F331B78012BF3
:1024A40040F0FA80FA78796813461B019B1A9B0066
:1024B4000B44703302221A70FB785A013B691344AF
:1024C40003F5A0635B68FA7851013A690A4402F59E
:1024D400A06243F480335360FB785A013B69134490
:1024E40003F5A063DB68FA7851013A690A4402F5FE
:1024F400A06243F04003D360FB785A013B69134464
:1025040003F5A063DB68FA7851013A690A4402F5DD
:10251400A06223F02003D360FA78796813461B0184
:102524009B1A9B000B444A331B78002B0BD0FA7880
:10253400796813461B019B1A9B000B444A331B7892
:10254400022B40F0A980FB785A013B69134403F540
:10255400A0631B68FB60FB6823F08043FB60FB689F
:1025640043F00043FB60FB785A013B69134403F5D5
:10257400A0631A46FB6813608EE0FA787968134604
:102584001B019B1A9B000B4471331B78042B43D112
:10259400FA78796813461B019B1A9B000B4471332C
:1025A40002221A70FA78796813461B019B1A9B0061
:1025B4000B44703302221A70FA78796813461B01AF
:1025C4009B1A9B000B444A331B78002B0AD0FA78E1
:1025D400796813461B019B1A9B000B444A331B78F2
:1025E400022B59D1FB785A013B69134403F5A063CC
:1025F4001B68FB60FB6823F08043FB60FB6843F0CF
:102604000043FB60FB785A013B69134403F5A06364
:102614001A46FB6813603FE0FA78796813461B0199
:102624009B1A9B000B4471331B78082B26D1FA7834
:10263400796813461B019B1A9B000B4471330222D9
:102644001A70FA78796813461B019B1A9B000B4495
:1026540068331B68591C786813461B019B1A9B003E
:10266400034468331960FA78796813461B019B1A8E
:102674009B000B44703304221A700DE0FA787968D9
:1026840013461B019B1A9B000B4471331B78022BCE
:1026940000F0008100E000BFFA78796813461B015E
:1026A4009B1A9B000B4470331A78FB7819467868A0
:1026B4000DF01AFFEFE07B681B68FA7811461846A4
:1026C40004F074F9034603F04003402B2FD1FB7848
:1026D4005A013B69134403F5A0631A4640239360EF
:1026E400FA78796813461B019B1A9B000B447133DB
:1026F40005221A70FA78796813461B019B1A9B000D
:102704000B443E331B78002B09D1FA7879681346C1
:102714001B019B1A9B000B44683300221A607B68E0
:102724001B68FA781146184604F0D0FFB3E07B68C2
:102734001B68FA781146184604F038F9034603F08A
:102744001003102B40F0A780FA78796813461B0118
:102754009B1A9B000B444A331B78032B1BD1FA783A
:10276400796813461B019B1A9B000B4468330022B3
:102774001A60FA78796813461B019B1A9B000B4474
:10278400713304221A707B681B68FA781146184664
:1027940004F09CFF3FE0FA78796813461B019B1A0A
:1027A4009B000B444A331B78002B0AD0FA787968D3
:1027B40013461B019B1A9B000B444A331B78022BC4
:1027C40029D1FA78796813461B019B1A9B000B44A4
:1027D400683300221A607B68DB68002B0AD0FA7821
:1027E400796813461B019B1A9B000B443F331B78EB
:1027F400012B10D1FA78796813461B019B1A9B00B0
:102804000B44713304221A707B681B68FA781146F2
:10281400184604F05BFFFA78796813461B019B1A8B
:102824009B000B443F331B78012B29D1FA7879683C
:1028340013461B019B1A9B000B443F3300221A7062
:10284400FB785A013B69134403F5A0635B68FA788B
:1028540051013A690A4402F5A06223F480335360BB
:10286400FB785A013B69134403F5A063DB68FA78EB
:1028740051013A690A4402F5A06243F02003D3608F
:10288400FB785A013B69134403F5A0631A461023ED
:10289400936000E000BF1837BD4680BD80B586B0A8
:1028A40000AF78600B46FB707B681B687B617B69BB
:1028B4003B617B681B68FA781146184604F076F889
:1028C400034603F00403042B1BD1FB785A013B6934
:1028D400134403F5A0631A4604239360FA787968D5
:1028E40013461B019B1A9B000B44713307221A7079
:1028F4007B681B68FA781146184604F0E7FE00F07E
:102904006FBC7B681B68FA781146184604F04EF8D1
:10291400034603F02003202B40F08280FB785A0109
:102924003B69134403F5A0631A4620239360FA78A5
:10293400796813461B019B1A9B000B443D331B789B
:10294400012B24D1FA78796813461B019B1A9B004A
:102954000B443D3300221A70FA78796813461B0140
:102964009B1A9B000B44703302221A70FA78796820
:1029740013461B019B1A9B000B44713303221A70EC
:102984007B681B68FA781146184604F09FFEFA78B3
:10299400796813461B019B1A9B000B443E331B783A
:1029A400012B40F01D84FA78796813461B019B1AA9
:1029B4009B000B443F331B78002B40F01184FA78C2
:1029C400796813461B019B1A9B000B444A331B78FE
:1029D400012B09D0FA78796813461B019B1A9B00D6
:1029E4000B443F3301221A70FA78796813461B01AD
:1029F4009B1A9B000B44713303221A707B681B687B
:102A0400FA781146184604F061FEFA78796813469C
:102A14001B019B1A9B000B44683300221A60DFE3FE
:102A24007B681B68FA781146184603F0BFFF03461B
:102A340003F40073B3F5007F11D1FB785A013B69AD
:102A4400134403F5A0631A464FF4007393607B6844
:102A54001B68FA781146184604F038FEC0E37B6818
:102A64001B68FA781146184603F0A0FF034603F0EA
:102A74000103012B68D1FA78796813461B019B1A6C
:102A84009B000B44683300221A607B681B68FA7849
:102A94001146184603F08AFF034603F04003402B17
:102AA40012D1FA78796813461B019B1A9B000B44D8
:102AB4003D3301221A70FB785A013B69134403F534
:102AC400A0631A4640239360FA78796813461B0181
:102AD4009B1A9B000B443F331B78002B19D0FA78C8
:102AE400796813461B019B1A9B000B443F33002259
:102AF4001A70FB785A013B69134403F5A0635B68C1
:102B0400FA7851013A690A4402F5A06223F4803349
:102B14005360FB785A013B69134403F5A0631A46DA
:102B240001239360FA78796813461B019B1A9B0072
:102B34000B44713301221A707B681B68FA781146C2
:102B4400184604F0C3FD4BE37B681B68FA78114612
:102B5400184603F02BFF034603F04003402B39D102
:102B6400FA78796813461B019B1A9B000B44713356
:102B740005221A70FA78796813461B019B1A9B0088
:102B84000B443E331B78002B09D1FA78796813463D
:102B94001B019B1A9B000B443D3301221A70FA78E7
:102BA400796813461B019B1A9B000B44683300226F
:102BB4001A607B681B68FA781146184604F086FD93
:102BC400FB785A013B69134403F5A0631A4640237A
:102BD400936005E37B681B68FA781146184603F096
:102BE400E5FE034603F00803082B1AD1FB785A01CB
:102BF4003B69134403F5A0631A4608239360FA78EB
:102C0400796813461B019B1A9B000B4471330622FF
:102C14001A707B681B68FA781146184604F056FD52
:102C2400DEE27B681B68FA781146184603F0BEFEA4
:102C3400034603F01003102B44D1FA787968134645
:102C44001B019B1A9B000B44683300221A60FA781C
:102C5400796813461B019B1A9B000B4471330422B1
:102C64001A70FA78796813461B019B1A9B000B446F
:102C74003D331B78002B14D1FA78796813461B0175
:102C84009B1A9B000B443C331B78002B09D1FA7828
:102C9400796813461B019B1A9B000B443D330122A8
:102CA4001A707B681B68FA781146184604F00EFD0A
:102CB400FB785A013B69134403F5A0631A461023B9
:102CC40093608DE27B681B68FA781146184603F01E
:102CD4006DFE034603F08003802B69D17B68DB68BB
:102CE400002B11D1FA78796813461B019B1A9B00BB
:102CF4000B44713307221A707B681B68FA781146FB
:102D0400184604F0E3FC49E0FA78796813461B019D
:102D14009B1A9B000B4468331B68591C7868134644
:102D24001B019B1A9B00034468331960FA78796885
:102D340013461B019B1A9B000B4468331B68022B30
:102D440022D9FA78796813461B019B1A9B000B441D
:102D5400683300221A60FA78796813461B019B1ABB
:102D64009B000B44703304221A70FA787968134676
:102D74001B019B1A9B000B4470331A78FB7819468D
:102D840078680DF0B1FB09E0FA78796813461B0105
:102D94009B1A9B000B44703302221A70FB785A0171
:102DA4003B69134403F5A0631A468023936017E23A
:102DB4007B681B68FA781146184603F0F7FD034652
:102DC40003F48063B3F5806F1BD1FA7879681346F6
:102DD4001B019B1A9B000B44713309221A707B68F8
:102DE4001B68FA781146184604F070FCFB785A0107
:102DF4003B69134403F5A0631A464FF48063936060
:102E0400EEE17B681B68FA781146184603F0CEFDA4
:102E1400034603F00203022B40F0DF81FB785A01E2
:102E24003B69134403F5A0631A4602239360FA78BE
:102E3400796813461B019B1A9B000B4471331B7862
:102E4400012B40F09380FA78796813461B019B1A92
:102E54009B000B44713302221A70FA787968134686
:102E64001B019B1A9B000B44703301221A70FA78E1
:102E7400796813461B019B1A9B000B444A331B7849
:102E8400022B0BD0FA78796813461B019B1A9B001E
:102E94000B444A331B78032B40F090817B68DB683A
:102EA400002B15D1FA78796813461B019B1A9B00F5
:102EB4000B4461331B78FA7883F00103D8B2796844
:102EC40013461B019B1A9B000B44613302461A7084
:102ED4007B68DB68012B40F07181FA7879681346CE
:102EE4001B019B1A9B000B4458331B68002B00F0FA
:102EF4006581FA78796813461B019B1A9B000B4481
:102F040058331968FA78786813461B019B1A9B009A
:102F140003444C331B880B44591EFA7878681346D3
:102F24001B019B1A9B0003444C331B88B1FBF3F336
:102F3400BB60BB6803F00103002B00F03F81FA780B
:102F4400796813461B019B1A9B000B4461331B7861
:102F5400FA7883F00103D8B2796813461B019B1AEF
:102F64009B000B44613302461A7027E1FA787968B2
:102F740013461B019B1A9B000B4471331B78032BD4
:102F840020D1FA78796813461B019B1A9B000B44E5
:102F9400713302221A70FA78796813461B019B1A5E
:102FA4009B000B443F331B78012B40F00781FA78D8
:102FB400796813461B019B1A9B000B447033022251
:102FC4001A70FBE0FA78796813461B019B1A9B0080
:102FD4000B4471331B78042B3AD1FA787968134681
:102FE4001B019B1A9B000B44713302221A70FA785E
:102FF400796813461B019B1A9B000B447033022211
:103004001A70FA78796813461B019B1A9B000B44CB
:103014003F331B78012B40F0D180FA78796813464E
:103024001B019B1A9B000B443F3300221A70FB7850
:103034005A013B69134403F5A0635B68FA785101B4
:103044003A690A4402F5A06223F480335360B5E080
:10305400FA78796813461B019B1A9B000B44713361
:103064001B78052B14D1FA78796813461B019B1A37
:103074009B000B44713302221A70FA787968134664
:103084001B019B1A9B000B44703302221A7095E0BB
:10309400FA78796813461B019B1A9B000B44713321
:1030A4001B78062B14D1FA78796813461B019B1AF6
:1030B4009B000B44713302221A70FA787968134624
:1030C4001B019B1A9B000B44703305221A7075E098
:1030D400FA78796813461B019B1A9B000B447133E1
:1030E4001B78072B0AD0FA78796813461B019B1AC0
:1030F4009B000B4471331B78092B70D1FA787968E3
:1031040013461B019B1A9B000B44713302221A7055
:10311400FA78796813461B019B1A9B000B446833A9
:103124001B68591C786813461B019B1A9B000344B7
:1031340068331960FA78796813461B019B1A9B005F
:103144000B4468331B68022B14D9FA787968134648
:103154001B019B1A9B000B44683300221A60FA7807
:10316400796813461B019B1A9B000B44703304229D
:103174001A7022E0FA78796813461B019B1A9B00A7
:103184000B44703302221A70FB785A013B691344D2
:1031940003F5A0631B68FB60FB6823F08043FB60BE
:1031A400FB6843F00043FB60FB785A013B6913441E
:1031B40003F5A0631A46FB68136000BFFA787968C8
:1031C40013461B019B1A9B000B4470331A78FB783F
:1031D400194678680DF088F902E000BF00E000BFEE
:1031E4001837BD4680BD80B58AB000AF78607B6873
:1031F4001B687B627B6A3B627B681B681B6AFB61A2
:10320400FB6903F00F03BB61FB695B0C03F00F0365
:103214007B61FB691B09C3F30A033B617B69022BD6
:1032240004D07B69052B00F0B680B7E03B69002B26
:1032340000F0B3807968BA6913461B019B1A9B009E
:103244000B4450331B68002B00F0A7807968BA69DF
:1032540013461B019B1A9B000B445C331A683B69A1
:10326400D1187868BA6913461B019B1A9B00034462
:1032740058331B68994200F283807B681868796828
:10328400BA6913461B019B1A9B000B4450331B68FD
:103294003A6992B2194603F0E9F97968BA691346B2
:1032A4001B019B1A9B000B4450331A683B69D118CD
:1032B4007868BA6913461B019B1A9B000344503378
:1032C40019607968BA6913461B019B1A9B000B4469
:1032D4005C331A683B69D1187868BA6913461B01D4
:1032E4009B1A9B0003445C331960BB695A013B6A17
:1032F400134403F5A0631B69DB0CC3F30903FB60F0
:103304007968BA6913461B019B1A9B000B444C3322
:103314001B881A463B6993423FD1FB68002B3CD083
:10332400BB695A013B6A134403F5A0631B68BB6085
:10333400BB6823F08043BB60BB6843F00043BB60C1
:10334400BB695A013B6A134403F5A0631A46BB6880
:1033540013607968BA6913461B019B1A9B000B44DE
:1033640060331B7883F00103D8B27968BA691346D5
:103374001B019B1A9B000B44603302461A700CE03D
:103384007968BA6913461B019B1A9B000B4470337E
:1033940004221A7001E000BF00E000BF00BF28371C
:1033A400BD4680BD80B586B000AF78607B681B6881
:1033B4007B617B693B613B6903F588631B68FB6048
:1033C4003B6903F588631B68BB60BB6823F02E036D
:1033D400BB60FB6803F00203022B0BD1FB6803F014
:1033E4000103012B02D178680DF062F8BB6843F049
:1033F4000203BB60FB6803F00803082B32D1BB68EF
:1034040043F00803BB60FB6803F00403042B26D1DC
:103414007B689B69022B13D1FB6803F4C023B3F5CB
:10342400802F06D17B681B680221184603F0D8FC64
:1034340011E07B681B680121184603F0D1FC0AE007
:103444007B681B69012B06D13B6903F580631A462F
:103454004EF66023536078680DF053F802E0786804
:103464000DF05DF8FB6803F02003202B03D1BB684B
:1034740043F02003BB603B6903F588631A46BB68CD
:10348400136000BF1837BD4680BDF0B58FB00AAFDA
:1034940078607B68002B01D101230FE17B681B68F6
:1034A400BB607B6893F8BD34DBB2002B06D17B682C
:1034B400002283F8BC2478680CF056FB7B68032256
:1034C40083F8BD24BB68DB6B03F48073002B02D14B
:1034D4007B680022DA607B681B68184602F090F96A
:1034E4007B681B683B607E686D4606F110040FCC58
:1034F4000FC50FCC0FC594E8030085E80300331D06
:103504000ECB386802F072F80346002B05D07B68B6
:10351400022283F8BD240123D0E07B681B680021CC
:10352400184602F07DF90023FB734AE0FA7B7968C0
:103534001346DB0013449B000B443D3301221A70F5
:10354400FA7B79681346DB0013449B000B443C333D
:10355400FA7B1A70FA7BFB7B98B279681346DB001E
:1035640013449B000B44563302461A80FA7B796855
:103574001346DB0013449B000B44403300221A70B3
:10358400FA7B79681346DB0013449B000B444433F5
:1035940000221A60FA7B79681346DB0013449B000F
:1035A4000B44483300221A60FA7B79681346DB0027
:1035B40013449B000B444C3300221A60FB7B013301
:1035C400FB73FA7B7B685B689A42AFD30023FB737F
:1035D40044E0FA7B79681346DB0013449B000B44F8
:1035E40003F27D2300221A70FA7B79681346DB000C
:1035F40013449B000B4403F51F73FA7B1A70FA7B88
:1036040079681346DB0013449B000B4403F52073D5
:1036140000221A70FA7B79681346DB0013449B007E
:103624000B4403F5217300221A60FA7B7968134670
:10363400DB0013449B000B4403F5227300221A6041
:10364400FA7B79681346DB0013449B000B4403F5B3
:10365400237300221A60FB7B0133FB73FA7B7B68C4
:103664005B689A42B5D37B681B683B607E686D4695
:1036740006F110040FCC0FC50FCC0FC594E803005E
:1036840085E80300331D0ECB386802F015F90346B4
:10369400002B05D07B68022283F8BD2401230DE0B2
:1036A4007B68002283F838207B68012283F8BD24DC
:1036B4007B681B68184603F047F900231846143743
:1036C400BD46F0BD80B582B000AF78607B6893F8EA
:1036D400BC34012B01D1022312E07B68012283F860
:1036E400BC247B681B68184602F07AF87B681B6868
:1036F400184603F009F97B68002283F8BC240023F0
:1037040018460837BD4680BD90B58DB000AF7860CF
:103714007B681B683B623B6AFB617B681B681846DD
:1037240003F0E0F90346002B40F07C847B681B68BF
:10373400184603F029F90346002B00F07284FB6954
:1037440003F500639B681B0AC3F30D027B68C3F88F
:10375400FC247B681B68184603F016F9034603F043
:103764000203022B07D17B681B685A697B681B68BC
:1037740002F002025A617B681B68184603F004F9E0
:10378400034603F01003102B61D17B681B689A6910
:103794007B681B6822F010029A613B6A1B6ABB615A
:1037A400BB6903F00F021346DB0013449B0003F5CF
:1037B4001E737A68134404337B61BB695B0C03F0AA
:1037C4000F03022B24D1BA6947F6F0731340002B80
:1037D40035D07B69D968BB691B099BB2C3F30A0363
:1037E4009BB21A46386A02F041FF7B69DA68BB690A
:1037F4001B09C3F30A031A447B69DA607B695A69BB
:10380400BB691B09C3F30A031A447B695A6116E0B6
:10381400BB695B0C03F00F03062B10D17B6803F22A
:10382400C44308221946386A02F020FF7B695A69AA
:10383400BB691B09C3F30A031A447B695A617B6899
:103844001B689A697B681B6842F010029A617B6866
:103854001B68184603F098F8034603F40023B3F5F5
:10386400002F40F0A78000237B627B681B6818460A
:1038740003F0BCF8B86299E0BB6A03F00103002BC3
:1038840000F08E807B681B687A6AD2B211461846B3
:1038940003F0DEF838613B6903F00103002B0CD020
:1038A4007B6A5A01FB69134403F530631A4601230A
:1038B4009360796A786800F095FE3B6903F0080329
:1038C400002B0CD07B6A5A01FB69134403F5306367
:1038D4001A4608239360796A786800F06BFF3B69A5
:1038E40003F01003002B08D07B6A5A01FB691344D0
:1038F40003F530631A46102393603B6903F0020317
:10390400002B30D03B6A5B6903F08003802B09D124
:10391400FB6903F500635B68FA6902F5006243F42E
:10392400806353607A6A1346DB0013449B0003F5FB
:103934001E737A68134404337B617B69DB78012B43
:1039440008D17B690022DA707B6ADBB21946786899
:103954000CF01EFA7B6A5A01FB69134403F53063C9
:103964001A46022393603B6903F02003002B08D01E
:103974007B6A5A01FB69134403F530631A4620231A
:1039840093603B6903F40053002B09D07B6A5A010E
:10399400FB69134403F530631A464FF400539360F4
:1039A4007B6A01337B62BB6A5B08BB62BB6A002B28
:1039B4007FF462AF7B681B68184602F0E5FF03469C
:1039C40003F48023B3F5802F40F0DB807B681B6811
:1039D400184603F024F8B86200237B62CDE0BB6A8A
:1039E40003F00103002B00F0C2807B681B687A6A35
:1039F400D2B21146184603F048F838613B6903F027
:103A04000103002B57D07B6A03F00F03012202FA53
:103A140003F3FB60FB6903F500635A6BFB68DB434C
:103A2400F96901F5006113404B637B6A5A01FB6934
:103A3400134403F510631A46012393607B68DB6823
:103A4400012B32D179687A6A1346DB0013449B0058
:103A54000B444833196878687A6A1346DB001344C8
:103A64009B00034444331B68194478687A6A1346FC
:103A7400DB0013449B000344483319607B6A002B2A
:103A840013D179687A6A1346DB0013449B000B4414
:103A94004C331B68002B08D17B6818687B6803F2E1
:103AA400C4431A46012103F04DF87B6ADBB2194680
:103AB40078680CF0E8F83B6903F00803002B08D0A1
:103AC4007B6A5A01FB69134403F510631A46082301
:103AD40093603B6903F01003002B08D07B6A5A0102
:103AE400FB69134403F510631A46102393603B6982
:103AF40003F04003002B08D07B6A5A01FB6913448E
:103B040003F510631A46402393603B6903F00203F4
:103B1400002B23D0796A386A02F028F87A6A1346AF
:103B2400DB0013449B0038337A68134404337B610D
:103B34007B69DB78012B08D17B690022DA707B6A10
:103B4400DBB2194678680CF035F97B6A5A01FB69D7
:103B5400134403F510631A46022393603B6903F090
:103B64008003002B03D0796A786800F0AEFC7B6A8E
:103B740001337B62BB6A5B08BB62BB6A002B7FF4C8
:103B84002EAF7B681B68184602F0FEFE034603F066
:103B94000043B3F1004F14D1FB6903F500635B6884
:103BA400FA6902F5006223F00103536078680CF0AF
:103BB400E1F87B681B685A697B681B6802F0004265
:103BC4005A617B681B68184602F0DEFE034603F464
:103BD4000063B3F5006F12D1FB6903F500639B68C2
:103BE40003F00103012B02D178680CF09DF87B6887
:103BF4001B685A697B681B6802F400625A617B681F
:103C04001B68184602F0C0FE034603F48053B3F564
:103C1400805F40F0B780FB6903F500635B68FA6975
:103C240002F5006223F0010353607B681B681021D6
:103C3400184601F09BFF0023FB6246E0FB6A5A0131
:103C4400FB69134403F510631A464FF67F33936000
:103C5400FB6A5A01FB69134403F510631B68FA6A93
:103C64005101FA690A4402F5106223F40013136047
:103C7400FB6A5A01FB69134403F530631A464FF695
:103C84007F339360FB6A5A01FB69134403F5306385
:103C94001B68FA6A5101FA690A4402F5306223F496
:103CA40000131360FB6A5A01FB69134403F5306384
:103CB4001B68FA6A5101FA690A4402F5306243F05A
:103CC40000631360FB6A0133FB627B685B68FA6A1A
:103CD4009A42B3D3FB6903F50063DB69FA6902F521
:103CE400006243F00113D3617B681B6B002B16D079
:103CF400FB6903F50063D3F88430FA6902F50062C6
:103D040043F00B03C2F88430FB6903F500635B6C7A
:103D1400FA6902F5006243F00B03536415E0FB6992
:103D240003F500635B69FA6902F5006243F400532A
:103D340043F02B035361FB6903F500631B69FA69C4
:103D440002F5006243F00B031361FB6903F50063A2
:103D54001B68FA6902F5006223F4FE6313607B6852
:103D640018687B68DB68D9B27B6803F2C4431A46DF
:103D740002F0E8FE7B681B685A697B681B6802F4E2
:103D840080525A617B681B68184602F0FDFD0346A9
:103D940003F40053B3F5005F24D17B681B68184615
:103DA40002F0ADFE7B681B68184601F05BFF03461A
:103DB4001A467B681A617B681C6801F09DF901460C
:103DC4007B681B69DBB21A46204601F067FC786801
:103DD4000BF081FF7B681B685A697B681B6802F4DF
:103DE40000525A617B681B68184602F0CDFD0346F9
:103DF40003F00803082B0AD178680BF05EFF7B6898
:103E04001B685A697B681B6802F008025A617B6868
:103E14001B68184602F0B8FD034603F08003802BAC
:103E240022D13B6A9B6923F080023B6A9A61012399
:103E34007B6214E079687A6A1346DB0013449B00C2
:103E44000B4403F27F231B78012B05D17B6ADBB281
:103E54001946786800F008FB7B6A01337B627B6853
:103E64005B687A6A9A42E5D37B681B68184602F05D
:103E74008BFD034603F48013B3F5801F3BD101236C
:103E84007B622BE07B6A5A01FB69134403F51063E0
:103E94001B68BB6179687A6A1346DB0013449B0094
:103EA4000B4440331B78012B15D1BB69002B12DA6C
:103EB40079687A6A1346DB0013449B000B443F3352
:103EC40001221A707B6ADBB263F07F03DBB219460E
:103ED400786800F0C9FA7B6A01337B627B685B68AF
:103EE4007A6A9A42CED37B681B685A697B681B68DE
:103EF40002F480125A617B681B68184602F044FD84
:103F0400034603F40013B3F5001F55D101237B626C
:103F140045E07B6A5A01FB69134403F530631B686F
:103F2400BB6179687A6A1346DB0013449B000B4437
:103F340003F520731B78012B2ED1BB69002B2BDAE0
:103F4400BB6903F480327B68D3F8FC3403F00103CB
:103F54009A4221D179687A6A1346DB0013449B00A4
:103F64000B4403F27F2301221A703B6A9B6943F0DE
:103F740080023B6A9A613B6A5B6903F08003002B11
:103F84000AD1FB6903F500635B68FA6902F5006214
:103F940043F40073536007E07B6A01337B627B6800
:103FA4005B687A6A9A42B4D37B681B685A697B68F7
:103FB4001B6802F400125A617B681B68184602F001
:103FC400E3FC034603F08043B3F1804F0AD17868E1
:103FD4000BF002FF7B681B685A697B681B6802F060
:103FE40080425A617B681B68184602F0CDFC034688
:103FF40003F00403042B15D17B681B685B68BB6169
:10400400BB6903F00403002B02D078680BF0F2FEC6
:104014007B681B6859687B681B68BA690A435A60E5
:1040240000E000BF3437BD4690BD80B582B000AF1C
:1040340078600B46FB707B6893F8BC34012B01D18C
:10404400022313E07B68012283F8BC247B68FA789E
:1040540083F838207B681B68FA781146184602F00A
:104064002EFC7B68002283F8BC2400231846083702
:10407400BD4680BD80B584B000AF78600846114667
:104084001A460346FB700B463B801346BB70002365
:10409400FB7297F90330002B0FDAFB7803F00F0261
:1040A4001346DB0013449B0038337A68134404330B
:1040B400FB60FB6801225A700FE0FB7803F00F02EB
:1040C4001346DB0013449B0003F51E737A68134404
:1040D4000433FB60FB6800225A70FB7803F00F0383
:1040E400DAB2FB681A703A88FB689A60FB68BA789F
:1040F4001A71FB685B78002B04D0FB681B789AB2BA
:10410400FB685A83BB78022B02D1FB6800225A71E8
:104114007B6893F8BC34012B01D102230EE07B6849
:10412400012283F8BC247B681B68F968184601F0F7
:10413400BDFD7B68002283F8BC24FB7A1846103747
:10414400BD4680BD80B584B000AF78600B46FB707F
:1041540097F90330002B0FDAFB7803F00F021346B4
:10416400DB0013449B0038337A6813440433FB6048
:10417400FB6801225A700FE0FB7803F00F0213462C
:10418400DB0013449B0003F51E737A681344043365
:10419400FB60FB6800225A70FB7803F00F03DAB26D
:1041A400FB681A707B6893F8BC34012B01D102239D
:1041B4000EE07B68012283F8BC247B681B68F968E5
:1041C400184601F0F9FD7B68002283F8BC24002323
:1041D40018461037BD4680BD80B586B000AFF86084
:1041E4007A603B600B46FB72FB7A03F00F021346C6
:1041F400DB0013449B0003F51E73FA681344043375
:104204007B617B697A68DA607B693A681A617B69E9
:1042140000225A617B6900225A70FB7A03F00F0373
:10422400DAB27B691A70FB68DB68012B02D17A6809
:104234007B69DA61FB681868FB68DB68DBB21A46E5
:10424400796901F095FE002318461837BD4680BDF4
:1042540080B483B000AF78600B46FB70FB7803F04A
:104264000F0279681346DB0013449B000B4403F5EB
:1042740024731B6818460C37BD4680BC704780B554
:1042840086B000AFF8607A603B600B46FB72FB7A45
:1042940003F00F021346DB0013449B003833FA6823
:1042A400134404337B617B697A68DA607B693A681A
:1042B4001A617B6900225A617B6901225A70FB7A78
:1042C40003F00F03DAB27B691A70FB68DB68012B19
:1042D40002D17A687B69DA61FB681868FB68DB687D
:1042E400DBB21A46796901F043FE002318461837F9
:1042F400BD4680BD80B584B000AF78600B46FB70CE
:10430400FB7803F00F027B685B689A4201D90123B2
:1043140050E097F90330002B0FDAFB7803F00F021B
:104324001346DB0013449B0038337A681344043388
:10433400FB60FB6801225A700DE0FA781346DB003B
:1043440013449B0003F51E737A6813440433FB6023
:10435400FB6800225A70FB6801229A70FB7803F014
:104364000F03DAB2FB681A707B6893F8BC34012B34
:1043740001D102231EE07B68012283F8BC247B6800
:104384001B68F968184602F0C8F9FB7803F00F03BC
:10439400002B0AD17B6818687B68DB68D9B27B681C
:1043A40003F2C4431A4602F0CDFB7B68002283F873
:1043B400BC24002318461037BD4680BD80B584B0A8
:1043C40000AF78600B46FB70FB7803F00F027B684C
:1043D4005B689A4201D9012342E097F90330002B2C
:1043E4000FDAFB7803F00F021346DB0013449B0043
:1043F40038337A6813440433FB60FB6801225A7033
:104404000FE0FB7803F00F021346DB0013449B001C
:1044140003F51E737A6813440433FB60FB680022BF
:104424005A70FB6800229A70FB7803F00F03DAB22B
:10443400FB681A707B6893F8BC34012B01D102230A
:104444000EE07B68012283F8BC247B681B68F96852
:10445400184602F0CFF97B68002283F8BC240023BD
:1044640018461037BD4680BD80B584B000AF786073
:104474000B46FB7097F90330002B0CDAFB7803F042
:104484000F021346DB0013449B0038337A6813444D
:104494000433FB600CE0FB7803F00F021346DB00EF
:1044A40013449B0003F51E737A6813440433FB60C2
:1044B4007B681B68F968184601F0F2FF0346FB723B
:1044C400FB7A18461037BD4680BD80B58AB002AF6E
:1044D400786039607B681B687B617B693B613A6803
:1044E4001346DB0013449B0038337A6813440433C7
:1044F400FB60FB685A69FB681B699A4201D9012376
:104504006CE0FB681A69FB685B69D31AFB61FB68A2
:104514009B68FA699A4202D9FB689B68FB61FB6954
:1045240003339B08BB612BE0FB681A69FB685B697A
:10453400D31AFB61FB689B68FA699A4202D9FB684B
:104544009B68FB61FB6903339B08BB61FB68D9680B
:104554003B68DAB2FB6998B27B68DB68DBB2009334
:104564000346786902F045F8FB68DA68FB691A4487
:10457400FB68DA60FB685A69FB691A44FB685A6194
:104584003B685A013B69134403F510639B699BB272
:10459400BA699A4209D8FB685A69FB681B699A424E
:1045A40003D2FB681B69002BBED1FB681A69FB6848
:1045B4005B699A4211D83B6803F00F03012202FAA7
:1045C40003F3BB603B6903F500635A6BBB68DB43D1
:1045D400396901F5006113404B6300231846203705
:1045E400BD4680BD80B588B000AF786039607B6817
:1045F4001B68FB61FB69BB61FB693C3304331B68CB
:104604007B613B685A01BB69134403F530639B68C3
:104614003B617B68DB68012B7BD13B6903F00803BA
:10462400002B15D07B69614A934240F2B9803B6903
:1046340003F40043002B00F0B3803B685A01BB69CC
:10464400134403F530631A464FF400439360A7E024
:104654003B6903F02003002B09D03B685A01BB6976
:10466400134403F530631A462023936098E03B69B2
:1046740003F02803002B40F093807B694B4A93425C
:104684000FD93B6903F40043002B0AD03B685A015D
:10469400BB69134403F530631A464FF40043936037
:1046A4007EE03A681346DB0013449B0003F51E7357
:1046B4007A6813440433FB60FB681A6A3B68590147
:1046C400BB690B4403F530631B69C3F31203D21AAD
:1046D400FB685A613B68002B14D1FB681B69002BF3
:1046E40009D17B6818687B6803F2C4431A46012128
:1046F40002F028FA06E0FB68DA68FB685B691A4492
:10470400FB68DA603B68DBB2194678680BF0A0FA04
:1047140046E07B69264A934224D13B6903F4004373
:10472400002B0AD03B685A01BB69134403F530637C
:104734001A464FF40043936032E03B6903F02003D0
:10474400002B08D03B685A01BB69134403F530635E
:104754001A46202393603B68DBB2194678680BF055
:1047640077FA1DE03B68002B14D179683A68134648
:10477400DB0013449B000B4403F523731B68002BDD
:1047840008D17B6818687B6803F2C4431A46002189
:1047940002F0D8F93B68DBB2194678680BF058FA96
:1047A400002318462037BD4680BD00BF0A30544F51
:1047B4000A31544F80B586B000AF786039607B68A9
:1047C4001B687B617B693B617B693C3304331B68F9
:1047D400FB603B685A013B69134403F530639B68F3
:1047E400BB60FB68154A93420ED9BB6803F40043CF
:1047F400002B09D03B685A013B69134403F530632D
:104804001A464FF40043936078680BF00FFAFB6884
:104814000A4A93420CD97B68DB68012B08D17B6878
:1048240018687B6803F2C4431A46012102F08AF92E
:10483400002318461837BD4680BD00BF0A30544FC8
:1048440080B485B000AF78600B46FB7013463B80A4
:104854007B681B685B6ABB60FB78002B07D13B88D5
:1048640019047B681B68BA680A439A6228E07B686B
:104874001B689B6A1B0CBA681344BB600023FB7360
:104884000DE07B681A68FB7B40339B0013445B6834
:104894001B0CBA681344BB60FB7B0133FB73FA7BCC
:1048A400FB78013B9A42ECD33B8818047B68196877
:1048B400FB78013BBA68024340339B000B445A60C7
:1048C400002318461437BD4680BC704780B483B0BB
:1048D40000AF78600B467B807B681B687A885A62DD
:1048E400002318460C37BD4680BC704780B58AB09B
:1048F40000AF78607B68002B01D101233BE27B6829
:104904001B6803F00103002B50D09E4B9B6803F0FF
:104914000C03042B0CD09B4B9B6803F00C03082B5B
:1049240012D1984B5B6803F48003B3F5800F0BD16D
:10493400944B1B6803F40033002B36D07B685B6810
:10494400002B32D1012316E27B685A688E4BD2B217
:104954001A707B685B68002B13D0FCF74BF9386244
:1049640008E0FCF747F902463B6AD31A642B01D9E5
:10497400032300E2834B1B6803F40033002BF0D0C5
:1049840014E0FCF737F9386208E0FCF733F9024623
:104994003B6AD31A642B01D90323ECE1794B1B68DE
:1049A40003F40033002BF0D100E000BF7B681B68E8
:1049B40003F00203002B77D0724B9B6803F00C03C7
:1049C400002B0BD06F4B9B6803F00C03082B26D1F4
:1049D4006C4B5B6803F48003002B20D1694B1B688C
:1049E40003F00203002B05D07B68DB68012B01D0A8
:1049F4000123C0E1634B1B6823F0F8027B681B6949
:104A0400F821B961B96991FAA1F179617969B1FAC9
:104A140081F1C9B28B405B4913430B6044E07B686E
:104A2400DB68002B2AD0594B01221A60FCF7E2F80C
:104A3400386208E0FCF7DEF802463B6AD31A022B20
:104A440001D9032397E14F4B1B6803F00203002BAA
:104A5400F0D04C4B1B6823F0F8027B681B69F821EB
:104A64003961396991FAA1F1F960F968B1FA81F112
:104A7400C9B28B40434913430B6015E0434B0022FA
:104A84001A60FCF7B7F8386208E0FCF7B3F802469E
:104A94003B6AD31A022B01D903236CE1394B1B68FF
:104AA40003F00203002BF0D17B681B6803F00803BA
:104AB400002B30D07B685B69002B16D0344B01226D
:104AC4001A60FCF797F8386208E0FCF793F802469E
:104AD4003B6AD31A022B01D903234CE1294B5B6FA8
:104AE40003F00203002BF0D015E0294B00221A60DA
:104AF400FCF780F8386208E0FCF77CF802463B6A71
:104B0400D31A022B01D9032335E11E4B5B6F03F04B
:104B14000203002BF0D17B681B6803F00403002B15
:104B240000F08780002387F82730164B1B6C03F0B6
:104B34008053002B10D10023BB60124B1B6C114A15
:104B440043F0805313640F4B1B6C03F08053BB6022
:104B5400BB68012387F827300E4B1B680D4A43F4CA
:104B6400807313600B4B1B6803F48073002B22D1FA
:104B7400084B1B68074A43F480731360FCF73AF848
:104B8400386212E000380240023802400000474216
:104B9400800E474200700040FCF72CF802463B6A46
:104BA400D31A022B01D90323E5E0754B1B6803F4E8
:104BB4008073002BF0D07B689A68724BD2B21A7063
:104BC4007B689B68002B15D0FCF714F838620AE068
:104BD400FCF710F802463B6AD31A41F2883293423A
:104BE40001D90323C7E0684B1B6F03F00203002BBA
:104BF400EED014E0FBF7FEFF38620AE0FBF7FAFFA1
:104C040002463B6AD31A41F28832934201D9032304
:104C1400B1E05D4B1B6F03F00203002BEED197F85C
:104C24002730012B05D1584B1B6C574A23F0805376
:104C340013647B689B69002B00F09C80524B9B683B
:104C440003F00C03082B61D07B689B69022B46D1CF
:104C54004E4B00221A60FBF7CDFF386208E0FBF7E9
:104C6400C9FF02463B6AD31A642B01D9032382E0AD
:104C7400454B1B6803F00073002BF0D1424B5A687C
:104C8400434B13407A68D1697A68126A11437A688F
:104C9400526A920111437A68D26A120611437A6801
:104CA400926A5208013A12040A43374913434B608B
:104CB400364B01221A60FBF79DFF386208E0FBF7D0
:104CC40099FF02463B6AD31A642B01D9032352E0AD
:104CD4002D4B1B6803F00073002BF0D04AE02B4BE4
:104CE40000221A60FBF786FF386208E0FBF782FFB8
:104CF40002463B6AD31A642B01D903233BE0224BBF
:104D04001B6803F00073002BF0D133E07B689B69D0
:104D1400012B01D101232EE01B4B5B68FB61FB6976
:104D240003F480027B68DB699A4221D1FB6903F0BA
:104D34003F027B681B6A9A421AD1FA6947F6C0732C
:104D440013407A68526A9201934211D1FB6903F4C9
:104D540040327B689B6A5B08013B1B049A4207D183
:104D6400FB6903F070627B68DB6A1B069A4201D020
:104D7400012300E0002318462837BD4680BD00BF4C
:104D84000070004070380240003802406000474222
:104D94000080BCF080B586B000AF786039607B6875
:104DA400002B01D10123D2E06B4B1B6803F00F03EE
:104DB4003A689A420CD9684B3A68D2B21A70664B78
:104DC4001B6803F00F033A689A4201D00123BEE046
:104DD4007B681B6803F00203002B20D07B681B68F0
:104DE40003F00403002B05D05C4B9B685B4A43F43F
:104DF400E05393607B681B6803F00803002B05D025
:104E0400564B9B68554A43F460439360534B9B68ED
:104E140023F0F0027B689B68504913438B607B68E6
:104E24001B6803F00103002B40D07B685B68012BF7
:104E340007D14A4B1B6803F40033002B15D101231F
:104E440085E07B685B68022B07D1444B1B6803F049
:104E54000073002B09D1012379E0404B1B6803F058
:104E64000203002B01D1012371E03C4B9B6823F02A
:104E740003027B685B68394913438B60FBF7BAFE16
:104E840078610AE0FBF7B6FE02467B69D31A41F269
:104E94008832934201D9032359E0304B9B6803F0D5
:104EA4000C027B685B689B009A42EBD12A4B1B681F
:104EB40003F00F033A689A420CD2274B3A68D2B2F5
:104EC4001A70254B1B6803F00F033A689A4201D00D
:104ED40001233CE07B681B6803F00403002B08D02B
:104EE4001E4B9B6823F4E0527B68DB681B49134329
:104EF4008B607B681B6803F00803002B09D0174BF9
:104F04009B6823F460427B681B69DB0013491343ED
:104F14008B6000F02BF80146104B9B6803F0F00304
:104F2400F0223A613A6992FAA2F2FA60FA68B2FAA5
:104F340082F2D2B2D3400A4AD35C21FA03F3094A7B
:104F44001360094B1B681846FBF712FE0023184632
:104F54001837BD4680BD00BF003C02400038024007
:104F64007C1A010800000020040000202DE9B04F45
:104F740090B000AF00237B630023FB6300233B63FB
:104F84000023BB63594B9B6803F00C03082B0DD023
:104F9400082B00F2A280002B02D0042B03D09CE04B
:104FA400534BBB639CE0534BBB6399E04F4B5B6833
:104FB40003F03F037B634D4B5B6803F48003002BDA
:104FC40027D04A4B5B689B0900223B627A623B6AAA
:104FD400C3F308000021474B03FB01F2002300FB4D
:104FE40003F31344434AA0FB0221F962BA62FA6A4A
:104FF4001344FB627B6B0022BB61FA61D7E9062391
:10500400D7E90A01FBF7E4F802460B461346FB63B3
:1050140055E0364B5B689B0900223B617A613B6932
:10502400C3F3080A4FF0000B52465B464FF00000F2
:105034004FF00001590141EAD261500102460B468A
:10504400B2EB0A0863EB0B094FF000024FF00003C8
:105054004FEA891343EA98634FEA8812B2EB0804D3
:1050640063EB09054FF000024FF00003EB0043EA45
:105074005473E20014461D4614EB0A033B6045EBEF
:105084000B037B604FF000024FF00003D7E90045AB
:1050940029468B0220462946044643EA9453014696
:1050A4008A02104619467B6B0022BB60FA60D7E97E
:1050B4000223FBF78DF802460B461346FB630B4BAA
:1050C4005B681B0C03F0030301335B003B63FA6B67
:1050D4003B6BB2FBF3F3BB6302E0054BBB6300BF66
:1050E400BB6B18464037BD46BDE8B08F0038024060
:1050F4000024F40040787D0180B400AF024B1B68AB
:105104001846BD4680BC70470000002080B582B0C0
:1051140000AFFFF7F1FF01460B4B9B6803F4E0532C
:105124004FF4E0527A607A6892FAA2F23A603A68EE
:10513400B2FA82F2D2B2D340044AD35C21FA03F326
:1051440018460837BD4680BD003802408C1A010855
:1051540080B582B000AFFFF7CFFF01460B4B9B68D1
:1051640003F460434FF460427A607A6892FAA2F2E0
:105174003A603A68B2FA82F2D2B2D340044AD35CBB
:1051840021FA03F318460837BD4680BD00380240B3
:105194008C1A010880B582B000AF78607B68002B60
:1051A40001D1012342E07B6893F84130DBB2002B4C
:1051B40006D17B68002283F840207868FBF73CFB2B
:1051C4007B68242283F841207B681B68DA687B684B
:1051D4001B6822F40052DA60786800F01DF97B68DD
:1051E4001B681A697B681B6822F490421A617B6809
:1051F4001B685A697B681B6822F02A025A617B6823
:105204001B68DA687B681B6842F40052DA607B68CA
:1052140000225A647B68202283F841207B68202284
:1052240083F842207B6800225A630023184608371B
:10523400BD4680BD80B58AB002AFF860B9603B60FE
:105244001346FB8000237B61FB6893F84130DBB29B
:10525400202B6DD1BB68002B02D0FB88002B01D121
:10526400012366E0FB6800225A64FB68212283F86C
:105274004120FBF7BFFC7861FB68FA889A84FB68DD
:10528400FA88DA84FB689B68B3F5805F08D1FB6811
:105294001B69002B04D10023FB61BB68BB6103E0E5
:1052A400BB68FB610023BB612AE03B6800937B6918
:1052B40000228021F86800F040F80346002B01D05A
:1052C400032336E0FB69002B0BD1BB691B881A460C
:1052D400FB681B68C2F308025A60BB690233BB61F6
:1052E40007E0FB691A78FB681B685A60FB690133A5
:1052F400FB61FB68DB8C9BB2013B9AB2FB68DA84EE
:10530400FB68DB8C9BB2002BCFD13B6800937B699D
:1053140000224021F86800F010F80346002B01D069
:10532400032306E0FB68202283F84120002300E0E9
:10533400022318462037BD4680BD80B590B000AF2B
:10534400F860B9603B601346FB7150E0BB6CB3F18D
:10535400FF3F4CD0BB6C002B07D0FBF74BFC024645
:105364003B68D31ABA6C9A4241D2FB681B680C336F
:10537400BB62BB6A53E8003F7B627B6A23F4D07351
:10538400FB63FB681B680C33FA6B7A633B63396B12
:105394007A6B41E80023FB62FB6A002BE5D1FB68D2
:1053A4001B6814337B617B6953E8003F3B613B69B5
:1053B40023F00103BB63FB681B681433BA6B3A62C6
:1053C400FB61F9693A6A41E80023BB61BB69002BC0
:1053D400E5D1FB68202283F84120FB68202283F872
:1053E4004220FB68002283F8402003230FE0FB687F
:1053F4001B681A68BB681340BA689A420CBF012341
:105404000023DBB21A46FB799A429FD00023184648
:105414004037BD4680BD000080B584B000AF7860E1
:105424007B681B681B6923F440517B68DA687B68DE
:105434001B680A431A617B689A687B681B691A4374
:105444007B685B691A437B68DB691343BB607B68D9
:105454001B68DB6823F4164323F00C037A68126894
:10546400B9680B43D3607B681B685B6923F44071A4
:105474007B689A697B681B680A435A617B681B686E
:10548400574A934204D07B681B68564A934203D11F
:10549400FFF75EFEF86002E0FFF738FEF8607B6815
:1054A400DB69B3F5004F4CD1FA6813469B001344F3
:1054B4009A001A447B685B685B00B2FBF3F34A4AC8
:1054C400A2FB03235B091901FA6813469B001344EA
:1054D4009A001A447B685B685B00B2FBF3F2424BB0
:1054E400A3FB02035B09642000FB03F3D31ADB0074
:1054F40032333D4AA2FB03235B095B0003F4F873D8
:105504001944FA6813469B0013449A001A447B68B2
:105514005B685B00B2FBF3F2334BA3FB02035B0952
:10552400642000FB03F3D31ADB0032332E4AA2FBC0
:1055340003235B0903F007027B681B680A449A6033
:105544004AE0FA6813469B0013449A001A447B68A5
:105554005B689B00B2FBF3F3234AA2FB03235B09C2
:105564001901FA6813469B0013449A001A447B6895
:105574005B689B00B2FBF3F21B4BA3FB02035B09CA
:10558400642000FB03F3D31A1B013233164AA2FB37
:1055940003235B0903F0F0031944FA6813469B00E4
:1055A40013449A001A447B685B689B00B2FBF3F2D5
:1055B4000D4BA3FB02035B09642000FB03F3D31A26
:1055C4001B013233084AA2FB03235B0903F00F02D9
:1055D4007B681B680A449A6000BF1037BD4680BDD3
:1055E40000100140001401401F85EB5184B080B5C8
:1055F40084B000AF786007F11C0080E80E003B6BBC
:10560400012B22D17B689B6B23F480327B689A63E5
:105614007B68DB6823F4840323F040037A68D36057
:105624007B68DB6823F440127B68DA60FB6C012B37
:1056340005D17B68DB6843F480127B68DA607868A4
:1056440001F0DCFA0346FB7310E07B68DB6843F08F
:1056540040027B68DA60786801F0D0FA0346FB7395
:105664007B689B6B43F480327B689A637B6A012B73
:105674000BD17B689B6843F006027B689A607B6869
:105684009B6843F020027B689A60FB7B18461037C6
:10569400BD46BDE8804004B07047000080B487B0C8
:1056A40000AFF860B9601346FB71FB79022B65D13A
:1056B400BB68414A934206D9BB68404A934202D22E
:1056C4000F237B6162E0BB683C4A934206D3BB680C
:1056D4003B4A934202D20E237B6157E0BB68384AAF
:1056E400934206D3BB68374A934202D20D237B61AF
:1056F4004CE0BB68334A934206D3BB68324A9342B8
:1057040002D80C237B6141E0BB682F4A934206D93F
:10571400BB682E4A934202D80B237B6136E0BB68F8
:105724002A4A934206D9BB68294A934202D80A23DB
:105734007B612BE0BB68264A934206D9BB68254AA5
:10574400934202D209237B6120E0BB68214A934241
:1057540006D3BB68204A934202D808237B6115E034
:10576400BB681D4A934206D9BB681C4A934202D2C5
:1057740007237B610AE006237B6107E0FB79002BAA
:1057840002D109237B6101E009237B61FB68DB68AB
:1057940023F47052FB68DA60FB68DA687B699B0269
:1057A40003F470531A43FB68DA60002318461C376D
:1057B400BD4680BC704700BFBFACD800C0E1E40068
:1057C4000024F400807306019F491A01FF2C310163
:1057D4003FA44C0100366E011FABA6010048E8014E
:1057E40080B483B000AF78607B689B6843F00102AB
:1057F4007B689A60002318460C37BD4680BC70470E
:1058040080B483B000AF78607B689B6823F00102AA
:105814007B689A60002318460C37BD4680BC7047ED
:1058240080B584B000AF78600B46FB700023FB604A
:105834007B68DB6823F0C0427B68DA60FB78012B6D
:1058440015D17B68DB6843F000527B68DA60012085
:10585400FBF7DAF9FB680133FB60786801F042F981
:105864000346012B1ED0FB68312BF0D91AE0FB78DC
:10587400002B15D17B68DB6843F080427B68DA60DB
:105884000120FBF7C1F9FB680133FB60786801F084
:1058940029F90346002B05D0FB68312BF0D901E030
:1058A400012305E0FB68322B01D1012300E0002332
:1058B40018461037BD4680BD84B080B586B000AFB1
:1058C400786007F1240080E80E000023FB757B68F4
:1058D400FB6000233B6109E07A683B6940339B002D
:1058E400134400225A603B6901333B613B690E2B30
:1058F400F2D9FB6C002B1CD1FB6803F500635B68D9
:10590400FA6802F5006243F0020353607B689B6B04
:1059140043F400127B689A637B689B6B23F4002238
:105924007B689A637B689B6B23F480227B689A6311
:105934000BE07B689B6B23F400127B689A637B68A3
:105944009B6B43F400227B689A63FB6803F56063F6
:105954001A4600231360BB6B012B0CD13B6B002B4D
:1059640004D10021786800F065F908E00121786825
:1059740000F060F903E00321786800F05BF910217E
:10598400786800F0F3F80346002B01D00123FB757F
:10599400786800F01FF90346002B01D00123FB7542
:1059A400FB6803F500631A4600231361FB6803F5E3
:1059B40000631A4600235361FB6803F500631A462B
:1059C4000023D36100233B6143E03B695A01FB6838
:1059D400134403F510631B6803F00043B3F1004F55
:1059E40018D13B69002B0AD13B695A01FB68134467
:1059F40003F510631A464FF00063136013E03B692C
:105A04005A01FB68134403F510631A464FF09043A0
:105A1400136008E03B695A01FB68134403F5106303
:105A24001A46002313603B695A01FB68134403F5CB
:105A340010631A46002313613B695A01FB6813443F
:105A440003F510631A464FF67F3393603B690133C5
:105A54003B617B6A3A699A42B7D300233B6143E0D6
:105A64003B695A01FB68134403F530631B6803F078
:105A74000043B3F1004F18D13B69002B0AD13B69B5
:105A84005A01FB68134403F530631A464FF0006370
:105A9400136013E03B695A01FB68134403F5306358
:105AA4001A464FF09043136008E03B695A01FB68C3
:105AB400134403F530631A46002313603B695A010B
:105AC400FB68134403F530631A46002313613B69F2
