:020000040800F2
:1000000000000220AD0A00081D09000823090008AD
:10001000290900082F090008350900080000000020
:100020000000000000000000000000003B09000884
:100030004709000800000000530900085F09000894
:10004000FD0A0008FD0A0008FD0A0008FD0A000874
:10005000FD0A0008FD0A0008FD0A0008FD0A000864
:10006000FD0A0008FD0A0008FD0A0008FD0A000854
:10007000FD0A0008FD0A0008FD0A0008FD0A000844
:10008000FD0A0008FD0A0008FD0A0008FD0A000834
:10009000FD0A0008FD0A0008FD0A0008FD0A000824
:1000A000FD0A0008FD0A0008FD0A0008FD0A000814
:1000B000FD0A0008FD0A0008FD0A0008FD0A000804
:1000C000FD0A0008FD0A0008FD0A0008FD0A0008F4
:1000D000FD0A0008FD0A0008FD0A0008FD0A0008E4
:1000E0006B090008FD0A0008FD0A0008FD0A000867
:1000F000FD0A0008FD0A0008FD0A0008FD0A0008C4
:10010000FD0A0008FD0A0008FD0A0008FD0A0008B3
:10011000FD0A0008FD0A0008FD0A0008FD0A0008A3
:10012000FD0A0008FD0A0008FD0A0008FD0A000893
:10013000FD0A0008FD0A0008FD0A0008FD0A000883
:10014000FD0A0008FD0A0008FD0A000885090008EC
:10015000FD0A0008FD0A0008FD0A0008FD0A000863
:10016000FD0A0008FD0A0008FD0A0008FD0A000853
:10017000FD0A0008FD0A0008FD0A00080000000052
:04018000FD0A00086C
:1001840010B5054C237833B9044B13B10448AFF3CD
:1001940000800123237010BDD8010020000000005E
:1001A4009874000808B5034B1BB103490348AFF327
:1001B400008008BD00000000DC01002098740008E5
:1001C40053B94AB9002908BF00281CBF4FF0FF31BA
:1001D4004FF0FF3000F072B9ADF1080C6DE904CEB8
:1001E40000F006F8DDF804E0DDE9022304B070470E
:1001F4002DE9F047089E0D4604468E46002B4CD14F
:100204008A42944667D9B2FA82F353B102FA03FCE4
:10021400C3F1200201FA03FE20FA02F242EA0E0EB2
:100224009C404FEA1C47BEFBF7F11FFA8CF507FB15
:1002340011EE01FB05F0220C42EA0E4290420AD96B
:100244001CEB020201F1FF3E80F01981904240F262
:10025400168102396244121AB2FBF7F007FB10222E
:1002640000FB05F5A4B244EA0244A5420AD91CEBFA
:10027400040400F1FF3280F00481A54240F20181C0
:100284006444023840EA01400021641B1EB1DC4092
:100294000023C6E90043BDE8F0878B4208D9002E4D
:1002A40000F0EA800021C6E900050846BDE8F087B1
:1002B400B3FA83F1002948D1AB4202D3824200F25F
:1002C400F880841A65EB030201209646002EE2D0E2
:1002D400C6E9004EDFE702B9FFDEB2FA82F3002B73
:1002E40040F08E80881A0121170C1FFA82FEB0FBA1
:1002F400F7F507FB1500220C42EA00420EFB05F05D
:10030400904208D91CEB020205F1FF3802D2904258
:1003140000F2CC804546121AB2FBF7F007FB10221C
:100324000EFB00FEA4B244EA0244A64508D91CEB25
:10033400040400F1FF3202D2A64500F2B480104654
:10034400A4EB0E0440EA0540A0E7C1F120078B406E
:1003540022FA07FC4CEA030C25FA07FA4FEA1C4977
:10036400BAFBF9F88D4020FA07F309FB18AA1FFA23
:100374008CFE2B4300FA01F508FB0EF01C0C44EA3A
:100384000A44A04202FA01F20BD91CEB040408F15E
:10039400FF3A80F08680A04240F28380A8F10208F0
:1003A4006444241A98B2B4FBF9F309FB134403FB25
:1003B4000EFE40EA0444A64508D91CEB040403F1EC
:1003C400FF306AD2A64568D9023B644443EA084038
:1003D400A0FB0293A4EB0E049C42C8469E4654D351
:1003E40051D0002E67D0B5EB080364EB0E04CB406C
:1003F40004FA07F71F43CC40C6E9007400214AE71A
:1004040002FA03FCC3F12000C1409D4024FA00F02D
:100414004FEA1C472843B1FBF7F507FB15111FFAF8
:100424008CFE020C42EA014205FB0EF1914204FAF1
:1004340003F408D91CEB020205F1FF382FD29142D4
:100444002DD9023D6244521AB2FBF7F107FB112287
:1004540080B240EA024001FB0EF2824208D91CEB52
:10046400000001F1FF3816D2824214D902396044E7
:10047400801A41EA05413AE7314630460BE77146B6
:10048400E9E61046FEE64D45ABD2B9EB020863EB54
:100494000C0E0138A5E74146EAE7034696E74546D0
:1004A400D1E7D0467DE76444023849E7023D62441F
:1004B40031E708460AE73146EDE600BF704700BF62
:1004C40080B586B000AFF860B9607A600023FB8223
:1004D4000BE0B9684B1CBB6064230122084802F09E
:1004E40081FDFB8A01339BB2FB82B7F916307A682F
:1004F4009A42EEDC7B6818461837BD4680BD00BFC3
:100504003C02002080B582B000AF0346FB80FB882C
:10051400B3F5006F0DD14FF40061104800F02CFECC
:100524000346002B16D14FF400510C4800F053FE43
:1005340010E0FB88B3F5805F0CD14FF4805107487D
:1005440000F01AFE0346002B04D14FF48041034807
:1005540000F041FE00BF0837BD4680BD00100240D8
:1005640080B500AF00F0CAFA00F00EF800F0A6F86B
:1005740000F050F800F078F805F0D4FD014806F0DA
:10058400A7FCFEE7B074000880B592B000AF07F195
:10059400180330220021184606F07AFD3B1D002284
:1005A4001A605A609A60DA601A610123BB61012300
:1005B400FB6102233B634FF480037B631923BB631A
:1005C400C023FB6302233B6404237B6407F1180309
:1005D400184602F063F80346002B01D000F0F2F84D
:1005E4000F237B600223BB600023FB604FF4A05306
:1005F4003B614FF480537B613B1D0321184602F09D
:10060400A1FA0346002B01D000F0DCF800BF483704
:10061400BD4680BD80B500AF114B124A1A60104B25
:100624004FF4E1325A600E4B00229A600C4B0022C8
:10063400DA600B4B00221A61094B0C225A61084BF9
:1006440000229A61064B0022DA61054802F07AFC26
:100654000346002B01D000F0B5F800BF80BD00BFF9
:10066400F40100200010014080B500AF114B124A84
:100674001A60104B4FF4E1325A600E4B00229A601C
:100684000C4B0022DA600B4B00221A61094B0C223E
:100694005A61084B00229A61064B0022DA61054830
:1006A40002F050FC0346002B01D000F08BF800BF91
:1006B40080BD00BF3C0200200048004080B58AB0E5
:1006C40000AF07F1140300221A605A609A60DA60DE
:1006D4001A6100233B61394B1B6B384A43F080039A
:1006E4001363364B1B6B03F080033B613B690023B0
:1006F400FB60324B1B6B314A43F0100313632F4BE7
:100704001B6B03F01003FB60FB680023BB602B4BE7
:100714001B6B2A4A43F001031363284B1B6B03F042
:100724000103BB60BB6800237B60244B1B6B234A23
:1007340043F004031363214B1B6B03F004037B603E
:100744007B6800233B601D4B1B6B1C4A43F0020378
:1007540013631A4B1B6B03F002033B603B680122DB
:100764004FF46041164800F01EFD4FF4C0537B6106
:100774004FF40413BB610023FB6107F11403194612
:100784000F4800F05BFB4FF460437B610123BB61C6
:100794000023FB6100233B6207F114031946084858
:1007A40000F04CFB00220021282000F010FB282040
:1007B40000F029FB00BF2837BD4680BD0038024049
:1007C4000010024080B400AF72B600BFFEE7000024
:1007D40080B483B000AF00237B600F4B5B6C0E4A88
:1007E40043F4804353640C4B5B6C03F480437B60A1
:1007F4007B6800233B60084B1B6C074A43F0805323
:100804001364054B1B6C03F080533B603B6800BFD3
:100814000C37BD4680BC70470038024080B58CB0B0
:1008240000AF786007F11C0300221A605A609A60D6
:10083400DA601A617B681B68324A93422CD1002328
:10084400BB61314B5B6C304A43F0100353642E4B55
:100854005B6C03F01003BB61BB6900237B612A4B13
:100864001B6B294A43F002031363274B1B6B03F0F2
:1008740002037B617B69C023FB6102233B6200238B
:100884007B620323BB620723FB6207F11C03194647
:100894001E4800F0D3FA31E07B681B681C4A93427F
:1008A4002CD100233B61184B1B6C174A43F4802363
:1008B4001364154B1B6C03F480233B613B690023D9
:1008C400FB60114B1B6B104A43F0040313630E4B84
:1008D4001B6B03F00403FB60FB684FF44063FB6194
:1008E40002233B6200237B620323BB620723FB6278
:1008F40007F11C031946074800F0A0FA00BF30377F
:10090400BD4680BD00100140003802400004024092
:10091400004800400008024080B400AFFEE780B405
:1009240000AFFEE780B400AFFEE780B400AFFEE79F
:1009340080B400AFFEE780B400AF00BFBD4680BC0A
:10094400704780B400AF00BFBD4680BC704780B420
:1009540000AF00BFBD4680BC704780B500AF00F05B
:100964001FF900BF80BD80B500AF4FF4006000F0F8
:100974004BFC4FF4805000F047FC00BF80BD0000EA
:1009840080B500AF024800F096FD00BF80BD00BFF7
:100994005417002080B586B000AFF860B9607A6063
:1009A40000237B610AE0AFF300800146BB685A1C58
:1009B400BA60CAB21A707B6901337B617A697B6859
:1009C4009A42F0DB7B6818461837BD4680BD80B478
:1009D40083B000AF78604FF0FF3318460C37BD4644
:1009E40080BC704780B483B000AF786039603B68E6
:1009F4004FF400525A60002318460C37BD4680BCA1
:100A0400704780B483B000AF7860012318460C3778
:100A1400BD4680BC704780B485B000AFF860B96053
:100A24007A60002318461437BD4680BC7047000026
:100A340080B586B000AF7860144A154BD31A7B6139
:100A44007B693B61134B1B68002B02D1114B124A8B
:100A54001A60104B1A687B6813443A699A4207D2A9
:100A640006F074FB03460C221A604FF0FF3309E0D2
:100A7400084B1B68FB60074B1A687B681344054AE4
:100A84001360FB6818461837BD4680BD000002207D
:100A94000004000084020020A81D002080B400AFE0
:100AA40000BFBD4680BC7047DFF834D0FFF7F6FFC7
:100AB4000C480D490D4A002302E0D458C4500433B5
:100AC400C4188C42F9D30A4A0A4C002301E013608B
:100AD4000432A242FBD306F03FFBFFF741FD70470F
:100AE4000000022000000020D80100204475000806
:100AF400D8010020A41D0020FEE7000080B500AF4F
:100B04000E4B1B680D4A43F4007313600B4B1B68B8
:100B14000A4A43F480631360084B1B68074A43F492
:100B240080731360032000F047F90F2000F008F8E9
:100B3400FFF74EFE0023184680BD00BF003C024074
:100B440080B582B000AF7860124B1A68124B1B78E4
:100B540019464FF47A73B3FBF1F3B2FBF3F318467F
:100B640000F05FF90346002B01D001230EE07B68FF
:100B74000F2B0AD8002279684FF0FF3000F027F9D4
:100B8400064A7B681360002300E0012318460837F7
:100B9400BD4680BD000000200800002004000020A5
:100BA40080B400AF054B1B781A46054B1B681344F1
:100BB400034A136000BFBD4680BC70470800002094
:100BC4008802002080B400AF024B1B681846BD4663
:100BD40080BC70478802002080B584B000AF786084
:100BE400FFF7F0FFB8607B68FB60FB68B3F1FF3F81
:100BF40005D00A4B1B781A46FB681344FB6000BF00
:100C0400FFF7E0FF0246BB68D31AFA689A42F7D8A6
:100C140000BF00BF1037BD4680BD00BF08000020E4
:100C240080B485B000AF78607B6803F00703FB6095
:100C34000C4BDB68BB60BA684FF6FF031340BB6024
:100C4400FB681A02BB68134343F0BF6343F40033E9
:100C5400BB60044ABB68D36000BF1437BD4680BC88
:100C6400704700BF00ED00E080B400AF044BDB68C8
:100C74001B0A03F007031846BD4680BC704700BF3B
:100C840000ED00E080B483B000AF0346FB7197F938
:100C94000730002B0BDBFB7903F01F02064997F9A1
:100CA40007305B09012000FA02F241F8232000BF5B
:100CB4000C37BD4680BC704700E100E080B483B0CF
:100CC40000AF03463960FB7197F90730002B0ADB4C
:100CD4003B68DAB20C4997F907301201D2B20B44DF
:100CE40083F800230AE03B68DAB20849FB7903F091
:100CF4000F03043B1201D2B20B441A7600BF0C3727
:100D0400BD4680BC704700BF00E100E000ED00E09C
:100D140080B489B000AFF860B9607A60FB6803F012
:100D24000703FB61FB69C3F10703042B28BF0423FA
:100D3400BB61FB690433062B02D9FB69033B00E06A
:100D440000237B614FF0FF32BB6902FA03F3DA43FD
:100D5400BB681A407B699A404FF0FF317B6901FA06
:100D640003F3D9437B680B40134318462437BD462D
:100D740080BC704780B582B000AF78607B68013B6F
:100D8400B3F1807F01D301230FE00A4A7B68013B62
:100D940053600F214FF0FF30FFF790FF054B002207
:100DA4009A60044B07221A60002318460837BD4690
:100DB40080BD00BF10E000E080B582B000AF786075
:100DC4007868FFF72DFF00BF0837BD4680BD80B5AA
:100DD40086B000AF0346B9607A60FB7300237B6181
:100DE400FFF742FF78617A68B9687869FFF790FF86
:100DF400024697F90F3011461846FFF75FFF00BF10
:100E04001837BD4680BD80B582B000AF0346FB7184
:100E140097F907301846FFF735FF00BF0837BD467E
:100E240080BD80B582B000AF78607868FFF7A2FF1C
:100E3400034618460837BD4680BD000080B487B01D
:100E440000AF7860396000237B616FE13B681A680A
:100E540001217B6901FA03F31340FB60FB68002B5B
:100E640000F061813B685B6803F00303012B05D04C
:100E74003B685B6803F00303022B30D17B689B68FB
:100E84003B617B695B00032202FA03F3DB433A69AB
:100E940013403B613B68DA687B695B0002FA03F349
:100EA4003A6913433B617B683A699A607B685B6883
:100EB4003B6101227B6902FA03F3DB433A69134085
:100EC4003B613B685B681B0903F001027B6902FA22
:100ED40003F33A6913433B617B683A695A603B68A0
:100EE4005B6803F00303032B17D07B68DB683B616B
:100EF4007B695B00032202FA03F3DB433A69134084
:100F04003B613B689A687B695B0002FA03F33A69C8
:100F140013433B617B683A69DA603B685B6803F0C2
:100F24000303022B23D17B69DA087B68083253F868
:100F340022303B617B6903F007039B000F2202FA16
:100F440003F3DB433A6913403B613B681A697B69ED
:100F540003F007039B0002FA03F33A6913433B616E
:100F64007B69DA087B680832396943F822107B68A8
:100F74001B683B617B695B00032202FA03F3DB43DA
:100F84003A6913403B613B685B6803F003027B6989
:100F94005B0002FA03F33A6913433B617B683A69E5
:100FA4001A603B685B6803F44033002B00F0BB809D
:100FB4000023BB60644B5B6C634A43F4804353641B
:100FC400614B5B6C03F48043BB60BB685F4A7B6925
:100FD4009B08023352F823303B617B6903F003031F
:100FE4009B000F2202FA03F3DB433A6913403B618F
:100FF4007B68574A934231D07B68564A93422BD040
:101004007B68554A934225D07B68544A93421FD04B
:101014007B68534A934219D07B68524A934213D057
:101024007B68514A93420DD07B68504A934207D063
:101034007B684F4A934201D1082310E009230EE054
:1010440007230CE006230AE0052308E0042306E056
:10105400032304E0022302E0012300E000237A6971
:1010640002F00302920093401A463B6913433B612A
:1010740036497B699B0802333A6941F823203D4B8A
:101084009B683B61FB68DB433A6913403B613B6807
:101094005B6803F48013002B03D03A69FB681343A5
:1010A4003B61344A3B699360324BDB683B61FB68CC
:1010B400DB433A6913403B613B685B6803F400130C
:1010C400002B03D03A69FB6813433B61294A3B690F
:1010D400D360284B5B683B61FB68DB433A69134090
:1010E4003B613B685B6803F40033002B03D03A692F
:1010F400FB6813433B611F4A3B6953601D4B1B68EC
:101104003B61FB68DB433A6913403B613B685B68C6
:1011140003F48033002B03D03A69FB6813433B612B
:10112400144A3B6913607B6901337B613B681A682D
:101134007B6922FA03F3002B7FF488AE00BF00BF63
:101144001C37BD4680BC704700380240003801405F
:10115400000002400004024000080240000C02406B
:10116400001002400014024000180240001C02401B
:1011740000200240003C014080B485B000AF78609C
:101184000B467B807B681A697B881340002B02D056
:101194000123FB7301E00023FB73FB7B1846143728
:1011A400BD4680BC704780B483B000AF78600B4606
:1011B4007B8013467B707B78002B03D07A887B6816
:1011C4009A6103E07B881A047B689A6100BF0C373C
:1011D400BD4680BC704780B485B000AF78600B46D4
:1011E4007B807B685B69FB607A88FB6813401A0428
:1011F400FB68D9437B880B401A437B689A6100BF24
:101204001437BD4680BC704780B582B000AF03463A
:10121400FB80084B5A69FB881340002B06D0054A13
:10122400FB885361FB881846FFF76CF900BF083749
:10123400BD4680BD003C0140F0B58FB00AAF786078
:101244007B68002B01D101230FE17B681B68BB6025
:101254007B6893F8BD34DBB2002B06D17B68002297
:1012640083F8BC24786805F055F97B68032283F879
:10127400BD24BB68DB6B03F48073002B02D17B6855
:101284000022DA607B681B68184602F091F97B68DB
:101294001B683B607E686D4606F110040FCC0FC5D9
:1012A4000FCC0FC594E8030085E80300331D0ECB73
:1012B400386802F073F80346002B05D07B680222DD
:1012C40083F8BD240123D0E07B681B680021184605
:1012D40002F07EF90023FB734AE0FA7B7968134637
:1012E400DB0013449B000B443D3301221A70FA7B4C
:1012F40079681346DB0013449B000B443C33FA7BB0
:101304001A70FA7BFB7B98B279681346DB001344AE
:101314009B000B44563302461A80FA7B79681346C5
:10132400DB0013449B000B44403300221A70FA7B09
:1013340079681346DB0013449B000B4444330022BA
:101344001A60FA7B79681346DB0013449B000B4454
:10135400483300221A60FA7B79681346DB00134491
:101364009B000B444C3300221A60FB7B0133FB735C
:10137400FA7B7B685B689A42AFD30023FB7344E03B
:10138400FA7B79681346DB0013449B000B4403F299
:101394007D2300221A70FA7B79681346DB0013441C
:1013A4009B000B4403F51F73FA7B1A70FA7B796870
:1013B4001346DB0013449B000B4403F52073002207
:1013C4001A70FA7B79681346DB0013449B000B44C4
:1013D40003F5217300221A60FA7B79681346DB0057
:1013E40013449B000B4403F5227300221A60FA7B1A
:1013F40079681346DB0013449B000B4403F5237305
:1014040000221A60FB7B0133FB73FA7B7B685B6809
:101414009A42B5D37B681B683B607E686D4606F1D3
:1014240010040FCC0FC50FCC0FC594E8030085E85A
:101434000300331D0ECB386802F016F90346002B67
:1014440005D07B68022283F8BD2401230DE07B686C
:10145400002283F838207B68012283F8BD247B684E
:101464001B68184603F048F9002318461437BD4694
:10147400F0BD80B582B000AF78607B6893F8BC346F
:10148400012B01D1022312E07B68012283F8BC24E2
:101494007B681B68184602F07BF87B681B6818465B
:1014A40003F00AF97B68002283F8BC240023184661
:1014B4000837BD4680BD90B58DB000AF78607B68BD
:1014C4001B683B623B6AFB617B681B68184603F040
:1014D400C1F90346002B40F07C847B681B681846E6
:1014E40003F02AF90346002B00F07284FB6903F52C
:1014F40000639B681B0AC3F30D027B68C3F8FC24DA
:101504007B681B68184603F017F9034603F00203CF
:10151400022B07D17B681B685A697B681B6802F041
:1015240002025A617B681B68184603F005F90346FA
:1015340003F01003102B61D17B681B689A697B68E8
:101544001B6822F010029A613B6A1B6ABB61BB698B
:1015540003F00F021346DB0013449B0003F51E73D4
:101564007A68134404337B61BB695B0C03F00F039B
:10157400022B24D1BA6947F6F0731340002B35D0FF
:101584007B69D968BB691B099BB2C3F30A039BB28D
:101594001A46386A02F042FF7B69DA68BB691B09A4
:1015A400C3F30A031A447B69DA607B695A69BB692D
:1015B4001B09C3F30A031A447B695A6116E0BB6929
:1015C4005B0C03F00F03062B10D17B6803F2C443BA
:1015D40008221946386A02F021FF7B695A69BB69FF
:1015E4001B09C3F30A031A447B695A617B681B68AD
:1015F4009A697B681B6842F010029A617B681B68D9
:10160400184603F099F8034603F40023B3F5002FBA
:1016140040F0A78000237B627B681B68184603F0B8
:101624009DF8B86299E0BB6A03F00103002B00F057
:101634008E807B681B687A6AD2B21146184603F022
:10164400BFF838613B6903F00103002B0CD07B6ABF
:101654005A01FB69134403F530631A46012393606E
:10166400796A786800F096FE3B6903F00803002B62
:101674000CD07B6A5A01FB69134403F530631A46A4
:1016840008239360796A786800F06CFF3B6903F083
:101694001003002B08D07B6A5A01FB69134403F53D
:1016A40030631A46102393603B6903F00203002B56
:1016B40030D03B6A5B6903F08003802B09D1FB695E
:1016C40003F500635B68FA6902F5006243F4806322
:1016D40053607A6A1346DB0013449B0003F51E73C0
:1016E4007A68134404337B617B69DB78012B08D16E
:1016F4007B690022DA707B6ADBB21946786805F0F0
:101704001DF87B6A5A01FB69134403F530631A46DA
:10171400022393603B6903F02003002B08D07B6A0B
:101724005A01FB69134403F530631A46202393607E
:101734003B6903F40053002B09D07B6A5A01FB690F
:10174400134403F530631A464FF4005393607B6AE5
:1017540001337B62BB6A5B08BB62BB6A002B7FF40C
:1017640062AF7B681B68184602F0E6FF034603F489
:101774008023B3F5802F40F0DB807B681B6818461C
:1017840003F005F8B86200237B62CDE0BB6A03F086
:101794000103002B00F0C2807B681B687A6AD2B216
:1017A4001146184603F029F838613B6903F0010338
:1017B400002B57D07B6A03F00F03012202FA03F3D4
:1017C400FB60FB6903F500635A6BFB68DB43F96953
:1017D40001F5006113404B637B6A5A01FB691344B2
:1017E40003F510631A46012393607B68DB68012BC1
:1017F40032D179687A6A1346DB0013449B000B44A8
:101804004833196878687A6A1346DB0013449B00EE
:10181400034444331B68194478687A6A1346DB002E
:1018240013449B000344483319607B6A002B13D193
:1018340079687A6A1346DB0013449B000B444C33EB
:101844001B68002B08D17B6818687B6803F2C443CB
:101854001A46012103F02EF87B6ADBB21946786838
:1018640004F0E7FE3B6903F00803002B08D07B6A11
:101874005A01FB69134403F510631A460823936065
:101884003B6903F01003002B08D07B6A5A01FB6903
:10189400134403F510631A46102393603B6903F065
:1018A4004003002B08D07B6A5A01FB69134403F5FB
:1018B40010631A46402393603B6903F00203002B34
:1018C40023D0796A386A02F029F87A6A1346DB0071
:1018D40013449B0038337A68134404337B617B6977
:1018E400DB78012B08D17B690022DA707B6ADBB2DA
:1018F4001946786804F034FF7B6A5A01FB69134483
:1019040003F510631A46022393603B6903F08003D6
:10191400002B03D0796A786800F0AEFC7B6A01334F
:101924007B62BB6A5B08BB62BB6A002B7FF42EAF91
:101934007B681B68184602F0FFFE034603F0004371
:10194400B3F1004F14D1FB6903F500635B68FA69D6
:1019540002F5006223F001035360786804F0E0FEAE
:101964007B681B685A697B681B6802F000425A61F5
:101974007B681B68184602F0DFFE034603F400632D
:10198400B3F5006F12D1FB6903F500639B6803F0A4
:101994000103012B02D1786804F09CFE7B681B686C
:1019A4005A697B681B6802F400625A617B681B6891
:1019B400184602F0C1FE034603F48053B3F5805F7A
:1019C40040F0B780FB6903F500635B68FA6902F5D0
:1019D400006223F0010353607B681B6810211846E2
:1019E40001F09CFF0023FB6246E0FB6A5A01FB699D
:1019F400134403F510631A464FF67F339360FB6A72
:101A04005A01FB69134403F510631B68FA6A510118
:101A1400FA690A4402F5106223F400131360FB6AA6
:101A24005A01FB69134403F530631A464FF67F33BA
:101A34009360FB6A5A01FB69134403F530631B6826
:101A4400FA6A5101FA690A4402F5306223F4001378
:101A54001360FB6A5A01FB69134403F530631B6886
:101A6400FA6A5101FA690A4402F5306243F00063EC
:101A74001360FB6A0133FB627B685B68FA6A9A4213
:101A8400B3D3FB6903F50063DB69FA6902F500620D
:101A940043F00113D3617B681B6B002B16D0FB69E9
:101AA40003F50063D3F88430FA6902F5006243F069
:101AB4000B03C2F88430FB6903F500635B6CFA69BD
:101AC40002F5006243F00B03536415E0FB6903F570
:101AD40000635B69FA6902F5006243F4005343F062
:101AE4002B035361FB6903F500631B69FA6902F573
:101AF400006243F00B031361FB6903F500631B6889
:101B0400FA6902F5006223F4FE6313607B681868C7
:101B14007B68DB68D9B27B6803F2C4431A4602F0DF
:101B2400C9FE7B681B685A697B681B6802F4805293
:101B34005A617B681B68184602F0FEFD034603F4F5
:101B44000053B3F5005F24D17B681B68184602F08C
:101B54008EFE7B681B68184601F05CFF03461A463C
:101B64007B681A617B681C6801F09EF901467B68FA
:101B74001B69DBB21A46204601F068FC786804F061
:101B840080FD7B681B685A697B681B6802F40052FD
:101B94005A617B681B68184602F0CEFD034603F0C9
:101BA4000803082B0AD1786804F05DFD7B681B6884
:101BB4005A697B681B6802F008025A617B681B68DB
:101BC400184602F0B9FD034603F08003802B22D1AE
:101BD4003B6A9B6923F080023B6A9A6101237B6222
:101BE40014E079687A6A1346DB0013449B000B44C3
:101BF40003F27F231B78012B05D17B6ADBB21946E4
:101C0400786800F008FB7B6A01337B627B685B6861
:101C14007A6A9A42E5D37B681B68184602F08CFD09
:101C2400034603F48013B3F5801F3BD101237B6289
:101C34002BE07B6A5A01FB69134403F510631B68AC
:101C4400BB6179687A6A1346DB0013449B000B443A
:101C540040331B78012B15D1BB69002B12DA79684C
:101C64007A6A1346DB0013449B000B443F33012282
:101C74001A707B6ADBB263F07F03DBB219467868C3
:101C840000F0C9FA7B6A01337B627B685B687A6A1D
:101C94009A42CED37B681B685A697B681B6802F43E
:101CA40080125A617B681B68184602F045FD0346A2
:101CB40003F40013B3F5001F55D101237B6245E003
:101CC4007B6A5A01FB69134403F530631B68BB61EB
:101CD40079687A6A1346DB0013449B000B4403F5CE
:101CE40020731B78012B2ED1BB69002B2BDABB6927
:101CF40003F480327B68D3F8FC3403F001039A4286
:101D040021D179687A6A1346DB0013449B000B44A3
:101D140003F27F2301221A703B6A9B6943F080021D
:101D24003B6A9A613B6A5B6903F08003002B0AD12A
:101D3400FB6903F500635B68FA6902F5006243F42A
:101D44000073536007E07B6A01337B627B685B68E6
:101D54007A6A9A42B4D37B681B685A697B681B68A9
:101D640002F400125A617B681B68184602F0E4FC16
:101D7400034603F08043B3F1804F0AD1786804F03E
:101D840001FD7B681B685A697B681B6802F080420E
:101D94005A617B681B68184602F0CEFC034603F0C8
:101DA4000403042B15D17B681B685B68BB61BB69AA
:101DB40003F00403002B02D0786804F0F1FC7B6884
:101DC4001B6859687B681B68BA690A435A6000E05B
:101DD40000BF3437BD4690BD80B582B000AF786097
:101DE4000B46FB707B6893F8BC34012B01D10223B2
:101DF40013E07B68012283F8BC247B68FA7883F8BB
:101E040038207B681B68FA781146184602F02FFCCC
:101E14007B68002283F8BC24002318460837BD469B
:101E240080BD80B584B000AF7860084611461A467C
:101E34000346FB700B463B801346BB700023FB72CA
:101E440097F90330002B0FDAFB7803F00F021346E7
:101E5400DB0013449B0038337A6813440433FB607B
:101E6400FB6801225A700FE0FB7803F00F0213465F
:101E7400DB0013449B0003F51E737A681344043398
:101E8400FB60FB6800225A70FB7803F00F03DAB2A0
:101E9400FB681A703A88FB689A60FB68BA781A7112
:101EA400FB685B78002B04D0FB681B789AB2FB6854
:101EB4005A83BB78022B02D1FB6800225A717B68DB
:101EC40093F8BC34012B01D102230EE07B6801227C
:101ED40083F8BC247B681B68F968184601F0BEFDD2
:101EE4007B68002283F8BC24FB7A18461037BD4671
:101EF40080BD80B584B000AF78600B46FB7097F965
:101F04000330002B0FDAFB7803F00F021346DB00DB
:101F140013449B0038337A6813440433FB60FB6832
:101F240001225A700FE0FB7803F00F021346DB0026
:101F340013449B0003F51E737A6813440433FB6057
:101F4400FB6800225A70FB7803F00F03DAB2FB68D7
:101F54001A707B6893F8BC34012B01D102230EE084
:101F64007B68012283F8BC247B681B68F9681846E7
:101F740001F0FAFD7B68002283F8BC240023184694
:101F84001037BD4680BD80B586B000AFF8607A607A
:101F94003B600B46FB72FB7A03F00F021346DB0037
:101FA40013449B0003F51E73FA68134404337B61E6
:101FB4007B697A68DA607B693A681A617B69002216
:101FC4005A617B6900225A70FB7A03F00F03DAB27C
:101FD4007B691A70FB68DB68012B02D17A687B6924
:101FE400DA61FB681868FB68DB68DBB21A4679695A
:101FF40001F096FE002318461837BD4680BD80B414
:1020040083B000AF78600B46FB70FB7803F00F02DF
:1020140079681346DB0013449B000B4403F52473D7
:102024001B6818460C37BD4680BC704780B586B027
:1020340000AFF8607A603B600B46FB72FB7A03F0FA
:102044000F021346DB0013449B003833FA68134431
:1020540004337B617B697A68DA607B693A681A6168
:102064007B6900225A617B6901225A70FB7A03F072
:102074000F03DAB27B691A70FB68DB68012B02D1AB
:102084007A687B69DA61FB681868FB68DB68DBB235
:102094001A46796901F044FE002318461837BD46F4
:1020A40080BD80B584B000AF78600B46FB70FB78D0
:1020B40003F00F027B685B689A4201D9012350E068
:1020C40097F90330002B0FDAFB7803F00F02134665
:1020D400DB0013449B0038337A6813440433FB60F9
:1020E400FB6801225A700DE0FA781346DB001344B2
:1020F4009B0003F51E737A6813440433FB60FB688A
:1021040000225A70FB6801229A70FB7803F00F03D7
:10211400DAB2FB681A707B6893F8BC34012B01D1E6
:1021240002231EE07B68012283F8BC247B681B68C1
:10213400F968184602F0C9F9FB7803F00F03002B85
:102144000AD17B6818687B68DB68D9B27B6803F2C4
:10215400C4431A4602F0AEFB7B68002283F8BC2419
:10216400002318461037BD4680BD80B584B000AF4B
:1021740078600B46FB70FB7803F00F027B685B68AA
:102184009A4201D9012342E097F90330002B0FDA78
:10219400FB7803F00F021346DB0013449B00383333
:1021A4007A6813440433FB60FB6801225A700FE021
:1021B400FB7803F00F021346DB0013449B0003F586
:1021C4001E737A6813440433FB60FB6800225A7060
:1021D400FB6800229A70FB7803F00F03DAB2FB6805
:1021E4001A707B6893F8BC34012B01D102230EE0F2
:1021F4007B68012283F8BC247B681B68F968184655
:1022040002F0D0F97B68002283F8BC24002318462E
:102214001037BD4680BD80B584B000AF78600B46F2
:10222400FB7097F90330002B0CDAFB7803F00F02F4
:102234001346DB0013449B0038337A681344043399
:10224400FB600CE0FB7803F00F021346DB00134441
:102254009B0003F51E737A6813440433FB607B68A8
:102264001B68F968184601F0F3FF0346FB72FB7A1A
:1022740018461037BD4680BD80B58AB002AF78607D
:1022840039607B681B687B617B693B613A681346F4
:10229400DB0013449B0038337A6813440433FB6037
:1022A400FB685A69FB681B699A4201D901236CE0F7
:1022B400FB681A69FB685B69D31AFB61FB689B685E
:1022C400FA699A4202D9FB689B68FB61FB69033394
:1022D4009B08BB612BE0FB681A69FB685B69D31A36
:1022E400FB61FB689B68FA699A4202D9FB689B68A8
:1022F400FB61FB6903339B08BB61FB68D9683B68DE
:10230400DAB2FB6998B27B68DB68DBB20093034600
:10231400786902F046F8FB68DA68FB691A44FB68DE
:10232400DA60FB685A69FB691A44FB685A613B68C6
:102334005A013B69134403F510639B699BB2BA6964
:102344009A4209D8FB685A69FB681B699A4203D20E
:10235400FB681B69002BBED1FB681A69FB685B69CB
:102364009A4211D83B6803F00F03012202FA03F3E7
:10237400BB603B6903F500635A6BBB68DB43396997
:1023840001F5006113404B63002318462037BD4616
:1023940080BD000080B588B000AF786039607B688C
:1023A4001B68FB61FB69BB61FB693C3304331B683D
:1023B4007B613B685A01BB69134403F530639B6836
:1023C4003B617B68DB68012B7BD13B6903F008032D
:1023D400002B15D07B69614A934240F2B9803B6976
:1023E40003F40043002B00F0B3803B685A01BB693F
:1023F400134403F530631A464FF400439360A7E097
:102404003B6903F02003002B09D03B685A01BB69E8
:10241400134403F530631A462023936098E03B6924
:1024240003F02803002B40F093807B694B4A9342CE
:102434000FD93B6903F40043002B0AD03B685A01CF
:10244400BB69134403F530631A464FF400439360A9
:102454007EE03A681346DB0013449B0003F51E73C9
:102464007A6813440433FB60FB681A6A3B685901B9
:10247400BB690B4403F530631B69C3F31203D21A1F
:10248400FB685A613B68002B14D1FB681B69002B65
:1024940009D17B6818687B6803F2C4431A4601219A
:1024A40002F008FA06E0FB68DA68FB685B691A4424
:1024B400FB68DA603B68DBB21946786804F09EF882
:1024C40046E07B69264A934224D13B6903F40043E6
:1024D400002B0AD03B685A01BB69134403F53063EF
:1024E4001A464FF40043936032E03B6903F0200343
:1024F400002B08D03B685A01BB69134403F53063D1
:102504001A46202393603B68DBB21946786804F0CE
:1025140075F81DE03B68002B14D179683A681346BE
:10252400DB0013449B000B4403F523731B68002B4F
:1025340008D17B6818687B6803F2C4431A460021FB
:1025440002F0B8F93B68DBB21946786804F056F833
:10255400002318462037BD4680BD00BF0A30544FC3
:102564000A31544F80B586B000AF786039607B681B
:102574001B687B617B693B617B693C3304331B686B
:10258400FB603B685A013B69134403F530639B6865
:10259400BB60FB68154A93420ED9BB6803F4004341
:1025A400002B09D03B685A013B69134403F530639F
:1025B4001A464FF400439360786804F00DF8FB6802
:1025C4000A4A93420CD97B68DB68012B08D17B68EB
:1025D40018687B6803F2C4431A46012102F06AF9C1
:1025E400002318461837BD4680BD00BF0A30544F3B
:1025F40080B485B000AF78600B46FB7013463B8017
:102604007B681B685B6ABB60FB78002B07D13B8847
:1026140019047B681B68BA680A439A6228E07B68DD
:102624001B689B6A1B0CBA681344BB600023FB73D2
:102634000DE07B681A68FB7B40339B0013445B68A6
:102644001B0CBA681344BB60FB7B0133FB73FA7B3E
:10265400FB78013B9A42ECD33B8818047B681968E9
:10266400FB78013BBA68024340339B000B445A6039
:10267400002318461437BD4680BC704780B483B02D
:1026840000AF78600B467B807B681B687A885A624F
:10269400002318460C37BD4680BC704780B58AB00D
:1026A40000AF78607B68002B01D101233BE27B689B
:1026B4001B6803F00103002B50D09E4B9B6803F072
:1026C4000C03042B0CD09B4B9B6803F00C03082BCE
:1026D40012D1984B5B6803F48003B3F5800F0BD1E0
:1026E400944B1B6803F40033002B36D07B685B6883
:1026F400002B32D1012316E27B685A688E4BD2B28A
:102704001A707B685B68002B13D0FEF75BFA3862A3
:1027140008E0FEF757FA02463B6AD31A642B01D944
:10272400032300E2834B1B6803F40033002BF0D037
:1027340014E0FEF747FA386208E0FEF743FA02466F
:102744003B6AD31A642B01D90323ECE1794B1B6850
:1027540003F40033002BF0D100E000BF7B681B685A
:1027640003F00203002B77D0724B9B6803F00C0339
:10277400002B0BD06F4B9B6803F00C03082B26D166
:102784006C4B5B6803F48003002B20D1694B1B68FE
:1027940003F00203002B05D07B68DB68012B01D01A
:1027A4000123C0E1634B1B6823F0F8027B681B69BB
:1027B400F821B961B96991FAA1F179617969B1FA3C
:1027C40081F1C9B28B405B4913430B6044E07B68E1
:1027D400DB68002B2AD0594B01221A60FEF7F2F96C
:1027E400386208E0FEF7EEF902463B6AD31A022B80
:1027F40001D9032397E14F4B1B6803F00203002B1D
:10280400F0D04C4B1B6823F0F8027B681B69F8215D
:102814003961396991FAA1F1F960F968B1FA81F184
:10282400C9B28B40434913430B6015E0434B00226C
:102834001A60FEF7C7F9386208E0FEF7C3F90246EA
:102844003B6AD31A022B01D903236CE1394B1B6871
:1028540003F00203002BF0D17B681B6803F008032C
:10286400002B30D07B685B69002B16D0344B0122DF
:102874001A60FEF7A7F9386208E0FEF7A3F90246EA
:102884003B6AD31A022B01D903234CE1294B5B6F1A
:1028940003F00203002BF0D015E0294B00221A604C
:1028A400FEF790F9386208E0FEF78CF902463B6ABD
:1028B400D31A022B01D9032335E11E4B5B6F03F0BE
:1028C4000203002BF0D17B681B6803F00403002B88
:1028D40000F08780002387F82730164B1B6C03F029
:1028E4008053002B10D10023BB60124B1B6C114A88
:1028F40043F0805313640F4B1B6C03F08053BB6095
:10290400BB68012387F827300E4B1B680D4A43F43C
:10291400807313600B4B1B6803F48073002B22D16C
:10292400084B1B68074A43F480731360FEF74AF9A7
:10293400386212E000380240023802400000474288
:10294400800E474200700040FEF73CF902463B6AA5
:10295400D31A022B01D90323E5E0754B1B6803F45A
:102964008073002BF0D07B689A68724BD2B21A70D5
:102974007B689B68002B15D0FEF724F938620AE0C7
:10298400FEF720F902463B6AD31A41F28832934299
:1029940001D90323C7E0684B1B6F03F00203002B2C
:1029A400EED014E0FEF70EF938620AE0FEF70AF9F9
:1029B40002463B6AD31A41F28832934201D9032377
:1029C400B1E05D4B1B6F03F00203002BEED197F8CF
:1029D4002730012B05D1584B1B6C574A23F08053E9
:1029E40013647B689B69002B00F09C80524B9B68AE
:1029F40003F00C03082B61D07B689B69022B46D142
:102A04004E4B00221A60FEF7DDF8386208E0FEF74C
:102A1400D9F802463B6AD31A642B01D9032382E016
:102A2400454B1B6803F00073002BF0D1424B5A68EE
:102A3400434B13407A68D1697A68126A11437A6801
:102A4400526A920111437A68D26A120611437A6873
:102A5400926A5208013A12040A43374913434B60FD
:102A6400364B01221A60FEF7ADF8386208E0FEF733
:102A7400A9F802463B6AD31A642B01D9032352E016
:102A84002D4B1B6803F00073002BF0D04AE02B4B56
:102A940000221A60FEF796F8386208E0FEF792F812
:102AA40002463B6AD31A642B01D903233BE0224B31
:102AB4001B6803F00073002BF0D133E07B689B6943
:102AC400012B01D101232EE01B4B5B68FB61FB69E9
:102AD40003F480027B68DB699A4221D1FB6903F02D
:102AE4003F027B681B6A9A421AD1FA6947F6C0739F
:102AF40013407A68526A9201934211D1FB6903F43C
:102B040040327B689B6A5B08013B1B049A4207D1F5
:102B1400FB6903F070627B68DB6A1B069A4201D092
:102B2400012300E0002318462837BD4680BD00BFBE
:102B34000070004070380240003802406000474294
:102B44000080BCF080B586B000AF786039607B68E7
:102B5400002B01D10123D2E06B4B1B6803F00F0360
:102B64003A689A420CD9684B3A68D2B21A70664BEA
:102B74001B6803F00F033A689A4201D00123BEE0B8
:102B84007B681B6803F00203002B20D07B681B6862
:102B940003F00403002B05D05C4B9B685B4A43F4B1
:102BA400E05393607B681B6803F00803002B05D097
:102BB400564B9B68554A43F460439360534B9B6860
:102BC40023F0F0027B689B68504913438B607B6859
:102BD4001B6803F00103002B40D07B685B68012B6A
:102BE40007D14A4B1B6803F40033002B15D1012392
:102BF40085E07B685B68022B07D1444B1B6803F0BC
:102C04000073002B09D1012379E0404B1B6803F0CA
:102C14000203002B01D1012371E03C4B9B6823F09C
:102C240003027B685B68394913438B60FDF7CAFF75
:102C340078610AE0FDF7C6FF02467B69D31A41F2C8
:102C44008832934201D9032359E0304B9B6803F047
:102C54000C027B685B689B009A42EBD12A4B1B6891
:102C640003F00F033A689A420CD2274B3A68D2B267
:102C74001A70254B1B6803F00F033A689A4201D07F
:102C840001233CE07B681B6803F00403002B08D09D
:102C94001E4B9B6823F4E0527B68DB681B4913439B
:102CA4008B607B681B6803F00803002B09D0174B6B
:102CB4009B6823F460427B681B69DB001349134360
:102CC4008B6000F02BF80146104B9B6803F0F00377
:102CD400F0223A613A6992FAA2F2FA60FA68B2FA18
:102CE40082F2D2B2D3400A4AD35C21FA03F3094AEE
:102CF4001360094B1B681846FDF722FF0023184692
:102D04001837BD4680BD00BF003C02400038024079
:102D14001C75000800000020040000202DE9B04FBD
:102D240090B000AF00237B630023FB6300233B636D
:102D34000023BB63594B9B6803F00C03082B0DD095
:102D4400082B00F2A280002B02D0042B03D09CE0BD
:102D5400534BBB639CE0534BBB6399E04F4B5B68A5
:102D640003F03F037B634D4B5B6803F48003002B4C
:102D740027D04A4B5B689B0900223B627A623B6A1C
:102D8400C3F308000021474B03FB01F2002300FBBF
:102D940003F31344434AA0FB0221F962BA62FA6ABC
:102DA4001344FB627B6B0022BB61FA61D7E9062303
:102DB400D7E90A01FDF704FA02460B461346FB6302
:102DC40055E0364B5B689B0900223B617A613B69A5
:102DD400C3F3080A4FF0000B52465B464FF0000065
:102DE4004FF00001590141EAD261500102460B46FD
:102DF400B2EB0A0863EB0B094FF000024FF000033B
:102E04004FEA891343EA98634FEA8812B2EB080445
:102E140063EB09054FF000024FF00003EB0043EAB7
:102E24005473E20014461D4614EB0A033B6045EB61
:102E34000B037B604FF000024FF00003D7E900451D
:102E440029468B0220462946044643EA9453014608
:102E54008A02104619467B6B0022BB60FA60D7E9F0
:102E64000223FDF7ADF902460B461346FB630B4BF9
:102E74005B681B0C03F0030301335B003B63FA6BD9
:102E84003B6BB2FBF3F3BB6302E0054BBB6300BFD8
:102E9400BB6B18464037BD46BDE8B08F00380240D2
:102EA4000024F40040787D0180B400AF024B1B681D
:102EB4001846BD4680BC70470000002080B582B033
:102EC40000AFFFF7F1FF01460B4B9B6803F4E0539F
:102ED4004FF4E0527A607A6892FAA2F23A603A6861
:102EE400B2FA82F2D2B2D340044AD35C21FA03F399
:102EF40018460837BD4680BD003802402C750008CE
:102F040080B582B000AFFFF7CFFF01460B4B9B6843
:102F140003F460434FF460427A607A6892FAA2F252
:102F24003A603A68B2FA82F2D2B2D340044AD35C2D
:102F340021FA03F318460837BD4680BD0038024025
:102F44002C75000880B582B000AF78607B68002BD8
:102F540001D1012342E07B6893F84130DBB2002BBE
:102F640006D17B68002283F840207868FDF756FC80
:102F74007B68242283F841207B681B68DA687B68BD
:102F84001B6822F40052DA60786800F01DF97B684F
:102F94001B681A697B681B6822F490421A617B687B
:102FA4001B685A697B681B6822F02A025A617B6895
:102FB4001B68DA687B681B6842F40052DA607B683D
:102FC40000225A647B68202283F841207B682022F7
:102FD40083F842207B6800225A630023184608378E
:102FE400BD4680BD80B58AB002AFF860B9603B6071
:102FF4001346FB8000237B61FB6893F84130DBB20E
:10300400202B6DD1BB68002B02D0FB88002B01D193
:10301400012366E0FB6800225A64FB68212283F8DE
:103024004120FDF7CFFD7861FB68FA889A84FB683C
:10303400FA88DA84FB689B68B3F5805F08D1FB6883
:103044001B69002B04D10023FB61BB68BB6103E057
:10305400BB68FB610023BB612AE03B6800937B698A
:1030640000228021F86800F040F80346002B01D0CC
:10307400032336E0FB69002B0BD1BB691B881A467E
:10308400FB681B68C2F308025A60BB690233BB6168
:1030940007E0FB691A78FB681B685A60FB69013317
:1030A400FB61FB68DB8C9BB2013B9AB2FB68DA8460
:1030B400FB68DB8C9BB2002BCFD13B6800937B6910
:1030C40000224021F86800F010F80346002B01D0DC
:1030D400032306E0FB68202283F84120002300E05C
:1030E400022318462037BD4680BD80B590B000AF9E
:1030F400F860B9603B601346FB7150E0BB6CB3F100
:10310400FF3F4CD0BB6C002B07D0FDF75BFD0246A4
:103114003B68D31ABA6C9A4241D2FB681B680C33E1
:10312400BB62BB6A53E8003F7B627B6A23F4D073C3
:10313400FB63FB681B680C33FA6B7A633B63396B84
:103144007A6B41E80023FB62FB6A002BE5D1FB6844
:103154001B6814337B617B6953E8003F3B613B6927
:1031640023F00103BB63FB681B681433BA6B3A6238
:10317400FB61F9693A6A41E80023BB61BB69002B32
:10318400E5D1FB68202283F84120FB68202283F8E4
:103194004220FB68002283F8402003230FE0FB68F1
:1031A4001B681A68BB681340BA689A420CBF0123B3
:1031B4000023DBB21A46FB799A429FD000231846BB
:1031C4004037BD4680BD000080B584B000AF786054
:1031D4007B681B681B6923F440517B68DA687B6851
:1031E4001B680A431A617B689A687B681B691A43E7
:1031F4007B685B691A437B68DB691343BB607B684C
:103204001B68DB6823F4164323F00C037A68126806
:10321400B9680B43D3607B681B685B6923F4407116
:103224007B689A697B681B680A435A617B681B68E0
:10323400574A934204D07B681B68564A934203D191
:10324400FFF75EFEF86002E0FFF738FEF8607B6887
:10325400DB69B3F5004F4CD1FA6813469B00134465
:103264009A001A447B685B685B00B2FBF3F34A4A3A
:10327400A2FB03235B091901FA6813469B0013445C
:103284009A001A447B685B685B00B2FBF3F2424B22
:10329400A3FB02035B09642000FB03F3D31ADB00E6
:1032A40032333D4AA2FB03235B095B0003F4F8734A
:1032B4001944FA6813469B0013449A001A447B6825
:1032C4005B685B00B2FBF3F2334BA3FB02035B09C5
:1032D400642000FB03F3D31ADB0032332E4AA2FB33
:1032E40003235B0903F007027B681B680A449A60A6
:1032F4004AE0FA6813469B0013449A001A447B6818
:103304005B689B00B2FBF3F3234AA2FB03235B0934
:103314001901FA6813469B0013449A001A447B6807
:103324005B689B00B2FBF3F21B4BA3FB02035B093C
:10333400642000FB03F3D31A1B013233164AA2FBA9
:1033440003235B0903F0F0031944FA6813469B0056
:1033540013449A001A447B685B689B00B2FBF3F247
:103364000D4BA3FB02035B09642000FB03F3D31A98
:103374001B013233084AA2FB03235B0903F00F024B
:103384007B681B680A449A6000BF1037BD4680BD45
:1033940000100140001401401F85EB5184B080B53A
:1033A40084B000AF786007F11C0080E80E003B6B2E
:1033B400012B22D17B689B6B23F480327B689A6358
:1033C4007B68DB6823F4840323F040037A68D360CA
:1033D4007B68DB6823F440127B68DA60FB6C012BAA
:1033E40005D17B68DB6843F480127B68DA60786817
:1033F40001F0BCFA0346FB7310E07B68DB6843F022
:1034040040027B68DA60786801F0B0FA0346FB7327
:103414007B689B6B43F480327B689A637B6A012BE5
:103424000BD17B689B6843F006027B689A607B68DB
:103434009B6843F020027B689A60FB7B1846103738
:10344400BD46BDE8804004B07047000080B487B03A
:1034540000AFF860B9601346FB71FB79022B65D1AC
:10346400BB68414A934206D9BB68404A934202D2A0
:103474000F237B6162E0BB683C4A934206D3BB687E
:103484003B4A934202D20E237B6157E0BB68384A21
:10349400934206D3BB68374A934202D20D237B6121
:1034A4004CE0BB68334A934206D3BB68324A93422A
:1034B40002D80C237B6141E0BB682F4A934206D9B2
:1034C400BB682E4A934202D80B237B6136E0BB686B
:1034D4002A4A934206D9BB68294A934202D80A234E
:1034E4007B612BE0BB68264A934206D9BB68254A18
:1034F400934202D209237B6120E0BB68214A9342B4
:1035040006D3BB68204A934202D808237B6115E0A6
:10351400BB681D4A934206D9BB681C4A934202D237
:1035240007237B610AE006237B6107E0FB79002B1C
:1035340002D109237B6101E009237B61FB68DB681D
:1035440023F47052FB68DA60FB68DA687B699B02DB
:1035540003F470531A43FB68DA60002318461C37DF
:10356400BD4680BC704700BFBFACD800C0E1E400DA
:103574000024F400807306019F491A01FF2C3101D5
:103584003FA44C0100366E011FABA6010048E801C0
:1035940080B483B000AF78607B689B6843F001021D
:1035A4007B689A60002318460C37BD4680BC704780
:1035B40080B483B000AF78607B689B6823F001021D
:1035C4007B689A60002318460C37BD4680BC704760
:1035D40080B584B000AF78600B46FB700023FB60BD
:1035E4007B68DB6823F0C0427B68DA60FB78012BE0
:1035F40015D17B68DB6843F000527B68DA600120F8
:10360400FDF7EAFAFB680133FB60786801F022F900
:103614000346012B1ED0FB68312BF0D91AE0FB784E
:10362400002B15D17B68DB6843F080427B68DA604D
:103634000120FDF7D1FAFB680133FB60786801F0E3
:1036440009F90346002B05D0FB68312BF0D901E0C2
:10365400012305E0FB68322B01D1012300E00023A4
:1036640018461037BD4680BD84B080B586B000AF23
:10367400786007F1240080E80E000023FB757B6866
:10368400FB6000233B6109E07A683B6940339B009F
:10369400134400225A603B6901333B613B690E2BA2
:1036A400F2D9FB6C002B1CD1FB6803F500635B684B
:1036B400FA6802F5006243F0020353607B689B6B77
:1036C40043F400127B689A637B689B6B23F40022AB
:1036D4007B689A637B689B6B23F480227B689A6384
:1036E4000BE07B689B6B23F400127B689A637B6816
:1036F4009B6B43F400227B689A63FB6803F5606369
:103704001A4600231360BB6B012B0CD13B6B002BBF
:1037140004D10021786800F065F908E00121786897
:1037240000F060F903E00321786800F05BF91021F0
:10373400786800F0F3F80346002B01D00123FB75F1
:10374400786800F01FF90346002B01D00123FB75B4
:10375400FB6803F500631A4600231361FB6803F555
:1037640000631A4600235361FB6803F500631A469D
:103774000023D36100233B6143E03B695A01FB68AA
:10378400134403F510631B6803F00043B3F1004FC7
:1037940018D13B69002B0AD13B695A01FB681344D9
:1037A40003F510631A464FF00063136013E03B699E
:1037B4005A01FB68134403F510631A464FF0904313
:1037C400136008E03B695A01FB68134403F5106376
:1037D4001A46002313603B695A01FB68134403F53E
:1037E40010631A46002313613B695A01FB681344B2
:1037F40003F510631A464FF67F3393603B69013338
:103804003B617B6A3A699A42B7D300233B6143E048
:103814003B695A01FB68134403F530631B6803F0EA
:103824000043B3F1004F18D13B69002B0AD13B6927
:103834005A01FB68134403F530631A464FF00063E2
:10384400136013E03B695A01FB68134403F53063CA
:103854001A464FF09043136008E03B695A01FB6835
:10386400134403F530631A46002313603B695A017D
:10387400FB68134403F530631A46002313613B6964
:103884005A01FB68134403F530631A464FF67F333D
:1038940093603B6901333B617B6A3A699A42B7D3CF
:1038A400FB6803F500631B69FA6802F5006223F400
:1038B400807313617B6800229A617B686FF0804299
:1038C4005A61FB6A002B05D17B689B6943F01002A7
:1038D4007B689A617B689A690F4B13437A6893619A
:1038E400FB6B002B05D07B689B6943F008027B6867
:1038F4009A61FB6C012B07D17B689B6943F0804381
:1039040043F004037A689361FB7D18461837BD467B
:10391400BDE8804004B0704700383C8080B485B076
:1039240000AF786039600023FB60FB680133FB6003
:10393400FB68134A934201D903231BE07B681B698C
:10394400002BF2DA0023FB603B689B0143F020026A
:103954007B681A61FB680133FB60FB68084A934289
:1039640001D9032306E07B681B6903F02003202BA5
:10397400F0D0002318461437BD4680BC704700BF02
:10398400400D030080B485B000AF78600023FB6075
:10399400FB680133FB60FB68114A934201D903239E
:1039A40018E07B681B69002BF2DA0023FB607B685C
:1039B40010221A61FB680133FB60FB68084A9342DA
:1039C40001D9032306E07B681B6903F01003102B65
:1039D400F0D0002318461437BD4680BC704700BFA2
:1039E400400D030080B485B000AF78600B46FB70D7
:1039F4007B68FB60FB6803F500631A68FB78F96871
:103A040001F5006113430B60002318461437BD46CB
:103A140080BC704780B487B000AF78607B683B613E
:103A24003B6903F500639B6803F00603FB60FB68D6
:103A3400002B02D10023FB750AE0FB68022B02D0A5
:103A4400FB68062B02D10223FB7501E00F23FB75F3
:103A5400FB7D18461C37BD4680BC704780B485B0DA
:103A640000AF786039607B68FB603B681B78BB60A3
:103A74003B685B78012B3AD1FB6803F50063DA6994
:103A84003B681B7803F00F03012101FA03F39BB297
:103A9400F96801F500611343CB61BB685A01FB6807
:103AA400134403F510631B6803F40043002B55D142
:103AB400BB685A01FB68134403F510631A683B683A
:103AC4009B68C3F30A013B681B799B041943BB68D9
:103AD4009B050B431343BA685101FA680A4402F583
:103AE400106243F0805343F40043136036E0FB68F4
:103AF40003F50063DA693B681B7803F00F030121C7
:103B040001FA03F31B04F96801F500611343CB6167
:103B1400BB685A01FB68134403F530631B6803F464
:103B24000043002B1AD1BB685A01FB68134403F508
:103B340030631A683B689B68C3F30A013B681B79CE
:103B44009B040B431343BA685101FA680A4402F513
:103B5400306243F0805343F400431360002318465B
:103B64001437BD4680BC704780B485B000AF786020
:103B740039607B68FB603B681B78BB603B685B78A3
:103B8400012B61D1BB685A01FB68134403F5106330
:103B94001B6803F00043B3F1004F1FD1BB685A0107
:103BA400FB68134403F510631B68BA685101FA6893
:103BB4000A4402F5106243F000631360BB685A01C3
:103BC400FB68134403F510631B68BA685101FA6873
:103BD4000A4402F5106243F080431360FB6803F566
:103BE4000063DA6B3B681B7803F00F03012101FAD1
:103BF40003F39BB2DB43F96801F500611340CB6327
:103C0400FB6803F50063DA693B681B7803F00F0374
:103C1400012101FA03F39BB2DB43F96801F500616A
:103C24001340CB61BB685A01FB68134403F510636E
:103C34001A68BB685901FB680B4403F51063194605
:103C4400354B13400B6060E0BB685A01FB681344BA
:103C540003F530631B6803F00043B3F1004F1FD139
:103C6400BB685A01FB68134403F530631B68BA68E8
:103C74005101FA680A4402F5306243F000631360AC
:103C8400BB685A01FB68134403F530631B68BA68C8
:103C94005101FA680A4402F5306243F0804313602C
:103CA400FB6803F50063DA6B3B681B7803F00F03D2
:103CB400012101FA03F31B04DB43F96801F50061F8
:103CC4001340CB63FB6803F50063DA693B681B7838
:103CD40003F00F03012101FA03F31B04DB43F9682A
:103CE40001F500611340CB61BB685A01FB681344C2
:103CF40003F530631A68BB685901FB680B4403F58C
:103D040030631946054B13400B60002318461437E3
:103D1400BD4680BC704700BF007833EC0078F3EFF9
:103D240080B58AB002AFF860B9601346FB71FB68D6
:103D3400FB61BB681B78BB61BB685B78012B40F0FF
:103D44007A81BB681B69002B32D1BB695A01FB69BC
:103D5400134403F510631B69BA695101FA690A44F3
:103D640002F5106223F0FF5323F4C0131361BB69FF
:103D74005A01FB69134403F510631B69BA695101C5
:103D8400FA690A4402F5106243F400231361BB6923
:103D94005A01FB69134403F510631B69BA695101A5
:103DA400FA690A4402F51062DB0CDB04136192E049
:103DB400BB695A01FB69134403F510631B69BA69B3
:103DC4005101FA690A4402F51062DB0CDB04136149
:103DD400BB695A01FB69134403F510631B69BA6993
:103DE4005101FA690A4402F5106223F0FF5323F4E7
:103DF400C0131361BB69002B1AD1BB681A69BB6875
:103E04009B689A4203D9BB689A68BB681A61BB690C
:103E14005A01FB69134403F510631B69BA69510124
:103E2400FA690A4402F5106243F4002313611BE0AB
:103E3400BB695A01FB69134403F510631A69BB6833
:103E44001969BB689B680B44591EBB689B68B1FB2E
:103E5400F3F3D904A24B0B40B9694801F969014451
:103E640001F5106113430B61BB695A01FB691344EB
:103E740003F510631A69BB681B69C3F31203B969BC
:103E84004801F969014401F5106113430B61BB68F2
:103E94001B79012B1FD1BB695A01FB69134403F53C
:103EA40010631B69BA695101FA690A4402F5106288
:103EB40023F0C0431361BB695A01FB69134403F542
:103EC40010631B69BA695101FA690A4402F5106268
:103ED40043F000531361FB79012B4BD1BB68DB69C1
:103EE400002B09D0BB695A01FB69134403F5106325
:103EF4001A46BB68DB695361BB681B79012B28D167
:103F0400FB6903F500639B6803F48073002B10D1F5
:103F1400BB695A01FB69134403F510631B68BA6952
:103F24005101FA690A4402F5106243F00053136028
:103F34000FE0BB695A01FB69134403F510631B6866
:103F4400BA695101FA690A4402F5106243F08053D8
:103F54001360BB695A01FB69134403F510631B68C2
:103F6400BA695101FA690A4402F5106243F0044344
:103F7400136065E1BB695A01FB69134403F51063DF
:103F84001B68BA695101FA690A4402F5106243F0E8
:103F940004431360BB681B79012B15D0BB681B69F4
:103FA400002B00F04D81FB6903F500635A6BBB687D
:103FB4001B7803F00F03012101FA03F3F96901F5FA
:103FC400006113434B633BE1FB6903F500639B68AA
:103FD40003F48073002B10D1BB695A01FB691344AD
:103FE40003F510631B68BA695101FA690A4402F5C2
:103FF400106243F0005313600FE0BB695A01FB6980
:10400400134403F510631B68BA695101FA690A4441
:1040140002F5106243F080531360BB68D968BB6833
:104024001A78BB681B6998B2FB7900930346F86859
:1040340000F0B7F904E1BB695A01FB69134403F5C5
:1040440030631B69BA695101FA690A4402F53062A6
:10405400DB0CDB041361BB695A01FB69134403F5F0
:1040640030631B69BA695101FA690A4402F5306286
:1040740023F0FF5323F4C0131361BB69002B31D128
:10408400BB681B69002B03D0BB689A68BB681A61C4
:10409400BB689A68BB681A62BB695A01FB6913441E
:1040A40003F530631A69BB681B6AC3F31203B96969
:1040B4004801F969014401F5306113430B61BB699F
:1040C4005A01FB69134403F530631B69BA69510152
:1040D400FA690A4402F5306243F40023136161E093
:1040E4000000F81FBB681B69002B23D1BB695A0170
:1040F400FB69134403F530631A69BB689B68C3F317
:104104001203B9694801F969014401F530611343A7
:104114000B61BB695A01FB69134403F530631B69E6
:10412400BA695101FA690A4402F5306243F4002382
:10413400136137E0BB681A69BB689B6813445A1E55
:10414400BB689B68B2FBF3F3FB82BB689B68FA8A8B
:1041540003FB02F2BB681A62BB695A01FB69134490
:1041640003F530631A69FB8AD904384B0B40B969EB
:104174004801F969014401F5306113430B61BB69DE
:104184005A01FB69134403F530631A69BB681B6A5F
:10419400C3F31203B9694801F969014401F53061B7
:1041A40013430B61FB79012B0DD1BB68DB68002B3A
:1041B40009D0BB68D968BB695A01FB69134403F58C
:1041C40030630A465A61BB681B79012B28D1FB690D
:1041D40003F500639B6803F48073002B10D1BB6963
:1041E4005A01FB69134403F530631B68BA69510132
:1041F400FA690A4402F5306243F0005313600FE099
:10420400BB695A01FB69134403F530631B68BA693F
:104214005101FA690A4402F5306243F08053136095
:10422400BB695A01FB69134403F530631B68BA691F
:104234005101FA690A4402F5306243F00443136001
:10424400002318462037BD4680BD00BF0000F81F7C
:1042540080B487B000AF786039600023FB6000232E
:10426400FB757B683B613B685B78012B4AD13B68FB
:104274001B785A013B69134403F510631B6803F070
:104284000043B3F1004F40F086803B681B785A012D
:104294003B69134403F510631B683A6812785101B3
:1042A4003A690A4402F5106243F0006313603B6804
:1042B4001B785A013B69134403F510631B683A6881
:1042C400127851013A690A4402F5106243F08043BE
:1042D4001360FB680133FB60FB6842F21072934287
:1042E40002D90123FB7556E03B681B785A013B69F0
:1042F400134403F510631B6803F00043B3F1004F4C
:10430400E7D048E03B681B785A013B69134403F546
:1043140030631B6803F00043B3F1004F3BD13B68AB
:104324001B785A013B69134403F530631B683A68F0
:10433400127851013A690A4402F5306243F000638D
:1043440013603B681B785A013B69134403F53063DF
:104354001B683A68127851013A690A4402F53062DE
:1043640043F080431360FB680133FB60FB6842F257
:104374001072934202D90123FB750CE03B681B7851
:104384005A013B69134403F530631B6803F000438F
:10439400B3F1004FE7D0FB7D18461C37BD4680BC07
:1043A400704780B489B000AFF860B96011461A460E
:1043B4000B46FB711346BB80FB687B61BB68FB61EA
:1043C40097F82830002B23D1BB8803339B083B612B
:1043D4000023BB6118E0FB791A037B69134403F5DE
:1043E40080531A46FB691B681360FB690133FB6148
:1043F400FB690133FB61FB690133FB61FB69013339
:10440400FB61BB690133BB61BA693B699A42E2D380
:10441400002318462437BD4680BC704780B48BB057
:1044240000AFF860B9601346FB80FB68BB61BB68F2
:104434007B62FB889B089BB27B61FB8803F00303D0
:10444400FB8300233B6214E0BB6903F580531A68C5
:104454007B6A1A607B6A01337B627B6A01337B620D
:104464007B6A01337B627B6A01337B623B6A013383
:104474003B623A6A7B699A42E6D3FB8B002B1ED0DF
:1044840000233B62BB6903F580531A4607F110030E
:1044940012681A603A693B6ADBB2DB0022FA03F362
:1044A400DAB27B6A1A703B6A01333B627B6A01337E
:1044B4007B62FB8B013BFB83FB8B002BEAD17B6A8A
:1044C40018462C37BD4680BC704780B485B000AF19
:1044D400786039607B68FB603B681B78BB603B6835
:1044E4005B78012B2CD1BB685A01FB68134403F59C
:1044F40010631B68002B12DBBB68002B0FD0BB685A
:104504005A01FB68134403F510631B68BA68510130
:10451400FA680A4402F5106223F080431360BB6812
:104524005A01FB68134403F510631B68BA68510110
:10453400FA680A4402F5106243F4001313602BE096
:10454400BB685A01FB68134403F530631B68002BF6
:1045540012DBBB68002B0FD0BB685A01FB68134405
:1045640003F530631B68BA685101FA680A4402F51E
:10457400306223F080431360BB685A01FB68134424
:1045840003F530631B68BA685101FA680A4402F5FE
:10459400306243F400131360002318461437BD46F9
:1045A40080BC704780B485B000AF786039607B68A8
:1045B400FB603B681B78BB603B685B78012B28D1B0
:1045C400BB685A01FB68134403F510631B68BA689F
:1045D4005101FA680A4402F5106223F400131360CF
:1045E4003B681B79032B03D03B681B79022B38D122
:1045F400BB685A01FB68134403F510631B68BA686F
:104604005101FA680A4402F5106243F080531360C2
:1046140027E0BB685A01FB68134403F530631B6849
:10462400BA685101FA680A4402F5306223F40013AF
:1046340013603B681B79032B03D03B681B79022B67
:104644000FD1BB685A01FB68134403F530631B6840
:10465400BA685101FA680A4402F5306243F08053A3
:104664001360002318461437BD4680BC704780B4DD
:1046740085B000AF78600B46FB707B68FB60FB681D
:1046840003F500631B68FA6802F5006223F4FE6315
:104694001360FB6803F500631A68FB781B0103F4DD
:1046A400FE63F96801F5006113430B6000231846AB
:1046B4001437BD4680BC704780B485B000AF7860C5
:1046C4007B68FB60FB6803F560631B68FA6802F5AE
:1046D400606223F003031360FB6803F500635B6807
:1046E400FA6802F5006223F00203536000231846BF
:1046F4001437BD4680BC704780B485B000AF786085
:104704007B68FB60FB6803F560631B68FA6802F56D
:10471400606223F003031360FB6803F500635B68C6
:10472400FA6802F5006243F002035360002318465E
:104734001437BD4680BC704780B485B000AF786044
:104744007B685B69FB607B689B69FA681340FB606C
:10475400FB6818461437BD4680BC704780B485B0EA
:1047640000AF78607B68FB60FB6803F500639B69BE
:10477400BB60FB6803F50063DB69BA681340BB6088
:10478400BB681B0C18461437BD4680BC704780B408
:1047940085B000AF78607B68FB60FB6803F500635D
:1047A4009B69BB60FB6803F50063DB69BA6813406F
:1047B400BB60BB689BB218461437BD4680BC7047CB
:1047C40080B485B000AF78600B46FB707B68FB60FB
:1047D400FB785A01FB68134403F530639B68BB60A4
:1047E400FB6803F500635B69BA681340BB60BB6890
:1047F40018461437BD4680BC704780B487B000AFFC
:1048040078600B46FB707B687B617B6903F5006312
:104814001B693B617B6903F500635B6BFB60FB78A1
:1048240003F00F03FA6822FA03F3DB01DBB23A69FF
:1048340013433B61FB785A017B69134403F510630E
:104844009B683A691340BB60BB6818461C37BD4679
:1048540080BC704780B483B000AF78607B685B69CC
:1048640003F0010318460C37BD4680BC704780B482
:1048740085B000AF78607B68FB60FB6803F510636C
:104884001B68FA6802F5106223F4FF6323F0070340
:104894001360FB6803F500635B68FA6802F5006265
:1048A40043F480735360002318461437BD4680BC1C
:1048B4007047000080B487B000AFF8600B467A60A0
:1048C400FB72FB687B61FB683C3304331B683B6110
:1048D4003B69254A93420AD97B6903F530631B6817
:1048E40003F00043B3F1004F01D1002337E07B69AB
:1048F40003F530631A46002313617B6903F53063C3
:104904001B697A6902F5306243F4002313617B6901
:1049140003F530631B697A6902F5306243F01803CA
:1049240013617B6903F530631B697A6902F53062B0
:1049340043F0C0431361FB7A012B0FD17B6903F56C
:1049440030631A467B6853617B6903F530631B68E7
:104954007A6902F5306243F080231360002318461D
:104964001C37BD4680BC70470A30544F80B485B0B4
:1049740000AF78600023FB60FB680133FB60FB68D9
:10498400124A934201D903231BE07B681B69002B65
:10499400F2DA0023FB607B681B6943F001027B6849
:1049A4001A61FB680133FB60FB68084A934201D932
:1049B400032306E07B681B6903F00103012BF0D09D
:1049C400002318461437BD4680BC7047400D0300D1
:1049D40080B584B000AF78600B46FB700023FB7396
:1049E4007B681B7C002B15D14FF4007302228121BC
:1049F400786801F048FF7B680122DA624FF40073A3
:104A040002220121786801F03EFF7B680122C3F88D
:104A14006C2112E0402302228121786801F033FFE7
:104A24007B680122DA62402302220121786801F0C6
:104A34002AFF7B680122C3F86C2108230322822108
:104A4400786801F020FF7B6801221A644FF4077034
:104A540002F06CF803461A467B68C3F8B8227B68F8
:104A6400D3F8B832002B02D10123FB7326E07B6814
:104A7400D3F8B832BB607B68D3F8BC321B68984764
:104A8400BB680022C3F81422BB680022C3F81822B2
:104A94007B681B7C002B09D1BB68D3F804224FF43C
:104AA40000730121786801F0DEFF07E0BB68D3F8EA
:104AB400042240230121786801F0D5FFFB7B1846CE
:104AC4001037BD4680BD80B584B000AF78600B461A
:104AD400FB700023FB738121786801F0FAFE7B6888
:104AE4000022DA620121786801F0F3FE7B6800227B
:104AF400C3F86C218221786801F0EBFE7B68002208
:104B04001A647B68D3F8B832002B0ED07B68D3F8D4
:104B1400BC325B6898477B68D3F8B832184602F019
:104B24000DF87B680022C3F8B822FB7B18461037C7
:104B3400BD4680BD80B586B000AF786039607B68C3
:104B4400D3F8B8323B610023FB730023BB810023FD
:104B5400FB753B681B7803F06003002B39D0202BD6
:104B64007FD13B68DB88002B29D03B681B785BB284
:104B7400002B11DA7B68D3F8BC329B683A68507812
:104B840039693A68D288984739693B68DB881A469C
:104B9400786801F042FA6BE03B685A783B6983F825
:104BA40000223B68DB88DAB23B6983F80122396969
:104BB4003B68DB881A46786801F05DFA58E07B6848
:104BC400D3F8BC329B683A68507800223968984719
:104BD4004EE03B685B780B2B2ED00B2B38DC002B84
:104BE40002D00A2B14D033E07B6893F89C32032B59
:104BF40007D107F10C0302221946786801F00DFA77
:104C04002EE03968786801F09EF90223FB7527E0ED
:104C14007B6893F89C32032B07D107F10F03012221
:104C24001946786801F0F9F91AE03968786801F0F2
:104C34008AF90223FB7513E07B6893F89C32032BFB
:104C44000DD03968786801F07EF90223FB7506E01F
:104C54003968786801F077F90223FB7500E000BF3A
:104C640006E03968786801F06EF90223FB7500BF2D
:104C7400FB7D18461837BD4680BD80B584B000AFB3
:104C840078600B46FB707B68D3F8B832FB607B68B6
:104C9400D3F8C032BB607B68D3F8B832002B3AD06B
:104CA400FA78796813469B0013449B000B441C3329
:104CB4001B68002B29D0FA78796813469B001344AB
:104CC4009B000B441C331A68F978B8680B46DB0068
:104CD4000B449B00034444331B68B2FBF3F101FB18
:104CE40003F3D31A002B10D1FA78796813469B008A
:104CF40013449B000B441C3300221A60F9780023F0
:104D04000022786801F08CFE03E0FB680022C3F8FF
:104D14001422002300E0022318461037BD4680BD4C
:104D240080B584B000AF78600B46FB707B68D3F825
:104D3400B832FB60FB781946786801F0B7FE02468A
:104D4400FB68C3F80C227B68D3F8B832002B0DD073
:104D54007B68D3F8BC32DB68FA68D2F80402FA68DC
:104D640002F5037211469847002300E00223184617
:104D74001037BD4680BD80B584B000AF78607B68D5
:104D8400D3F8B832FB607B68D3F8BC32002B15D063
:104D9400FB6893F80032FF2B10D07B68D3F8BC3249
:104DA4009B68FA6892F80002F968FA6892F801229E
:104DB40092B29847FB68FF2283F80022002318462A
:104DC4001037BD4680BD000080B483B000AF78606A
:104DD4007B6843221A80034B18460C37BD4680BCBF
:104DE400704700BF9400002080B483B000AF7860A7
:104DF4007B6843221A80034B18460C37BD4680BC9F
:104E0400704700BF5000002080B483B000AF7860CA
:104E14007B6843221A80034B18460C37BD4680BC7E
:104E2400704700BFD800002080B483B000AF786022
:104E34007B680A221A80034B18460C37BD4680BC97
:104E4400704700BF0C00002080B485B000AF7860CC
:104E540039600223FB733B68002B05D07B683A68FA
:104E6400C3F8BC220023FB73FB7B18461437BD46F2
:104E740080BC704780B487B000AFF860B960134657
:104E8400FB80FB68D3F8B8327B617B69BA68C3F8EE
:104E94000822FA887B69C3F81022002318461C37BD
:104EA400BD4680BC704780B485B000AF786039607F
:104EB4007B68D3F8B832FB60FB683A68C3F8042215
:104EC400002318461437BD4680BC704780B584B0B3
:104ED40000AF78607B68D3F8B832FB607B68D3F8A6
:104EE400B832002B1CD0FB68D3F81432002B15D138
:104EF400FB680122C3F81422FB68D3F810227B68F4
:104F04001A63FB68D3F80822FB68D3F810329BB20B
:104F14008121786801F084FD002302E0012300E090
:104F2400022318461037BD4680BD80B584B000AF5B
:104F340078607B68D3F8B832FB607B68D3F8B8320A
:104F4400002B17D07B681B7C002B09D1FB68D3F89E
:104F540004224FF400730121786801F084FD07E016
:104F6400FB68D3F8042240230121786801F07BFD1B
:104F7400002300E0022318461037BD4680BD80B5EB
:104F840084B000AFF860B9601346FB71FB68002B76
:104F940001D102231AE0FB68D3F8B432002B03D00A
:104FA400FB680022C3F8B422BB68002B03D0FB6863
:104FB400BA68C3F8B022FB68012283F89C22FB681C
:104FC400FA791A70F86801F0F9FB002318461037D3
:104FD400BD4680BD80B485B000AF786039600023E1
:104FE400FB733B68002B06D07B683A68C3F8B42295
:104FF4000023FB7301E00223FB73FB7B1846143789
:10500400BD4680BC704780B582B000AF78607868D8
:1050140001F01EFC002318460837BD4680BD80B44D
:1050240083B000AF7860002318460C37BD4680BCBF
:10503400704780B584B000AF78600B46FB700223E4
:10504400FB737B68D3F8B432002B0CD07B68D3F8A5
:10505400B4321B68FA781146786898470346002BE7
:1050640001D10023FB73FB7B18461037BD4680BD7E
:1050740080B582B000AF78600B46FB707B68D3F8D4
:10508400B4325B68FA78114678689847002318466A
:105094000837BD4680BD80B582B000AF7860396006
:1050A4007B6803F52A733968184600F010FF7B68A3
:1050B4000122C3F894227B68B3F8AE321A467B68A7
:1050C400C3F898227B6893F8A83203F01F03022BDD
:1050D40016D0022B1CD8002B02D0012B08D017E0CD
:1050E4007B6803F52A731946786800F003FA1AE01E
:1050F4007B6803F52A731946786800F065FA12E0B4
:105104007B6803F52A731946786800F0A5FA0AE06B
:105114007B6893F8A83223F07F03DBB219467868E2
:1051240001F0F6FB00BF002318460837BD4680BDDA
:1051340080B586B000AFF8600B467A60FB72FB7AEC
:10514400002B4BD1FB6803F5AA737B61FB68D3F892
:105154009432032B34D17B69DA687B691B699A42E8
:1051640019D97B69DA687B691B69D21A7B69DA60B1
:105174007B69DA687B691B699A4203D27B69DB68C5
:105184009BB202E07B691B699BB21A467968F86896
:1051940000F08FFF38E0FB68D3F8B4321B69002BB2
:1051A4000AD0FB6893F89C32032B05D1FB68D3F833
:1051B400B4321B69F8689847F86800F08CFF23E064
:1051C400FB68D3F89432052B1ED1FB680022C3F888
:1051D40094220021F86801F09BFB15E0FB68D3F8EA
:1051E400B4329B69002B0DD0FB6893F89C32032BDF
:1051F40008D1FB68D3F8B4329B69FA7A1146F8688F
:10520400984701E0022300E0002318461837BD4602
:1052140080BD80B586B000AFF8600B467A60FB7243
:10522400FB7A002B7FD1FB6814337B61FB68D3F8D6
:105234009432022B5CD17B69DA687B691B699A42E0
:1052440015D97B69DA687B691B69D21A7B69DA60D4
:105254007B69DB689BB21A467968F86800F0F9FE4E
:10526400002300220021F86801F0FDFB4EE07B6979
:105274009B687A691269B3FBF2F101FB02F29B1A93
:10528400002B1CD17B699A687B691B699A4216D3EF
:105294007B699A68FB68D3F898329A420FD200224D
:1052A4000021F86800F0D5FEFB680022C3F89822BC
:1052B400002300220021F86801F0D5FB26E0FB68FA
:1052C400D3F8B432DB68002B0AD0FB6893F89C3225
:1052D400032B05D1FB68D3F8B432DB68F868984730
:1052E4008021F86801F014FBF86800F007FF0DE076
:1052F400FB68D3F89432042B04D0FB68D3F89432BF
:10530400002B03D18021F86801F002FBFB6893F8BD
:10531400A032012B1DD1F868FFF781FEFB68002243
:1053240083F8A02215E0FB68D3F8B4325B69002B44
:105334000DD0FB6893F89C32032B08D1FB68D3F89B
:10534400B4325B69FA7A1146F868984701E002239F
:1053540000E0002318461837BD4680BD80B582B0F2
:1053640000AF7860402300220021786801F08BFAB6
:105374007B680122C3F858217B684022C3F864216A
:10538400402300228021786801F07DFA7B680122A5
:105394009A617B6840225A627B68012283F89C22CE
:1053A4007B680022C3F894227B6800225A607B68E1
:1053B4000022C3F8A4227B68D3F8B832002B09D0AA
:1053C4007B68D3F8B4325B687A685268D2B211460B
:1053D40078689847002318460837BD4680BD80B4D6
:1053E40083B000AF78600B46FB707B68FA781A7460
:1053F400002318460C37BD4680BC704780B483B088
:1054040000AF78607B6893F89C227B6883F89D22C8
:105414007B68042283F89C22002318460C37BD467F
:1054240080BC704780B483B000AF78607B6893F829
:105434009C32042B05D17B6893F89D227B6883F80A
:105444009C22002318460C37BD4680BC704780B5AB
:1054540082B000AF78607B6893F89C32032B0BD149
:105464007B68D3F8B432DB69002B05D07B68D3F8B2
:10547400B432DB6978689847002318460837BD467C
:1054840080BD80B483B000AF78600B46FB7000230E
:1054940018460C37BD4680BC704780B483B000AF5B
:1054A40078600B46FB70002318460C37BD4680BC61
:1054B400704780B483B000AF7860002318460C377F
:1054C400BD4680BC704780B582B000AF78607B6811
:1054D400012283F89C227B68D3F8B4325B687A6833
:1054E4005268D2B2114678689847002318460837A4
:1054F400BD4680BD80B584B000AF786039600023BC
:10550400FB733B681B7803F06003402B05D0402BF2
:105514004FD8002B09D0202B4BD17B68D3F8B43261
:105524009B6839687868984748E03B685B78092B42
:1055340039D801A252F823F08D550008A15500086E
:10554400AB55000897550008AB5500086F55000887
:1055540065550008AB5500088355000879550008C7
:105564003968786800F0DCF922E03968786800F07E
:105574003FFB1DE03968786800F07EFB18E039686D
:10558400786800F007FC13E03968786800F037FCAD
:105594000EE03968786800F065FC09E039687868DD
:1055A40000F074FC04E03968786800F0CCFC00BFBB
:1055B40004E03968786800F0C6FC00BFFB7B18463D
:1055C4001037BD4680BD00BF80B584B000AF7860A1
:1055D40039600023FB733B681B7803F06003402BA6
:1055E40005D0402B2ED8002B01D0202B2AD17B684C
:1055F40093F89C32013B022B1DD83B689B88DBB29D
:10560400012B13D87B68D3F8B4329B683968786867
:1056140098470346FB733B68DB88002B10D1FB7B68
:10562400002B0DD1786800F056FD09E039687868E0
:1056340000F089FC04E03968786800F084FC00E03C
:1056440000BF04E03968786800F07DFC00BF0023E7
:1056540018461037BD4680BD80B584B000AF786071
:1056640039600023FB733B689B88BB733B681B78E2
:1056740003F06003402B07D0402B00F24681002B3F
:105684000AD0202B40F041817B68D3F8B4329B6868
:105694003968786898473DE13B681B7803F06003FC
:1056A400202B0AD17B68D3F8B4329B6839687868B8
:1056B40098470346FB73FB7B2DE13B685B78032B28
:1056C40007D0032B00F31B81002B72D0012B3AD09F
:1056D40015E17B6893F89C32022B02D0032B15D082
:1056E4002BE0BB7B002B0CD0BB7B802B09D0BB7B7E
:1056F4001946786801F00CF98021786801F008F9FE
:1057040020E03968786800F01EFC1BE03B685B8889
:10571400002B0ED1BB7B002B0BD0BB7B802B08D086
:105724003B68DB88002B04D1BB7B1946786801F009
:10573400EFF8786800F0CFFC04E03968786800F08E
:1057440002FC00BFE0E07B6893F89C32022B02D09D
:10575400032B15D026E0BB7B002B0CD0BB7B802B0E
:1057640009D0BB7B1946786801F0D2F880217868AB
:1057740001F0CEF81CE03968786800F0E4FB17E02B
:105784003B685B88002B12D1BB7B03F07F03002BAB
:1057940004D0BB7B1946786801F0D9F8786800F02A
:1057A4009AFC04E03968786800F0CDFB00E000BFA3
:1057B400AAE07B6893F89C32022B02D0032B32D0F0
:1057C40097E0BB7B002B07D0BB7B802B04D03968D0
:1057D400786800F0B8FB91E097F90E30002B0BDAF3
:1057E400BB7B03F07F0213469B0013449B001033E2
:1057F4007A68134404330BE0BB7B03F07F02134647
:105804009B0013449B0003F5A8737A681344043384
:10581400BB60BB6800221A60BB6802221946786824
:1058240000F0FBFB6AE097F90E30002B11DABB7B2A
:1058340003F00F02796813469B0013449B000B444A
:1058440018331B68002B17D13968786800F07BFB8C
:1058540054E0BB7B03F00F02796813469B001344AA
:105864009B000B4403F5AC731B68002B04D139680F
:10587400786800F068FB41E097F90E30002B0BDAF2
:10588400BB7B03F07F0213469B0013449B00103341
:105894007A68134404330BE0BB7B03F07F021346A6
:1058A4009B0013449B0003F5A8737A6813440433E4
:1058B400BB60BB7B002B02D0BB7B802B03D1BB68BE
:1058C40000221A600EE0BB7B1946786801F05EF88E
:1058D4000346002B03D0BB6801221A6002E0BB68B8
:1058E40000221A60BB6802221946786800F095FB12
:1058F40004E03968786800F026FB00BF04E03968EA
:10590400786800F020FB00BF04E03968786800F094
:105914001AFB00BFFB7B18461037BD4680BD000054
:1059240080B584B000AF7860396000233B810023E8
:10593400FB600023FB723B685B881B0A9BB2013B44
:10594400062B00F2288101A252F823F06D590008B9
:1059540085590008C55900089B5B00089B5B00083B
:105964003B5B0008675B00087B68D3F8B0321B68B8
:105974007A68127C07F1080110469847F86012E132
:105984007B681B7C002B0DD17B68D3F8B4329B6AF7
:1059940007F1080210469847F860FB6801330222B9
:1059A4001A7000E17B68D3F8B432DB6A07F10802AD
:1059B40010469847F860FB68013302221A70F2E03F
:1059C4003B685B88DBB2052B00F2AC8001A252F885
:1059D40023F000BFF1590008255A0008595A00085D
:1059E4008D5A0008C15A0008F55A00087B68D3F89C
:1059F400B0325B68002B0BD07B68D3F8B0325B68A5
:105A04007A68127C07F1080110469847F86091E023
:105A14003968786800F097FAFB7A0133FB7289E001
:105A24007B68D3F8B0329B68002B0BD07B68D3F82B
:105A3400B0329B687A68127C07F1080110469847D7
:105A4400F86077E03968786800F07DFAFB7A013312
:105A5400FB726FE07B68D3F8B032DB68002B0BD0AD
:105A64007B68D3F8B032DB687A68127C07F10801EE
:105A740010469847F8605DE03968786800F063FA8A
:105A8400FB7A0133FB7255E07B68D3F8B0321B69B3
:105A9400002B0BD07B68D3F8B0321B697A68127C78
:105AA40007F1080110469847F86043E039687868C0
:105AB40000F049FAFB7A0133FB723BE07B68D3F8D0
:105AC400B0325B69002B0BD07B68D3F8B0325B69D2
